{"contracts/AxepVoting_Simple.sol":{"AxepVoting":{"abi":[{"inputs":[{"internalType":"address","name":"_tokenAddress","type":"address"}],"stateMutability":"nonpayable","type":"constructor"},{"anonymous":false,"inputs":[{"indexed":true,"internalType":"uint256","name":"artistId","type":"uint256"},{"indexed":false,"internalType":"string","name":"name","type":"string"},{"indexed":true,"internalType":"address","name":"artistWallet","type":"address"}],"name":"ArtistRegistered","type":"event"},{"anonymous":false,"inputs":[{"indexed":true,"internalType":"uint256","name":"trackId","type":"uint256"},{"indexed":true,"internalType":"address","name":"sharer","type":"address"},{"indexed":false,"internalType":"string","name":"shareUrl","type":"string"}],"name":"ShareRecorded","type":"event"},{"anonymous":false,"inputs":[{"indexed":true,"internalType":"uint256","name":"trackId","type":"uint256"},{"indexed":true,"internalType":"address","name":"distributor","type":"address"}],"name":"ShareRewardsDistributed","type":"event"},{"anonymous":false,"inputs":[{"indexed":true,"internalType":"uint256","name":"trackId","type":"uint256"},{"indexed":true,"internalType":"uint256","name":"artistId","type":"uint256"},{"indexed":false,"internalType":"string","name":"title","type":"string"},{"indexed":false,"internalType":"string","name":"genre","type":"string"},{"indexed":false,"internalType":"string","name":"videoUrl","type":"string"}],"name":"TrackUploaded","type":"event"},{"anonymous":false,"inputs":[{"indexed":true,"internalType":"uint256","name":"trackId","type":"uint256"},{"indexed":true,"internalType":"address","name":"voter","type":"address"}],"name":"Voted","type":"event"},{"inputs":[{"internalType":"uint256","name":"","type":"uint256"}],"name":"allTrackIds","outputs":[{"internalType":"uint256","name":"","type":"uint256"}],"stateMutability":"view","type":"function"},{"inputs":[{"internalType":"address","name":"","type":"address"}],"name":"artistIdByWallet","outputs":[{"internalType":"uint256","name":"","type":"uint256"}],"stateMutability":"view","type":"function"},{"inputs":[{"internalType":"uint256","name":"","type":"uint256"}],"name":"artists","outputs":[{"internalType":"uint256","name":"id","type":"uint256"},{"internalType":"string","name":"name","type":"string"},{"internalType":"address payable","name":"artistWallet","type":"address"},{"internalType":"bool","name":"isRegistered","type":"bool"}],"stateMutability":"view","type":"function"},{"inputs":[],"name":"axpToken","outputs":[{"internalType":"contract IERC20","name":"","type":"address"}],"stateMutability":"view","type":"function"},{"inputs":[{"internalType":"uint256","name":"_trackId","type":"uint256"},{"internalType":"address[]","name":"_recipients","type":"address[]"}],"name":"batchDistributeShareRewards","outputs":[],"stateMutability":"nonpayable","type":"function"},{"inputs":[{"internalType":"address[]","name":"artistWallets","type":"address[]"},{"internalType":"string[]","name":"artistNames","type":"string[]"},{"internalType":"string[]","name":"trackTitles","type":"string[]"},{"internalType":"string[]","name":"genres","type":"string[]"},{"internalType":"string[]","name":"videoUrls","type":"string[]"},{"internalType":"string[]","name":"coverImageUrls","type":"string[]"}],"name":"batchRegisterAndUpload","outputs":[],"stateMutability":"nonpayable","type":"function"},{"inputs":[],"name":"getAllTrackIds","outputs":[{"internalType":"uint256[]","name":"","type":"uint256[]"}],"stateMutability":"view","type":"function"},{"inputs":[{"internalType":"uint256","name":"artistId","type":"uint256"}],"name":"getArtist","outputs":[{"components":[{"internalType":"uint256","name":"id","type":"uint256"},{"internalType":"string","name":"name","type":"string"},{"internalType":"address payable","name":"artistWallet","type":"address"},{"internalType":"bool","name":"isRegistered","type":"bool"}],"internalType":"struct AxepVoting.Artist","name":"","type":"tuple"}],"stateMutability":"view","type":"function"},{"inputs":[],"name":"getOfficialGenres","outputs":[{"internalType":"string[]","name":"","type":"string[]"}],"stateMutability":"view","type":"function"},{"inputs":[{"internalType":"uint256","name":"trackId","type":"uint256"}],"name":"getTrack","outputs":[{"components":[{"internalType":"uint256","name":"id","type":"uint256"},{"internalType":"uint256","name":"artistId","type":"uint256"},{"internalType":"string","name":"title","type":"string"},{"internalType":"string","name":"genre","type":"string"},{"internalType":"string","name":"videoUrl","type":"string"},{"internalType":"string","name":"coverImageUrl","type":"string"},{"internalType":"uint256","name":"uploadTimestamp","type":"uint256"},{"internalType":"uint256","name":"votes","type":"uint256"}],"internalType":"struct AxepVoting.Track","name":"","type":"tuple"}],"stateMutability":"view","type":"function"},{"inputs":[{"internalType":"string","name":"genre","type":"string"}],"name":"getTrackIdsByGenre","outputs":[{"internalType":"uint256[]","name":"","type":"uint256[]"}],"stateMutability":"view","type":"function"},{"inputs":[{"internalType":"uint256","name":"","type":"uint256"}],"name":"officialGenres","outputs":[{"internalType":"string","name":"","type":"string"}],"stateMutability":"view","type":"function"},{"inputs":[],"name":"owner","outputs":[{"internalType":"address","name":"","type":"address"}],"stateMutability":"view","type":"function"},{"inputs":[{"internalType":"uint256","name":"","type":"uint256"},{"internalType":"address","name":"","type":"address"}],"name":"proofOfShares","outputs":[{"internalType":"string","name":"","type":"string"}],"stateMutability":"view","type":"function"},{"inputs":[{"internalType":"uint256","name":"_trackId","type":"uint256"},{"internalType":"string","name":"_shareUrl","type":"string"}],"name":"recordShare","outputs":[],"stateMutability":"nonpayable","type":"function"},{"inputs":[{"internalType":"string","name":"artistName","type":"string"},{"internalType":"string","name":"trackTitle","type":"string"},{"internalType":"string","name":"genre","type":"string"},{"internalType":"string","name":"videoUrl","type":"string"},{"internalType":"string","name":"coverImageUrl","type":"string"}],"name":"registerArtistAndUploadFirstTrack","outputs":[],"stateMutability":"nonpayable","type":"function"},{"inputs":[{"internalType":"uint256","name":"","type":"uint256"},{"internalType":"address","name":"","type":"address"}],"name":"rewardedShares","outputs":[{"internalType":"bool","name":"","type":"bool"}],"stateMutability":"view","type":"function"},{"inputs":[{"internalType":"uint256","name":"_newAmount","type":"uint256"}],"name":"setShareRewardAmount","outputs":[],"stateMutability":"nonpayable","type":"function"},{"inputs":[],"name":"shareRewardAmount","outputs":[{"internalType":"uint256","name":"","type":"uint256"}],"stateMutability":"view","type":"function"},{"inputs":[{"internalType":"uint256","name":"","type":"uint256"}],"name":"tracks","outputs":[{"internalType":"uint256","name":"id","type":"uint256"},{"internalType":"uint256","name":"artistId","type":"uint256"},{"internalType":"string","name":"title","type":"string"},{"internalType":"string","name":"genre","type":"string"},{"internalType":"string","name":"videoUrl","type":"string"},{"internalType":"string","name":"coverImageUrl","type":"string"},{"internalType":"uint256","name":"uploadTimestamp","type":"uint256"},{"internalType":"uint256","name":"votes","type":"uint256"}],"stateMutability":"view","type":"function"},{"inputs":[{"internalType":"uint256","name":"trackId","type":"uint256"}],"name":"voteForTrack","outputs":[],"stateMutability":"nonpayable","type":"function"},{"inputs":[],"name":"withdraw","outputs":[],"stateMutability":"nonpayable","type":"function"}],"evm":{"bytecode":{"linkReferences":{},"object":"60803461024a57601f61270138819003918201601f19168301916001600160401b038311848410176102075780849260209460405283398101031261024a57516001600160a01b0381169081900361024a57600080546001600160a01b0319908116331790915560018054909116919091179055681b1ae4d6e2ef500000600a5560025468010000000000000000811015610207578060016100a4920160025561024f565b6101f1576100bb6100b58254610280565b826102ba565b6006620506f760ec1b01905560025468010000000000000000811015610207578060016100eb920160025561024f565b6101f1576100fc6100b58254610280565b60086314dbdd5b60e21b019055600254680100000000000000008110156102075780600161012d920160025561024f565b6101f15761013e6100b58254610280565b600863526f636b60e01b019055600254680100000000000000008110156102075780600161016f920160025561024f565b6101f15761017d8154610280565b601f811161021d575b50600e66436f756e74727960c81b01905560025468010000000000000000811015610207578060016101bb920160025561024f565b6101f1576101cc6100b58254610280565b60066205241560ec1b0190556001600581905560075560405161241090816102f18239f35b634e487b7160e01b600052600060045260246000fd5b634e487b7160e01b600052604160045260246000fd5b81600052601f6020600020910160051c8101905b81811061023e5750610186565b60008155600101610231565b600080fd5b60025481101561026a57600260005260206000200190600090565b634e487b7160e01b600052603260045260246000fd5b90600182811c921680156102b0575b602083101461029a57565b634e487b7160e01b600052602260045260246000fd5b91607f169161028f565b601f82116102c6575050565b600052601f6020600020910160051c8101905b8181106102e4575050565b600081556001016102d956fe610120604052600436101561001357600080fd5b60003560e01c806302f7120514611d53578063280a37cb14611d355780632eb6678a1461151a5780633ccfd60b1461148f57806352da0c9d1461145157806355c13ec314611428578063629058ca146112c757806365e71ae8146112755780636799194514611214578063811dd0e21461114a5780638da5cb5b146111215780638fb433af14610f465780639be9fcbb14610ef95780639c75623714610e05578063a2e3458614610d3b578063c3a3c0a214610cac578063cd7e10c114610c39578063db94da1814610bc6578063df6f321e14610b3f578063e7c2ab96146108a1578063ee5cec86146101425763ff9eed7e1461010f57600080fd5b3461013d57602036600319011261013d5761013560018060a01b03600054163314612008565b600435600a55005b600080fd5b3461013d5760a036600319011261013d576004356001600160401b03811161013d57610172903690600401611fa1565b6024356001600160401b03811161013d57610191903690600401611fa1565b6044929192356001600160401b03811161013d576101b3903690600401611fa1565b6064929192356001600160401b03811161013d576101d5903690600401611fa1565b9190966084356001600160401b03811161013d576101f7903690600401611fa1565b6080529533600052600460205260406000205461085c5761021883876122b2565b156108265760055460a05261022e60a0516121bf565b60055560405161023d81611deb565b60a051815261024d3683856121ce565b602082019081523360408301526001606083015260a051600052600360205260406000209082518255518051906001600160401b03821161065e576102a2826102996001860154611db1565b6001860161214c565b602090601f83116001146107b45791806102d79260029594600092610674575b50508160011b916000199060031b1c19161790565b60018201555b019060018060a01b03604082015116825491606060ff60a01b910151151560a01b16916affffffffffffffffffffff60a81b161717905533600052600460205260a0516040600020557f8443301405f337e5d871773f81107fb07d77d5f08fd2a5c7157a9c89951268ab6040516020815280610362339560a05195602084019161219e565b0390a360075494610372866121bf565b6007556040519061038282611e06565b868252602082019060a051825261039a36878b6121ce565b90604084019182526103ad36868a6121ce565b60608501908152906103d66103c336898f6121ce565b91608087019283523690608051906121ce565b9160a0860192835260c086019342855260e0870195600087528c60005260066020526040600020975188555160018801556002870190518051906001600160401b03821161065e576104328261042c8554611db1565b8561214c565b602090601f831160011461074d576104629291600091836105cf5750508160011b916000199060031b1c19161790565b90555b51805160038701916001600160401b03821161065e576104898261042c8554611db1565b602090601f83116001146106e6576104b99291600091836105cf5750508160011b916000199060031b1c19161790565b90555b51805160048601916001600160401b03821161065e576104e08261042c8554611db1565b602090601f831160011461067f576105109291600091836106745750508160011b916000199060031b1c19161790565b90555b51805160058501916001600160401b03821161065e576105378261042c8554611db1565b602090601f83116001146105da5792610586836000805160206123bb8339815191529d9e9f989693946105ca9b9a98956007976000926105cf5750508160011b916000199060031b1c19161790565b90555b516006840155519101556105b188604051838982376020818581016008815203019020612252565b6105ba88612214565b60405195869560a0519a87612275565b0390a3005b0151905038806102c2565b90601f1983169184600052816000209260005b8181106106465750936000805160206123bb8339815191529d9e9f98969360079693600193836105ca9e9d9b981061062d575b505050811b019055610589565b015160001960f88460031b161c19169055388080610620565b929360206001819287860151815501950193016105ed565b634e487b7160e01b600052604160045260246000fd5b015190508f806102c2565b90601f1983169184600052816000209260005b8181106106ce57509084600195949392106106b5575b505050811b019055610513565b015160001960f88460031b161c191690558e80806106a8565b92936020600181928786015181550195019301610692565b90601f1983169184600052816000209260005b818110610735575090846001959493921061071c575b505050811b0190556104bc565b015160001960f88460031b161c191690558f808061070f565b929360206001819287860151815501950193016106f9565b90601f1983169184600052816000209260005b81811061079c5750908460019594939210610783575b505050811b019055610465565b015160001960f88460031b161c19169055388080610776565b92936020600181928786015181550195019301610760565b9060018401600052806000209160005b601f198516811061080e575091839160019360029695601f198116106107f5575b505050811b0160018201556102dd565b015160001960f88460031b161c191690558e80806107e5565b919260206001819286850151815501940192016107c4565b60405162461bcd60e51b815260206004820152600e60248201526d24b73b30b634b21033b2b739329760911b6044820152606490fd5b60405162461bcd60e51b815260206004820152601a60248201527f41727469737420616c726561647920726567697374657265642e0000000000006044820152606490fd5b3461013d57604036600319011261013d576004356024356001600160401b03811161013d576108d4903690600401611f28565b6108ec60018060a09594951b03600054163314612008565b600a546001546040516370a0823160e01b815230600482015291929190602090829060249082906001600160a01b03165afa908115610a6957600091610b0d575b5081830290838204831484151715610af75710610aa25760005b8181106109775733847ff77e05dfacf7f446845eb8e90bd8a9feb80574445b3de6bfd146ad7920e33829600080a3005b61098a6109858284886120a3565b6120b3565b84600052600b6020526109b460408060002060009060018060a01b03851682526020522054611db1565b151580610a75575b6109ca575b50600101610947565b6000858152600c602090815260408083206001600160a01b03948516808552908352818420805460ff1916600190811790915554915163a9059cbb60e01b81526004810191909152602481018890529391928492604492849291165af18015610a6957156109c1576020813d8211610a61575b81610a4a60209383611e22565b8101031261013d57518015150361013d57856109c1565b3d9150610a3d565b6040513d6000823e3d90fd5b506000858152600c602090815260408083206001600160a01b038516845290915290205460ff16156109bc565b60405162461bcd60e51b815260206004820152602760248201527f496e73756666696369656e7420746f6b656e2062616c616e636520696e20636f604482015266373a3930b1ba1760c91b6064820152608490fd5b634e487b7160e01b600052601160045260246000fd5b90506020813d602011610b37575b81610b2860209383611e22565b8101031261013d57518561092d565b3d9150610b1b565b3461013d57600036600319011261013d5760405180602060095491828152019060096000527f6e1540171b6c0c960b71a7020d9f60077f6af931a8bbf590da0223dacf75c7af9060005b818110610bb057610bac85610ba081870382611e22565b60405191829182611fce565b0390f35b8254845260209093019260019283019201610b89565b3461013d57602036600319011261013d57600435806000526006602052610bf36040600020541515612108565b8060005260066020526007604060002001610c0e81546121bf565b905533907f030b0f8dcd86a031eddb071f91882edeac8173663ba775713b677b42b51be44b600080a3005b3461013d57602036600319011261013d576004356000526003602052604060002080546002610c6a60018401611e43565b92015460ff610c8b6040519485948552608060208601526080850190611ee7565b6001600160a01b038316604085015260a09290921c16151560608301520390f35b3461013d57602036600319011261013d576004356001600160401b03811161013d57610cde6020913690600401611fa1565b91908260405193849283378101600881520301902060405190816020825491828152019160005260206000209060005b818110610d2557610bac85610ba081870382611e22565b8254845260209093019260019283019201610d0e565b3461013d57602036600319011261013d57600435600052600660205260406000208054600182015491610d7060028201611e43565b610df6610d7f60038401611e43565b610de8610d8e60048601611e43565b610dda610d9d60058801611e43565b93610dcc600760068a0154990154976040519b8c9b8c5260208c015261010060408c01526101008b0190611ee7565b9089820360608b0152611ee7565b908782036080890152611ee7565b9085820360a0870152611ee7565b9160c084015260e08301520390f35b3461013d57600036600319011261013d576002546001600160401b03811161065e5760405190610e3b60208260051b0183611e22565b80825260208201908160026000527f405787fa12a823e0f2b7631cc41b3ba8828b3321ca811111fa75cd3aa3bb5ace6000915b838310610edc57848660405191829160208301906020845251809152604083019060408160051b85010192916000905b828210610ead57505050500390f35b91936001919395506020610ecc8192603f198a82030186528851611ee7565b9601920192018594939192610e9e565b600160208192610eeb85611e43565b815201920192019190610e6e565b3461013d57604036600319011261013d57610f12611d9b565b600435600052600c60205260406000209060018060a01b0316600052602052602060ff604060002054166040519015158152f35b3461013d57604036600319011261013d576004356024356001600160401b03811161013d57610f79903690600401611fa1565b9190816000526006602052610f946040600020541515612108565b82156110dc576000828152600b6020908152604080832033845290915290206001600160401b03841161065e57610fd584610fcf8354611db1565b8361214c565b836000601f821160011461104f579161102b827fa75737a36d3872da22ff33e9ff498f19f9ccd60bfdbc6b85ccc2fb8e4eb1e24495936105ca95600091611044575b508160011b916000199060031b1c19161790565b90555b604051918291602083523396602084019161219e565b905084013589611017565b82815260208120915085601f198116825b8181106110c15750917fa75737a36d3872da22ff33e9ff498f19f9ccd60bfdbc6b85ccc2fb8e4eb1e2449593916105ca9593106110a7575b5050600186811b01905561102e565b830135600019600389901b60f8161c191690558680611098565b86840135855560019094019360209384019389935001611060565b60405162461bcd60e51b815260206004820152601a60248201527f53686172652055524c2063616e6e6f7420626520656d7074792e0000000000006044820152606490fd5b3461013d57600036600319011261013d576000546040516001600160a01b039091168152602090f35b3461013d57602036600319011261013d576000606060405161116b81611deb565b82815281602082015282604082015201526004356000526003602052604060002060405161119881611deb565b8154815260026111aa60018401611e43565b92602083019384520154604082019060018060a01b038116825260ff606084019160a01c16151581526111f860405194859460208652516020860152516080604086015260a0850190611ee7565b91516001600160a01b0316606084015251151560808301520390f35b3461013d57602036600319011261013d5760043560025481101561013d5761123b90611f58565b61125f5761124b610bac91611e43565b604051918291602083526020830190611ee7565b634e487b7160e01b600052600060045260246000fd5b3461013d57602036600319011261013d5760043560095481101561013d576000906009548110156112b3576020826009829452200154604051908152f35b634e487b7160e01b82526032600452602482fd5b3461013d57602036600319011261013d57600060e06040516112e881611e06565b8281528260208201526060604082015260608082015260606080820152606060a08201528260c082015201526004356000526006602052604060002060405161133081611e06565b815481526001820154916020820192835261134d60028201611e43565b6040830190815261141661136360038401611e43565b6060850190815261140361137960048601611e43565b608087019081526113f061138f60058801611e43565b9360a089019485526113dd600760068a01549960c08c019a8b5201549760e08b019889526040519b8c9b60208d525160208d01525160408c01525161010060608c01526101208b0190611ee7565b9051898203601f190160808b0152611ee7565b9051878203601f190160a0890152611ee7565b9051858203601f190160c0870152611ee7565b915160e0840152516101008301520390f35b3461013d57600036600319011261013d576001546040516001600160a01b039091168152602090f35b3461013d57602036600319011261013d576004356001600160a01b0381169081900361013d5760005260046020526020604060002054604051908152f35b3461013d57600036600319011261013d576000546001600160a01b0316338190036114d55760008080809347908282156114cc575bf115610a6957005b506108fc6114c4565b60405162461bcd60e51b815260206004820152601860248201527f4f6e6c79206f776e65722063616e2077697468647261772e00000000000000006044820152606490fd5b3461013d5760c036600319011261013d576004356001600160401b03811161013d5761154a903690600401611f28565b906024356001600160401b03811161013d5761156a903690600401611f28565b6044356001600160401b03811161013d57611589903690600401611f28565b9490926064356001600160401b03811161013d576115ab903690600401611f28565b946084356001600160401b03811161013d576115cb903690600401611f28565b98909460a4356001600160401b03811161013d576115ed903690600401611f28565b95909461160560018060a01b03600054163314612008565b61161089841461205f565b61161b84841461205f565b6116268a841461205f565b6116318c841461205f565b61163c87841461205f565b60005b83811061164857005b8a8a8e8b8f8b8b8b8f93898b818f8f826116668180989481956120a3565b61166f906120b3565b9d611679926120c7565b966116859291986120c7565b60c0529b611692926120c7565b9861169e9291986120c7565b956116aa9291956120c7565b9060e05296600160a01b60019003811660005260046020526040600020541580611d25575b6116e5575b50505050505050505060010161163f565b600554610100526116f8610100516121bf565b60055560405161170781611deb565b6101005181526117183684866121ce565b6020820190815260018060a01b03831660408301526001606083015261010051600052600360205260406000209082518255518051906001600160401b03821161065e5761176d826102996001860154611db1565b602090601f8311600114611c8d57926117c78361184196946002947f8443301405f337e5d871773f81107fb07d77d5f08fd2a5c7157a9c89951268ab99976000926105cf5750508160011b916000199060031b1c19161790565b60018201555b019060018060a01b03604082015116825491606060ff60a01b910151151560a01b16916affffffffffffffffffffff60a81b161717905560018060a01b0381166000526004602052610100516040600020556040519182916020835260018060a01b0316956101005195602084019161219e565b0390a360075494611851866121bf565b60075560405161186081611e06565b868152602081019161010051835261187b3660c0518b6121ce565b906040830191825261188e3689896121ce565b606084019081526118b56118a33689896121ce565b9260808601938452369060e0516121ce565b9260a085019384524260c0860152600060e08601528a6000526006602052604060002095855187555160018701556002860190518051906001600160401b03821161065e576119088261042c8554611db1565b602090601f8311600114611c26576119389291600091836105cf5750508160011b916000199060031b1c19161790565b90555b51805160038601916001600160401b03821161065e5761195f8261042c8554611db1565b602090601f8311600114611bbf5761198f9291600091836105cf5750508160011b916000199060031b1c19161790565b90555b51805160048501916001600160401b03821161065e576119b68261042c8554611db1565b602090601f8311600114611b58576119e69291600091836105cf5750508160011b916000199060031b1c19161790565b90555b518051906001600160401b03821161065e57611a1582611a0c6005870154611db1565b6005870161214c565b602090601f8311600114611ac95760e060019c9b9a999794611a67856000805160206123bb8339815191529b9996611ab899966007966000926105cf5750508160011b916000199060031b1c19161790565b60058501555b60c081015160068501550151910155611a9a87604051878782376020818981016008815203019020612252565b611aa387612214565b604051948594610100519960c0519087612275565b0390a3908e808080808080806116d4565b9060058501600052806000209160005b601f1985168110611b40575060019c9b9a9997948d85611ab8989560079560e0956000805160206123bb8339815191529e9c99601f19811610611b27575b505050811b016005850155611a6d565b015160001960f88460031b161c19169055388080611b17565b91926020600181928685015181550194019201611ad9565b90601f1983169184600052816000209260005b818110611ba75750908460019594939210611b8e575b505050811b0190556119e9565b015160001960f88460031b161c19169055388080611b81565b92936020600181928786015181550195019301611b6b565b90601f1983169184600052816000209260005b818110611c0e5750908460019594939210611bf5575b505050811b019055611992565b015160001960f88460031b161c19169055388080611be8565b92936020600181928786015181550195019301611bd2565b90601f1983169184600052816000209260005b818110611c755750908460019594939210611c5c575b505050811b01905561193b565b015160001960f88460031b161c19169055388080611c4f565b92936020600181928786015181550195019301611c39565b9060018401600052806000209160005b601f1985168110611d0d5750836002937f8443301405f337e5d871773f81107fb07d77d5f08fd2a5c7157a9c89951268ab9896936001936118419997601f19811610611cf4575b505050811b0160018201556117cd565b015160001960f88460031b161c19169055388080611ce4565b91926020600181928685015181550194019201611c9d565b50611d3087876122b2565b6116cf565b3461013d57600036600319011261013d576020600a54604051908152f35b3461013d57604036600319011261013d57611d6c611d9b565b600435600052600b60205260406000209060018060a01b0316600052602052610bac61124b6040600020611e43565b602435906001600160a01b038216820361013d57565b90600182811c92168015611de1575b6020831014611dcb57565b634e487b7160e01b600052602260045260246000fd5b91607f1691611dc0565b608081019081106001600160401b0382111761065e57604052565b61010081019081106001600160401b0382111761065e57604052565b90601f801991011681019081106001600160401b0382111761065e57604052565b9060405191826000825492611e5784611db1565b8084529360018116908115611ec55750600114611e7e575b50611e7c92500383611e22565b565b90506000929192526020600020906000915b818310611ea9575050906020611e7c9282010138611e6f565b6020919350806001915483858901015201910190918492611e90565b905060209250611e7c94915060ff191682840152151560051b82010138611e6f565b919082519283825260005b848110611f13575050826000602080949584010152601f8019910116010190565b80602080928401015182828601015201611ef2565b9181601f8401121561013d578235916001600160401b03831161013d576020808501948460051b01011161013d57565b600254811015611f7357600260005260206000200190600090565b634e487b7160e01b600052603260045260246000fd5b8054821015611f735760005260206000200190600090565b9181601f8401121561013d578235916001600160401b03831161013d576020838186019501011161013d57565b602060408183019282815284518094520192019060005b818110611ff25750505090565b8251845260209384019390920191600101611fe5565b1561200f57565b60405162461bcd60e51b815260206004820152602260248201527f4f6e6c79206f776e65722063616e2063616c6c20746869732066756e6374696f604482015261371760f11b6064820152608490fd5b1561206657565b60405162461bcd60e51b8152602060048201526015602482015274082e4e4c2f240d8cadccee8d040dad2e6dac2e8c6d605b1b6044820152606490fd5b9190811015611f735760051b0190565b356001600160a01b038116810361013d5790565b9190811015611f735760051b81013590601e198136030182121561013d5701908135916001600160401b03831161013d57602001823603811361013d579190565b1561210f57565b60405162461bcd60e51b81526020600482015260156024820152742a3930b1b5903237b2b9903737ba1032bc34b9ba1760591b6044820152606490fd5b601f821161215957505050565b6000526020600020906020601f840160051c83019310612194575b601f0160051c01905b818110612188575050565b6000815560010161217d565b9091508190612174565b908060209392818452848401376000828201840152601f01601f1916010190565b6000198114610af75760010190565b9291926001600160401b03821161065e57604051916121f7601f8201601f191660200184611e22565b82948184528183011161013d578281602093846000960137010152565b60095490600160401b82101561065e57612239826001611e7c94016009556009611f89565b90919082549060031b91821b91600019901b1916179055565b90815491600160401b83101561065e5782612239916001611e7c95018155611f89565b949290936122936122af97956122a19460608952606089019161219e565b91868303602088015261219e565b92604081850391015261219e565b90565b600254919060005b8381106122ca5750505050600090565b6122d381611f58565b5060405160208101918160008254926122eb84611db1565b936001811690811561239c575060011461235a575b50612314925003601f198101835282611e22565b5190206040516020810190858583376123416020828881016000838201520301601f198101835282611e22565b51902014612351576001016122ba565b50505050600190565b9150506000528160206000206000905b83821061238257505060206123149282010138612300565b60209192508060019154838588010152019101839161236a565b60ff191687525061231493801515028301602001915038905061230056fe39628c05242773d13ef5deaadb11828a34886bb12e6fef9357c4ea00d1587381a26469706673582212202ed9c595d7ad092c508bb9870a85f469b3245d81619bf0a4aead3d9c3faae34764736f6c634300081e0033","opcodes":"PUSH1 0x80 CALLVALUE PUSH2 0x24A JUMPI PUSH1 0x1F PUSH2 0x2701 CODESIZE DUP2 SWAP1 SUB SWAP2 DUP3 ADD PUSH1 0x1F NOT AND DUP4 ADD SWAP2 PUSH1 0x1 PUSH1 0x1 PUSH1 0x40 SHL SUB DUP4 GT DUP5 DUP5 LT OR PUSH2 0x207 JUMPI DUP1 DUP5 SWAP3 PUSH1 0x20 SWAP5 PUSH1 0x40 MSTORE DUP4 CODECOPY DUP2 ADD SUB SLT PUSH2 0x24A JUMPI MLOAD PUSH1 0x1 PUSH1 0x1 PUSH1 0xA0 SHL SUB DUP2 AND SWAP1 DUP2 SWAP1 SUB PUSH2 0x24A JUMPI PUSH1 0x0 DUP1 SLOAD PUSH1 0x1 PUSH1 0x1 PUSH1 0xA0 SHL SUB NOT SWAP1 DUP2 AND CALLER OR SWAP1 SWAP2 SSTORE PUSH1 0x1 DUP1 SLOAD SWAP1 SWAP2 AND SWAP2 SWAP1 SWAP2 OR SWAP1 SSTORE PUSH9 0x1B1AE4D6E2EF500000 PUSH1 0xA SSTORE PUSH1 0x2 SLOAD PUSH9 0x10000000000000000 DUP2 LT ISZERO PUSH2 0x207 JUMPI DUP1 PUSH1 0x1 PUSH2 0xA4 SWAP3 ADD PUSH1 0x2 SSTORE PUSH2 0x24F JUMP JUMPDEST PUSH2 0x1F1 JUMPI PUSH2 0xBB PUSH2 0xB5 DUP3 SLOAD PUSH2 0x280 JUMP JUMPDEST DUP3 PUSH2 0x2BA JUMP JUMPDEST PUSH1 0x6 PUSH3 0x506F7 PUSH1 0xEC SHL ADD SWAP1 SSTORE PUSH1 0x2 SLOAD PUSH9 0x10000000000000000 DUP2 LT ISZERO PUSH2 0x207 JUMPI DUP1 PUSH1 0x1 PUSH2 0xEB SWAP3 ADD PUSH1 0x2 SSTORE PUSH2 0x24F JUMP JUMPDEST PUSH2 0x1F1 JUMPI PUSH2 0xFC PUSH2 0xB5 DUP3 SLOAD PUSH2 0x280 JUMP JUMPDEST PUSH1 0x8 PUSH4 0x14DBDD5B PUSH1 0xE2 SHL ADD SWAP1 SSTORE PUSH1 0x2 SLOAD PUSH9 0x10000000000000000 DUP2 LT ISZERO PUSH2 0x207 JUMPI DUP1 PUSH1 0x1 PUSH2 0x12D SWAP3 ADD PUSH1 0x2 SSTORE PUSH2 0x24F JUMP JUMPDEST PUSH2 0x1F1 JUMPI PUSH2 0x13E PUSH2 0xB5 DUP3 SLOAD PUSH2 0x280 JUMP JUMPDEST PUSH1 0x8 PUSH4 0x526F636B PUSH1 0xE0 SHL ADD SWAP1 SSTORE PUSH1 0x2 SLOAD PUSH9 0x10000000000000000 DUP2 LT ISZERO PUSH2 0x207 JUMPI DUP1 PUSH1 0x1 PUSH2 0x16F SWAP3 ADD PUSH1 0x2 SSTORE PUSH2 0x24F JUMP JUMPDEST PUSH2 0x1F1 JUMPI PUSH2 0x17D DUP2 SLOAD PUSH2 0x280 JUMP JUMPDEST PUSH1 0x1F DUP2 GT PUSH2 0x21D JUMPI JUMPDEST POP PUSH1 0xE PUSH7 0x436F756E747279 PUSH1 0xC8 SHL ADD SWAP1 SSTORE PUSH1 0x2 SLOAD PUSH9 0x10000000000000000 DUP2 LT ISZERO PUSH2 0x207 JUMPI DUP1 PUSH1 0x1 PUSH2 0x1BB SWAP3 ADD PUSH1 0x2 SSTORE PUSH2 0x24F JUMP JUMPDEST PUSH2 0x1F1 JUMPI PUSH2 0x1CC PUSH2 0xB5 DUP3 SLOAD PUSH2 0x280 JUMP JUMPDEST PUSH1 0x6 PUSH3 0x52415 PUSH1 0xEC SHL ADD SWAP1 SSTORE PUSH1 0x1 PUSH1 0x5 DUP2 SWAP1 SSTORE PUSH1 0x7 SSTORE PUSH1 0x40 MLOAD PUSH2 0x2410 SWAP1 DUP2 PUSH2 0x2F1 DUP3 CODECOPY RETURN JUMPDEST PUSH4 0x4E487B71 PUSH1 0xE0 SHL PUSH1 0x0 MSTORE PUSH1 0x0 PUSH1 0x4 MSTORE PUSH1 0x24 PUSH1 0x0 REVERT JUMPDEST PUSH4 0x4E487B71 PUSH1 0xE0 SHL PUSH1 0x0 MSTORE PUSH1 0x41 PUSH1 0x4 MSTORE PUSH1 0x24 PUSH1 0x0 REVERT JUMPDEST DUP2 PUSH1 0x0 MSTORE PUSH1 0x1F PUSH1 0x20 PUSH1 0x0 KECCAK256 SWAP2 ADD PUSH1 0x5 SHR DUP2 ADD SWAP1 JUMPDEST DUP2 DUP2 LT PUSH2 0x23E JUMPI POP PUSH2 0x186 JUMP JUMPDEST PUSH1 0x0 DUP2 SSTORE PUSH1 0x1 ADD PUSH2 0x231 JUMP JUMPDEST PUSH1 0x0 DUP1 REVERT JUMPDEST PUSH1 0x2 SLOAD DUP2 LT ISZERO PUSH2 0x26A JUMPI PUSH1 0x2 PUSH1 0x0 MSTORE PUSH1 0x20 PUSH1 0x0 KECCAK256 ADD SWAP1 PUSH1 0x0 SWAP1 JUMP JUMPDEST PUSH4 0x4E487B71 PUSH1 0xE0 SHL PUSH1 0x0 MSTORE PUSH1 0x32 PUSH1 0x4 MSTORE PUSH1 0x24 PUSH1 0x0 REVERT JUMPDEST SWAP1 PUSH1 0x1 DUP3 DUP2 SHR SWAP3 AND DUP1 ISZERO PUSH2 0x2B0 JUMPI JUMPDEST PUSH1 0x20 DUP4 LT EQ PUSH2 0x29A JUMPI JUMP JUMPDEST PUSH4 0x4E487B71 PUSH1 0xE0 SHL PUSH1 0x0 MSTORE PUSH1 0x22 PUSH1 0x4 MSTORE PUSH1 0x24 PUSH1 0x0 REVERT JUMPDEST SWAP2 PUSH1 0x7F AND SWAP2 PUSH2 0x28F JUMP JUMPDEST PUSH1 0x1F DUP3 GT PUSH2 0x2C6 JUMPI POP POP JUMP JUMPDEST PUSH1 0x0 MSTORE PUSH1 0x1F PUSH1 0x20 PUSH1 0x0 KECCAK256 SWAP2 ADD PUSH1 0x5 SHR DUP2 ADD SWAP1 JUMPDEST DUP2 DUP2 LT PUSH2 0x2E4 JUMPI POP POP JUMP JUMPDEST PUSH1 0x0 DUP2 SSTORE PUSH1 0x1 ADD PUSH2 0x2D9 JUMP INVALID PUSH2 0x120 PUSH1 0x40 MSTORE PUSH1 0x4 CALLDATASIZE LT ISZERO PUSH2 0x13 JUMPI PUSH1 0x0 DUP1 REVERT JUMPDEST PUSH1 0x0 CALLDATALOAD PUSH1 0xE0 SHR DUP1 PUSH4 0x2F71205 EQ PUSH2 0x1D53 JUMPI DUP1 PUSH4 0x280A37CB EQ PUSH2 0x1D35 JUMPI DUP1 PUSH4 0x2EB6678A EQ PUSH2 0x151A JUMPI DUP1 PUSH4 0x3CCFD60B EQ PUSH2 0x148F JUMPI DUP1 PUSH4 0x52DA0C9D EQ PUSH2 0x1451 JUMPI DUP1 PUSH4 0x55C13EC3 EQ PUSH2 0x1428 JUMPI DUP1 PUSH4 0x629058CA EQ PUSH2 0x12C7 JUMPI DUP1 PUSH4 0x65E71AE8 EQ PUSH2 0x1275 JUMPI DUP1 PUSH4 0x67991945 EQ PUSH2 0x1214 JUMPI DUP1 PUSH4 0x811DD0E2 EQ PUSH2 0x114A JUMPI DUP1 PUSH4 0x8DA5CB5B EQ PUSH2 0x1121 JUMPI DUP1 PUSH4 0x8FB433AF EQ PUSH2 0xF46 JUMPI DUP1 PUSH4 0x9BE9FCBB EQ PUSH2 0xEF9 JUMPI DUP1 PUSH4 0x9C756237 EQ PUSH2 0xE05 JUMPI DUP1 PUSH4 0xA2E34586 EQ PUSH2 0xD3B JUMPI DUP1 PUSH4 0xC3A3C0A2 EQ PUSH2 0xCAC JUMPI DUP1 PUSH4 0xCD7E10C1 EQ PUSH2 0xC39 JUMPI DUP1 PUSH4 0xDB94DA18 EQ PUSH2 0xBC6 JUMPI DUP1 PUSH4 0xDF6F321E EQ PUSH2 0xB3F JUMPI DUP1 PUSH4 0xE7C2AB96 EQ PUSH2 0x8A1 JUMPI DUP1 PUSH4 0xEE5CEC86 EQ PUSH2 0x142 JUMPI PUSH4 0xFF9EED7E EQ PUSH2 0x10F JUMPI PUSH1 0x0 DUP1 REVERT JUMPDEST CALLVALUE PUSH2 0x13D JUMPI PUSH1 0x20 CALLDATASIZE PUSH1 0x3 NOT ADD SLT PUSH2 0x13D JUMPI PUSH2 0x135 PUSH1 0x1 DUP1 PUSH1 0xA0 SHL SUB PUSH1 0x0 SLOAD AND CALLER EQ PUSH2 0x2008 JUMP JUMPDEST PUSH1 0x4 CALLDATALOAD PUSH1 0xA SSTORE STOP JUMPDEST PUSH1 0x0 DUP1 REVERT JUMPDEST CALLVALUE PUSH2 0x13D JUMPI PUSH1 0xA0 CALLDATASIZE PUSH1 0x3 NOT ADD SLT PUSH2 0x13D JUMPI PUSH1 0x4 CALLDATALOAD PUSH1 0x1 PUSH1 0x1 PUSH1 0x40 SHL SUB DUP2 GT PUSH2 0x13D JUMPI PUSH2 0x172 SWAP1 CALLDATASIZE SWAP1 PUSH1 0x4 ADD PUSH2 0x1FA1 JUMP JUMPDEST PUSH1 0x24 CALLDATALOAD PUSH1 0x1 PUSH1 0x1 PUSH1 0x40 SHL SUB DUP2 GT PUSH2 0x13D JUMPI PUSH2 0x191 SWAP1 CALLDATASIZE SWAP1 PUSH1 0x4 ADD PUSH2 0x1FA1 JUMP JUMPDEST PUSH1 0x44 SWAP3 SWAP2 SWAP3 CALLDATALOAD PUSH1 0x1 PUSH1 0x1 PUSH1 0x40 SHL SUB DUP2 GT PUSH2 0x13D JUMPI PUSH2 0x1B3 SWAP1 CALLDATASIZE SWAP1 PUSH1 0x4 ADD PUSH2 0x1FA1 JUMP JUMPDEST PUSH1 0x64 SWAP3 SWAP2 SWAP3 CALLDATALOAD PUSH1 0x1 PUSH1 0x1 PUSH1 0x40 SHL SUB DUP2 GT PUSH2 0x13D JUMPI PUSH2 0x1D5 SWAP1 CALLDATASIZE SWAP1 PUSH1 0x4 ADD PUSH2 0x1FA1 JUMP JUMPDEST SWAP2 SWAP1 SWAP7 PUSH1 0x84 CALLDATALOAD PUSH1 0x1 PUSH1 0x1 PUSH1 0x40 SHL SUB DUP2 GT PUSH2 0x13D JUMPI PUSH2 0x1F7 SWAP1 CALLDATASIZE SWAP1 PUSH1 0x4 ADD PUSH2 0x1FA1 JUMP JUMPDEST PUSH1 0x80 MSTORE SWAP6 CALLER PUSH1 0x0 MSTORE PUSH1 0x4 PUSH1 0x20 MSTORE PUSH1 0x40 PUSH1 0x0 KECCAK256 SLOAD PUSH2 0x85C JUMPI PUSH2 0x218 DUP4 DUP8 PUSH2 0x22B2 JUMP JUMPDEST ISZERO PUSH2 0x826 JUMPI PUSH1 0x5 SLOAD PUSH1 0xA0 MSTORE PUSH2 0x22E PUSH1 0xA0 MLOAD PUSH2 0x21BF JUMP JUMPDEST PUSH1 0x5 SSTORE PUSH1 0x40 MLOAD PUSH2 0x23D DUP2 PUSH2 0x1DEB JUMP JUMPDEST PUSH1 0xA0 MLOAD DUP2 MSTORE PUSH2 0x24D CALLDATASIZE DUP4 DUP6 PUSH2 0x21CE JUMP JUMPDEST PUSH1 0x20 DUP3 ADD SWAP1 DUP2 MSTORE CALLER PUSH1 0x40 DUP4 ADD MSTORE PUSH1 0x1 PUSH1 0x60 DUP4 ADD MSTORE PUSH1 0xA0 MLOAD PUSH1 0x0 MSTORE PUSH1 0x3 PUSH1 0x20 MSTORE PUSH1 0x40 PUSH1 0x0 KECCAK256 SWAP1 DUP3 MLOAD DUP3 SSTORE MLOAD DUP1 MLOAD SWAP1 PUSH1 0x1 PUSH1 0x1 PUSH1 0x40 SHL SUB DUP3 GT PUSH2 0x65E JUMPI PUSH2 0x2A2 DUP3 PUSH2 0x299 PUSH1 0x1 DUP7 ADD SLOAD PUSH2 0x1DB1 JUMP JUMPDEST PUSH1 0x1 DUP7 ADD PUSH2 0x214C JUMP JUMPDEST PUSH1 0x20 SWAP1 PUSH1 0x1F DUP4 GT PUSH1 0x1 EQ PUSH2 0x7B4 JUMPI SWAP2 DUP1 PUSH2 0x2D7 SWAP3 PUSH1 0x2 SWAP6 SWAP5 PUSH1 0x0 SWAP3 PUSH2 0x674 JUMPI JUMPDEST POP POP DUP2 PUSH1 0x1 SHL SWAP2 PUSH1 0x0 NOT SWAP1 PUSH1 0x3 SHL SHR NOT AND OR SWAP1 JUMP JUMPDEST PUSH1 0x1 DUP3 ADD SSTORE JUMPDEST ADD SWAP1 PUSH1 0x1 DUP1 PUSH1 0xA0 SHL SUB PUSH1 0x40 DUP3 ADD MLOAD AND DUP3 SLOAD SWAP2 PUSH1 0x60 PUSH1 0xFF PUSH1 0xA0 SHL SWAP2 ADD MLOAD ISZERO ISZERO PUSH1 0xA0 SHL AND SWAP2 PUSH11 0xFFFFFFFFFFFFFFFFFFFFFF PUSH1 0xA8 SHL AND OR OR SWAP1 SSTORE CALLER PUSH1 0x0 MSTORE PUSH1 0x4 PUSH1 0x20 MSTORE PUSH1 0xA0 MLOAD PUSH1 0x40 PUSH1 0x0 KECCAK256 SSTORE PUSH32 0x8443301405F337E5D871773F81107FB07D77D5F08FD2A5C7157A9C89951268AB PUSH1 0x40 MLOAD PUSH1 0x20 DUP2 MSTORE DUP1 PUSH2 0x362 CALLER SWAP6 PUSH1 0xA0 MLOAD SWAP6 PUSH1 0x20 DUP5 ADD SWAP2 PUSH2 0x219E JUMP JUMPDEST SUB SWAP1 LOG3 PUSH1 0x7 SLOAD SWAP5 PUSH2 0x372 DUP7 PUSH2 0x21BF JUMP JUMPDEST PUSH1 0x7 SSTORE PUSH1 0x40 MLOAD SWAP1 PUSH2 0x382 DUP3 PUSH2 0x1E06 JUMP JUMPDEST DUP7 DUP3 MSTORE PUSH1 0x20 DUP3 ADD SWAP1 PUSH1 0xA0 MLOAD DUP3 MSTORE PUSH2 0x39A CALLDATASIZE DUP8 DUP12 PUSH2 0x21CE JUMP JUMPDEST SWAP1 PUSH1 0x40 DUP5 ADD SWAP2 DUP3 MSTORE PUSH2 0x3AD CALLDATASIZE DUP7 DUP11 PUSH2 0x21CE JUMP JUMPDEST PUSH1 0x60 DUP6 ADD SWAP1 DUP2 MSTORE SWAP1 PUSH2 0x3D6 PUSH2 0x3C3 CALLDATASIZE DUP10 DUP16 PUSH2 0x21CE JUMP JUMPDEST SWAP2 PUSH1 0x80 DUP8 ADD SWAP3 DUP4 MSTORE CALLDATASIZE SWAP1 PUSH1 0x80 MLOAD SWAP1 PUSH2 0x21CE JUMP JUMPDEST SWAP2 PUSH1 0xA0 DUP7 ADD SWAP3 DUP4 MSTORE PUSH1 0xC0 DUP7 ADD SWAP4 TIMESTAMP DUP6 MSTORE PUSH1 0xE0 DUP8 ADD SWAP6 PUSH1 0x0 DUP8 MSTORE DUP13 PUSH1 0x0 MSTORE PUSH1 0x6 PUSH1 0x20 MSTORE PUSH1 0x40 PUSH1 0x0 KECCAK256 SWAP8 MLOAD DUP9 SSTORE MLOAD PUSH1 0x1 DUP9 ADD SSTORE PUSH1 0x2 DUP8 ADD SWAP1 MLOAD DUP1 MLOAD SWAP1 PUSH1 0x1 PUSH1 0x1 PUSH1 0x40 SHL SUB DUP3 GT PUSH2 0x65E JUMPI PUSH2 0x432 DUP3 PUSH2 0x42C DUP6 SLOAD PUSH2 0x1DB1 JUMP JUMPDEST DUP6 PUSH2 0x214C JUMP JUMPDEST PUSH1 0x20 SWAP1 PUSH1 0x1F DUP4 GT PUSH1 0x1 EQ PUSH2 0x74D JUMPI PUSH2 0x462 SWAP3 SWAP2 PUSH1 0x0 SWAP2 DUP4 PUSH2 0x5CF JUMPI POP POP DUP2 PUSH1 0x1 SHL SWAP2 PUSH1 0x0 NOT SWAP1 PUSH1 0x3 SHL SHR NOT AND OR SWAP1 JUMP JUMPDEST SWAP1 SSTORE JUMPDEST MLOAD DUP1 MLOAD PUSH1 0x3 DUP8 ADD SWAP2 PUSH1 0x1 PUSH1 0x1 PUSH1 0x40 SHL SUB DUP3 GT PUSH2 0x65E JUMPI PUSH2 0x489 DUP3 PUSH2 0x42C DUP6 SLOAD PUSH2 0x1DB1 JUMP JUMPDEST PUSH1 0x20 SWAP1 PUSH1 0x1F DUP4 GT PUSH1 0x1 EQ PUSH2 0x6E6 JUMPI PUSH2 0x4B9 SWAP3 SWAP2 PUSH1 0x0 SWAP2 DUP4 PUSH2 0x5CF JUMPI POP POP DUP2 PUSH1 0x1 SHL SWAP2 PUSH1 0x0 NOT SWAP1 PUSH1 0x3 SHL SHR NOT AND OR SWAP1 JUMP JUMPDEST SWAP1 SSTORE JUMPDEST MLOAD DUP1 MLOAD PUSH1 0x4 DUP7 ADD SWAP2 PUSH1 0x1 PUSH1 0x1 PUSH1 0x40 SHL SUB DUP3 GT PUSH2 0x65E JUMPI PUSH2 0x4E0 DUP3 PUSH2 0x42C DUP6 SLOAD PUSH2 0x1DB1 JUMP JUMPDEST PUSH1 0x20 SWAP1 PUSH1 0x1F DUP4 GT PUSH1 0x1 EQ PUSH2 0x67F JUMPI PUSH2 0x510 SWAP3 SWAP2 PUSH1 0x0 SWAP2 DUP4 PUSH2 0x674 JUMPI POP POP DUP2 PUSH1 0x1 SHL SWAP2 PUSH1 0x0 NOT SWAP1 PUSH1 0x3 SHL SHR NOT AND OR SWAP1 JUMP JUMPDEST SWAP1 SSTORE JUMPDEST MLOAD DUP1 MLOAD PUSH1 0x5 DUP6 ADD SWAP2 PUSH1 0x1 PUSH1 0x1 PUSH1 0x40 SHL SUB DUP3 GT PUSH2 0x65E JUMPI PUSH2 0x537 DUP3 PUSH2 0x42C DUP6 SLOAD PUSH2 0x1DB1 JUMP JUMPDEST PUSH1 0x20 SWAP1 PUSH1 0x1F DUP4 GT PUSH1 0x1 EQ PUSH2 0x5DA JUMPI SWAP3 PUSH2 0x586 DUP4 PUSH1 0x0 DUP1 MLOAD PUSH1 0x20 PUSH2 0x23BB DUP4 CODECOPY DUP2 MLOAD SWAP2 MSTORE SWAP14 SWAP15 SWAP16 SWAP9 SWAP7 SWAP4 SWAP5 PUSH2 0x5CA SWAP12 SWAP11 SWAP9 SWAP6 PUSH1 0x7 SWAP8 PUSH1 0x0 SWAP3 PUSH2 0x5CF JUMPI POP POP DUP2 PUSH1 0x1 SHL SWAP2 PUSH1 0x0 NOT SWAP1 PUSH1 0x3 SHL SHR NOT AND OR SWAP1 JUMP JUMPDEST SWAP1 SSTORE JUMPDEST MLOAD PUSH1 0x6 DUP5 ADD SSTORE MLOAD SWAP2 ADD SSTORE PUSH2 0x5B1 DUP9 PUSH1 0x40 MLOAD DUP4 DUP10 DUP3 CALLDATACOPY PUSH1 0x20 DUP2 DUP6 DUP2 ADD PUSH1 0x8 DUP2 MSTORE SUB ADD SWAP1 KECCAK256 PUSH2 0x2252 JUMP JUMPDEST PUSH2 0x5BA DUP9 PUSH2 0x2214 JUMP JUMPDEST PUSH1 0x40 MLOAD SWAP6 DUP7 SWAP6 PUSH1 0xA0 MLOAD SWAP11 DUP8 PUSH2 0x2275 JUMP JUMPDEST SUB SWAP1 LOG3 STOP JUMPDEST ADD MLOAD SWAP1 POP CODESIZE DUP1 PUSH2 0x2C2 JUMP JUMPDEST SWAP1 PUSH1 0x1F NOT DUP4 AND SWAP2 DUP5 PUSH1 0x0 MSTORE DUP2 PUSH1 0x0 KECCAK256 SWAP3 PUSH1 0x0 JUMPDEST DUP2 DUP2 LT PUSH2 0x646 JUMPI POP SWAP4 PUSH1 0x0 DUP1 MLOAD PUSH1 0x20 PUSH2 0x23BB DUP4 CODECOPY DUP2 MLOAD SWAP2 MSTORE SWAP14 SWAP15 SWAP16 SWAP9 SWAP7 SWAP4 PUSH1 0x7 SWAP7 SWAP4 PUSH1 0x1 SWAP4 DUP4 PUSH2 0x5CA SWAP15 SWAP14 SWAP12 SWAP9 LT PUSH2 0x62D JUMPI JUMPDEST POP POP POP DUP2 SHL ADD SWAP1 SSTORE PUSH2 0x589 JUMP JUMPDEST ADD MLOAD PUSH1 0x0 NOT PUSH1 0xF8 DUP5 PUSH1 0x3 SHL AND SHR NOT AND SWAP1 SSTORE CODESIZE DUP1 DUP1 PUSH2 0x620 JUMP JUMPDEST SWAP3 SWAP4 PUSH1 0x20 PUSH1 0x1 DUP2 SWAP3 DUP8 DUP7 ADD MLOAD DUP2 SSTORE ADD SWAP6 ADD SWAP4 ADD PUSH2 0x5ED JUMP JUMPDEST PUSH4 0x4E487B71 PUSH1 0xE0 SHL PUSH1 0x0 MSTORE PUSH1 0x41 PUSH1 0x4 MSTORE PUSH1 0x24 PUSH1 0x0 REVERT JUMPDEST ADD MLOAD SWAP1 POP DUP16 DUP1 PUSH2 0x2C2 JUMP JUMPDEST SWAP1 PUSH1 0x1F NOT DUP4 AND SWAP2 DUP5 PUSH1 0x0 MSTORE DUP2 PUSH1 0x0 KECCAK256 SWAP3 PUSH1 0x0 JUMPDEST DUP2 DUP2 LT PUSH2 0x6CE JUMPI POP SWAP1 DUP5 PUSH1 0x1 SWAP6 SWAP5 SWAP4 SWAP3 LT PUSH2 0x6B5 JUMPI JUMPDEST POP POP POP DUP2 SHL ADD SWAP1 SSTORE PUSH2 0x513 JUMP JUMPDEST ADD MLOAD PUSH1 0x0 NOT PUSH1 0xF8 DUP5 PUSH1 0x3 SHL AND SHR NOT AND SWAP1 SSTORE DUP15 DUP1 DUP1 PUSH2 0x6A8 JUMP JUMPDEST SWAP3 SWAP4 PUSH1 0x20 PUSH1 0x1 DUP2 SWAP3 DUP8 DUP7 ADD MLOAD DUP2 SSTORE ADD SWAP6 ADD SWAP4 ADD PUSH2 0x692 JUMP JUMPDEST SWAP1 PUSH1 0x1F NOT DUP4 AND SWAP2 DUP5 PUSH1 0x0 MSTORE DUP2 PUSH1 0x0 KECCAK256 SWAP3 PUSH1 0x0 JUMPDEST DUP2 DUP2 LT PUSH2 0x735 JUMPI POP SWAP1 DUP5 PUSH1 0x1 SWAP6 SWAP5 SWAP4 SWAP3 LT PUSH2 0x71C JUMPI JUMPDEST POP POP POP DUP2 SHL ADD SWAP1 SSTORE PUSH2 0x4BC JUMP JUMPDEST ADD MLOAD PUSH1 0x0 NOT PUSH1 0xF8 DUP5 PUSH1 0x3 SHL AND SHR NOT AND SWAP1 SSTORE DUP16 DUP1 DUP1 PUSH2 0x70F JUMP JUMPDEST SWAP3 SWAP4 PUSH1 0x20 PUSH1 0x1 DUP2 SWAP3 DUP8 DUP7 ADD MLOAD DUP2 SSTORE ADD SWAP6 ADD SWAP4 ADD PUSH2 0x6F9 JUMP JUMPDEST SWAP1 PUSH1 0x1F NOT DUP4 AND SWAP2 DUP5 PUSH1 0x0 MSTORE DUP2 PUSH1 0x0 KECCAK256 SWAP3 PUSH1 0x0 JUMPDEST DUP2 DUP2 LT PUSH2 0x79C JUMPI POP SWAP1 DUP5 PUSH1 0x1 SWAP6 SWAP5 SWAP4 SWAP3 LT PUSH2 0x783 JUMPI JUMPDEST POP POP POP DUP2 SHL ADD SWAP1 SSTORE PUSH2 0x465 JUMP JUMPDEST ADD MLOAD PUSH1 0x0 NOT PUSH1 0xF8 DUP5 PUSH1 0x3 SHL AND SHR NOT AND SWAP1 SSTORE CODESIZE DUP1 DUP1 PUSH2 0x776 JUMP JUMPDEST SWAP3 SWAP4 PUSH1 0x20 PUSH1 0x1 DUP2 SWAP3 DUP8 DUP7 ADD MLOAD DUP2 SSTORE ADD SWAP6 ADD SWAP4 ADD PUSH2 0x760 JUMP JUMPDEST SWAP1 PUSH1 0x1 DUP5 ADD PUSH1 0x0 MSTORE DUP1 PUSH1 0x0 KECCAK256 SWAP2 PUSH1 0x0 JUMPDEST PUSH1 0x1F NOT DUP6 AND DUP2 LT PUSH2 0x80E JUMPI POP SWAP2 DUP4 SWAP2 PUSH1 0x1 SWAP4 PUSH1 0x2 SWAP7 SWAP6 PUSH1 0x1F NOT DUP2 AND LT PUSH2 0x7F5 JUMPI JUMPDEST POP POP POP DUP2 SHL ADD PUSH1 0x1 DUP3 ADD SSTORE PUSH2 0x2DD JUMP JUMPDEST ADD MLOAD PUSH1 0x0 NOT PUSH1 0xF8 DUP5 PUSH1 0x3 SHL AND SHR NOT AND SWAP1 SSTORE DUP15 DUP1 DUP1 PUSH2 0x7E5 JUMP JUMPDEST SWAP2 SWAP3 PUSH1 0x20 PUSH1 0x1 DUP2 SWAP3 DUP7 DUP6 ADD MLOAD DUP2 SSTORE ADD SWAP5 ADD SWAP3 ADD PUSH2 0x7C4 JUMP JUMPDEST PUSH1 0x40 MLOAD PUSH3 0x461BCD PUSH1 0xE5 SHL DUP2 MSTORE PUSH1 0x20 PUSH1 0x4 DUP3 ADD MSTORE PUSH1 0xE PUSH1 0x24 DUP3 ADD MSTORE PUSH14 0x24B73B30B634B21033B2B7393297 PUSH1 0x91 SHL PUSH1 0x44 DUP3 ADD MSTORE PUSH1 0x64 SWAP1 REVERT JUMPDEST PUSH1 0x40 MLOAD PUSH3 0x461BCD PUSH1 0xE5 SHL DUP2 MSTORE PUSH1 0x20 PUSH1 0x4 DUP3 ADD MSTORE PUSH1 0x1A PUSH1 0x24 DUP3 ADD MSTORE PUSH32 0x41727469737420616C726561647920726567697374657265642E000000000000 PUSH1 0x44 DUP3 ADD MSTORE PUSH1 0x64 SWAP1 REVERT JUMPDEST CALLVALUE PUSH2 0x13D JUMPI PUSH1 0x40 CALLDATASIZE PUSH1 0x3 NOT ADD SLT PUSH2 0x13D JUMPI PUSH1 0x4 CALLDATALOAD PUSH1 0x24 CALLDATALOAD PUSH1 0x1 PUSH1 0x1 PUSH1 0x40 SHL SUB DUP2 GT PUSH2 0x13D JUMPI PUSH2 0x8D4 SWAP1 CALLDATASIZE SWAP1 PUSH1 0x4 ADD PUSH2 0x1F28 JUMP JUMPDEST PUSH2 0x8EC PUSH1 0x1 DUP1 PUSH1 0xA0 SWAP6 SWAP5 SWAP6 SHL SUB PUSH1 0x0 SLOAD AND CALLER EQ PUSH2 0x2008 JUMP JUMPDEST PUSH1 0xA SLOAD PUSH1 0x1 SLOAD PUSH1 0x40 MLOAD PUSH4 0x70A08231 PUSH1 0xE0 SHL DUP2 MSTORE ADDRESS PUSH1 0x4 DUP3 ADD MSTORE SWAP2 SWAP3 SWAP2 SWAP1 PUSH1 0x20 SWAP1 DUP3 SWAP1 PUSH1 0x24 SWAP1 DUP3 SWAP1 PUSH1 0x1 PUSH1 0x1 PUSH1 0xA0 SHL SUB AND GAS STATICCALL SWAP1 DUP2 ISZERO PUSH2 0xA69 JUMPI PUSH1 0x0 SWAP2 PUSH2 0xB0D JUMPI JUMPDEST POP DUP2 DUP4 MUL SWAP1 DUP4 DUP3 DIV DUP4 EQ DUP5 ISZERO OR ISZERO PUSH2 0xAF7 JUMPI LT PUSH2 0xAA2 JUMPI PUSH1 0x0 JUMPDEST DUP2 DUP2 LT PUSH2 0x977 JUMPI CALLER DUP5 PUSH32 0xF77E05DFACF7F446845EB8E90BD8A9FEB80574445B3DE6BFD146AD7920E33829 PUSH1 0x0 DUP1 LOG3 STOP JUMPDEST PUSH2 0x98A PUSH2 0x985 DUP3 DUP5 DUP9 PUSH2 0x20A3 JUMP JUMPDEST PUSH2 0x20B3 JUMP JUMPDEST DUP5 PUSH1 0x0 MSTORE PUSH1 0xB PUSH1 0x20 MSTORE PUSH2 0x9B4 PUSH1 0x40 DUP1 PUSH1 0x0 KECCAK256 PUSH1 0x0 SWAP1 PUSH1 0x1 DUP1 PUSH1 0xA0 SHL SUB DUP6 AND DUP3 MSTORE PUSH1 0x20 MSTORE KECCAK256 SLOAD PUSH2 0x1DB1 JUMP JUMPDEST ISZERO ISZERO DUP1 PUSH2 0xA75 JUMPI JUMPDEST PUSH2 0x9CA JUMPI JUMPDEST POP PUSH1 0x1 ADD PUSH2 0x947 JUMP JUMPDEST PUSH1 0x0 DUP6 DUP2 MSTORE PUSH1 0xC PUSH1 0x20 SWAP1 DUP2 MSTORE PUSH1 0x40 DUP1 DUP4 KECCAK256 PUSH1 0x1 PUSH1 0x1 PUSH1 0xA0 SHL SUB SWAP5 DUP6 AND DUP1 DUP6 MSTORE SWAP1 DUP4 MSTORE DUP2 DUP5 KECCAK256 DUP1 SLOAD PUSH1 0xFF NOT AND PUSH1 0x1 SWAP1 DUP2 OR SWAP1 SWAP2 SSTORE SLOAD SWAP2 MLOAD PUSH4 0xA9059CBB PUSH1 0xE0 SHL DUP2 MSTORE PUSH1 0x4 DUP2 ADD SWAP2 SWAP1 SWAP2 MSTORE PUSH1 0x24 DUP2 ADD DUP9 SWAP1 MSTORE SWAP4 SWAP2 SWAP3 DUP5 SWAP3 PUSH1 0x44 SWAP3 DUP5 SWAP3 SWAP2 AND GAS CALL DUP1 ISZERO PUSH2 0xA69 JUMPI ISZERO PUSH2 0x9C1 JUMPI PUSH1 0x20 DUP2 RETURNDATASIZE DUP3 GT PUSH2 0xA61 JUMPI JUMPDEST DUP2 PUSH2 0xA4A PUSH1 0x20 SWAP4 DUP4 PUSH2 0x1E22 JUMP JUMPDEST DUP2 ADD SUB SLT PUSH2 0x13D JUMPI MLOAD DUP1 ISZERO ISZERO SUB PUSH2 0x13D JUMPI DUP6 PUSH2 0x9C1 JUMP JUMPDEST RETURNDATASIZE SWAP2 POP PUSH2 0xA3D JUMP JUMPDEST PUSH1 0x40 MLOAD RETURNDATASIZE PUSH1 0x0 DUP3 RETURNDATACOPY RETURNDATASIZE SWAP1 REVERT JUMPDEST POP PUSH1 0x0 DUP6 DUP2 MSTORE PUSH1 0xC PUSH1 0x20 SWAP1 DUP2 MSTORE PUSH1 0x40 DUP1 DUP4 KECCAK256 PUSH1 0x1 PUSH1 0x1 PUSH1 0xA0 SHL SUB DUP6 AND DUP5 MSTORE SWAP1 SWAP2 MSTORE SWAP1 KECCAK256 SLOAD PUSH1 0xFF AND ISZERO PUSH2 0x9BC JUMP JUMPDEST PUSH1 0x40 MLOAD PUSH3 0x461BCD PUSH1 0xE5 SHL DUP2 MSTORE PUSH1 0x20 PUSH1 0x4 DUP3 ADD MSTORE PUSH1 0x27 PUSH1 0x24 DUP3 ADD MSTORE PUSH32 0x496E73756666696369656E7420746F6B656E2062616C616E636520696E20636F PUSH1 0x44 DUP3 ADD MSTORE PUSH7 0x373A3930B1BA17 PUSH1 0xC9 SHL PUSH1 0x64 DUP3 ADD MSTORE PUSH1 0x84 SWAP1 REVERT JUMPDEST PUSH4 0x4E487B71 PUSH1 0xE0 SHL PUSH1 0x0 MSTORE PUSH1 0x11 PUSH1 0x4 MSTORE PUSH1 0x24 PUSH1 0x0 REVERT JUMPDEST SWAP1 POP PUSH1 0x20 DUP2 RETURNDATASIZE PUSH1 0x20 GT PUSH2 0xB37 JUMPI JUMPDEST DUP2 PUSH2 0xB28 PUSH1 0x20 SWAP4 DUP4 PUSH2 0x1E22 JUMP JUMPDEST DUP2 ADD SUB SLT PUSH2 0x13D JUMPI MLOAD DUP6 PUSH2 0x92D JUMP JUMPDEST RETURNDATASIZE SWAP2 POP PUSH2 0xB1B JUMP JUMPDEST CALLVALUE PUSH2 0x13D JUMPI PUSH1 0x0 CALLDATASIZE PUSH1 0x3 NOT ADD SLT PUSH2 0x13D JUMPI PUSH1 0x40 MLOAD DUP1 PUSH1 0x20 PUSH1 0x9 SLOAD SWAP2 DUP3 DUP2 MSTORE ADD SWAP1 PUSH1 0x9 PUSH1 0x0 MSTORE PUSH32 0x6E1540171B6C0C960B71A7020D9F60077F6AF931A8BBF590DA0223DACF75C7AF SWAP1 PUSH1 0x0 JUMPDEST DUP2 DUP2 LT PUSH2 0xBB0 JUMPI PUSH2 0xBAC DUP6 PUSH2 0xBA0 DUP2 DUP8 SUB DUP3 PUSH2 0x1E22 JUMP JUMPDEST PUSH1 0x40 MLOAD SWAP2 DUP3 SWAP2 DUP3 PUSH2 0x1FCE JUMP JUMPDEST SUB SWAP1 RETURN JUMPDEST DUP3 SLOAD DUP5 MSTORE PUSH1 0x20 SWAP1 SWAP4 ADD SWAP3 PUSH1 0x1 SWAP3 DUP4 ADD SWAP3 ADD PUSH2 0xB89 JUMP JUMPDEST CALLVALUE PUSH2 0x13D JUMPI PUSH1 0x20 CALLDATASIZE PUSH1 0x3 NOT ADD SLT PUSH2 0x13D JUMPI PUSH1 0x4 CALLDATALOAD DUP1 PUSH1 0x0 MSTORE PUSH1 0x6 PUSH1 0x20 MSTORE PUSH2 0xBF3 PUSH1 0x40 PUSH1 0x0 KECCAK256 SLOAD ISZERO ISZERO PUSH2 0x2108 JUMP JUMPDEST DUP1 PUSH1 0x0 MSTORE PUSH1 0x6 PUSH1 0x20 MSTORE PUSH1 0x7 PUSH1 0x40 PUSH1 0x0 KECCAK256 ADD PUSH2 0xC0E DUP2 SLOAD PUSH2 0x21BF JUMP JUMPDEST SWAP1 SSTORE CALLER SWAP1 PUSH32 0x30B0F8DCD86A031EDDB071F91882EDEAC8173663BA775713B677B42B51BE44B PUSH1 0x0 DUP1 LOG3 STOP JUMPDEST CALLVALUE PUSH2 0x13D JUMPI PUSH1 0x20 CALLDATASIZE PUSH1 0x3 NOT ADD SLT PUSH2 0x13D JUMPI PUSH1 0x4 CALLDATALOAD PUSH1 0x0 MSTORE PUSH1 0x3 PUSH1 0x20 MSTORE PUSH1 0x40 PUSH1 0x0 KECCAK256 DUP1 SLOAD PUSH1 0x2 PUSH2 0xC6A PUSH1 0x1 DUP5 ADD PUSH2 0x1E43 JUMP JUMPDEST SWAP3 ADD SLOAD PUSH1 0xFF PUSH2 0xC8B PUSH1 0x40 MLOAD SWAP5 DUP6 SWAP5 DUP6 MSTORE PUSH1 0x80 PUSH1 0x20 DUP7 ADD MSTORE PUSH1 0x80 DUP6 ADD SWAP1 PUSH2 0x1EE7 JUMP JUMPDEST PUSH1 0x1 PUSH1 0x1 PUSH1 0xA0 SHL SUB DUP4 AND PUSH1 0x40 DUP6 ADD MSTORE PUSH1 0xA0 SWAP3 SWAP1 SWAP3 SHR AND ISZERO ISZERO PUSH1 0x60 DUP4 ADD MSTORE SUB SWAP1 RETURN JUMPDEST CALLVALUE PUSH2 0x13D JUMPI PUSH1 0x20 CALLDATASIZE PUSH1 0x3 NOT ADD SLT PUSH2 0x13D JUMPI PUSH1 0x4 CALLDATALOAD PUSH1 0x1 PUSH1 0x1 PUSH1 0x40 SHL SUB DUP2 GT PUSH2 0x13D JUMPI PUSH2 0xCDE PUSH1 0x20 SWAP2 CALLDATASIZE SWAP1 PUSH1 0x4 ADD PUSH2 0x1FA1 JUMP JUMPDEST SWAP2 SWAP1 DUP3 PUSH1 0x40 MLOAD SWAP4 DUP5 SWAP3 DUP4 CALLDATACOPY DUP2 ADD PUSH1 0x8 DUP2 MSTORE SUB ADD SWAP1 KECCAK256 PUSH1 0x40 MLOAD SWAP1 DUP2 PUSH1 0x20 DUP3 SLOAD SWAP2 DUP3 DUP2 MSTORE ADD SWAP2 PUSH1 0x0 MSTORE PUSH1 0x20 PUSH1 0x0 KECCAK256 SWAP1 PUSH1 0x0 JUMPDEST DUP2 DUP2 LT PUSH2 0xD25 JUMPI PUSH2 0xBAC DUP6 PUSH2 0xBA0 DUP2 DUP8 SUB DUP3 PUSH2 0x1E22 JUMP JUMPDEST DUP3 SLOAD DUP5 MSTORE PUSH1 0x20 SWAP1 SWAP4 ADD SWAP3 PUSH1 0x1 SWAP3 DUP4 ADD SWAP3 ADD PUSH2 0xD0E JUMP JUMPDEST CALLVALUE PUSH2 0x13D JUMPI PUSH1 0x20 CALLDATASIZE PUSH1 0x3 NOT ADD SLT PUSH2 0x13D JUMPI PUSH1 0x4 CALLDATALOAD PUSH1 0x0 MSTORE PUSH1 0x6 PUSH1 0x20 MSTORE PUSH1 0x40 PUSH1 0x0 KECCAK256 DUP1 SLOAD PUSH1 0x1 DUP3 ADD SLOAD SWAP2 PUSH2 0xD70 PUSH1 0x2 DUP3 ADD PUSH2 0x1E43 JUMP JUMPDEST PUSH2 0xDF6 PUSH2 0xD7F PUSH1 0x3 DUP5 ADD PUSH2 0x1E43 JUMP JUMPDEST PUSH2 0xDE8 PUSH2 0xD8E PUSH1 0x4 DUP7 ADD PUSH2 0x1E43 JUMP JUMPDEST PUSH2 0xDDA PUSH2 0xD9D PUSH1 0x5 DUP9 ADD PUSH2 0x1E43 JUMP JUMPDEST SWAP4 PUSH2 0xDCC PUSH1 0x7 PUSH1 0x6 DUP11 ADD SLOAD SWAP10 ADD SLOAD SWAP8 PUSH1 0x40 MLOAD SWAP12 DUP13 SWAP12 DUP13 MSTORE PUSH1 0x20 DUP13 ADD MSTORE PUSH2 0x100 PUSH1 0x40 DUP13 ADD MSTORE PUSH2 0x100 DUP12 ADD SWAP1 PUSH2 0x1EE7 JUMP JUMPDEST SWAP1 DUP10 DUP3 SUB PUSH1 0x60 DUP12 ADD MSTORE PUSH2 0x1EE7 JUMP JUMPDEST SWAP1 DUP8 DUP3 SUB PUSH1 0x80 DUP10 ADD MSTORE PUSH2 0x1EE7 JUMP JUMPDEST SWAP1 DUP6 DUP3 SUB PUSH1 0xA0 DUP8 ADD MSTORE PUSH2 0x1EE7 JUMP JUMPDEST SWAP2 PUSH1 0xC0 DUP5 ADD MSTORE PUSH1 0xE0 DUP4 ADD MSTORE SUB SWAP1 RETURN JUMPDEST CALLVALUE PUSH2 0x13D JUMPI PUSH1 0x0 CALLDATASIZE PUSH1 0x3 NOT ADD SLT PUSH2 0x13D JUMPI PUSH1 0x2 SLOAD PUSH1 0x1 PUSH1 0x1 PUSH1 0x40 SHL SUB DUP2 GT PUSH2 0x65E JUMPI PUSH1 0x40 MLOAD SWAP1 PUSH2 0xE3B PUSH1 0x20 DUP3 PUSH1 0x5 SHL ADD DUP4 PUSH2 0x1E22 JUMP JUMPDEST DUP1 DUP3 MSTORE PUSH1 0x20 DUP3 ADD SWAP1 DUP2 PUSH1 0x2 PUSH1 0x0 MSTORE PUSH32 0x405787FA12A823E0F2B7631CC41B3BA8828B3321CA811111FA75CD3AA3BB5ACE PUSH1 0x0 SWAP2 JUMPDEST DUP4 DUP4 LT PUSH2 0xEDC JUMPI DUP5 DUP7 PUSH1 0x40 MLOAD SWAP2 DUP3 SWAP2 PUSH1 0x20 DUP4 ADD SWAP1 PUSH1 0x20 DUP5 MSTORE MLOAD DUP1 SWAP2 MSTORE PUSH1 0x40 DUP4 ADD SWAP1 PUSH1 0x40 DUP2 PUSH1 0x5 SHL DUP6 ADD ADD SWAP3 SWAP2 PUSH1 0x0 SWAP1 JUMPDEST DUP3 DUP3 LT PUSH2 0xEAD JUMPI POP POP POP POP SUB SWAP1 RETURN JUMPDEST SWAP2 SWAP4 PUSH1 0x1 SWAP2 SWAP4 SWAP6 POP PUSH1 0x20 PUSH2 0xECC DUP2 SWAP3 PUSH1 0x3F NOT DUP11 DUP3 SUB ADD DUP7 MSTORE DUP9 MLOAD PUSH2 0x1EE7 JUMP JUMPDEST SWAP7 ADD SWAP3 ADD SWAP3 ADD DUP6 SWAP5 SWAP4 SWAP2 SWAP3 PUSH2 0xE9E JUMP JUMPDEST PUSH1 0x1 PUSH1 0x20 DUP2 SWAP3 PUSH2 0xEEB DUP6 PUSH2 0x1E43 JUMP JUMPDEST DUP2 MSTORE ADD SWAP3 ADD SWAP3 ADD SWAP2 SWAP1 PUSH2 0xE6E JUMP JUMPDEST CALLVALUE PUSH2 0x13D JUMPI PUSH1 0x40 CALLDATASIZE PUSH1 0x3 NOT ADD SLT PUSH2 0x13D JUMPI PUSH2 0xF12 PUSH2 0x1D9B JUMP JUMPDEST PUSH1 0x4 CALLDATALOAD PUSH1 0x0 MSTORE PUSH1 0xC PUSH1 0x20 MSTORE PUSH1 0x40 PUSH1 0x0 KECCAK256 SWAP1 PUSH1 0x1 DUP1 PUSH1 0xA0 SHL SUB AND PUSH1 0x0 MSTORE PUSH1 0x20 MSTORE PUSH1 0x20 PUSH1 0xFF PUSH1 0x40 PUSH1 0x0 KECCAK256 SLOAD AND PUSH1 0x40 MLOAD SWAP1 ISZERO ISZERO DUP2 MSTORE RETURN JUMPDEST CALLVALUE PUSH2 0x13D JUMPI PUSH1 0x40 CALLDATASIZE PUSH1 0x3 NOT ADD SLT PUSH2 0x13D JUMPI PUSH1 0x4 CALLDATALOAD PUSH1 0x24 CALLDATALOAD PUSH1 0x1 PUSH1 0x1 PUSH1 0x40 SHL SUB DUP2 GT PUSH2 0x13D JUMPI PUSH2 0xF79 SWAP1 CALLDATASIZE SWAP1 PUSH1 0x4 ADD PUSH2 0x1FA1 JUMP JUMPDEST SWAP2 SWAP1 DUP2 PUSH1 0x0 MSTORE PUSH1 0x6 PUSH1 0x20 MSTORE PUSH2 0xF94 PUSH1 0x40 PUSH1 0x0 KECCAK256 SLOAD ISZERO ISZERO PUSH2 0x2108 JUMP JUMPDEST DUP3 ISZERO PUSH2 0x10DC JUMPI PUSH1 0x0 DUP3 DUP2 MSTORE PUSH1 0xB PUSH1 0x20 SWAP1 DUP2 MSTORE PUSH1 0x40 DUP1 DUP4 KECCAK256 CALLER DUP5 MSTORE SWAP1 SWAP2 MSTORE SWAP1 KECCAK256 PUSH1 0x1 PUSH1 0x1 PUSH1 0x40 SHL SUB DUP5 GT PUSH2 0x65E JUMPI PUSH2 0xFD5 DUP5 PUSH2 0xFCF DUP4 SLOAD PUSH2 0x1DB1 JUMP JUMPDEST DUP4 PUSH2 0x214C JUMP JUMPDEST DUP4 PUSH1 0x0 PUSH1 0x1F DUP3 GT PUSH1 0x1 EQ PUSH2 0x104F JUMPI SWAP2 PUSH2 0x102B DUP3 PUSH32 0xA75737A36D3872DA22FF33E9FF498F19F9CCD60BFDBC6B85CCC2FB8E4EB1E244 SWAP6 SWAP4 PUSH2 0x5CA SWAP6 PUSH1 0x0 SWAP2 PUSH2 0x1044 JUMPI JUMPDEST POP DUP2 PUSH1 0x1 SHL SWAP2 PUSH1 0x0 NOT SWAP1 PUSH1 0x3 SHL SHR NOT AND OR SWAP1 JUMP JUMPDEST SWAP1 SSTORE JUMPDEST PUSH1 0x40 MLOAD SWAP2 DUP3 SWAP2 PUSH1 0x20 DUP4 MSTORE CALLER SWAP7 PUSH1 0x20 DUP5 ADD SWAP2 PUSH2 0x219E JUMP JUMPDEST SWAP1 POP DUP5 ADD CALLDATALOAD DUP10 PUSH2 0x1017 JUMP JUMPDEST DUP3 DUP2 MSTORE PUSH1 0x20 DUP2 KECCAK256 SWAP2 POP DUP6 PUSH1 0x1F NOT DUP2 AND DUP3 JUMPDEST DUP2 DUP2 LT PUSH2 0x10C1 JUMPI POP SWAP2 PUSH32 0xA75737A36D3872DA22FF33E9FF498F19F9CCD60BFDBC6B85CCC2FB8E4EB1E244 SWAP6 SWAP4 SWAP2 PUSH2 0x5CA SWAP6 SWAP4 LT PUSH2 0x10A7 JUMPI JUMPDEST POP POP PUSH1 0x1 DUP7 DUP2 SHL ADD SWAP1 SSTORE PUSH2 0x102E JUMP JUMPDEST DUP4 ADD CALLDATALOAD PUSH1 0x0 NOT PUSH1 0x3 DUP10 SWAP1 SHL PUSH1 0xF8 AND SHR NOT AND SWAP1 SSTORE DUP7 DUP1 PUSH2 0x1098 JUMP JUMPDEST DUP7 DUP5 ADD CALLDATALOAD DUP6 SSTORE PUSH1 0x1 SWAP1 SWAP5 ADD SWAP4 PUSH1 0x20 SWAP4 DUP5 ADD SWAP4 DUP10 SWAP4 POP ADD PUSH2 0x1060 JUMP JUMPDEST PUSH1 0x40 MLOAD PUSH3 0x461BCD PUSH1 0xE5 SHL DUP2 MSTORE PUSH1 0x20 PUSH1 0x4 DUP3 ADD MSTORE PUSH1 0x1A PUSH1 0x24 DUP3 ADD MSTORE PUSH32 0x53686172652055524C2063616E6E6F7420626520656D7074792E000000000000 PUSH1 0x44 DUP3 ADD MSTORE PUSH1 0x64 SWAP1 REVERT JUMPDEST CALLVALUE PUSH2 0x13D JUMPI PUSH1 0x0 CALLDATASIZE PUSH1 0x3 NOT ADD SLT PUSH2 0x13D JUMPI PUSH1 0x0 SLOAD PUSH1 0x40 MLOAD PUSH1 0x1 PUSH1 0x1 PUSH1 0xA0 SHL SUB SWAP1 SWAP2 AND DUP2 MSTORE PUSH1 0x20 SWAP1 RETURN JUMPDEST CALLVALUE PUSH2 0x13D JUMPI PUSH1 0x20 CALLDATASIZE PUSH1 0x3 NOT ADD SLT PUSH2 0x13D JUMPI PUSH1 0x0 PUSH1 0x60 PUSH1 0x40 MLOAD PUSH2 0x116B DUP2 PUSH2 0x1DEB JUMP JUMPDEST DUP3 DUP2 MSTORE DUP2 PUSH1 0x20 DUP3 ADD MSTORE DUP3 PUSH1 0x40 DUP3 ADD MSTORE ADD MSTORE PUSH1 0x4 CALLDATALOAD PUSH1 0x0 MSTORE PUSH1 0x3 PUSH1 0x20 MSTORE PUSH1 0x40 PUSH1 0x0 KECCAK256 PUSH1 0x40 MLOAD PUSH2 0x1198 DUP2 PUSH2 0x1DEB JUMP JUMPDEST DUP2 SLOAD DUP2 MSTORE PUSH1 0x2 PUSH2 0x11AA PUSH1 0x1 DUP5 ADD PUSH2 0x1E43 JUMP JUMPDEST SWAP3 PUSH1 0x20 DUP4 ADD SWAP4 DUP5 MSTORE ADD SLOAD PUSH1 0x40 DUP3 ADD SWAP1 PUSH1 0x1 DUP1 PUSH1 0xA0 SHL SUB DUP2 AND DUP3 MSTORE PUSH1 0xFF PUSH1 0x60 DUP5 ADD SWAP2 PUSH1 0xA0 SHR AND ISZERO ISZERO DUP2 MSTORE PUSH2 0x11F8 PUSH1 0x40 MLOAD SWAP5 DUP6 SWAP5 PUSH1 0x20 DUP7 MSTORE MLOAD PUSH1 0x20 DUP7 ADD MSTORE MLOAD PUSH1 0x80 PUSH1 0x40 DUP7 ADD MSTORE PUSH1 0xA0 DUP6 ADD SWAP1 PUSH2 0x1EE7 JUMP JUMPDEST SWAP2 MLOAD PUSH1 0x1 PUSH1 0x1 PUSH1 0xA0 SHL SUB AND PUSH1 0x60 DUP5 ADD MSTORE MLOAD ISZERO ISZERO PUSH1 0x80 DUP4 ADD MSTORE SUB SWAP1 RETURN JUMPDEST CALLVALUE PUSH2 0x13D JUMPI PUSH1 0x20 CALLDATASIZE PUSH1 0x3 NOT ADD SLT PUSH2 0x13D JUMPI PUSH1 0x4 CALLDATALOAD PUSH1 0x2 SLOAD DUP2 LT ISZERO PUSH2 0x13D JUMPI PUSH2 0x123B SWAP1 PUSH2 0x1F58 JUMP JUMPDEST PUSH2 0x125F JUMPI PUSH2 0x124B PUSH2 0xBAC SWAP2 PUSH2 0x1E43 JUMP JUMPDEST PUSH1 0x40 MLOAD SWAP2 DUP3 SWAP2 PUSH1 0x20 DUP4 MSTORE PUSH1 0x20 DUP4 ADD SWAP1 PUSH2 0x1EE7 JUMP JUMPDEST PUSH4 0x4E487B71 PUSH1 0xE0 SHL PUSH1 0x0 MSTORE PUSH1 0x0 PUSH1 0x4 MSTORE PUSH1 0x24 PUSH1 0x0 REVERT JUMPDEST CALLVALUE PUSH2 0x13D JUMPI PUSH1 0x20 CALLDATASIZE PUSH1 0x3 NOT ADD SLT PUSH2 0x13D JUMPI PUSH1 0x4 CALLDATALOAD PUSH1 0x9 SLOAD DUP2 LT ISZERO PUSH2 0x13D JUMPI PUSH1 0x0 SWAP1 PUSH1 0x9 SLOAD DUP2 LT ISZERO PUSH2 0x12B3 JUMPI PUSH1 0x20 DUP3 PUSH1 0x9 DUP3 SWAP5 MSTORE KECCAK256 ADD SLOAD PUSH1 0x40 MLOAD SWAP1 DUP2 MSTORE RETURN JUMPDEST PUSH4 0x4E487B71 PUSH1 0xE0 SHL DUP3 MSTORE PUSH1 0x32 PUSH1 0x4 MSTORE PUSH1 0x24 DUP3 REVERT JUMPDEST CALLVALUE PUSH2 0x13D JUMPI PUSH1 0x20 CALLDATASIZE PUSH1 0x3 NOT ADD SLT PUSH2 0x13D JUMPI PUSH1 0x0 PUSH1 0xE0 PUSH1 0x40 MLOAD PUSH2 0x12E8 DUP2 PUSH2 0x1E06 JUMP JUMPDEST DUP3 DUP2 MSTORE DUP3 PUSH1 0x20 DUP3 ADD MSTORE PUSH1 0x60 PUSH1 0x40 DUP3 ADD MSTORE PUSH1 0x60 DUP1 DUP3 ADD MSTORE PUSH1 0x60 PUSH1 0x80 DUP3 ADD MSTORE PUSH1 0x60 PUSH1 0xA0 DUP3 ADD MSTORE DUP3 PUSH1 0xC0 DUP3 ADD MSTORE ADD MSTORE PUSH1 0x4 CALLDATALOAD PUSH1 0x0 MSTORE PUSH1 0x6 PUSH1 0x20 MSTORE PUSH1 0x40 PUSH1 0x0 KECCAK256 PUSH1 0x40 MLOAD PUSH2 0x1330 DUP2 PUSH2 0x1E06 JUMP JUMPDEST DUP2 SLOAD DUP2 MSTORE PUSH1 0x1 DUP3 ADD SLOAD SWAP2 PUSH1 0x20 DUP3 ADD SWAP3 DUP4 MSTORE PUSH2 0x134D PUSH1 0x2 DUP3 ADD PUSH2 0x1E43 JUMP JUMPDEST PUSH1 0x40 DUP4 ADD SWAP1 DUP2 MSTORE PUSH2 0x1416 PUSH2 0x1363 PUSH1 0x3 DUP5 ADD PUSH2 0x1E43 JUMP JUMPDEST PUSH1 0x60 DUP6 ADD SWAP1 DUP2 MSTORE PUSH2 0x1403 PUSH2 0x1379 PUSH1 0x4 DUP7 ADD PUSH2 0x1E43 JUMP JUMPDEST PUSH1 0x80 DUP8 ADD SWAP1 DUP2 MSTORE PUSH2 0x13F0 PUSH2 0x138F PUSH1 0x5 DUP9 ADD PUSH2 0x1E43 JUMP JUMPDEST SWAP4 PUSH1 0xA0 DUP10 ADD SWAP5 DUP6 MSTORE PUSH2 0x13DD PUSH1 0x7 PUSH1 0x6 DUP11 ADD SLOAD SWAP10 PUSH1 0xC0 DUP13 ADD SWAP11 DUP12 MSTORE ADD SLOAD SWAP8 PUSH1 0xE0 DUP12 ADD SWAP9 DUP10 MSTORE PUSH1 0x40 MLOAD SWAP12 DUP13 SWAP12 PUSH1 0x20 DUP14 MSTORE MLOAD PUSH1 0x20 DUP14 ADD MSTORE MLOAD PUSH1 0x40 DUP13 ADD MSTORE MLOAD PUSH2 0x100 PUSH1 0x60 DUP13 ADD MSTORE PUSH2 0x120 DUP12 ADD SWAP1 PUSH2 0x1EE7 JUMP JUMPDEST SWAP1 MLOAD DUP10 DUP3 SUB PUSH1 0x1F NOT ADD PUSH1 0x80 DUP12 ADD MSTORE PUSH2 0x1EE7 JUMP JUMPDEST SWAP1 MLOAD DUP8 DUP3 SUB PUSH1 0x1F NOT ADD PUSH1 0xA0 DUP10 ADD MSTORE PUSH2 0x1EE7 JUMP JUMPDEST SWAP1 MLOAD DUP6 DUP3 SUB PUSH1 0x1F NOT ADD PUSH1 0xC0 DUP8 ADD MSTORE PUSH2 0x1EE7 JUMP JUMPDEST SWAP2 MLOAD PUSH1 0xE0 DUP5 ADD MSTORE MLOAD PUSH2 0x100 DUP4 ADD MSTORE SUB SWAP1 RETURN JUMPDEST CALLVALUE PUSH2 0x13D JUMPI PUSH1 0x0 CALLDATASIZE PUSH1 0x3 NOT ADD SLT PUSH2 0x13D JUMPI PUSH1 0x1 SLOAD PUSH1 0x40 MLOAD PUSH1 0x1 PUSH1 0x1 PUSH1 0xA0 SHL SUB SWAP1 SWAP2 AND DUP2 MSTORE PUSH1 0x20 SWAP1 RETURN JUMPDEST CALLVALUE PUSH2 0x13D JUMPI PUSH1 0x20 CALLDATASIZE PUSH1 0x3 NOT ADD SLT PUSH2 0x13D JUMPI PUSH1 0x4 CALLDATALOAD PUSH1 0x1 PUSH1 0x1 PUSH1 0xA0 SHL SUB DUP2 AND SWAP1 DUP2 SWAP1 SUB PUSH2 0x13D JUMPI PUSH1 0x0 MSTORE PUSH1 0x4 PUSH1 0x20 MSTORE PUSH1 0x20 PUSH1 0x40 PUSH1 0x0 KECCAK256 SLOAD PUSH1 0x40 MLOAD SWAP1 DUP2 MSTORE RETURN JUMPDEST CALLVALUE PUSH2 0x13D JUMPI PUSH1 0x0 CALLDATASIZE PUSH1 0x3 NOT ADD SLT PUSH2 0x13D JUMPI PUSH1 0x0 SLOAD PUSH1 0x1 PUSH1 0x1 PUSH1 0xA0 SHL SUB AND CALLER DUP2 SWAP1 SUB PUSH2 0x14D5 JUMPI PUSH1 0x0 DUP1 DUP1 DUP1 SWAP4 SELFBALANCE SWAP1 DUP3 DUP3 ISZERO PUSH2 0x14CC JUMPI JUMPDEST CALL ISZERO PUSH2 0xA69 JUMPI STOP JUMPDEST POP PUSH2 0x8FC PUSH2 0x14C4 JUMP JUMPDEST PUSH1 0x40 MLOAD PUSH3 0x461BCD PUSH1 0xE5 SHL DUP2 MSTORE PUSH1 0x20 PUSH1 0x4 DUP3 ADD MSTORE PUSH1 0x18 PUSH1 0x24 DUP3 ADD MSTORE PUSH32 0x4F6E6C79206F776E65722063616E2077697468647261772E0000000000000000 PUSH1 0x44 DUP3 ADD MSTORE PUSH1 0x64 SWAP1 REVERT JUMPDEST CALLVALUE PUSH2 0x13D JUMPI PUSH1 0xC0 CALLDATASIZE PUSH1 0x3 NOT ADD SLT PUSH2 0x13D JUMPI PUSH1 0x4 CALLDATALOAD PUSH1 0x1 PUSH1 0x1 PUSH1 0x40 SHL SUB DUP2 GT PUSH2 0x13D JUMPI PUSH2 0x154A SWAP1 CALLDATASIZE SWAP1 PUSH1 0x4 ADD PUSH2 0x1F28 JUMP JUMPDEST SWAP1 PUSH1 0x24 CALLDATALOAD PUSH1 0x1 PUSH1 0x1 PUSH1 0x40 SHL SUB DUP2 GT PUSH2 0x13D JUMPI PUSH2 0x156A SWAP1 CALLDATASIZE SWAP1 PUSH1 0x4 ADD PUSH2 0x1F28 JUMP JUMPDEST PUSH1 0x44 CALLDATALOAD PUSH1 0x1 PUSH1 0x1 PUSH1 0x40 SHL SUB DUP2 GT PUSH2 0x13D JUMPI PUSH2 0x1589 SWAP1 CALLDATASIZE SWAP1 PUSH1 0x4 ADD PUSH2 0x1F28 JUMP JUMPDEST SWAP5 SWAP1 SWAP3 PUSH1 0x64 CALLDATALOAD PUSH1 0x1 PUSH1 0x1 PUSH1 0x40 SHL SUB DUP2 GT PUSH2 0x13D JUMPI PUSH2 0x15AB SWAP1 CALLDATASIZE SWAP1 PUSH1 0x4 ADD PUSH2 0x1F28 JUMP JUMPDEST SWAP5 PUSH1 0x84 CALLDATALOAD PUSH1 0x1 PUSH1 0x1 PUSH1 0x40 SHL SUB DUP2 GT PUSH2 0x13D JUMPI PUSH2 0x15CB SWAP1 CALLDATASIZE SWAP1 PUSH1 0x4 ADD PUSH2 0x1F28 JUMP JUMPDEST SWAP9 SWAP1 SWAP5 PUSH1 0xA4 CALLDATALOAD PUSH1 0x1 PUSH1 0x1 PUSH1 0x40 SHL SUB DUP2 GT PUSH2 0x13D JUMPI PUSH2 0x15ED SWAP1 CALLDATASIZE SWAP1 PUSH1 0x4 ADD PUSH2 0x1F28 JUMP JUMPDEST SWAP6 SWAP1 SWAP5 PUSH2 0x1605 PUSH1 0x1 DUP1 PUSH1 0xA0 SHL SUB PUSH1 0x0 SLOAD AND CALLER EQ PUSH2 0x2008 JUMP JUMPDEST PUSH2 0x1610 DUP10 DUP5 EQ PUSH2 0x205F JUMP JUMPDEST PUSH2 0x161B DUP5 DUP5 EQ PUSH2 0x205F JUMP JUMPDEST PUSH2 0x1626 DUP11 DUP5 EQ PUSH2 0x205F JUMP JUMPDEST PUSH2 0x1631 DUP13 DUP5 EQ PUSH2 0x205F JUMP JUMPDEST PUSH2 0x163C DUP8 DUP5 EQ PUSH2 0x205F JUMP JUMPDEST PUSH1 0x0 JUMPDEST DUP4 DUP2 LT PUSH2 0x1648 JUMPI STOP JUMPDEST DUP11 DUP11 DUP15 DUP12 DUP16 DUP12 DUP12 DUP12 DUP16 SWAP4 DUP10 DUP12 DUP2 DUP16 DUP16 DUP3 PUSH2 0x1666 DUP2 DUP1 SWAP9 SWAP5 DUP2 SWAP6 PUSH2 0x20A3 JUMP JUMPDEST PUSH2 0x166F SWAP1 PUSH2 0x20B3 JUMP JUMPDEST SWAP14 PUSH2 0x1679 SWAP3 PUSH2 0x20C7 JUMP JUMPDEST SWAP7 PUSH2 0x1685 SWAP3 SWAP2 SWAP9 PUSH2 0x20C7 JUMP JUMPDEST PUSH1 0xC0 MSTORE SWAP12 PUSH2 0x1692 SWAP3 PUSH2 0x20C7 JUMP JUMPDEST SWAP9 PUSH2 0x169E SWAP3 SWAP2 SWAP9 PUSH2 0x20C7 JUMP JUMPDEST SWAP6 PUSH2 0x16AA SWAP3 SWAP2 SWAP6 PUSH2 0x20C7 JUMP JUMPDEST SWAP1 PUSH1 0xE0 MSTORE SWAP7 PUSH1 0x1 PUSH1 0xA0 SHL PUSH1 0x1 SWAP1 SUB DUP2 AND PUSH1 0x0 MSTORE PUSH1 0x4 PUSH1 0x20 MSTORE PUSH1 0x40 PUSH1 0x0 KECCAK256 SLOAD ISZERO DUP1 PUSH2 0x1D25 JUMPI JUMPDEST PUSH2 0x16E5 JUMPI JUMPDEST POP POP POP POP POP POP POP POP POP PUSH1 0x1 ADD PUSH2 0x163F JUMP JUMPDEST PUSH1 0x5 SLOAD PUSH2 0x100 MSTORE PUSH2 0x16F8 PUSH2 0x100 MLOAD PUSH2 0x21BF JUMP JUMPDEST PUSH1 0x5 SSTORE PUSH1 0x40 MLOAD PUSH2 0x1707 DUP2 PUSH2 0x1DEB JUMP JUMPDEST PUSH2 0x100 MLOAD DUP2 MSTORE PUSH2 0x1718 CALLDATASIZE DUP5 DUP7 PUSH2 0x21CE JUMP JUMPDEST PUSH1 0x20 DUP3 ADD SWAP1 DUP2 MSTORE PUSH1 0x1 DUP1 PUSH1 0xA0 SHL SUB DUP4 AND PUSH1 0x40 DUP4 ADD MSTORE PUSH1 0x1 PUSH1 0x60 DUP4 ADD MSTORE PUSH2 0x100 MLOAD PUSH1 0x0 MSTORE PUSH1 0x3 PUSH1 0x20 MSTORE PUSH1 0x40 PUSH1 0x0 KECCAK256 SWAP1 DUP3 MLOAD DUP3 SSTORE MLOAD DUP1 MLOAD SWAP1 PUSH1 0x1 PUSH1 0x1 PUSH1 0x40 SHL SUB DUP3 GT PUSH2 0x65E JUMPI PUSH2 0x176D DUP3 PUSH2 0x299 PUSH1 0x1 DUP7 ADD SLOAD PUSH2 0x1DB1 JUMP JUMPDEST PUSH1 0x20 SWAP1 PUSH1 0x1F DUP4 GT PUSH1 0x1 EQ PUSH2 0x1C8D JUMPI SWAP3 PUSH2 0x17C7 DUP4 PUSH2 0x1841 SWAP7 SWAP5 PUSH1 0x2 SWAP5 PUSH32 0x8443301405F337E5D871773F81107FB07D77D5F08FD2A5C7157A9C89951268AB SWAP10 SWAP8 PUSH1 0x0 SWAP3 PUSH2 0x5CF JUMPI POP POP DUP2 PUSH1 0x1 SHL SWAP2 PUSH1 0x0 NOT SWAP1 PUSH1 0x3 SHL SHR NOT AND OR SWAP1 JUMP JUMPDEST PUSH1 0x1 DUP3 ADD SSTORE JUMPDEST ADD SWAP1 PUSH1 0x1 DUP1 PUSH1 0xA0 SHL SUB PUSH1 0x40 DUP3 ADD MLOAD AND DUP3 SLOAD SWAP2 PUSH1 0x60 PUSH1 0xFF PUSH1 0xA0 SHL SWAP2 ADD MLOAD ISZERO ISZERO PUSH1 0xA0 SHL AND SWAP2 PUSH11 0xFFFFFFFFFFFFFFFFFFFFFF PUSH1 0xA8 SHL AND OR OR SWAP1 SSTORE PUSH1 0x1 DUP1 PUSH1 0xA0 SHL SUB DUP2 AND PUSH1 0x0 MSTORE PUSH1 0x4 PUSH1 0x20 MSTORE PUSH2 0x100 MLOAD PUSH1 0x40 PUSH1 0x0 KECCAK256 SSTORE PUSH1 0x40 MLOAD SWAP2 DUP3 SWAP2 PUSH1 0x20 DUP4 MSTORE PUSH1 0x1 DUP1 PUSH1 0xA0 SHL SUB AND SWAP6 PUSH2 0x100 MLOAD SWAP6 PUSH1 0x20 DUP5 ADD SWAP2 PUSH2 0x219E JUMP JUMPDEST SUB SWAP1 LOG3 PUSH1 0x7 SLOAD SWAP5 PUSH2 0x1851 DUP7 PUSH2 0x21BF JUMP JUMPDEST PUSH1 0x7 SSTORE PUSH1 0x40 MLOAD PUSH2 0x1860 DUP2 PUSH2 0x1E06 JUMP JUMPDEST DUP7 DUP2 MSTORE PUSH1 0x20 DUP2 ADD SWAP2 PUSH2 0x100 MLOAD DUP4 MSTORE PUSH2 0x187B CALLDATASIZE PUSH1 0xC0 MLOAD DUP12 PUSH2 0x21CE JUMP JUMPDEST SWAP1 PUSH1 0x40 DUP4 ADD SWAP2 DUP3 MSTORE PUSH2 0x188E CALLDATASIZE DUP10 DUP10 PUSH2 0x21CE JUMP JUMPDEST PUSH1 0x60 DUP5 ADD SWAP1 DUP2 MSTORE PUSH2 0x18B5 PUSH2 0x18A3 CALLDATASIZE DUP10 DUP10 PUSH2 0x21CE JUMP JUMPDEST SWAP3 PUSH1 0x80 DUP7 ADD SWAP4 DUP5 MSTORE CALLDATASIZE SWAP1 PUSH1 0xE0 MLOAD PUSH2 0x21CE JUMP JUMPDEST SWAP3 PUSH1 0xA0 DUP6 ADD SWAP4 DUP5 MSTORE TIMESTAMP PUSH1 0xC0 DUP7 ADD MSTORE PUSH1 0x0 PUSH1 0xE0 DUP7 ADD MSTORE DUP11 PUSH1 0x0 MSTORE PUSH1 0x6 PUSH1 0x20 MSTORE PUSH1 0x40 PUSH1 0x0 KECCAK256 SWAP6 DUP6 MLOAD DUP8 SSTORE MLOAD PUSH1 0x1 DUP8 ADD SSTORE PUSH1 0x2 DUP7 ADD SWAP1 MLOAD DUP1 MLOAD SWAP1 PUSH1 0x1 PUSH1 0x1 PUSH1 0x40 SHL SUB DUP3 GT PUSH2 0x65E JUMPI PUSH2 0x1908 DUP3 PUSH2 0x42C DUP6 SLOAD PUSH2 0x1DB1 JUMP JUMPDEST PUSH1 0x20 SWAP1 PUSH1 0x1F DUP4 GT PUSH1 0x1 EQ PUSH2 0x1C26 JUMPI PUSH2 0x1938 SWAP3 SWAP2 PUSH1 0x0 SWAP2 DUP4 PUSH2 0x5CF JUMPI POP POP DUP2 PUSH1 0x1 SHL SWAP2 PUSH1 0x0 NOT SWAP1 PUSH1 0x3 SHL SHR NOT AND OR SWAP1 JUMP JUMPDEST SWAP1 SSTORE JUMPDEST MLOAD DUP1 MLOAD PUSH1 0x3 DUP7 ADD SWAP2 PUSH1 0x1 PUSH1 0x1 PUSH1 0x40 SHL SUB DUP3 GT PUSH2 0x65E JUMPI PUSH2 0x195F DUP3 PUSH2 0x42C DUP6 SLOAD PUSH2 0x1DB1 JUMP JUMPDEST PUSH1 0x20 SWAP1 PUSH1 0x1F DUP4 GT PUSH1 0x1 EQ PUSH2 0x1BBF JUMPI PUSH2 0x198F SWAP3 SWAP2 PUSH1 0x0 SWAP2 DUP4 PUSH2 0x5CF JUMPI POP POP DUP2 PUSH1 0x1 SHL SWAP2 PUSH1 0x0 NOT SWAP1 PUSH1 0x3 SHL SHR NOT AND OR SWAP1 JUMP JUMPDEST SWAP1 SSTORE JUMPDEST MLOAD DUP1 MLOAD PUSH1 0x4 DUP6 ADD SWAP2 PUSH1 0x1 PUSH1 0x1 PUSH1 0x40 SHL SUB DUP3 GT PUSH2 0x65E JUMPI PUSH2 0x19B6 DUP3 PUSH2 0x42C DUP6 SLOAD PUSH2 0x1DB1 JUMP JUMPDEST PUSH1 0x20 SWAP1 PUSH1 0x1F DUP4 GT PUSH1 0x1 EQ PUSH2 0x1B58 JUMPI PUSH2 0x19E6 SWAP3 SWAP2 PUSH1 0x0 SWAP2 DUP4 PUSH2 0x5CF JUMPI POP POP DUP2 PUSH1 0x1 SHL SWAP2 PUSH1 0x0 NOT SWAP1 PUSH1 0x3 SHL SHR NOT AND OR SWAP1 JUMP JUMPDEST SWAP1 SSTORE JUMPDEST MLOAD DUP1 MLOAD SWAP1 PUSH1 0x1 PUSH1 0x1 PUSH1 0x40 SHL SUB DUP3 GT PUSH2 0x65E JUMPI PUSH2 0x1A15 DUP3 PUSH2 0x1A0C PUSH1 0x5 DUP8 ADD SLOAD PUSH2 0x1DB1 JUMP JUMPDEST PUSH1 0x5 DUP8 ADD PUSH2 0x214C JUMP JUMPDEST PUSH1 0x20 SWAP1 PUSH1 0x1F DUP4 GT PUSH1 0x1 EQ PUSH2 0x1AC9 JUMPI PUSH1 0xE0 PUSH1 0x1 SWAP13 SWAP12 SWAP11 SWAP10 SWAP8 SWAP5 PUSH2 0x1A67 DUP6 PUSH1 0x0 DUP1 MLOAD PUSH1 0x20 PUSH2 0x23BB DUP4 CODECOPY DUP2 MLOAD SWAP2 MSTORE SWAP12 SWAP10 SWAP7 PUSH2 0x1AB8 SWAP10 SWAP7 PUSH1 0x7 SWAP7 PUSH1 0x0 SWAP3 PUSH2 0x5CF JUMPI POP POP DUP2 PUSH1 0x1 SHL SWAP2 PUSH1 0x0 NOT SWAP1 PUSH1 0x3 SHL SHR NOT AND OR SWAP1 JUMP JUMPDEST PUSH1 0x5 DUP6 ADD SSTORE JUMPDEST PUSH1 0xC0 DUP2 ADD MLOAD PUSH1 0x6 DUP6 ADD SSTORE ADD MLOAD SWAP2 ADD SSTORE PUSH2 0x1A9A DUP8 PUSH1 0x40 MLOAD DUP8 DUP8 DUP3 CALLDATACOPY PUSH1 0x20 DUP2 DUP10 DUP2 ADD PUSH1 0x8 DUP2 MSTORE SUB ADD SWAP1 KECCAK256 PUSH2 0x2252 JUMP JUMPDEST PUSH2 0x1AA3 DUP8 PUSH2 0x2214 JUMP JUMPDEST PUSH1 0x40 MLOAD SWAP5 DUP6 SWAP5 PUSH2 0x100 MLOAD SWAP10 PUSH1 0xC0 MLOAD SWAP1 DUP8 PUSH2 0x2275 JUMP JUMPDEST SUB SWAP1 LOG3 SWAP1 DUP15 DUP1 DUP1 DUP1 DUP1 DUP1 DUP1 DUP1 PUSH2 0x16D4 JUMP JUMPDEST SWAP1 PUSH1 0x5 DUP6 ADD PUSH1 0x0 MSTORE DUP1 PUSH1 0x0 KECCAK256 SWAP2 PUSH1 0x0 JUMPDEST PUSH1 0x1F NOT DUP6 AND DUP2 LT PUSH2 0x1B40 JUMPI POP PUSH1 0x1 SWAP13 SWAP12 SWAP11 SWAP10 SWAP8 SWAP5 DUP14 DUP6 PUSH2 0x1AB8 SWAP9 SWAP6 PUSH1 0x7 SWAP6 PUSH1 0xE0 SWAP6 PUSH1 0x0 DUP1 MLOAD PUSH1 0x20 PUSH2 0x23BB DUP4 CODECOPY DUP2 MLOAD SWAP2 MSTORE SWAP15 SWAP13 SWAP10 PUSH1 0x1F NOT DUP2 AND LT PUSH2 0x1B27 JUMPI JUMPDEST POP POP POP DUP2 SHL ADD PUSH1 0x5 DUP6 ADD SSTORE PUSH2 0x1A6D JUMP JUMPDEST ADD MLOAD PUSH1 0x0 NOT PUSH1 0xF8 DUP5 PUSH1 0x3 SHL AND SHR NOT AND SWAP1 SSTORE CODESIZE DUP1 DUP1 PUSH2 0x1B17 JUMP JUMPDEST SWAP2 SWAP3 PUSH1 0x20 PUSH1 0x1 DUP2 SWAP3 DUP7 DUP6 ADD MLOAD DUP2 SSTORE ADD SWAP5 ADD SWAP3 ADD PUSH2 0x1AD9 JUMP JUMPDEST SWAP1 PUSH1 0x1F NOT DUP4 AND SWAP2 DUP5 PUSH1 0x0 MSTORE DUP2 PUSH1 0x0 KECCAK256 SWAP3 PUSH1 0x0 JUMPDEST DUP2 DUP2 LT PUSH2 0x1BA7 JUMPI POP SWAP1 DUP5 PUSH1 0x1 SWAP6 SWAP5 SWAP4 SWAP3 LT PUSH2 0x1B8E JUMPI JUMPDEST POP POP POP DUP2 SHL ADD SWAP1 SSTORE PUSH2 0x19E9 JUMP JUMPDEST ADD MLOAD PUSH1 0x0 NOT PUSH1 0xF8 DUP5 PUSH1 0x3 SHL AND SHR NOT AND SWAP1 SSTORE CODESIZE DUP1 DUP1 PUSH2 0x1B81 JUMP JUMPDEST SWAP3 SWAP4 PUSH1 0x20 PUSH1 0x1 DUP2 SWAP3 DUP8 DUP7 ADD MLOAD DUP2 SSTORE ADD SWAP6 ADD SWAP4 ADD PUSH2 0x1B6B JUMP JUMPDEST SWAP1 PUSH1 0x1F NOT DUP4 AND SWAP2 DUP5 PUSH1 0x0 MSTORE DUP2 PUSH1 0x0 KECCAK256 SWAP3 PUSH1 0x0 JUMPDEST DUP2 DUP2 LT PUSH2 0x1C0E JUMPI POP SWAP1 DUP5 PUSH1 0x1 SWAP6 SWAP5 SWAP4 SWAP3 LT PUSH2 0x1BF5 JUMPI JUMPDEST POP POP POP DUP2 SHL ADD SWAP1 SSTORE PUSH2 0x1992 JUMP JUMPDEST ADD MLOAD PUSH1 0x0 NOT PUSH1 0xF8 DUP5 PUSH1 0x3 SHL AND SHR NOT AND SWAP1 SSTORE CODESIZE DUP1 DUP1 PUSH2 0x1BE8 JUMP JUMPDEST SWAP3 SWAP4 PUSH1 0x20 PUSH1 0x1 DUP2 SWAP3 DUP8 DUP7 ADD MLOAD DUP2 SSTORE ADD SWAP6 ADD SWAP4 ADD PUSH2 0x1BD2 JUMP JUMPDEST SWAP1 PUSH1 0x1F NOT DUP4 AND SWAP2 DUP5 PUSH1 0x0 MSTORE DUP2 PUSH1 0x0 KECCAK256 SWAP3 PUSH1 0x0 JUMPDEST DUP2 DUP2 LT PUSH2 0x1C75 JUMPI POP SWAP1 DUP5 PUSH1 0x1 SWAP6 SWAP5 SWAP4 SWAP3 LT PUSH2 0x1C5C JUMPI JUMPDEST POP POP POP DUP2 SHL ADD SWAP1 SSTORE PUSH2 0x193B JUMP JUMPDEST ADD MLOAD PUSH1 0x0 NOT PUSH1 0xF8 DUP5 PUSH1 0x3 SHL AND SHR NOT AND SWAP1 SSTORE CODESIZE DUP1 DUP1 PUSH2 0x1C4F JUMP JUMPDEST SWAP3 SWAP4 PUSH1 0x20 PUSH1 0x1 DUP2 SWAP3 DUP8 DUP7 ADD MLOAD DUP2 SSTORE ADD SWAP6 ADD SWAP4 ADD PUSH2 0x1C39 JUMP JUMPDEST SWAP1 PUSH1 0x1 DUP5 ADD PUSH1 0x0 MSTORE DUP1 PUSH1 0x0 KECCAK256 SWAP2 PUSH1 0x0 JUMPDEST PUSH1 0x1F NOT DUP6 AND DUP2 LT PUSH2 0x1D0D JUMPI POP DUP4 PUSH1 0x2 SWAP4 PUSH32 0x8443301405F337E5D871773F81107FB07D77D5F08FD2A5C7157A9C89951268AB SWAP9 SWAP7 SWAP4 PUSH1 0x1 SWAP4 PUSH2 0x1841 SWAP10 SWAP8 PUSH1 0x1F NOT DUP2 AND LT PUSH2 0x1CF4 JUMPI JUMPDEST POP POP POP DUP2 SHL ADD PUSH1 0x1 DUP3 ADD SSTORE PUSH2 0x17CD JUMP JUMPDEST ADD MLOAD PUSH1 0x0 NOT PUSH1 0xF8 DUP5 PUSH1 0x3 SHL AND SHR NOT AND SWAP1 SSTORE CODESIZE DUP1 DUP1 PUSH2 0x1CE4 JUMP JUMPDEST SWAP2 SWAP3 PUSH1 0x20 PUSH1 0x1 DUP2 SWAP3 DUP7 DUP6 ADD MLOAD DUP2 SSTORE ADD SWAP5 ADD SWAP3 ADD PUSH2 0x1C9D JUMP JUMPDEST POP PUSH2 0x1D30 DUP8 DUP8 PUSH2 0x22B2 JUMP JUMPDEST PUSH2 0x16CF JUMP JUMPDEST CALLVALUE PUSH2 0x13D JUMPI PUSH1 0x0 CALLDATASIZE PUSH1 0x3 NOT ADD SLT PUSH2 0x13D JUMPI PUSH1 0x20 PUSH1 0xA SLOAD PUSH1 0x40 MLOAD SWAP1 DUP2 MSTORE RETURN JUMPDEST CALLVALUE PUSH2 0x13D JUMPI PUSH1 0x40 CALLDATASIZE PUSH1 0x3 NOT ADD SLT PUSH2 0x13D JUMPI PUSH2 0x1D6C PUSH2 0x1D9B JUMP JUMPDEST PUSH1 0x4 CALLDATALOAD PUSH1 0x0 MSTORE PUSH1 0xB PUSH1 0x20 MSTORE PUSH1 0x40 PUSH1 0x0 KECCAK256 SWAP1 PUSH1 0x1 DUP1 PUSH1 0xA0 SHL SUB AND PUSH1 0x0 MSTORE PUSH1 0x20 MSTORE PUSH2 0xBAC PUSH2 0x124B PUSH1 0x40 PUSH1 0x0 KECCAK256 PUSH2 0x1E43 JUMP JUMPDEST PUSH1 0x24 CALLDATALOAD SWAP1 PUSH1 0x1 PUSH1 0x1 PUSH1 0xA0 SHL SUB DUP3 AND DUP3 SUB PUSH2 0x13D JUMPI JUMP JUMPDEST SWAP1 PUSH1 0x1 DUP3 DUP2 SHR SWAP3 AND DUP1 ISZERO PUSH2 0x1DE1 JUMPI JUMPDEST PUSH1 0x20 DUP4 LT EQ PUSH2 0x1DCB JUMPI JUMP JUMPDEST PUSH4 0x4E487B71 PUSH1 0xE0 SHL PUSH1 0x0 MSTORE PUSH1 0x22 PUSH1 0x4 MSTORE PUSH1 0x24 PUSH1 0x0 REVERT JUMPDEST SWAP2 PUSH1 0x7F AND SWAP2 PUSH2 0x1DC0 JUMP JUMPDEST PUSH1 0x80 DUP2 ADD SWAP1 DUP2 LT PUSH1 0x1 PUSH1 0x1 PUSH1 0x40 SHL SUB DUP3 GT OR PUSH2 0x65E JUMPI PUSH1 0x40 MSTORE JUMP JUMPDEST PUSH2 0x100 DUP2 ADD SWAP1 DUP2 LT PUSH1 0x1 PUSH1 0x1 PUSH1 0x40 SHL SUB DUP3 GT OR PUSH2 0x65E JUMPI PUSH1 0x40 MSTORE JUMP JUMPDEST SWAP1 PUSH1 0x1F DUP1 NOT SWAP2 ADD AND DUP2 ADD SWAP1 DUP2 LT PUSH1 0x1 PUSH1 0x1 PUSH1 0x40 SHL SUB DUP3 GT OR PUSH2 0x65E JUMPI PUSH1 0x40 MSTORE JUMP JUMPDEST SWAP1 PUSH1 0x40 MLOAD SWAP2 DUP3 PUSH1 0x0 DUP3 SLOAD SWAP3 PUSH2 0x1E57 DUP5 PUSH2 0x1DB1 JUMP JUMPDEST DUP1 DUP5 MSTORE SWAP4 PUSH1 0x1 DUP2 AND SWAP1 DUP2 ISZERO PUSH2 0x1EC5 JUMPI POP PUSH1 0x1 EQ PUSH2 0x1E7E JUMPI JUMPDEST POP PUSH2 0x1E7C SWAP3 POP SUB DUP4 PUSH2 0x1E22 JUMP JUMPDEST JUMP JUMPDEST SWAP1 POP PUSH1 0x0 SWAP3 SWAP2 SWAP3 MSTORE PUSH1 0x20 PUSH1 0x0 KECCAK256 SWAP1 PUSH1 0x0 SWAP2 JUMPDEST DUP2 DUP4 LT PUSH2 0x1EA9 JUMPI POP POP SWAP1 PUSH1 0x20 PUSH2 0x1E7C SWAP3 DUP3 ADD ADD CODESIZE PUSH2 0x1E6F JUMP JUMPDEST PUSH1 0x20 SWAP2 SWAP4 POP DUP1 PUSH1 0x1 SWAP2 SLOAD DUP4 DUP6 DUP10 ADD ADD MSTORE ADD SWAP2 ADD SWAP1 SWAP2 DUP5 SWAP3 PUSH2 0x1E90 JUMP JUMPDEST SWAP1 POP PUSH1 0x20 SWAP3 POP PUSH2 0x1E7C SWAP5 SWAP2 POP PUSH1 0xFF NOT AND DUP3 DUP5 ADD MSTORE ISZERO ISZERO PUSH1 0x5 SHL DUP3 ADD ADD CODESIZE PUSH2 0x1E6F JUMP JUMPDEST SWAP2 SWAP1 DUP3 MLOAD SWAP3 DUP4 DUP3 MSTORE PUSH1 0x0 JUMPDEST DUP5 DUP2 LT PUSH2 0x1F13 JUMPI POP POP DUP3 PUSH1 0x0 PUSH1 0x20 DUP1 SWAP5 SWAP6 DUP5 ADD ADD MSTORE PUSH1 0x1F DUP1 NOT SWAP2 ADD AND ADD ADD SWAP1 JUMP JUMPDEST DUP1 PUSH1 0x20 DUP1 SWAP3 DUP5 ADD ADD MLOAD DUP3 DUP3 DUP7 ADD ADD MSTORE ADD PUSH2 0x1EF2 JUMP JUMPDEST SWAP2 DUP2 PUSH1 0x1F DUP5 ADD SLT ISZERO PUSH2 0x13D JUMPI DUP3 CALLDATALOAD SWAP2 PUSH1 0x1 PUSH1 0x1 PUSH1 0x40 SHL SUB DUP4 GT PUSH2 0x13D JUMPI PUSH1 0x20 DUP1 DUP6 ADD SWAP5 DUP5 PUSH1 0x5 SHL ADD ADD GT PUSH2 0x13D JUMPI JUMP JUMPDEST PUSH1 0x2 SLOAD DUP2 LT ISZERO PUSH2 0x1F73 JUMPI PUSH1 0x2 PUSH1 0x0 MSTORE PUSH1 0x20 PUSH1 0x0 KECCAK256 ADD SWAP1 PUSH1 0x0 SWAP1 JUMP JUMPDEST PUSH4 0x4E487B71 PUSH1 0xE0 SHL PUSH1 0x0 MSTORE PUSH1 0x32 PUSH1 0x4 MSTORE PUSH1 0x24 PUSH1 0x0 REVERT JUMPDEST DUP1 SLOAD DUP3 LT ISZERO PUSH2 0x1F73 JUMPI PUSH1 0x0 MSTORE PUSH1 0x20 PUSH1 0x0 KECCAK256 ADD SWAP1 PUSH1 0x0 SWAP1 JUMP JUMPDEST SWAP2 DUP2 PUSH1 0x1F DUP5 ADD SLT ISZERO PUSH2 0x13D JUMPI DUP3 CALLDATALOAD SWAP2 PUSH1 0x1 PUSH1 0x1 PUSH1 0x40 SHL SUB DUP4 GT PUSH2 0x13D JUMPI PUSH1 0x20 DUP4 DUP2 DUP7 ADD SWAP6 ADD ADD GT PUSH2 0x13D JUMPI JUMP JUMPDEST PUSH1 0x20 PUSH1 0x40 DUP2 DUP4 ADD SWAP3 DUP3 DUP2 MSTORE DUP5 MLOAD DUP1 SWAP5 MSTORE ADD SWAP3 ADD SWAP1 PUSH1 0x0 JUMPDEST DUP2 DUP2 LT PUSH2 0x1FF2 JUMPI POP POP POP SWAP1 JUMP JUMPDEST DUP3 MLOAD DUP5 MSTORE PUSH1 0x20 SWAP4 DUP5 ADD SWAP4 SWAP1 SWAP3 ADD SWAP2 PUSH1 0x1 ADD PUSH2 0x1FE5 JUMP JUMPDEST ISZERO PUSH2 0x200F JUMPI JUMP JUMPDEST PUSH1 0x40 MLOAD PUSH3 0x461BCD PUSH1 0xE5 SHL DUP2 MSTORE PUSH1 0x20 PUSH1 0x4 DUP3 ADD MSTORE PUSH1 0x22 PUSH1 0x24 DUP3 ADD MSTORE PUSH32 0x4F6E6C79206F776E65722063616E2063616C6C20746869732066756E6374696F PUSH1 0x44 DUP3 ADD MSTORE PUSH2 0x3717 PUSH1 0xF1 SHL PUSH1 0x64 DUP3 ADD MSTORE PUSH1 0x84 SWAP1 REVERT JUMPDEST ISZERO PUSH2 0x2066 JUMPI JUMP JUMPDEST PUSH1 0x40 MLOAD PUSH3 0x461BCD PUSH1 0xE5 SHL DUP2 MSTORE PUSH1 0x20 PUSH1 0x4 DUP3 ADD MSTORE PUSH1 0x15 PUSH1 0x24 DUP3 ADD MSTORE PUSH21 0x82E4E4C2F240D8CADCCEE8D040DAD2E6DAC2E8C6D PUSH1 0x5B SHL PUSH1 0x44 DUP3 ADD MSTORE PUSH1 0x64 SWAP1 REVERT JUMPDEST SWAP2 SWAP1 DUP2 LT ISZERO PUSH2 0x1F73 JUMPI PUSH1 0x5 SHL ADD SWAP1 JUMP JUMPDEST CALLDATALOAD PUSH1 0x1 PUSH1 0x1 PUSH1 0xA0 SHL SUB DUP2 AND DUP2 SUB PUSH2 0x13D JUMPI SWAP1 JUMP JUMPDEST SWAP2 SWAP1 DUP2 LT ISZERO PUSH2 0x1F73 JUMPI PUSH1 0x5 SHL DUP2 ADD CALLDATALOAD SWAP1 PUSH1 0x1E NOT DUP2 CALLDATASIZE SUB ADD DUP3 SLT ISZERO PUSH2 0x13D JUMPI ADD SWAP1 DUP2 CALLDATALOAD SWAP2 PUSH1 0x1 PUSH1 0x1 PUSH1 0x40 SHL SUB DUP4 GT PUSH2 0x13D JUMPI PUSH1 0x20 ADD DUP3 CALLDATASIZE SUB DUP2 SGT PUSH2 0x13D JUMPI SWAP2 SWAP1 JUMP JUMPDEST ISZERO PUSH2 0x210F JUMPI JUMP JUMPDEST PUSH1 0x40 MLOAD PUSH3 0x461BCD PUSH1 0xE5 SHL DUP2 MSTORE PUSH1 0x20 PUSH1 0x4 DUP3 ADD MSTORE PUSH1 0x15 PUSH1 0x24 DUP3 ADD MSTORE PUSH21 0x2A3930B1B5903237B2B9903737BA1032BC34B9BA17 PUSH1 0x59 SHL PUSH1 0x44 DUP3 ADD MSTORE PUSH1 0x64 SWAP1 REVERT JUMPDEST PUSH1 0x1F DUP3 GT PUSH2 0x2159 JUMPI POP POP POP JUMP JUMPDEST PUSH1 0x0 MSTORE PUSH1 0x20 PUSH1 0x0 KECCAK256 SWAP1 PUSH1 0x20 PUSH1 0x1F DUP5 ADD PUSH1 0x5 SHR DUP4 ADD SWAP4 LT PUSH2 0x2194 JUMPI JUMPDEST PUSH1 0x1F ADD PUSH1 0x5 SHR ADD SWAP1 JUMPDEST DUP2 DUP2 LT PUSH2 0x2188 JUMPI POP POP JUMP JUMPDEST PUSH1 0x0 DUP2 SSTORE PUSH1 0x1 ADD PUSH2 0x217D JUMP JUMPDEST SWAP1 SWAP2 POP DUP2 SWAP1 PUSH2 0x2174 JUMP JUMPDEST SWAP1 DUP1 PUSH1 0x20 SWAP4 SWAP3 DUP2 DUP5 MSTORE DUP5 DUP5 ADD CALLDATACOPY PUSH1 0x0 DUP3 DUP3 ADD DUP5 ADD MSTORE PUSH1 0x1F ADD PUSH1 0x1F NOT AND ADD ADD SWAP1 JUMP JUMPDEST PUSH1 0x0 NOT DUP2 EQ PUSH2 0xAF7 JUMPI PUSH1 0x1 ADD SWAP1 JUMP JUMPDEST SWAP3 SWAP2 SWAP3 PUSH1 0x1 PUSH1 0x1 PUSH1 0x40 SHL SUB DUP3 GT PUSH2 0x65E JUMPI PUSH1 0x40 MLOAD SWAP2 PUSH2 0x21F7 PUSH1 0x1F DUP3 ADD PUSH1 0x1F NOT AND PUSH1 0x20 ADD DUP5 PUSH2 0x1E22 JUMP JUMPDEST DUP3 SWAP5 DUP2 DUP5 MSTORE DUP2 DUP4 ADD GT PUSH2 0x13D JUMPI DUP3 DUP2 PUSH1 0x20 SWAP4 DUP5 PUSH1 0x0 SWAP7 ADD CALLDATACOPY ADD ADD MSTORE JUMP JUMPDEST PUSH1 0x9 SLOAD SWAP1 PUSH1 0x1 PUSH1 0x40 SHL DUP3 LT ISZERO PUSH2 0x65E JUMPI PUSH2 0x2239 DUP3 PUSH1 0x1 PUSH2 0x1E7C SWAP5 ADD PUSH1 0x9 SSTORE PUSH1 0x9 PUSH2 0x1F89 JUMP JUMPDEST SWAP1 SWAP2 SWAP1 DUP3 SLOAD SWAP1 PUSH1 0x3 SHL SWAP2 DUP3 SHL SWAP2 PUSH1 0x0 NOT SWAP1 SHL NOT AND OR SWAP1 SSTORE JUMP JUMPDEST SWAP1 DUP2 SLOAD SWAP2 PUSH1 0x1 PUSH1 0x40 SHL DUP4 LT ISZERO PUSH2 0x65E JUMPI DUP3 PUSH2 0x2239 SWAP2 PUSH1 0x1 PUSH2 0x1E7C SWAP6 ADD DUP2 SSTORE PUSH2 0x1F89 JUMP JUMPDEST SWAP5 SWAP3 SWAP1 SWAP4 PUSH2 0x2293 PUSH2 0x22AF SWAP8 SWAP6 PUSH2 0x22A1 SWAP5 PUSH1 0x60 DUP10 MSTORE PUSH1 0x60 DUP10 ADD SWAP2 PUSH2 0x219E JUMP JUMPDEST SWAP2 DUP7 DUP4 SUB PUSH1 0x20 DUP9 ADD MSTORE PUSH2 0x219E JUMP JUMPDEST SWAP3 PUSH1 0x40 DUP2 DUP6 SUB SWAP2 ADD MSTORE PUSH2 0x219E JUMP JUMPDEST SWAP1 JUMP JUMPDEST PUSH1 0x2 SLOAD SWAP2 SWAP1 PUSH1 0x0 JUMPDEST DUP4 DUP2 LT PUSH2 0x22CA JUMPI POP POP POP POP PUSH1 0x0 SWAP1 JUMP JUMPDEST PUSH2 0x22D3 DUP2 PUSH2 0x1F58 JUMP JUMPDEST POP PUSH1 0x40 MLOAD PUSH1 0x20 DUP2 ADD SWAP2 DUP2 PUSH1 0x0 DUP3 SLOAD SWAP3 PUSH2 0x22EB DUP5 PUSH2 0x1DB1 JUMP JUMPDEST SWAP4 PUSH1 0x1 DUP2 AND SWAP1 DUP2 ISZERO PUSH2 0x239C JUMPI POP PUSH1 0x1 EQ PUSH2 0x235A JUMPI JUMPDEST POP PUSH2 0x2314 SWAP3 POP SUB PUSH1 0x1F NOT DUP2 ADD DUP4 MSTORE DUP3 PUSH2 0x1E22 JUMP JUMPDEST MLOAD SWAP1 KECCAK256 PUSH1 0x40 MLOAD PUSH1 0x20 DUP2 ADD SWAP1 DUP6 DUP6 DUP4 CALLDATACOPY PUSH2 0x2341 PUSH1 0x20 DUP3 DUP9 DUP2 ADD PUSH1 0x0 DUP4 DUP3 ADD MSTORE SUB ADD PUSH1 0x1F NOT DUP2 ADD DUP4 MSTORE DUP3 PUSH2 0x1E22 JUMP JUMPDEST MLOAD SWAP1 KECCAK256 EQ PUSH2 0x2351 JUMPI PUSH1 0x1 ADD PUSH2 0x22BA JUMP JUMPDEST POP POP POP POP PUSH1 0x1 SWAP1 JUMP JUMPDEST SWAP2 POP POP PUSH1 0x0 MSTORE DUP2 PUSH1 0x20 PUSH1 0x0 KECCAK256 PUSH1 0x0 SWAP1 JUMPDEST DUP4 DUP3 LT PUSH2 0x2382 JUMPI POP POP PUSH1 0x20 PUSH2 0x2314 SWAP3 DUP3 ADD ADD CODESIZE PUSH2 0x2300 JUMP JUMPDEST PUSH1 0x20 SWAP2 SWAP3 POP DUP1 PUSH1 0x1 SWAP2 SLOAD DUP4 DUP6 DUP9 ADD ADD MSTORE ADD SWAP2 ADD DUP4 SWAP2 PUSH2 0x236A JUMP JUMPDEST PUSH1 0xFF NOT AND DUP8 MSTORE POP PUSH2 0x2314 SWAP4 DUP1 ISZERO ISZERO MUL DUP4 ADD PUSH1 0x20 ADD SWAP2 POP CODESIZE SWAP1 POP PUSH2 0x2300 JUMP INVALID CODECOPY PUSH3 0x8C0524 0x27 PUSH20 0xD13EF5DEAADB11828A34886BB12E6FEF9357C4EA STOP DATALOADN 0x5873 DUP2 LOG2 PUSH5 0x6970667358 0x22 SLT KECCAK256 0x2E 0xD9 0xC5 SWAP6 0xD7 0xAD MULMOD 0x2C POP DUP12 0xB9 DUP8 EXP DUP6 DELEGATECALL PUSH10 0xB3245D81619BF0A4AEAD RETURNDATASIZE SWAP13 EXTCODEHASH 0xAA CALLF 0x4764 PUSH20 0x6F6C634300081E00330000000000000000000000 "},"methodIdentifiers":{"allTrackIds(uint256)":"65e71ae8","artistIdByWallet(address)":"52da0c9d","artists(uint256)":"cd7e10c1","axpToken()":"55c13ec3","batchDistributeShareRewards(uint256,address[])":"e7c2ab96","batchRegisterAndUpload(address[],string[],string[],string[],string[],string[])":"2eb6678a","getAllTrackIds()":"df6f321e","getArtist(uint256)":"811dd0e2","getOfficialGenres()":"9c756237","getTrack(uint256)":"629058ca","getTrackIdsByGenre(string)":"c3a3c0a2","officialGenres(uint256)":"67991945","owner()":"8da5cb5b","proofOfShares(uint256,address)":"02f71205","recordShare(uint256,string)":"8fb433af","registerArtistAndUploadFirstTrack(string,string,string,string,string)":"ee5cec86","rewardedShares(uint256,address)":"9be9fcbb","setShareRewardAmount(uint256)":"ff9eed7e","shareRewardAmount()":"280a37cb","tracks(uint256)":"a2e34586","voteForTrack(uint256)":"db94da18","withdraw()":"3ccfd60b"}}}}}