{"contracts/AxepVoting_Simple.sol":{"AxepVoting":{"abi":[{"inputs":[{"internalType":"address","name":"_tokenAddress","type":"address"}],"stateMutability":"nonpayable","type":"constructor"},{"inputs":[{"internalType":"address","name":"owner","type":"address"}],"name":"OwnableInvalidOwner","type":"error"},{"inputs":[{"internalType":"address","name":"account","type":"address"}],"name":"OwnableUnauthorizedAccount","type":"error"},{"anonymous":false,"inputs":[{"indexed":true,"internalType":"uint256","name":"artistId","type":"uint256"},{"indexed":false,"internalType":"string","name":"name","type":"string"},{"indexed":true,"internalType":"address","name":"artistWallet","type":"address"}],"name":"ArtistRegistered","type":"event"},{"anonymous":false,"inputs":[{"indexed":true,"internalType":"address","name":"previousOwner","type":"address"},{"indexed":true,"internalType":"address","name":"newOwner","type":"address"}],"name":"OwnershipTransferred","type":"event"},{"anonymous":false,"inputs":[{"indexed":true,"internalType":"uint256","name":"trackId","type":"uint256"},{"indexed":true,"internalType":"address","name":"sharer","type":"address"},{"indexed":false,"internalType":"string","name":"shareUrl1","type":"string"},{"indexed":false,"internalType":"string","name":"shareUrl2","type":"string"}],"name":"ShareRecorded","type":"event"},{"anonymous":false,"inputs":[{"indexed":true,"internalType":"uint256","name":"trackId","type":"uint256"},{"indexed":true,"internalType":"address","name":"distributor","type":"address"}],"name":"ShareRewardsDistributed","type":"event"},{"anonymous":false,"inputs":[{"indexed":true,"internalType":"uint256","name":"trackId","type":"uint256"},{"indexed":true,"internalType":"uint256","name":"artistId","type":"uint256"},{"indexed":false,"internalType":"string","name":"title","type":"string"},{"indexed":false,"internalType":"string","name":"genre","type":"string"},{"indexed":false,"internalType":"string","name":"videoUrl","type":"string"}],"name":"TrackUploaded","type":"event"},{"anonymous":false,"inputs":[{"indexed":true,"internalType":"uint256","name":"trackId","type":"uint256"},{"indexed":true,"internalType":"address","name":"voter","type":"address"},{"indexed":false,"internalType":"uint256","name":"totalVotes","type":"uint256"}],"name":"Voted","type":"event"},{"anonymous":false,"inputs":[{"indexed":false,"internalType":"uint256[]","name":"trackIds","type":"uint256[]"},{"indexed":false,"internalType":"uint256[]","name":"voteCounts","type":"uint256[]"}],"name":"VotesTallied","type":"event"},{"anonymous":false,"inputs":[{"indexed":true,"internalType":"uint256","name":"votingPeriod","type":"uint256"},{"indexed":true,"internalType":"uint256","name":"trackId","type":"uint256"},{"indexed":false,"internalType":"uint256","name":"voteCount","type":"uint256"}],"name":"WinnerSelected","type":"event"},{"inputs":[{"internalType":"uint256[]","name":"_trackIds","type":"uint256[]"},{"internalType":"uint256[]","name":"_voteCounts","type":"uint256[]"}],"name":"adminBatchVote","outputs":[],"stateMutability":"nonpayable","type":"function"},{"inputs":[{"internalType":"uint256","name":"","type":"uint256"}],"name":"allTrackIds","outputs":[{"internalType":"uint256","name":"","type":"uint256"}],"stateMutability":"view","type":"function"},{"inputs":[{"internalType":"address","name":"","type":"address"}],"name":"artistIdByWallet","outputs":[{"internalType":"uint256","name":"","type":"uint256"}],"stateMutability":"view","type":"function"},{"inputs":[{"internalType":"uint256","name":"","type":"uint256"}],"name":"artists","outputs":[{"internalType":"uint256","name":"id","type":"uint256"},{"internalType":"string","name":"name","type":"string"},{"internalType":"address payable","name":"artistWallet","type":"address"},{"internalType":"bool","name":"isRegistered","type":"bool"}],"stateMutability":"view","type":"function"},{"inputs":[],"name":"axpToken","outputs":[{"internalType":"contract IERC20","name":"","type":"address"}],"stateMutability":"view","type":"function"},{"inputs":[{"internalType":"uint256","name":"_trackId","type":"uint256"},{"internalType":"address[]","name":"_recipients","type":"address[]"}],"name":"batchDistributeShareRewards","outputs":[],"stateMutability":"nonpayable","type":"function"},{"inputs":[{"internalType":"address[]","name":"artistWallets","type":"address[]"},{"internalType":"string[]","name":"artistNames","type":"string[]"},{"internalType":"string[]","name":"trackTitles","type":"string[]"},{"internalType":"string[]","name":"genres","type":"string[]"},{"internalType":"string[]","name":"videoUrls","type":"string[]"},{"internalType":"string[]","name":"coverImageUrls","type":"string[]"}],"name":"batchRegisterAndUpload","outputs":[],"stateMutability":"nonpayable","type":"function"},{"inputs":[],"name":"currentVotingPeriod","outputs":[{"internalType":"uint256","name":"","type":"uint256"}],"stateMutability":"view","type":"function"},{"inputs":[{"internalType":"uint256[]","name":"_trackIdsForPeriod","type":"uint256[]"}],"name":"finalizeVotingAndSelectWinner","outputs":[],"stateMutability":"nonpayable","type":"function"},{"inputs":[],"name":"getAllTrackIds","outputs":[{"internalType":"uint256[]","name":"","type":"uint256[]"}],"stateMutability":"view","type":"function"},{"inputs":[{"internalType":"uint256","name":"artistId","type":"uint256"}],"name":"getArtist","outputs":[{"components":[{"internalType":"uint256","name":"id","type":"uint256"},{"internalType":"string","name":"name","type":"string"},{"internalType":"address payable","name":"artistWallet","type":"address"},{"internalType":"bool","name":"isRegistered","type":"bool"}],"internalType":"struct AxepVoting.Artist","name":"","type":"tuple"}],"stateMutability":"view","type":"function"},{"inputs":[],"name":"getOfficialGenres","outputs":[{"internalType":"string[]","name":"","type":"string[]"}],"stateMutability":"view","type":"function"},{"inputs":[{"internalType":"uint256","name":"trackId","type":"uint256"}],"name":"getTrack","outputs":[{"components":[{"internalType":"uint256","name":"id","type":"uint256"},{"internalType":"uint256","name":"artistId","type":"uint256"},{"internalType":"string","name":"title","type":"string"},{"internalType":"string","name":"genre","type":"string"},{"internalType":"string","name":"videoUrl","type":"string"},{"internalType":"string","name":"coverImageUrl","type":"string"},{"internalType":"uint256","name":"uploadTimestamp","type":"uint256"}],"internalType":"struct AxepVoting.Track","name":"","type":"tuple"}],"stateMutability":"view","type":"function"},{"inputs":[{"internalType":"string","name":"genre","type":"string"}],"name":"getTrackIdsByGenre","outputs":[{"internalType":"uint256[]","name":"","type":"uint256[]"}],"stateMutability":"view","type":"function"},{"inputs":[{"internalType":"uint256","name":"trackId","type":"uint256"}],"name":"getVoteCount","outputs":[{"internalType":"uint256","name":"","type":"uint256"}],"stateMutability":"view","type":"function"},{"inputs":[],"name":"getWinningTrackDetails","outputs":[{"components":[{"internalType":"uint256","name":"id","type":"uint256"},{"internalType":"uint256","name":"artistId","type":"uint256"},{"internalType":"string","name":"title","type":"string"},{"internalType":"string","name":"genre","type":"string"},{"internalType":"string","name":"videoUrl","type":"string"},{"internalType":"string","name":"coverImageUrl","type":"string"},{"internalType":"uint256","name":"uploadTimestamp","type":"uint256"}],"internalType":"struct AxepVoting.Track","name":"","type":"tuple"},{"components":[{"internalType":"uint256","name":"id","type":"uint256"},{"internalType":"string","name":"name","type":"string"},{"internalType":"address payable","name":"artistWallet","type":"address"},{"internalType":"bool","name":"isRegistered","type":"bool"}],"internalType":"struct AxepVoting.Artist","name":"","type":"tuple"}],"stateMutability":"view","type":"function"},{"inputs":[{"internalType":"uint256","name":"","type":"uint256"}],"name":"historicalWinners","outputs":[{"internalType":"uint256","name":"","type":"uint256"}],"stateMutability":"view","type":"function"},{"inputs":[],"name":"lastWinnerTimestamp","outputs":[{"internalType":"uint256","name":"","type":"uint256"}],"stateMutability":"view","type":"function"},{"inputs":[{"internalType":"uint256","name":"","type":"uint256"}],"name":"officialGenres","outputs":[{"internalType":"string","name":"","type":"string"}],"stateMutability":"view","type":"function"},{"inputs":[],"name":"owner","outputs":[{"internalType":"address","name":"","type":"address"}],"stateMutability":"view","type":"function"},{"inputs":[{"internalType":"uint256","name":"","type":"uint256"},{"internalType":"address","name":"","type":"address"}],"name":"proofOfShares","outputs":[{"internalType":"string","name":"url1","type":"string"},{"internalType":"string","name":"url2","type":"string"}],"stateMutability":"view","type":"function"},{"inputs":[{"internalType":"uint256","name":"_trackId","type":"uint256"},{"internalType":"string","name":"_shareUrl1","type":"string"},{"internalType":"string","name":"_shareUrl2","type":"string"}],"name":"recordShare","outputs":[],"stateMutability":"nonpayable","type":"function"},{"inputs":[],"name":"renounceOwnership","outputs":[],"stateMutability":"nonpayable","type":"function"},{"inputs":[{"internalType":"uint256","name":"","type":"uint256"},{"internalType":"address","name":"","type":"address"}],"name":"rewardedShares","outputs":[{"internalType":"bool","name":"","type":"bool"}],"stateMutability":"view","type":"function"},{"inputs":[{"internalType":"uint256","name":"_newAmount","type":"uint256"}],"name":"setShareRewardAmount","outputs":[],"stateMutability":"nonpayable","type":"function"},{"inputs":[],"name":"shareRewardAmount","outputs":[{"internalType":"uint256","name":"","type":"uint256"}],"stateMutability":"view","type":"function"},{"inputs":[{"internalType":"uint256","name":"","type":"uint256"}],"name":"trackVotes","outputs":[{"internalType":"uint256","name":"","type":"uint256"}],"stateMutability":"view","type":"function"},{"inputs":[{"internalType":"uint256","name":"","type":"uint256"}],"name":"tracks","outputs":[{"internalType":"uint256","name":"id","type":"uint256"},{"internalType":"uint256","name":"artistId","type":"uint256"},{"internalType":"string","name":"title","type":"string"},{"internalType":"string","name":"genre","type":"string"},{"internalType":"string","name":"videoUrl","type":"string"},{"internalType":"string","name":"coverImageUrl","type":"string"},{"internalType":"uint256","name":"uploadTimestamp","type":"uint256"}],"stateMutability":"view","type":"function"},{"inputs":[{"internalType":"address","name":"newOwner","type":"address"}],"name":"transferOwnership","outputs":[],"stateMutability":"nonpayable","type":"function"},{"inputs":[],"name":"winningTrackId","outputs":[{"internalType":"uint256","name":"","type":"uint256"}],"stateMutability":"view","type":"function"},{"inputs":[],"name":"withdraw","outputs":[],"stateMutability":"nonpayable","type":"function"}],"evm":{"bytecode":{"linkReferences":{},"object":"6080346102a057601f61293838819003918201601f19168301916001600160401b03831184841017610247578084926020946040528339810103126102a057516001600160a01b038116908190036102a057331561028a5760008054336001600160a01b0319821681178355916001600160a01b03909116907f8be0079c531659141344cd1fd0a4f28419497f9722a3daafe3b4186f6b6457e09080a3600180546001600160a01b031916919091178155681b1ae4d6e2ef500000600f55600b5560025468010000000000000000811015610247578060016100e492016002556102a5565b610231576100fb6100f582546102d6565b82610310565b6006620506f760ec1b019055600254680100000000000000008110156102475780600161012b92016002556102a5565b6102315761013c6100f582546102d6565b60086314dbdd5b60e21b019055600254680100000000000000008110156102475780600161016d92016002556102a5565b6102315761017e6100f582546102d6565b600863526f636b60e01b01905560025468010000000000000000811015610247578060016101af92016002556102a5565b610231576101bd81546102d6565b601f811161025d575b50600e66436f756e74727960c81b01905560025468010000000000000000811015610247578060016101fb92016002556102a5565b6102315761020c6100f582546102d6565b60066205241560ec1b019055600160058190556007556040516125f190816103478239f35b634e487b7160e01b600052600060045260246000fd5b634e487b7160e01b600052604160045260246000fd5b81600052601f6020600020910160051c8101905b81811061027e57506101c6565b60008155600101610271565b631e4fbdf760e01b600052600060045260246000fd5b600080fd5b6002548110156102c057600260005260206000200190600090565b634e487b7160e01b600052603260045260246000fd5b90600182811c92168015610306575b60208310146102f057565b634e487b7160e01b600052602260045260246000fd5b91607f16916102e5565b601f821161031c575050565b600052601f6020600020910160051c8101905b81811061033a575050565b6000815560010161032f56fe60a0604052600436101561001257600080fd5b60003560e01c806302f7120514611f3a578063280a37cb14611f1c5780632eb6678a146114ed57806334ae2c0d146114cf5780633a049e02146114b15780633ccfd60b1461146a57806352da0c9d1461143057806354b46fde14610ffe57806355c13ec314610fd55780635ec24b2114610e05578063629058ca14610d5c57806365e71ae814610d0a5780636799194514610ca9578063715018a614610c505780637792f1e114610ad0578063811dd0e214610a4e5780638da5cb5b14610a2557806399da8ded146109f95780639be9fcbb146109ac5780639c756237146108a2578063a2e34586146107e3578063b2c2f2e814610197578063c3a3c0a214610754578063cd7e10c1146106e1578063df6f321e1461065e578063df8aec2614610640578063e7c2ab96146103af578063f03f07e31461024c578063f2fde38b146101c3578063f4d468b1146101975763ff9eed7e1461017157600080fd5b346101925760203660031901126101925761018a61248a565b600435600f55005b600080fd5b346101925760203660031901126101925760043560005260086020526020604060002054604051908152f35b34610192576020366003190112610192576101dc611fca565b6101e461248a565b6001600160a01b0316801561023657600080546001600160a01b03198116831782556001600160a01b0316907f8be0079c531659141344cd1fd0a4f28419497f9722a3daafe3b4186f6b6457e09080a3005b631e4fbdf760e01b600052600060045260246000fd5b3461019257600036600319011261019257610265612407565b5061026e612465565b50600c54801561036b57600052600660205261035960406000206040519061029582612035565b805482526006600182015491602084019283526102b460028201612071565b60408501526102c560038201612071565b60608501526102d660048201612071565b60808501526102e760058201612071565b60a0850152015460c0830152516000526003602052610367604060002060ff6002604051926103158461201a565b8054845261032560018201612071565b6020850152015460018060a01b038116604084015260a01c16151560608201526040519384936040855260408501906121b3565b90838203602085015261226f565b0390f35b606460405162461bcd60e51b815260206004820152602060248201527f4e6f2077696e6e657220686173206265656e2073656c6563746564207965742e6044820152fd5b34610192576040366003190112610192576004356024356001600160401b038111610192576103e2903690600401612156565b6103ed92919261248a565b600f546001546040516370a0823160e01b815230600482015291929190602090829060249082906001600160a01b03165afa90811561056a5760009161060e575b50818302908382048314841517156105f857106105a35760005b8181106104785733847ff77e05dfacf7f446845eb8e90bd8a9feb80574445b3de6bfd146ad7920e33829600080a3005b61048b61048682848861232c565b61233c565b8460005260106020526104b560408060002060009060018060a01b03851682526020522054611fe0565b151580610576575b6104cb575b50600101610448565b60008581526011602090815260408083206001600160a01b03948516808552908352818420805460ff1916600190811790915554915163a9059cbb60e01b81526004810191909152602481018890529391928492604492849291165af1801561056a57156104c2576020813d8211610562575b8161054b60209383612050565b8101031261019257518015150361019257856104c2565b3d915061053e565b6040513d6000823e3d90fd5b5060008581526011602090815260408083206001600160a01b038516845290915290205460ff16156104bd565b60405162461bcd60e51b815260206004820152602760248201527f496e73756666696369656e7420746f6b656e2062616c616e636520696e20636f604482015266373a3930b1ba1760c91b6064820152608490fd5b634e487b7160e01b600052601160045260246000fd5b90506020813d602011610638575b8161062960209383612050565b8101031261019257518561042e565b3d915061061c565b34610192576000366003190112610192576020600d54604051908152f35b3461019257600036600319011261019257604051806020600a54918281520190600a6000527fc65a7bb8d6351c1cf70c95a316cc6a92839c986682d98bc35f958f4883f9d2a89060005b8181106106cb57610367856106bf81870382612050565b604051918291826122ae565b82548452602090930192600192830192016106a8565b3461019257602036600319011261019257600435600052600360205260406000208054600261071260018401612071565b92015460ff6107336040519485948552608060208601526080850190612115565b6001600160a01b038316604085015260a09290921c16151560608301520390f35b34610192576020366003190112610192576004356001600160401b038111610192576107866020913690600401612186565b91908260405193849283378101600981520301902060405190816020825491828152019160005260206000209060005b8181106107cd57610367856106bf81870382612050565b82548452602090930192600192830192016107b6565b346101925760203660031901126101925760043560005260066020526040600020805460018201549161089861081b60028301612071565b9161088a61082b60038301612071565b61087c61083a60048501612071565b9161086e600661084c60058801612071565b960154976040519a8b9a8b5260208b015260e060408b015260e08a0190612115565b9088820360608a0152612115565b908682036080880152612115565b9084820360a0860152612115565b9060c08301520390f35b34610192576000366003190112610192576002546001600160401b03811161099657604051906108d860208260051b0183612050565b80825260208201908160026000527f405787fa12a823e0f2b7631cc41b3ba8828b3321ca811111fa75cd3aa3bb5ace6000915b83831061097957848660405191829160208301906020845251809152604083019060408160051b85010192916000905b82821061094a57505050500390f35b919360019193955060206109698192603f198a82030186528851612115565b960192019201859493919261093b565b60016020819261098885612071565b81520192019201919061090b565b634e487b7160e01b600052604160045260246000fd5b34610192576040366003190112610192576109c5611fb4565b600435600052601160205260406000209060018060a01b0316600052602052602060ff604060002054166040519015158152f35b3461019257602036600319011261019257600435600052600e6020526020604060002054604051908152f35b34610192576000366003190112610192576000546040516001600160a01b039091168152602090f35b3461019257602036600319011261019257610a67612465565b506004356000526003602052610367604060002060ff600260405192610a8c8461201a565b80548452610a9c60018201612071565b6020850152015460018060a01b038116604084015260a01c161515606082015260405191829160208352602083019061226f565b34610192576040366003190112610192576004356001600160401b03811161019257610b00903690600401612156565b906024356001600160401b03811161019257610b20903690600401612156565b610b2b93919361248a565b808203610bfb5760005b828110610b8d57507ff2b9e90bfaf9ed9eb417943f4795ce9cdb1ceb01ab2f6bb4c6aacb1a75fd5b1a93610b8891610b7a604051958695604087526040870191612441565b918483036020860152612441565b0390a1005b610b9881848661232c565b3590610ba581848861232c565b3591806000526006602052604060002054151580610bf2575b610bce575b506001915001610b35565b600052600860205260406000209182549081018091116105f8576001925586610bc3565b50821515610bbe565b60405162461bcd60e51b815260206004820152602760248201527f496e70757420617272617973206d7573742068617665207468652073616d65206044820152663632b733ba341760c91b6064820152608490fd5b3461019257600036600319011261019257610c6961248a565b600080546001600160a01b0319811682556001600160a01b03167f8be0079c531659141344cd1fd0a4f28419497f9722a3daafe3b4186f6b6457e08280a3005b346101925760203660031901126101925760043560025481101561019257610cd090612226565b610cf457610ce061036791612071565b604051918291602083526020830190612115565b634e487b7160e01b600052600060045260246000fd5b3461019257602036600319011261019257600435600a5481101561019257600090600a54811015610d4857602082600a829452200154604051908152f35b634e487b7160e01b82526032600452602482fd5b3461019257602036600319011261019257610d75612407565b5060043560005260066020526103676040600020600660405191610d9883612035565b8054835260018101546020840152610db260028201612071565b6040840152610dc360038201612071565b6060840152610dd460048201612071565b6080840152610de560058201612071565b60a0840152015460c08201526040519182916020835260208301906121b3565b34610192576020366003190112610192576004356001600160401b03811161019257610e35903690600401612156565b610e3d61248a565b8015610f735760008060005b838110610f3a57508015610edf5780600c5542600d55600b54600052600e602052604060002055600b547fbc60b4ddaf6218ef27c409e11db4650da92d0e629854fdce8e5604c9611ad0006020600c5493604051908152a360005b818110610ebb57610eb6600b546123f8565b600b55005b80610ec9600192848661232c565b3560005260086020526000604081205501610ea4565b60405162461bcd60e51b815260206004820152602d60248201527f4e6f20747261636b207769746820766f74657320666f756e6420746f2073656c60448201526c32b1ba1030903bb4b73732b91760991b6064820152608490fd5b610f4581858761232c565b35806000526008602052604060002054848111610f67575b5050600101610e49565b93509150600186610f5d565b60405162461bcd60e51b815260206004820152603460248201527f43616e6e6f742064657465726d696e652077696e6e65722066726f6d20616e2060448201527332b6b83a3c9039b2ba1037b3103a3930b1b5b99760611b6064820152608490fd5b34610192576000366003190112610192576001546040516001600160a01b039091168152602090f35b34610192576060366003190112610192576004356024356001600160401b03811161019257611031903690600401612186565b90916044356001600160401b03811161019257611052903690600401612186565b939092826000526006602052604060002054156113f35780156113ae5784156113695760405194604086018681106001600160401b038211176109965760405261109d368385612391565b86526110aa368287612391565b602080880191825260008681526010825260408082203383529092522096518051919791906001600160401b038211610996576110e78354611fe0565b601f8111611321575b50602090601f83116001146112b7576001939291600091836112ac575b5050600019600383901b1c191690831b1781555b0195519586516001600160401b0381116109965761113f8254611fe0565b601f8111611264575b506020601f82116001146111d65790806111c69493927f8e41a1b58d45ebe3112baecb14dad2fac46fcafc623aac79399668a89d9391e498999a6000926111cb575b50508160011b916000199060031b1c19161790555b6111b66040519485946040865260408601916123d7565b90838203602085015233976123d7565b0390a3005b015190508a8061118a565b601f1982169883600052816000209960005b81811061124c57509960019284926111c69796957f8e41a1b58d45ebe3112baecb14dad2fac46fcafc623aac79399668a89d9391e49b9c9d10611233575b505050811b01905561119f565b015160001960f88460031b161c191690558a8080611226565b838301518c556001909b019a602093840193016111e8565b826000526020600020601f830160051c810191602084106112a2575b601f0160051c01905b8181106112965750611148565b60008155600101611289565b9091508190611280565b015190508a8061110d565b90601f1983169184600052816000209260005b81811061130957509160019594929183879593106112f0575b505050811b018155611121565b015160001960f88460031b161c191690558a80806112e3565b929360206001819287860151815501950193016112ca565b836000526020600020601f840160051c8101916020851061135f575b601f0160051c01905b81811061135357506110f0565b60008155600101611346565b909150819061133d565b60405162461bcd60e51b815260206004820152601b60248201527f53686172652055524c322063616e6e6f7420626520656d7074792e00000000006044820152606490fd5b60405162461bcd60e51b815260206004820152601b60248201527f53686172652055524c312063616e6e6f7420626520656d7074792e00000000006044820152606490fd5b60405162461bcd60e51b81526020600482015260156024820152742a3930b1b5903237b2b9903737ba1032bc34b9ba1760591b6044820152606490fd5b34610192576020366003190112610192576001600160a01b03611451611fca565b1660005260046020526020604060002054604051908152f35b346101925760003660031901126101925761148361248a565b6000805481908190819047906001600160a01b03168282156114a8575bf11561056a57005b506108fc6114a0565b34610192576000366003190112610192576020600b54604051908152f35b34610192576000366003190112610192576020600c54604051908152f35b346101925760c0366003190112610192576004356001600160401b0381116101925761151d903690600401612156565b906024356001600160401b0381116101925761153d903690600401612156565b6044939193356001600160401b0381116101925761155f903690600401612156565b608052906064356001600160401b03811161019257611582903690600401612156565b6084356001600160401b038111610192576115a1903690600401612156565b909360a4356001600160401b038111610192576115c2903690600401612156565b9990916115cd61248a565b6115d8818a146122e8565b6115e56080518a146122e8565b6115f0858a146122e8565b6115fb848a146122e8565b6116068b8a146122e8565b60005b89811061161257005b80808a8a8f948f8f8a8a8f948f94908f948161165f8f61165761164b848093611645610486836116679a61166f9d61232c565b9a612350565b9f909e60805190612350565b9a909b612350565b97909a612350565b9c9094612350565b97909160018060a01b03169081600052600460205260406000205415600014611f045761169c85896124b3565b15611eab57600554906116ae826123f8565b600555819a6040516116bf8161201a565b8381526116cd368385612391565b6020820190815260408201918683526060810191600183528660005260036020526040600020915182556001820190518051906001600160401b038211610996576117188354611fe0565b601f8111611e63575b50602090601f8311600114611dd3579180600294927f8443301405f337e5d871773f81107fb07d77d5f08fd2a5c7157a9c89951268ab9a9998979694600092611dc8575b50508160011b916000199060031b1c19161790555b92519201805491516001600160a81b03199092166001600160a01b03939093169290921790151560a01b60ff60a01b1617905560008581526004602090815260409182902086905590518181529283926117d6928401916123d7565b0390a35b600754966117e7886123f8565b600755604051916117f783612035565b88835260208301918a83528c611846611811368a8c612391565b6040870190815293611837611827368b8f612391565b936060890194855236908a612391565b93608088019485523691612391565b9260a0860193845260c08601944286528c60005260066020526040600020965187555160018701556002860190518051906001600160401b0382116109965781906118918454611fe0565b601f8111611d75575b50602090601f8311600114611d1057600092611d05575b50508160011b916000199060031b1c19161790555b51805160038601916001600160401b0382116109965781906118e88454611fe0565b601f8111611cb2575b50602090601f8311600114611c4d57600092611c42575b50508160011b916000199060031b1c19161790555b51805160048501916001600160401b03821161099657819061193f8454611fe0565b601f8111611bef575b50602090601f8311600114611b8a57600092611b7f575b50508160011b916000199060031b1c19161790555b51805160058401916001600160401b038211610996576119948354611fe0565b601f8111611b37575b50602090601f8311600114611acc5760069493929160009183611ac1575b50508160011b916000199060031b1c19161790555b51910155856000526008602052600060408120556040518286823760208184810160098152030190208054600160401b81101561099657611a1b81611a349360018b94018155612257565b90919082549060031b91821b91600019901b1916179055565b600a5498600160401b8a101561099657611aaa7f39628c05242773d13ef5deaadb11828a34886bb12e6fef9357c4ea00d158738196611ab894611a858a611a1b60019f60018101600a55600a612257565b611a9c60405198899860608a5260608a01916123d7565b9187830360208901526123d7565b9184830360408601526123d7565b0390a301611609565b0151905038806119bb565b90601f1983169184600052816000209260005b818110611b1f575091600193918560069897969410611b06575b505050811b0190556119d0565b015160001960f88460031b161c19169055388080611af9565b92936020600181928786015181550195019301611adf565b836000526020600020601f840160051c81019160208510611b75575b601f0160051c01905b818110611b69575061199d565b60008155600101611b5c565b9091508190611b53565b01519050388061195f565b60008581528281209350601f198516905b818110611bd75750908460019594939210611bbe575b505050811b019055611974565b015160001960f88460031b161c19169055388080611bb1565b92936020600181928786015181550195019301611b9b565b909150836000526020600020601f840160051c81019160208510611c38575b90601f859493920160051c01905b818110611c295750611948565b60008155849350600101611c1c565b9091508190611c0e565b015190503880611908565b60008581528281209350601f198516905b818110611c9a5750908460019594939210611c81575b505050811b01905561191d565b015160001960f88460031b161c19169055388080611c74565b92936020600181928786015181550195019301611c5e565b909150836000526020600020601f840160051c81019160208510611cfb575b90601f859493920160051c01905b818110611cec57506118f1565b60008155849350600101611cdf565b9091508190611cd1565b0151905038806118b1565b60008581528281209350601f198516905b818110611d5d5750908460019594939210611d44575b505050811b0190556118c6565b015160001960f88460031b161c19169055388080611d37565b92936020600181928786015181550195019301611d21565b909150836000526020600020601f840160051c81019160208510611dbe575b90601f859493920160051c01905b818110611daf575061189a565b60008155849350600101611da2565b9091508190611d94565b015190503880611765565b90601f1983169184600052816000209260005b818110611e4b57509260019285927f8443301405f337e5d871773f81107fb07d77d5f08fd2a5c7157a9c89951268ab9c9b9a9998966002989610611e32575b505050811b01905561177a565b015160001960f88460031b161c19169055388080611e25565b92936020600181928786015181550195019301611de6565b836000526020600020601f840160051c81019160208510611ea1575b601f0160051c01905b818110611e955750611721565b60008155600101611e88565b9091508190611e7f565b60405162461bcd60e51b815260206004820152602b60248201527f496e76616c69642067656e726520666f72206e6577206172746973742773206660448201526a34b939ba103a3930b1b59760a91b6064820152608490fd5b509097506000526004602052604060002054966117da565b34610192576000366003190112610192576020600f54604051908152f35b3461019257604036600319011261019257611f53611fb4565b600435600052601060205260406000209060018060a01b0316600052602052611fa66040600020610367611f926001611f8b84612071565b9301612071565b604051938493604085526040850190612115565b908382036020850152612115565b602435906001600160a01b038216820361019257565b600435906001600160a01b038216820361019257565b90600182811c92168015612010575b6020831014611ffa57565b634e487b7160e01b600052602260045260246000fd5b91607f1691611fef565b608081019081106001600160401b0382111761099657604052565b60e081019081106001600160401b0382111761099657604052565b90601f801991011681019081106001600160401b0382111761099657604052565b906040519182600082549261208584611fe0565b80845293600181169081156120f357506001146120ac575b506120aa92500383612050565b565b90506000929192526020600020906000915b8183106120d75750509060206120aa928201013861209d565b60209193508060019154838589010152019101909184926120be565b9050602092506120aa94915060ff191682840152151560051b8201013861209d565b919082519283825260005b848110612141575050826000602080949584010152601f8019910116010190565b80602080928401015182828601015201612120565b9181601f84011215610192578235916001600160401b038311610192576020808501948460051b01011161019257565b9181601f84011215610192578235916001600160401b038311610192576020838186019501011161019257565b90815181526020820151602082015260c08061221d61220b6121f96121e7604088015160e0604089015260e0880190612115565b60608801518782036060890152612115565b60808701518682036080880152612115565b60a086015185820360a0870152612115565b93015191015290565b60025481101561224157600260005260206000200190600090565b634e487b7160e01b600052603260045260246000fd5b80548210156122415760005260206000200190600090565b90815181526060806122906020850151608060208601526080850190612115565b6040808601516001600160a01b031690850152930151151591015290565b602060408183019282815284518094520192019060005b8181106122d25750505090565b82518452602093840193909201916001016122c5565b156122ef57565b60405162461bcd60e51b8152602060048201526015602482015274082e4e4c2f240d8cadccee8d040dad2e6dac2e8c6d605b1b6044820152606490fd5b91908110156122415760051b0190565b356001600160a01b03811681036101925790565b91908110156122415760051b81013590601e19813603018212156101925701908135916001600160401b038311610192576020018236038113610192579190565b9291926001600160401b03821161099657604051916123ba601f8201601f191660200184612050565b829481845281830111610192578281602093846000960137010152565b908060209392818452848401376000828201840152601f01601f1916010190565b60001981146105f85760010190565b6040519061241482612035565b600060c0838281528260208201526060604082015260608082015260606080820152606060a08201520152565b81835290916001600160fb1b0383116101925760209260051b809284830137010190565b604051906124728261201a565b60006060838281528160208201528260408201520152565b6000546001600160a01b0316330361249e57565b63118cdaa760e01b6000523360045260246000fd5b600254919060005b8381106124cb5750505050600090565b6124d481612226565b5060405160208101918160008254926124ec84611fe0565b936001811690811561259d575060011461255b575b50612515925003601f198101835282612050565b5190206040516020810190858583376125426020828881016000838201520301601f198101835282612050565b51902014612552576001016124bb565b50505050600190565b9150506000528160206000206000905b83821061258357505060206125159282010138612501565b60209192508060019154838588010152019101839161256b565b60ff191687525061251593801515028301602001915038905061250156fea26469706673582212202b15146a3d07a373f6fe04b698f2d481ad163a5dd0e96aa6b1f7cc2e95efc81a64736f6c634300081e0033","opcodes":"PUSH1 0x80 CALLVALUE PUSH2 0x2A0 JUMPI PUSH1 0x1F PUSH2 0x2938 CODESIZE DUP2 SWAP1 SUB SWAP2 DUP3 ADD PUSH1 0x1F NOT AND DUP4 ADD SWAP2 PUSH1 0x1 PUSH1 0x1 PUSH1 0x40 SHL SUB DUP4 GT DUP5 DUP5 LT OR PUSH2 0x247 JUMPI DUP1 DUP5 SWAP3 PUSH1 0x20 SWAP5 PUSH1 0x40 MSTORE DUP4 CODECOPY DUP2 ADD SUB SLT PUSH2 0x2A0 JUMPI MLOAD PUSH1 0x1 PUSH1 0x1 PUSH1 0xA0 SHL SUB DUP2 AND SWAP1 DUP2 SWAP1 SUB PUSH2 0x2A0 JUMPI CALLER ISZERO PUSH2 0x28A JUMPI PUSH1 0x0 DUP1 SLOAD CALLER PUSH1 0x1 PUSH1 0x1 PUSH1 0xA0 SHL SUB NOT DUP3 AND DUP2 OR DUP4 SSTORE SWAP2 PUSH1 0x1 PUSH1 0x1 PUSH1 0xA0 SHL SUB SWAP1 SWAP2 AND SWAP1 PUSH32 0x8BE0079C531659141344CD1FD0A4F28419497F9722A3DAAFE3B4186F6B6457E0 SWAP1 DUP1 LOG3 PUSH1 0x1 DUP1 SLOAD PUSH1 0x1 PUSH1 0x1 PUSH1 0xA0 SHL SUB NOT AND SWAP2 SWAP1 SWAP2 OR DUP2 SSTORE PUSH9 0x1B1AE4D6E2EF500000 PUSH1 0xF SSTORE PUSH1 0xB SSTORE PUSH1 0x2 SLOAD PUSH9 0x10000000000000000 DUP2 LT ISZERO PUSH2 0x247 JUMPI DUP1 PUSH1 0x1 PUSH2 0xE4 SWAP3 ADD PUSH1 0x2 SSTORE PUSH2 0x2A5 JUMP JUMPDEST PUSH2 0x231 JUMPI PUSH2 0xFB PUSH2 0xF5 DUP3 SLOAD PUSH2 0x2D6 JUMP JUMPDEST DUP3 PUSH2 0x310 JUMP JUMPDEST PUSH1 0x6 PUSH3 0x506F7 PUSH1 0xEC SHL ADD SWAP1 SSTORE PUSH1 0x2 SLOAD PUSH9 0x10000000000000000 DUP2 LT ISZERO PUSH2 0x247 JUMPI DUP1 PUSH1 0x1 PUSH2 0x12B SWAP3 ADD PUSH1 0x2 SSTORE PUSH2 0x2A5 JUMP JUMPDEST PUSH2 0x231 JUMPI PUSH2 0x13C PUSH2 0xF5 DUP3 SLOAD PUSH2 0x2D6 JUMP JUMPDEST PUSH1 0x8 PUSH4 0x14DBDD5B PUSH1 0xE2 SHL ADD SWAP1 SSTORE PUSH1 0x2 SLOAD PUSH9 0x10000000000000000 DUP2 LT ISZERO PUSH2 0x247 JUMPI DUP1 PUSH1 0x1 PUSH2 0x16D SWAP3 ADD PUSH1 0x2 SSTORE PUSH2 0x2A5 JUMP JUMPDEST PUSH2 0x231 JUMPI PUSH2 0x17E PUSH2 0xF5 DUP3 SLOAD PUSH2 0x2D6 JUMP JUMPDEST PUSH1 0x8 PUSH4 0x526F636B PUSH1 0xE0 SHL ADD SWAP1 SSTORE PUSH1 0x2 SLOAD PUSH9 0x10000000000000000 DUP2 LT ISZERO PUSH2 0x247 JUMPI DUP1 PUSH1 0x1 PUSH2 0x1AF SWAP3 ADD PUSH1 0x2 SSTORE PUSH2 0x2A5 JUMP JUMPDEST PUSH2 0x231 JUMPI PUSH2 0x1BD DUP2 SLOAD PUSH2 0x2D6 JUMP JUMPDEST PUSH1 0x1F DUP2 GT PUSH2 0x25D JUMPI JUMPDEST POP PUSH1 0xE PUSH7 0x436F756E747279 PUSH1 0xC8 SHL ADD SWAP1 SSTORE PUSH1 0x2 SLOAD PUSH9 0x10000000000000000 DUP2 LT ISZERO PUSH2 0x247 JUMPI DUP1 PUSH1 0x1 PUSH2 0x1FB SWAP3 ADD PUSH1 0x2 SSTORE PUSH2 0x2A5 JUMP JUMPDEST PUSH2 0x231 JUMPI PUSH2 0x20C PUSH2 0xF5 DUP3 SLOAD PUSH2 0x2D6 JUMP JUMPDEST PUSH1 0x6 PUSH3 0x52415 PUSH1 0xEC SHL ADD SWAP1 SSTORE PUSH1 0x1 PUSH1 0x5 DUP2 SWAP1 SSTORE PUSH1 0x7 SSTORE PUSH1 0x40 MLOAD PUSH2 0x25F1 SWAP1 DUP2 PUSH2 0x347 DUP3 CODECOPY RETURN JUMPDEST PUSH4 0x4E487B71 PUSH1 0xE0 SHL PUSH1 0x0 MSTORE PUSH1 0x0 PUSH1 0x4 MSTORE PUSH1 0x24 PUSH1 0x0 REVERT JUMPDEST PUSH4 0x4E487B71 PUSH1 0xE0 SHL PUSH1 0x0 MSTORE PUSH1 0x41 PUSH1 0x4 MSTORE PUSH1 0x24 PUSH1 0x0 REVERT JUMPDEST DUP2 PUSH1 0x0 MSTORE PUSH1 0x1F PUSH1 0x20 PUSH1 0x0 KECCAK256 SWAP2 ADD PUSH1 0x5 SHR DUP2 ADD SWAP1 JUMPDEST DUP2 DUP2 LT PUSH2 0x27E JUMPI POP PUSH2 0x1C6 JUMP JUMPDEST PUSH1 0x0 DUP2 SSTORE PUSH1 0x1 ADD PUSH2 0x271 JUMP JUMPDEST PUSH4 0x1E4FBDF7 PUSH1 0xE0 SHL PUSH1 0x0 MSTORE PUSH1 0x0 PUSH1 0x4 MSTORE PUSH1 0x24 PUSH1 0x0 REVERT JUMPDEST PUSH1 0x0 DUP1 REVERT JUMPDEST PUSH1 0x2 SLOAD DUP2 LT ISZERO PUSH2 0x2C0 JUMPI PUSH1 0x2 PUSH1 0x0 MSTORE PUSH1 0x20 PUSH1 0x0 KECCAK256 ADD SWAP1 PUSH1 0x0 SWAP1 JUMP JUMPDEST PUSH4 0x4E487B71 PUSH1 0xE0 SHL PUSH1 0x0 MSTORE PUSH1 0x32 PUSH1 0x4 MSTORE PUSH1 0x24 PUSH1 0x0 REVERT JUMPDEST SWAP1 PUSH1 0x1 DUP3 DUP2 SHR SWAP3 AND DUP1 ISZERO PUSH2 0x306 JUMPI JUMPDEST PUSH1 0x20 DUP4 LT EQ PUSH2 0x2F0 JUMPI JUMP JUMPDEST PUSH4 0x4E487B71 PUSH1 0xE0 SHL PUSH1 0x0 MSTORE PUSH1 0x22 PUSH1 0x4 MSTORE PUSH1 0x24 PUSH1 0x0 REVERT JUMPDEST SWAP2 PUSH1 0x7F AND SWAP2 PUSH2 0x2E5 JUMP JUMPDEST PUSH1 0x1F DUP3 GT PUSH2 0x31C JUMPI POP POP JUMP JUMPDEST PUSH1 0x0 MSTORE PUSH1 0x1F PUSH1 0x20 PUSH1 0x0 KECCAK256 SWAP2 ADD PUSH1 0x5 SHR DUP2 ADD SWAP1 JUMPDEST DUP2 DUP2 LT PUSH2 0x33A JUMPI POP POP JUMP JUMPDEST PUSH1 0x0 DUP2 SSTORE PUSH1 0x1 ADD PUSH2 0x32F JUMP INVALID PUSH1 0xA0 PUSH1 0x40 MSTORE PUSH1 0x4 CALLDATASIZE LT ISZERO PUSH2 0x12 JUMPI PUSH1 0x0 DUP1 REVERT JUMPDEST PUSH1 0x0 CALLDATALOAD PUSH1 0xE0 SHR DUP1 PUSH4 0x2F71205 EQ PUSH2 0x1F3A JUMPI DUP1 PUSH4 0x280A37CB EQ PUSH2 0x1F1C JUMPI DUP1 PUSH4 0x2EB6678A EQ PUSH2 0x14ED JUMPI DUP1 PUSH4 0x34AE2C0D EQ PUSH2 0x14CF JUMPI DUP1 PUSH4 0x3A049E02 EQ PUSH2 0x14B1 JUMPI DUP1 PUSH4 0x3CCFD60B EQ PUSH2 0x146A JUMPI DUP1 PUSH4 0x52DA0C9D EQ PUSH2 0x1430 JUMPI DUP1 PUSH4 0x54B46FDE EQ PUSH2 0xFFE JUMPI DUP1 PUSH4 0x55C13EC3 EQ PUSH2 0xFD5 JUMPI DUP1 PUSH4 0x5EC24B21 EQ PUSH2 0xE05 JUMPI DUP1 PUSH4 0x629058CA EQ PUSH2 0xD5C JUMPI DUP1 PUSH4 0x65E71AE8 EQ PUSH2 0xD0A JUMPI DUP1 PUSH4 0x67991945 EQ PUSH2 0xCA9 JUMPI DUP1 PUSH4 0x715018A6 EQ PUSH2 0xC50 JUMPI DUP1 PUSH4 0x7792F1E1 EQ PUSH2 0xAD0 JUMPI DUP1 PUSH4 0x811DD0E2 EQ PUSH2 0xA4E JUMPI DUP1 PUSH4 0x8DA5CB5B EQ PUSH2 0xA25 JUMPI DUP1 PUSH4 0x99DA8DED EQ PUSH2 0x9F9 JUMPI DUP1 PUSH4 0x9BE9FCBB EQ PUSH2 0x9AC JUMPI DUP1 PUSH4 0x9C756237 EQ PUSH2 0x8A2 JUMPI DUP1 PUSH4 0xA2E34586 EQ PUSH2 0x7E3 JUMPI DUP1 PUSH4 0xB2C2F2E8 EQ PUSH2 0x197 JUMPI DUP1 PUSH4 0xC3A3C0A2 EQ PUSH2 0x754 JUMPI DUP1 PUSH4 0xCD7E10C1 EQ PUSH2 0x6E1 JUMPI DUP1 PUSH4 0xDF6F321E EQ PUSH2 0x65E JUMPI DUP1 PUSH4 0xDF8AEC26 EQ PUSH2 0x640 JUMPI DUP1 PUSH4 0xE7C2AB96 EQ PUSH2 0x3AF JUMPI DUP1 PUSH4 0xF03F07E3 EQ PUSH2 0x24C JUMPI DUP1 PUSH4 0xF2FDE38B EQ PUSH2 0x1C3 JUMPI DUP1 PUSH4 0xF4D468B1 EQ PUSH2 0x197 JUMPI PUSH4 0xFF9EED7E EQ PUSH2 0x171 JUMPI PUSH1 0x0 DUP1 REVERT JUMPDEST CALLVALUE PUSH2 0x192 JUMPI PUSH1 0x20 CALLDATASIZE PUSH1 0x3 NOT ADD SLT PUSH2 0x192 JUMPI PUSH2 0x18A PUSH2 0x248A JUMP JUMPDEST PUSH1 0x4 CALLDATALOAD PUSH1 0xF SSTORE STOP JUMPDEST PUSH1 0x0 DUP1 REVERT JUMPDEST CALLVALUE PUSH2 0x192 JUMPI PUSH1 0x20 CALLDATASIZE PUSH1 0x3 NOT ADD SLT PUSH2 0x192 JUMPI PUSH1 0x4 CALLDATALOAD PUSH1 0x0 MSTORE PUSH1 0x8 PUSH1 0x20 MSTORE PUSH1 0x20 PUSH1 0x40 PUSH1 0x0 KECCAK256 SLOAD PUSH1 0x40 MLOAD SWAP1 DUP2 MSTORE RETURN JUMPDEST CALLVALUE PUSH2 0x192 JUMPI PUSH1 0x20 CALLDATASIZE PUSH1 0x3 NOT ADD SLT PUSH2 0x192 JUMPI PUSH2 0x1DC PUSH2 0x1FCA JUMP JUMPDEST PUSH2 0x1E4 PUSH2 0x248A JUMP JUMPDEST PUSH1 0x1 PUSH1 0x1 PUSH1 0xA0 SHL SUB AND DUP1 ISZERO PUSH2 0x236 JUMPI PUSH1 0x0 DUP1 SLOAD PUSH1 0x1 PUSH1 0x1 PUSH1 0xA0 SHL SUB NOT DUP2 AND DUP4 OR DUP3 SSTORE PUSH1 0x1 PUSH1 0x1 PUSH1 0xA0 SHL SUB AND SWAP1 PUSH32 0x8BE0079C531659141344CD1FD0A4F28419497F9722A3DAAFE3B4186F6B6457E0 SWAP1 DUP1 LOG3 STOP JUMPDEST PUSH4 0x1E4FBDF7 PUSH1 0xE0 SHL PUSH1 0x0 MSTORE PUSH1 0x0 PUSH1 0x4 MSTORE PUSH1 0x24 PUSH1 0x0 REVERT JUMPDEST CALLVALUE PUSH2 0x192 JUMPI PUSH1 0x0 CALLDATASIZE PUSH1 0x3 NOT ADD SLT PUSH2 0x192 JUMPI PUSH2 0x265 PUSH2 0x2407 JUMP JUMPDEST POP PUSH2 0x26E PUSH2 0x2465 JUMP JUMPDEST POP PUSH1 0xC SLOAD DUP1 ISZERO PUSH2 0x36B JUMPI PUSH1 0x0 MSTORE PUSH1 0x6 PUSH1 0x20 MSTORE PUSH2 0x359 PUSH1 0x40 PUSH1 0x0 KECCAK256 PUSH1 0x40 MLOAD SWAP1 PUSH2 0x295 DUP3 PUSH2 0x2035 JUMP JUMPDEST DUP1 SLOAD DUP3 MSTORE PUSH1 0x6 PUSH1 0x1 DUP3 ADD SLOAD SWAP2 PUSH1 0x20 DUP5 ADD SWAP3 DUP4 MSTORE PUSH2 0x2B4 PUSH1 0x2 DUP3 ADD PUSH2 0x2071 JUMP JUMPDEST PUSH1 0x40 DUP6 ADD MSTORE PUSH2 0x2C5 PUSH1 0x3 DUP3 ADD PUSH2 0x2071 JUMP JUMPDEST PUSH1 0x60 DUP6 ADD MSTORE PUSH2 0x2D6 PUSH1 0x4 DUP3 ADD PUSH2 0x2071 JUMP JUMPDEST PUSH1 0x80 DUP6 ADD MSTORE PUSH2 0x2E7 PUSH1 0x5 DUP3 ADD PUSH2 0x2071 JUMP JUMPDEST PUSH1 0xA0 DUP6 ADD MSTORE ADD SLOAD PUSH1 0xC0 DUP4 ADD MSTORE MLOAD PUSH1 0x0 MSTORE PUSH1 0x3 PUSH1 0x20 MSTORE PUSH2 0x367 PUSH1 0x40 PUSH1 0x0 KECCAK256 PUSH1 0xFF PUSH1 0x2 PUSH1 0x40 MLOAD SWAP3 PUSH2 0x315 DUP5 PUSH2 0x201A JUMP JUMPDEST DUP1 SLOAD DUP5 MSTORE PUSH2 0x325 PUSH1 0x1 DUP3 ADD PUSH2 0x2071 JUMP JUMPDEST PUSH1 0x20 DUP6 ADD MSTORE ADD SLOAD PUSH1 0x1 DUP1 PUSH1 0xA0 SHL SUB DUP2 AND PUSH1 0x40 DUP5 ADD MSTORE PUSH1 0xA0 SHR AND ISZERO ISZERO PUSH1 0x60 DUP3 ADD MSTORE PUSH1 0x40 MLOAD SWAP4 DUP5 SWAP4 PUSH1 0x40 DUP6 MSTORE PUSH1 0x40 DUP6 ADD SWAP1 PUSH2 0x21B3 JUMP JUMPDEST SWAP1 DUP4 DUP3 SUB PUSH1 0x20 DUP6 ADD MSTORE PUSH2 0x226F JUMP JUMPDEST SUB SWAP1 RETURN JUMPDEST PUSH1 0x64 PUSH1 0x40 MLOAD PUSH3 0x461BCD PUSH1 0xE5 SHL DUP2 MSTORE PUSH1 0x20 PUSH1 0x4 DUP3 ADD MSTORE PUSH1 0x20 PUSH1 0x24 DUP3 ADD MSTORE PUSH32 0x4E6F2077696E6E657220686173206265656E2073656C6563746564207965742E PUSH1 0x44 DUP3 ADD MSTORE REVERT JUMPDEST CALLVALUE PUSH2 0x192 JUMPI PUSH1 0x40 CALLDATASIZE PUSH1 0x3 NOT ADD SLT PUSH2 0x192 JUMPI PUSH1 0x4 CALLDATALOAD PUSH1 0x24 CALLDATALOAD PUSH1 0x1 PUSH1 0x1 PUSH1 0x40 SHL SUB DUP2 GT PUSH2 0x192 JUMPI PUSH2 0x3E2 SWAP1 CALLDATASIZE SWAP1 PUSH1 0x4 ADD PUSH2 0x2156 JUMP JUMPDEST PUSH2 0x3ED SWAP3 SWAP2 SWAP3 PUSH2 0x248A JUMP JUMPDEST PUSH1 0xF SLOAD PUSH1 0x1 SLOAD PUSH1 0x40 MLOAD PUSH4 0x70A08231 PUSH1 0xE0 SHL DUP2 MSTORE ADDRESS PUSH1 0x4 DUP3 ADD MSTORE SWAP2 SWAP3 SWAP2 SWAP1 PUSH1 0x20 SWAP1 DUP3 SWAP1 PUSH1 0x24 SWAP1 DUP3 SWAP1 PUSH1 0x1 PUSH1 0x1 PUSH1 0xA0 SHL SUB AND GAS STATICCALL SWAP1 DUP2 ISZERO PUSH2 0x56A JUMPI PUSH1 0x0 SWAP2 PUSH2 0x60E JUMPI JUMPDEST POP DUP2 DUP4 MUL SWAP1 DUP4 DUP3 DIV DUP4 EQ DUP5 ISZERO OR ISZERO PUSH2 0x5F8 JUMPI LT PUSH2 0x5A3 JUMPI PUSH1 0x0 JUMPDEST DUP2 DUP2 LT PUSH2 0x478 JUMPI CALLER DUP5 PUSH32 0xF77E05DFACF7F446845EB8E90BD8A9FEB80574445B3DE6BFD146AD7920E33829 PUSH1 0x0 DUP1 LOG3 STOP JUMPDEST PUSH2 0x48B PUSH2 0x486 DUP3 DUP5 DUP9 PUSH2 0x232C JUMP JUMPDEST PUSH2 0x233C JUMP JUMPDEST DUP5 PUSH1 0x0 MSTORE PUSH1 0x10 PUSH1 0x20 MSTORE PUSH2 0x4B5 PUSH1 0x40 DUP1 PUSH1 0x0 KECCAK256 PUSH1 0x0 SWAP1 PUSH1 0x1 DUP1 PUSH1 0xA0 SHL SUB DUP6 AND DUP3 MSTORE PUSH1 0x20 MSTORE KECCAK256 SLOAD PUSH2 0x1FE0 JUMP JUMPDEST ISZERO ISZERO DUP1 PUSH2 0x576 JUMPI JUMPDEST PUSH2 0x4CB JUMPI JUMPDEST POP PUSH1 0x1 ADD PUSH2 0x448 JUMP JUMPDEST PUSH1 0x0 DUP6 DUP2 MSTORE PUSH1 0x11 PUSH1 0x20 SWAP1 DUP2 MSTORE PUSH1 0x40 DUP1 DUP4 KECCAK256 PUSH1 0x1 PUSH1 0x1 PUSH1 0xA0 SHL SUB SWAP5 DUP6 AND DUP1 DUP6 MSTORE SWAP1 DUP4 MSTORE DUP2 DUP5 KECCAK256 DUP1 SLOAD PUSH1 0xFF NOT AND PUSH1 0x1 SWAP1 DUP2 OR SWAP1 SWAP2 SSTORE SLOAD SWAP2 MLOAD PUSH4 0xA9059CBB PUSH1 0xE0 SHL DUP2 MSTORE PUSH1 0x4 DUP2 ADD SWAP2 SWAP1 SWAP2 MSTORE PUSH1 0x24 DUP2 ADD DUP9 SWAP1 MSTORE SWAP4 SWAP2 SWAP3 DUP5 SWAP3 PUSH1 0x44 SWAP3 DUP5 SWAP3 SWAP2 AND GAS CALL DUP1 ISZERO PUSH2 0x56A JUMPI ISZERO PUSH2 0x4C2 JUMPI PUSH1 0x20 DUP2 RETURNDATASIZE DUP3 GT PUSH2 0x562 JUMPI JUMPDEST DUP2 PUSH2 0x54B PUSH1 0x20 SWAP4 DUP4 PUSH2 0x2050 JUMP JUMPDEST DUP2 ADD SUB SLT PUSH2 0x192 JUMPI MLOAD DUP1 ISZERO ISZERO SUB PUSH2 0x192 JUMPI DUP6 PUSH2 0x4C2 JUMP JUMPDEST RETURNDATASIZE SWAP2 POP PUSH2 0x53E JUMP JUMPDEST PUSH1 0x40 MLOAD RETURNDATASIZE PUSH1 0x0 DUP3 RETURNDATACOPY RETURNDATASIZE SWAP1 REVERT JUMPDEST POP PUSH1 0x0 DUP6 DUP2 MSTORE PUSH1 0x11 PUSH1 0x20 SWAP1 DUP2 MSTORE PUSH1 0x40 DUP1 DUP4 KECCAK256 PUSH1 0x1 PUSH1 0x1 PUSH1 0xA0 SHL SUB DUP6 AND DUP5 MSTORE SWAP1 SWAP2 MSTORE SWAP1 KECCAK256 SLOAD PUSH1 0xFF AND ISZERO PUSH2 0x4BD JUMP JUMPDEST PUSH1 0x40 MLOAD PUSH3 0x461BCD PUSH1 0xE5 SHL DUP2 MSTORE PUSH1 0x20 PUSH1 0x4 DUP3 ADD MSTORE PUSH1 0x27 PUSH1 0x24 DUP3 ADD MSTORE PUSH32 0x496E73756666696369656E7420746F6B656E2062616C616E636520696E20636F PUSH1 0x44 DUP3 ADD MSTORE PUSH7 0x373A3930B1BA17 PUSH1 0xC9 SHL PUSH1 0x64 DUP3 ADD MSTORE PUSH1 0x84 SWAP1 REVERT JUMPDEST PUSH4 0x4E487B71 PUSH1 0xE0 SHL PUSH1 0x0 MSTORE PUSH1 0x11 PUSH1 0x4 MSTORE PUSH1 0x24 PUSH1 0x0 REVERT JUMPDEST SWAP1 POP PUSH1 0x20 DUP2 RETURNDATASIZE PUSH1 0x20 GT PUSH2 0x638 JUMPI JUMPDEST DUP2 PUSH2 0x629 PUSH1 0x20 SWAP4 DUP4 PUSH2 0x2050 JUMP JUMPDEST DUP2 ADD SUB SLT PUSH2 0x192 JUMPI MLOAD DUP6 PUSH2 0x42E JUMP JUMPDEST RETURNDATASIZE SWAP2 POP PUSH2 0x61C JUMP JUMPDEST CALLVALUE PUSH2 0x192 JUMPI PUSH1 0x0 CALLDATASIZE PUSH1 0x3 NOT ADD SLT PUSH2 0x192 JUMPI PUSH1 0x20 PUSH1 0xD SLOAD PUSH1 0x40 MLOAD SWAP1 DUP2 MSTORE RETURN JUMPDEST CALLVALUE PUSH2 0x192 JUMPI PUSH1 0x0 CALLDATASIZE PUSH1 0x3 NOT ADD SLT PUSH2 0x192 JUMPI PUSH1 0x40 MLOAD DUP1 PUSH1 0x20 PUSH1 0xA SLOAD SWAP2 DUP3 DUP2 MSTORE ADD SWAP1 PUSH1 0xA PUSH1 0x0 MSTORE PUSH32 0xC65A7BB8D6351C1CF70C95A316CC6A92839C986682D98BC35F958F4883F9D2A8 SWAP1 PUSH1 0x0 JUMPDEST DUP2 DUP2 LT PUSH2 0x6CB JUMPI PUSH2 0x367 DUP6 PUSH2 0x6BF DUP2 DUP8 SUB DUP3 PUSH2 0x2050 JUMP JUMPDEST PUSH1 0x40 MLOAD SWAP2 DUP3 SWAP2 DUP3 PUSH2 0x22AE JUMP JUMPDEST DUP3 SLOAD DUP5 MSTORE PUSH1 0x20 SWAP1 SWAP4 ADD SWAP3 PUSH1 0x1 SWAP3 DUP4 ADD SWAP3 ADD PUSH2 0x6A8 JUMP JUMPDEST CALLVALUE PUSH2 0x192 JUMPI PUSH1 0x20 CALLDATASIZE PUSH1 0x3 NOT ADD SLT PUSH2 0x192 JUMPI PUSH1 0x4 CALLDATALOAD PUSH1 0x0 MSTORE PUSH1 0x3 PUSH1 0x20 MSTORE PUSH1 0x40 PUSH1 0x0 KECCAK256 DUP1 SLOAD PUSH1 0x2 PUSH2 0x712 PUSH1 0x1 DUP5 ADD PUSH2 0x2071 JUMP JUMPDEST SWAP3 ADD SLOAD PUSH1 0xFF PUSH2 0x733 PUSH1 0x40 MLOAD SWAP5 DUP6 SWAP5 DUP6 MSTORE PUSH1 0x80 PUSH1 0x20 DUP7 ADD MSTORE PUSH1 0x80 DUP6 ADD SWAP1 PUSH2 0x2115 JUMP JUMPDEST PUSH1 0x1 PUSH1 0x1 PUSH1 0xA0 SHL SUB DUP4 AND PUSH1 0x40 DUP6 ADD MSTORE PUSH1 0xA0 SWAP3 SWAP1 SWAP3 SHR AND ISZERO ISZERO PUSH1 0x60 DUP4 ADD MSTORE SUB SWAP1 RETURN JUMPDEST CALLVALUE PUSH2 0x192 JUMPI PUSH1 0x20 CALLDATASIZE PUSH1 0x3 NOT ADD SLT PUSH2 0x192 JUMPI PUSH1 0x4 CALLDATALOAD PUSH1 0x1 PUSH1 0x1 PUSH1 0x40 SHL SUB DUP2 GT PUSH2 0x192 JUMPI PUSH2 0x786 PUSH1 0x20 SWAP2 CALLDATASIZE SWAP1 PUSH1 0x4 ADD PUSH2 0x2186 JUMP JUMPDEST SWAP2 SWAP1 DUP3 PUSH1 0x40 MLOAD SWAP4 DUP5 SWAP3 DUP4 CALLDATACOPY DUP2 ADD PUSH1 0x9 DUP2 MSTORE SUB ADD SWAP1 KECCAK256 PUSH1 0x40 MLOAD SWAP1 DUP2 PUSH1 0x20 DUP3 SLOAD SWAP2 DUP3 DUP2 MSTORE ADD SWAP2 PUSH1 0x0 MSTORE PUSH1 0x20 PUSH1 0x0 KECCAK256 SWAP1 PUSH1 0x0 JUMPDEST DUP2 DUP2 LT PUSH2 0x7CD JUMPI PUSH2 0x367 DUP6 PUSH2 0x6BF DUP2 DUP8 SUB DUP3 PUSH2 0x2050 JUMP JUMPDEST DUP3 SLOAD DUP5 MSTORE PUSH1 0x20 SWAP1 SWAP4 ADD SWAP3 PUSH1 0x1 SWAP3 DUP4 ADD SWAP3 ADD PUSH2 0x7B6 JUMP JUMPDEST CALLVALUE PUSH2 0x192 JUMPI PUSH1 0x20 CALLDATASIZE PUSH1 0x3 NOT ADD SLT PUSH2 0x192 JUMPI PUSH1 0x4 CALLDATALOAD PUSH1 0x0 MSTORE PUSH1 0x6 PUSH1 0x20 MSTORE PUSH1 0x40 PUSH1 0x0 KECCAK256 DUP1 SLOAD PUSH1 0x1 DUP3 ADD SLOAD SWAP2 PUSH2 0x898 PUSH2 0x81B PUSH1 0x2 DUP4 ADD PUSH2 0x2071 JUMP JUMPDEST SWAP2 PUSH2 0x88A PUSH2 0x82B PUSH1 0x3 DUP4 ADD PUSH2 0x2071 JUMP JUMPDEST PUSH2 0x87C PUSH2 0x83A PUSH1 0x4 DUP6 ADD PUSH2 0x2071 JUMP JUMPDEST SWAP2 PUSH2 0x86E PUSH1 0x6 PUSH2 0x84C PUSH1 0x5 DUP9 ADD PUSH2 0x2071 JUMP JUMPDEST SWAP7 ADD SLOAD SWAP8 PUSH1 0x40 MLOAD SWAP11 DUP12 SWAP11 DUP12 MSTORE PUSH1 0x20 DUP12 ADD MSTORE PUSH1 0xE0 PUSH1 0x40 DUP12 ADD MSTORE PUSH1 0xE0 DUP11 ADD SWAP1 PUSH2 0x2115 JUMP JUMPDEST SWAP1 DUP9 DUP3 SUB PUSH1 0x60 DUP11 ADD MSTORE PUSH2 0x2115 JUMP JUMPDEST SWAP1 DUP7 DUP3 SUB PUSH1 0x80 DUP9 ADD MSTORE PUSH2 0x2115 JUMP JUMPDEST SWAP1 DUP5 DUP3 SUB PUSH1 0xA0 DUP7 ADD MSTORE PUSH2 0x2115 JUMP JUMPDEST SWAP1 PUSH1 0xC0 DUP4 ADD MSTORE SUB SWAP1 RETURN JUMPDEST CALLVALUE PUSH2 0x192 JUMPI PUSH1 0x0 CALLDATASIZE PUSH1 0x3 NOT ADD SLT PUSH2 0x192 JUMPI PUSH1 0x2 SLOAD PUSH1 0x1 PUSH1 0x1 PUSH1 0x40 SHL SUB DUP2 GT PUSH2 0x996 JUMPI PUSH1 0x40 MLOAD SWAP1 PUSH2 0x8D8 PUSH1 0x20 DUP3 PUSH1 0x5 SHL ADD DUP4 PUSH2 0x2050 JUMP JUMPDEST DUP1 DUP3 MSTORE PUSH1 0x20 DUP3 ADD SWAP1 DUP2 PUSH1 0x2 PUSH1 0x0 MSTORE PUSH32 0x405787FA12A823E0F2B7631CC41B3BA8828B3321CA811111FA75CD3AA3BB5ACE PUSH1 0x0 SWAP2 JUMPDEST DUP4 DUP4 LT PUSH2 0x979 JUMPI DUP5 DUP7 PUSH1 0x40 MLOAD SWAP2 DUP3 SWAP2 PUSH1 0x20 DUP4 ADD SWAP1 PUSH1 0x20 DUP5 MSTORE MLOAD DUP1 SWAP2 MSTORE PUSH1 0x40 DUP4 ADD SWAP1 PUSH1 0x40 DUP2 PUSH1 0x5 SHL DUP6 ADD ADD SWAP3 SWAP2 PUSH1 0x0 SWAP1 JUMPDEST DUP3 DUP3 LT PUSH2 0x94A JUMPI POP POP POP POP SUB SWAP1 RETURN JUMPDEST SWAP2 SWAP4 PUSH1 0x1 SWAP2 SWAP4 SWAP6 POP PUSH1 0x20 PUSH2 0x969 DUP2 SWAP3 PUSH1 0x3F NOT DUP11 DUP3 SUB ADD DUP7 MSTORE DUP9 MLOAD PUSH2 0x2115 JUMP JUMPDEST SWAP7 ADD SWAP3 ADD SWAP3 ADD DUP6 SWAP5 SWAP4 SWAP2 SWAP3 PUSH2 0x93B JUMP JUMPDEST PUSH1 0x1 PUSH1 0x20 DUP2 SWAP3 PUSH2 0x988 DUP6 PUSH2 0x2071 JUMP JUMPDEST DUP2 MSTORE ADD SWAP3 ADD SWAP3 ADD SWAP2 SWAP1 PUSH2 0x90B JUMP JUMPDEST PUSH4 0x4E487B71 PUSH1 0xE0 SHL PUSH1 0x0 MSTORE PUSH1 0x41 PUSH1 0x4 MSTORE PUSH1 0x24 PUSH1 0x0 REVERT JUMPDEST CALLVALUE PUSH2 0x192 JUMPI PUSH1 0x40 CALLDATASIZE PUSH1 0x3 NOT ADD SLT PUSH2 0x192 JUMPI PUSH2 0x9C5 PUSH2 0x1FB4 JUMP JUMPDEST PUSH1 0x4 CALLDATALOAD PUSH1 0x0 MSTORE PUSH1 0x11 PUSH1 0x20 MSTORE PUSH1 0x40 PUSH1 0x0 KECCAK256 SWAP1 PUSH1 0x1 DUP1 PUSH1 0xA0 SHL SUB AND PUSH1 0x0 MSTORE PUSH1 0x20 MSTORE PUSH1 0x20 PUSH1 0xFF PUSH1 0x40 PUSH1 0x0 KECCAK256 SLOAD AND PUSH1 0x40 MLOAD SWAP1 ISZERO ISZERO DUP2 MSTORE RETURN JUMPDEST CALLVALUE PUSH2 0x192 JUMPI PUSH1 0x20 CALLDATASIZE PUSH1 0x3 NOT ADD SLT PUSH2 0x192 JUMPI PUSH1 0x4 CALLDATALOAD PUSH1 0x0 MSTORE PUSH1 0xE PUSH1 0x20 MSTORE PUSH1 0x20 PUSH1 0x40 PUSH1 0x0 KECCAK256 SLOAD PUSH1 0x40 MLOAD SWAP1 DUP2 MSTORE RETURN JUMPDEST CALLVALUE PUSH2 0x192 JUMPI PUSH1 0x0 CALLDATASIZE PUSH1 0x3 NOT ADD SLT PUSH2 0x192 JUMPI PUSH1 0x0 SLOAD PUSH1 0x40 MLOAD PUSH1 0x1 PUSH1 0x1 PUSH1 0xA0 SHL SUB SWAP1 SWAP2 AND DUP2 MSTORE PUSH1 0x20 SWAP1 RETURN JUMPDEST CALLVALUE PUSH2 0x192 JUMPI PUSH1 0x20 CALLDATASIZE PUSH1 0x3 NOT ADD SLT PUSH2 0x192 JUMPI PUSH2 0xA67 PUSH2 0x2465 JUMP JUMPDEST POP PUSH1 0x4 CALLDATALOAD PUSH1 0x0 MSTORE PUSH1 0x3 PUSH1 0x20 MSTORE PUSH2 0x367 PUSH1 0x40 PUSH1 0x0 KECCAK256 PUSH1 0xFF PUSH1 0x2 PUSH1 0x40 MLOAD SWAP3 PUSH2 0xA8C DUP5 PUSH2 0x201A JUMP JUMPDEST DUP1 SLOAD DUP5 MSTORE PUSH2 0xA9C PUSH1 0x1 DUP3 ADD PUSH2 0x2071 JUMP JUMPDEST PUSH1 0x20 DUP6 ADD MSTORE ADD SLOAD PUSH1 0x1 DUP1 PUSH1 0xA0 SHL SUB DUP2 AND PUSH1 0x40 DUP5 ADD MSTORE PUSH1 0xA0 SHR AND ISZERO ISZERO PUSH1 0x60 DUP3 ADD MSTORE PUSH1 0x40 MLOAD SWAP2 DUP3 SWAP2 PUSH1 0x20 DUP4 MSTORE PUSH1 0x20 DUP4 ADD SWAP1 PUSH2 0x226F JUMP JUMPDEST CALLVALUE PUSH2 0x192 JUMPI PUSH1 0x40 CALLDATASIZE PUSH1 0x3 NOT ADD SLT PUSH2 0x192 JUMPI PUSH1 0x4 CALLDATALOAD PUSH1 0x1 PUSH1 0x1 PUSH1 0x40 SHL SUB DUP2 GT PUSH2 0x192 JUMPI PUSH2 0xB00 SWAP1 CALLDATASIZE SWAP1 PUSH1 0x4 ADD PUSH2 0x2156 JUMP JUMPDEST SWAP1 PUSH1 0x24 CALLDATALOAD PUSH1 0x1 PUSH1 0x1 PUSH1 0x40 SHL SUB DUP2 GT PUSH2 0x192 JUMPI PUSH2 0xB20 SWAP1 CALLDATASIZE SWAP1 PUSH1 0x4 ADD PUSH2 0x2156 JUMP JUMPDEST PUSH2 0xB2B SWAP4 SWAP2 SWAP4 PUSH2 0x248A JUMP JUMPDEST DUP1 DUP3 SUB PUSH2 0xBFB JUMPI PUSH1 0x0 JUMPDEST DUP3 DUP2 LT PUSH2 0xB8D JUMPI POP PUSH32 0xF2B9E90BFAF9ED9EB417943F4795CE9CDB1CEB01AB2F6BB4C6AACB1A75FD5B1A SWAP4 PUSH2 0xB88 SWAP2 PUSH2 0xB7A PUSH1 0x40 MLOAD SWAP6 DUP7 SWAP6 PUSH1 0x40 DUP8 MSTORE PUSH1 0x40 DUP8 ADD SWAP2 PUSH2 0x2441 JUMP JUMPDEST SWAP2 DUP5 DUP4 SUB PUSH1 0x20 DUP7 ADD MSTORE PUSH2 0x2441 JUMP JUMPDEST SUB SWAP1 LOG1 STOP JUMPDEST PUSH2 0xB98 DUP2 DUP5 DUP7 PUSH2 0x232C JUMP JUMPDEST CALLDATALOAD SWAP1 PUSH2 0xBA5 DUP2 DUP5 DUP9 PUSH2 0x232C JUMP JUMPDEST CALLDATALOAD SWAP2 DUP1 PUSH1 0x0 MSTORE PUSH1 0x6 PUSH1 0x20 MSTORE PUSH1 0x40 PUSH1 0x0 KECCAK256 SLOAD ISZERO ISZERO DUP1 PUSH2 0xBF2 JUMPI JUMPDEST PUSH2 0xBCE JUMPI JUMPDEST POP PUSH1 0x1 SWAP2 POP ADD PUSH2 0xB35 JUMP JUMPDEST PUSH1 0x0 MSTORE PUSH1 0x8 PUSH1 0x20 MSTORE PUSH1 0x40 PUSH1 0x0 KECCAK256 SWAP2 DUP3 SLOAD SWAP1 DUP2 ADD DUP1 SWAP2 GT PUSH2 0x5F8 JUMPI PUSH1 0x1 SWAP3 SSTORE DUP7 PUSH2 0xBC3 JUMP JUMPDEST POP DUP3 ISZERO ISZERO PUSH2 0xBBE JUMP JUMPDEST PUSH1 0x40 MLOAD PUSH3 0x461BCD PUSH1 0xE5 SHL DUP2 MSTORE PUSH1 0x20 PUSH1 0x4 DUP3 ADD MSTORE PUSH1 0x27 PUSH1 0x24 DUP3 ADD MSTORE PUSH32 0x496E70757420617272617973206D7573742068617665207468652073616D6520 PUSH1 0x44 DUP3 ADD MSTORE PUSH7 0x3632B733BA3417 PUSH1 0xC9 SHL PUSH1 0x64 DUP3 ADD MSTORE PUSH1 0x84 SWAP1 REVERT JUMPDEST CALLVALUE PUSH2 0x192 JUMPI PUSH1 0x0 CALLDATASIZE PUSH1 0x3 NOT ADD SLT PUSH2 0x192 JUMPI PUSH2 0xC69 PUSH2 0x248A JUMP JUMPDEST PUSH1 0x0 DUP1 SLOAD PUSH1 0x1 PUSH1 0x1 PUSH1 0xA0 SHL SUB NOT DUP2 AND DUP3 SSTORE PUSH1 0x1 PUSH1 0x1 PUSH1 0xA0 SHL SUB AND PUSH32 0x8BE0079C531659141344CD1FD0A4F28419497F9722A3DAAFE3B4186F6B6457E0 DUP3 DUP1 LOG3 STOP JUMPDEST CALLVALUE PUSH2 0x192 JUMPI PUSH1 0x20 CALLDATASIZE PUSH1 0x3 NOT ADD SLT PUSH2 0x192 JUMPI PUSH1 0x4 CALLDATALOAD PUSH1 0x2 SLOAD DUP2 LT ISZERO PUSH2 0x192 JUMPI PUSH2 0xCD0 SWAP1 PUSH2 0x2226 JUMP JUMPDEST PUSH2 0xCF4 JUMPI PUSH2 0xCE0 PUSH2 0x367 SWAP2 PUSH2 0x2071 JUMP JUMPDEST PUSH1 0x40 MLOAD SWAP2 DUP3 SWAP2 PUSH1 0x20 DUP4 MSTORE PUSH1 0x20 DUP4 ADD SWAP1 PUSH2 0x2115 JUMP JUMPDEST PUSH4 0x4E487B71 PUSH1 0xE0 SHL PUSH1 0x0 MSTORE PUSH1 0x0 PUSH1 0x4 MSTORE PUSH1 0x24 PUSH1 0x0 REVERT JUMPDEST CALLVALUE PUSH2 0x192 JUMPI PUSH1 0x20 CALLDATASIZE PUSH1 0x3 NOT ADD SLT PUSH2 0x192 JUMPI PUSH1 0x4 CALLDATALOAD PUSH1 0xA SLOAD DUP2 LT ISZERO PUSH2 0x192 JUMPI PUSH1 0x0 SWAP1 PUSH1 0xA SLOAD DUP2 LT ISZERO PUSH2 0xD48 JUMPI PUSH1 0x20 DUP3 PUSH1 0xA DUP3 SWAP5 MSTORE KECCAK256 ADD SLOAD PUSH1 0x40 MLOAD SWAP1 DUP2 MSTORE RETURN JUMPDEST PUSH4 0x4E487B71 PUSH1 0xE0 SHL DUP3 MSTORE PUSH1 0x32 PUSH1 0x4 MSTORE PUSH1 0x24 DUP3 REVERT JUMPDEST CALLVALUE PUSH2 0x192 JUMPI PUSH1 0x20 CALLDATASIZE PUSH1 0x3 NOT ADD SLT PUSH2 0x192 JUMPI PUSH2 0xD75 PUSH2 0x2407 JUMP JUMPDEST POP PUSH1 0x4 CALLDATALOAD PUSH1 0x0 MSTORE PUSH1 0x6 PUSH1 0x20 MSTORE PUSH2 0x367 PUSH1 0x40 PUSH1 0x0 KECCAK256 PUSH1 0x6 PUSH1 0x40 MLOAD SWAP2 PUSH2 0xD98 DUP4 PUSH2 0x2035 JUMP JUMPDEST DUP1 SLOAD DUP4 MSTORE PUSH1 0x1 DUP2 ADD SLOAD PUSH1 0x20 DUP5 ADD MSTORE PUSH2 0xDB2 PUSH1 0x2 DUP3 ADD PUSH2 0x2071 JUMP JUMPDEST PUSH1 0x40 DUP5 ADD MSTORE PUSH2 0xDC3 PUSH1 0x3 DUP3 ADD PUSH2 0x2071 JUMP JUMPDEST PUSH1 0x60 DUP5 ADD MSTORE PUSH2 0xDD4 PUSH1 0x4 DUP3 ADD PUSH2 0x2071 JUMP JUMPDEST PUSH1 0x80 DUP5 ADD MSTORE PUSH2 0xDE5 PUSH1 0x5 DUP3 ADD PUSH2 0x2071 JUMP JUMPDEST PUSH1 0xA0 DUP5 ADD MSTORE ADD SLOAD PUSH1 0xC0 DUP3 ADD MSTORE PUSH1 0x40 MLOAD SWAP2 DUP3 SWAP2 PUSH1 0x20 DUP4 MSTORE PUSH1 0x20 DUP4 ADD SWAP1 PUSH2 0x21B3 JUMP JUMPDEST CALLVALUE PUSH2 0x192 JUMPI PUSH1 0x20 CALLDATASIZE PUSH1 0x3 NOT ADD SLT PUSH2 0x192 JUMPI PUSH1 0x4 CALLDATALOAD PUSH1 0x1 PUSH1 0x1 PUSH1 0x40 SHL SUB DUP2 GT PUSH2 0x192 JUMPI PUSH2 0xE35 SWAP1 CALLDATASIZE SWAP1 PUSH1 0x4 ADD PUSH2 0x2156 JUMP JUMPDEST PUSH2 0xE3D PUSH2 0x248A JUMP JUMPDEST DUP1 ISZERO PUSH2 0xF73 JUMPI PUSH1 0x0 DUP1 PUSH1 0x0 JUMPDEST DUP4 DUP2 LT PUSH2 0xF3A JUMPI POP DUP1 ISZERO PUSH2 0xEDF JUMPI DUP1 PUSH1 0xC SSTORE TIMESTAMP PUSH1 0xD SSTORE PUSH1 0xB SLOAD PUSH1 0x0 MSTORE PUSH1 0xE PUSH1 0x20 MSTORE PUSH1 0x40 PUSH1 0x0 KECCAK256 SSTORE PUSH1 0xB SLOAD PUSH32 0xBC60B4DDAF6218EF27C409E11DB4650DA92D0E629854FDCE8E5604C9611AD000 PUSH1 0x20 PUSH1 0xC SLOAD SWAP4 PUSH1 0x40 MLOAD SWAP1 DUP2 MSTORE LOG3 PUSH1 0x0 JUMPDEST DUP2 DUP2 LT PUSH2 0xEBB JUMPI PUSH2 0xEB6 PUSH1 0xB SLOAD PUSH2 0x23F8 JUMP JUMPDEST PUSH1 0xB SSTORE STOP JUMPDEST DUP1 PUSH2 0xEC9 PUSH1 0x1 SWAP3 DUP5 DUP7 PUSH2 0x232C JUMP JUMPDEST CALLDATALOAD PUSH1 0x0 MSTORE PUSH1 0x8 PUSH1 0x20 MSTORE PUSH1 0x0 PUSH1 0x40 DUP2 KECCAK256 SSTORE ADD PUSH2 0xEA4 JUMP JUMPDEST PUSH1 0x40 MLOAD PUSH3 0x461BCD PUSH1 0xE5 SHL DUP2 MSTORE PUSH1 0x20 PUSH1 0x4 DUP3 ADD MSTORE PUSH1 0x2D PUSH1 0x24 DUP3 ADD MSTORE PUSH32 0x4E6F20747261636B207769746820766F74657320666F756E6420746F2073656C PUSH1 0x44 DUP3 ADD MSTORE PUSH13 0x32B1BA1030903BB4B73732B917 PUSH1 0x99 SHL PUSH1 0x64 DUP3 ADD MSTORE PUSH1 0x84 SWAP1 REVERT JUMPDEST PUSH2 0xF45 DUP2 DUP6 DUP8 PUSH2 0x232C JUMP JUMPDEST CALLDATALOAD DUP1 PUSH1 0x0 MSTORE PUSH1 0x8 PUSH1 0x20 MSTORE PUSH1 0x40 PUSH1 0x0 KECCAK256 SLOAD DUP5 DUP2 GT PUSH2 0xF67 JUMPI JUMPDEST POP POP PUSH1 0x1 ADD PUSH2 0xE49 JUMP JUMPDEST SWAP4 POP SWAP2 POP PUSH1 0x1 DUP7 PUSH2 0xF5D JUMP JUMPDEST PUSH1 0x40 MLOAD PUSH3 0x461BCD PUSH1 0xE5 SHL DUP2 MSTORE PUSH1 0x20 PUSH1 0x4 DUP3 ADD MSTORE PUSH1 0x34 PUSH1 0x24 DUP3 ADD MSTORE PUSH32 0x43616E6E6F742064657465726D696E652077696E6E65722066726F6D20616E20 PUSH1 0x44 DUP3 ADD MSTORE PUSH20 0x32B6B83A3C9039B2BA1037B3103A3930B1B5B997 PUSH1 0x61 SHL PUSH1 0x64 DUP3 ADD MSTORE PUSH1 0x84 SWAP1 REVERT JUMPDEST CALLVALUE PUSH2 0x192 JUMPI PUSH1 0x0 CALLDATASIZE PUSH1 0x3 NOT ADD SLT PUSH2 0x192 JUMPI PUSH1 0x1 SLOAD PUSH1 0x40 MLOAD PUSH1 0x1 PUSH1 0x1 PUSH1 0xA0 SHL SUB SWAP1 SWAP2 AND DUP2 MSTORE PUSH1 0x20 SWAP1 RETURN JUMPDEST CALLVALUE PUSH2 0x192 JUMPI PUSH1 0x60 CALLDATASIZE PUSH1 0x3 NOT ADD SLT PUSH2 0x192 JUMPI PUSH1 0x4 CALLDATALOAD PUSH1 0x24 CALLDATALOAD PUSH1 0x1 PUSH1 0x1 PUSH1 0x40 SHL SUB DUP2 GT PUSH2 0x192 JUMPI PUSH2 0x1031 SWAP1 CALLDATASIZE SWAP1 PUSH1 0x4 ADD PUSH2 0x2186 JUMP JUMPDEST SWAP1 SWAP2 PUSH1 0x44 CALLDATALOAD PUSH1 0x1 PUSH1 0x1 PUSH1 0x40 SHL SUB DUP2 GT PUSH2 0x192 JUMPI PUSH2 0x1052 SWAP1 CALLDATASIZE SWAP1 PUSH1 0x4 ADD PUSH2 0x2186 JUMP JUMPDEST SWAP4 SWAP1 SWAP3 DUP3 PUSH1 0x0 MSTORE PUSH1 0x6 PUSH1 0x20 MSTORE PUSH1 0x40 PUSH1 0x0 KECCAK256 SLOAD ISZERO PUSH2 0x13F3 JUMPI DUP1 ISZERO PUSH2 0x13AE JUMPI DUP5 ISZERO PUSH2 0x1369 JUMPI PUSH1 0x40 MLOAD SWAP5 PUSH1 0x40 DUP7 ADD DUP7 DUP2 LT PUSH1 0x1 PUSH1 0x1 PUSH1 0x40 SHL SUB DUP3 GT OR PUSH2 0x996 JUMPI PUSH1 0x40 MSTORE PUSH2 0x109D CALLDATASIZE DUP4 DUP6 PUSH2 0x2391 JUMP JUMPDEST DUP7 MSTORE PUSH2 0x10AA CALLDATASIZE DUP3 DUP8 PUSH2 0x2391 JUMP JUMPDEST PUSH1 0x20 DUP1 DUP9 ADD SWAP2 DUP3 MSTORE PUSH1 0x0 DUP7 DUP2 MSTORE PUSH1 0x10 DUP3 MSTORE PUSH1 0x40 DUP1 DUP3 KECCAK256 CALLER DUP4 MSTORE SWAP1 SWAP3 MSTORE KECCAK256 SWAP7 MLOAD DUP1 MLOAD SWAP2 SWAP8 SWAP2 SWAP1 PUSH1 0x1 PUSH1 0x1 PUSH1 0x40 SHL SUB DUP3 GT PUSH2 0x996 JUMPI PUSH2 0x10E7 DUP4 SLOAD PUSH2 0x1FE0 JUMP JUMPDEST PUSH1 0x1F DUP2 GT PUSH2 0x1321 JUMPI JUMPDEST POP PUSH1 0x20 SWAP1 PUSH1 0x1F DUP4 GT PUSH1 0x1 EQ PUSH2 0x12B7 JUMPI PUSH1 0x1 SWAP4 SWAP3 SWAP2 PUSH1 0x0 SWAP2 DUP4 PUSH2 0x12AC JUMPI JUMPDEST POP POP PUSH1 0x0 NOT PUSH1 0x3 DUP4 SWAP1 SHL SHR NOT AND SWAP1 DUP4 SHL OR DUP2 SSTORE JUMPDEST ADD SWAP6 MLOAD SWAP6 DUP7 MLOAD PUSH1 0x1 PUSH1 0x1 PUSH1 0x40 SHL SUB DUP2 GT PUSH2 0x996 JUMPI PUSH2 0x113F DUP3 SLOAD PUSH2 0x1FE0 JUMP JUMPDEST PUSH1 0x1F DUP2 GT PUSH2 0x1264 JUMPI JUMPDEST POP PUSH1 0x20 PUSH1 0x1F DUP3 GT PUSH1 0x1 EQ PUSH2 0x11D6 JUMPI SWAP1 DUP1 PUSH2 0x11C6 SWAP5 SWAP4 SWAP3 PUSH32 0x8E41A1B58D45EBE3112BAECB14DAD2FAC46FCAFC623AAC79399668A89D9391E4 SWAP9 SWAP10 SWAP11 PUSH1 0x0 SWAP3 PUSH2 0x11CB JUMPI JUMPDEST POP POP DUP2 PUSH1 0x1 SHL SWAP2 PUSH1 0x0 NOT SWAP1 PUSH1 0x3 SHL SHR NOT AND OR SWAP1 SSTORE JUMPDEST PUSH2 0x11B6 PUSH1 0x40 MLOAD SWAP5 DUP6 SWAP5 PUSH1 0x40 DUP7 MSTORE PUSH1 0x40 DUP7 ADD SWAP2 PUSH2 0x23D7 JUMP JUMPDEST SWAP1 DUP4 DUP3 SUB PUSH1 0x20 DUP6 ADD MSTORE CALLER SWAP8 PUSH2 0x23D7 JUMP JUMPDEST SUB SWAP1 LOG3 STOP JUMPDEST ADD MLOAD SWAP1 POP DUP11 DUP1 PUSH2 0x118A JUMP JUMPDEST PUSH1 0x1F NOT DUP3 AND SWAP9 DUP4 PUSH1 0x0 MSTORE DUP2 PUSH1 0x0 KECCAK256 SWAP10 PUSH1 0x0 JUMPDEST DUP2 DUP2 LT PUSH2 0x124C JUMPI POP SWAP10 PUSH1 0x1 SWAP3 DUP5 SWAP3 PUSH2 0x11C6 SWAP8 SWAP7 SWAP6 PUSH32 0x8E41A1B58D45EBE3112BAECB14DAD2FAC46FCAFC623AAC79399668A89D9391E4 SWAP12 SWAP13 SWAP14 LT PUSH2 0x1233 JUMPI JUMPDEST POP POP POP DUP2 SHL ADD SWAP1 SSTORE PUSH2 0x119F JUMP JUMPDEST ADD MLOAD PUSH1 0x0 NOT PUSH1 0xF8 DUP5 PUSH1 0x3 SHL AND SHR NOT AND SWAP1 SSTORE DUP11 DUP1 DUP1 PUSH2 0x1226 JUMP JUMPDEST DUP4 DUP4 ADD MLOAD DUP13 SSTORE PUSH1 0x1 SWAP1 SWAP12 ADD SWAP11 PUSH1 0x20 SWAP4 DUP5 ADD SWAP4 ADD PUSH2 0x11E8 JUMP JUMPDEST DUP3 PUSH1 0x0 MSTORE PUSH1 0x20 PUSH1 0x0 KECCAK256 PUSH1 0x1F DUP4 ADD PUSH1 0x5 SHR DUP2 ADD SWAP2 PUSH1 0x20 DUP5 LT PUSH2 0x12A2 JUMPI JUMPDEST PUSH1 0x1F ADD PUSH1 0x5 SHR ADD SWAP1 JUMPDEST DUP2 DUP2 LT PUSH2 0x1296 JUMPI POP PUSH2 0x1148 JUMP JUMPDEST PUSH1 0x0 DUP2 SSTORE PUSH1 0x1 ADD PUSH2 0x1289 JUMP JUMPDEST SWAP1 SWAP2 POP DUP2 SWAP1 PUSH2 0x1280 JUMP JUMPDEST ADD MLOAD SWAP1 POP DUP11 DUP1 PUSH2 0x110D JUMP JUMPDEST SWAP1 PUSH1 0x1F NOT DUP4 AND SWAP2 DUP5 PUSH1 0x0 MSTORE DUP2 PUSH1 0x0 KECCAK256 SWAP3 PUSH1 0x0 JUMPDEST DUP2 DUP2 LT PUSH2 0x1309 JUMPI POP SWAP2 PUSH1 0x1 SWAP6 SWAP5 SWAP3 SWAP2 DUP4 DUP8 SWAP6 SWAP4 LT PUSH2 0x12F0 JUMPI JUMPDEST POP POP POP DUP2 SHL ADD DUP2 SSTORE PUSH2 0x1121 JUMP JUMPDEST ADD MLOAD PUSH1 0x0 NOT PUSH1 0xF8 DUP5 PUSH1 0x3 SHL AND SHR NOT AND SWAP1 SSTORE DUP11 DUP1 DUP1 PUSH2 0x12E3 JUMP JUMPDEST SWAP3 SWAP4 PUSH1 0x20 PUSH1 0x1 DUP2 SWAP3 DUP8 DUP7 ADD MLOAD DUP2 SSTORE ADD SWAP6 ADD SWAP4 ADD PUSH2 0x12CA JUMP JUMPDEST DUP4 PUSH1 0x0 MSTORE PUSH1 0x20 PUSH1 0x0 KECCAK256 PUSH1 0x1F DUP5 ADD PUSH1 0x5 SHR DUP2 ADD SWAP2 PUSH1 0x20 DUP6 LT PUSH2 0x135F JUMPI JUMPDEST PUSH1 0x1F ADD PUSH1 0x5 SHR ADD SWAP1 JUMPDEST DUP2 DUP2 LT PUSH2 0x1353 JUMPI POP PUSH2 0x10F0 JUMP JUMPDEST PUSH1 0x0 DUP2 SSTORE PUSH1 0x1 ADD PUSH2 0x1346 JUMP JUMPDEST SWAP1 SWAP2 POP DUP2 SWAP1 PUSH2 0x133D JUMP JUMPDEST PUSH1 0x40 MLOAD PUSH3 0x461BCD PUSH1 0xE5 SHL DUP2 MSTORE PUSH1 0x20 PUSH1 0x4 DUP3 ADD MSTORE PUSH1 0x1B PUSH1 0x24 DUP3 ADD MSTORE PUSH32 0x53686172652055524C322063616E6E6F7420626520656D7074792E0000000000 PUSH1 0x44 DUP3 ADD MSTORE PUSH1 0x64 SWAP1 REVERT JUMPDEST PUSH1 0x40 MLOAD PUSH3 0x461BCD PUSH1 0xE5 SHL DUP2 MSTORE PUSH1 0x20 PUSH1 0x4 DUP3 ADD MSTORE PUSH1 0x1B PUSH1 0x24 DUP3 ADD MSTORE PUSH32 0x53686172652055524C312063616E6E6F7420626520656D7074792E0000000000 PUSH1 0x44 DUP3 ADD MSTORE PUSH1 0x64 SWAP1 REVERT JUMPDEST PUSH1 0x40 MLOAD PUSH3 0x461BCD PUSH1 0xE5 SHL DUP2 MSTORE PUSH1 0x20 PUSH1 0x4 DUP3 ADD MSTORE PUSH1 0x15 PUSH1 0x24 DUP3 ADD MSTORE PUSH21 0x2A3930B1B5903237B2B9903737BA1032BC34B9BA17 PUSH1 0x59 SHL PUSH1 0x44 DUP3 ADD MSTORE PUSH1 0x64 SWAP1 REVERT JUMPDEST CALLVALUE PUSH2 0x192 JUMPI PUSH1 0x20 CALLDATASIZE PUSH1 0x3 NOT ADD SLT PUSH2 0x192 JUMPI PUSH1 0x1 PUSH1 0x1 PUSH1 0xA0 SHL SUB PUSH2 0x1451 PUSH2 0x1FCA JUMP JUMPDEST AND PUSH1 0x0 MSTORE PUSH1 0x4 PUSH1 0x20 MSTORE PUSH1 0x20 PUSH1 0x40 PUSH1 0x0 KECCAK256 SLOAD PUSH1 0x40 MLOAD SWAP1 DUP2 MSTORE RETURN JUMPDEST CALLVALUE PUSH2 0x192 JUMPI PUSH1 0x0 CALLDATASIZE PUSH1 0x3 NOT ADD SLT PUSH2 0x192 JUMPI PUSH2 0x1483 PUSH2 0x248A JUMP JUMPDEST PUSH1 0x0 DUP1 SLOAD DUP2 SWAP1 DUP2 SWAP1 DUP2 SWAP1 SELFBALANCE SWAP1 PUSH1 0x1 PUSH1 0x1 PUSH1 0xA0 SHL SUB AND DUP3 DUP3 ISZERO PUSH2 0x14A8 JUMPI JUMPDEST CALL ISZERO PUSH2 0x56A JUMPI STOP JUMPDEST POP PUSH2 0x8FC PUSH2 0x14A0 JUMP JUMPDEST CALLVALUE PUSH2 0x192 JUMPI PUSH1 0x0 CALLDATASIZE PUSH1 0x3 NOT ADD SLT PUSH2 0x192 JUMPI PUSH1 0x20 PUSH1 0xB SLOAD PUSH1 0x40 MLOAD SWAP1 DUP2 MSTORE RETURN JUMPDEST CALLVALUE PUSH2 0x192 JUMPI PUSH1 0x0 CALLDATASIZE PUSH1 0x3 NOT ADD SLT PUSH2 0x192 JUMPI PUSH1 0x20 PUSH1 0xC SLOAD PUSH1 0x40 MLOAD SWAP1 DUP2 MSTORE RETURN JUMPDEST CALLVALUE PUSH2 0x192 JUMPI PUSH1 0xC0 CALLDATASIZE PUSH1 0x3 NOT ADD SLT PUSH2 0x192 JUMPI PUSH1 0x4 CALLDATALOAD PUSH1 0x1 PUSH1 0x1 PUSH1 0x40 SHL SUB DUP2 GT PUSH2 0x192 JUMPI PUSH2 0x151D SWAP1 CALLDATASIZE SWAP1 PUSH1 0x4 ADD PUSH2 0x2156 JUMP JUMPDEST SWAP1 PUSH1 0x24 CALLDATALOAD PUSH1 0x1 PUSH1 0x1 PUSH1 0x40 SHL SUB DUP2 GT PUSH2 0x192 JUMPI PUSH2 0x153D SWAP1 CALLDATASIZE SWAP1 PUSH1 0x4 ADD PUSH2 0x2156 JUMP JUMPDEST PUSH1 0x44 SWAP4 SWAP2 SWAP4 CALLDATALOAD PUSH1 0x1 PUSH1 0x1 PUSH1 0x40 SHL SUB DUP2 GT PUSH2 0x192 JUMPI PUSH2 0x155F SWAP1 CALLDATASIZE SWAP1 PUSH1 0x4 ADD PUSH2 0x2156 JUMP JUMPDEST PUSH1 0x80 MSTORE SWAP1 PUSH1 0x64 CALLDATALOAD PUSH1 0x1 PUSH1 0x1 PUSH1 0x40 SHL SUB DUP2 GT PUSH2 0x192 JUMPI PUSH2 0x1582 SWAP1 CALLDATASIZE SWAP1 PUSH1 0x4 ADD PUSH2 0x2156 JUMP JUMPDEST PUSH1 0x84 CALLDATALOAD PUSH1 0x1 PUSH1 0x1 PUSH1 0x40 SHL SUB DUP2 GT PUSH2 0x192 JUMPI PUSH2 0x15A1 SWAP1 CALLDATASIZE SWAP1 PUSH1 0x4 ADD PUSH2 0x2156 JUMP JUMPDEST SWAP1 SWAP4 PUSH1 0xA4 CALLDATALOAD PUSH1 0x1 PUSH1 0x1 PUSH1 0x40 SHL SUB DUP2 GT PUSH2 0x192 JUMPI PUSH2 0x15C2 SWAP1 CALLDATASIZE SWAP1 PUSH1 0x4 ADD PUSH2 0x2156 JUMP JUMPDEST SWAP10 SWAP1 SWAP2 PUSH2 0x15CD PUSH2 0x248A JUMP JUMPDEST PUSH2 0x15D8 DUP2 DUP11 EQ PUSH2 0x22E8 JUMP JUMPDEST PUSH2 0x15E5 PUSH1 0x80 MLOAD DUP11 EQ PUSH2 0x22E8 JUMP JUMPDEST PUSH2 0x15F0 DUP6 DUP11 EQ PUSH2 0x22E8 JUMP JUMPDEST PUSH2 0x15FB DUP5 DUP11 EQ PUSH2 0x22E8 JUMP JUMPDEST PUSH2 0x1606 DUP12 DUP11 EQ PUSH2 0x22E8 JUMP JUMPDEST PUSH1 0x0 JUMPDEST DUP10 DUP2 LT PUSH2 0x1612 JUMPI STOP JUMPDEST DUP1 DUP1 DUP11 DUP11 DUP16 SWAP5 DUP16 DUP16 DUP11 DUP11 DUP16 SWAP5 DUP16 SWAP5 SWAP1 DUP16 SWAP5 DUP2 PUSH2 0x165F DUP16 PUSH2 0x1657 PUSH2 0x164B DUP5 DUP1 SWAP4 PUSH2 0x1645 PUSH2 0x486 DUP4 PUSH2 0x1667 SWAP11 PUSH2 0x166F SWAP14 PUSH2 0x232C JUMP JUMPDEST SWAP11 PUSH2 0x2350 JUMP JUMPDEST SWAP16 SWAP1 SWAP15 PUSH1 0x80 MLOAD SWAP1 PUSH2 0x2350 JUMP JUMPDEST SWAP11 SWAP1 SWAP12 PUSH2 0x2350 JUMP JUMPDEST SWAP8 SWAP1 SWAP11 PUSH2 0x2350 JUMP JUMPDEST SWAP13 SWAP1 SWAP5 PUSH2 0x2350 JUMP JUMPDEST SWAP8 SWAP1 SWAP2 PUSH1 0x1 DUP1 PUSH1 0xA0 SHL SUB AND SWAP1 DUP2 PUSH1 0x0 MSTORE PUSH1 0x4 PUSH1 0x20 MSTORE PUSH1 0x40 PUSH1 0x0 KECCAK256 SLOAD ISZERO PUSH1 0x0 EQ PUSH2 0x1F04 JUMPI PUSH2 0x169C DUP6 DUP10 PUSH2 0x24B3 JUMP JUMPDEST ISZERO PUSH2 0x1EAB JUMPI PUSH1 0x5 SLOAD SWAP1 PUSH2 0x16AE DUP3 PUSH2 0x23F8 JUMP JUMPDEST PUSH1 0x5 SSTORE DUP2 SWAP11 PUSH1 0x40 MLOAD PUSH2 0x16BF DUP2 PUSH2 0x201A JUMP JUMPDEST DUP4 DUP2 MSTORE PUSH2 0x16CD CALLDATASIZE DUP4 DUP6 PUSH2 0x2391 JUMP JUMPDEST PUSH1 0x20 DUP3 ADD SWAP1 DUP2 MSTORE PUSH1 0x40 DUP3 ADD SWAP2 DUP7 DUP4 MSTORE PUSH1 0x60 DUP2 ADD SWAP2 PUSH1 0x1 DUP4 MSTORE DUP7 PUSH1 0x0 MSTORE PUSH1 0x3 PUSH1 0x20 MSTORE PUSH1 0x40 PUSH1 0x0 KECCAK256 SWAP2 MLOAD DUP3 SSTORE PUSH1 0x1 DUP3 ADD SWAP1 MLOAD DUP1 MLOAD SWAP1 PUSH1 0x1 PUSH1 0x1 PUSH1 0x40 SHL SUB DUP3 GT PUSH2 0x996 JUMPI PUSH2 0x1718 DUP4 SLOAD PUSH2 0x1FE0 JUMP JUMPDEST PUSH1 0x1F DUP2 GT PUSH2 0x1E63 JUMPI JUMPDEST POP PUSH1 0x20 SWAP1 PUSH1 0x1F DUP4 GT PUSH1 0x1 EQ PUSH2 0x1DD3 JUMPI SWAP2 DUP1 PUSH1 0x2 SWAP5 SWAP3 PUSH32 0x8443301405F337E5D871773F81107FB07D77D5F08FD2A5C7157A9C89951268AB SWAP11 SWAP10 SWAP9 SWAP8 SWAP7 SWAP5 PUSH1 0x0 SWAP3 PUSH2 0x1DC8 JUMPI JUMPDEST POP POP DUP2 PUSH1 0x1 SHL SWAP2 PUSH1 0x0 NOT SWAP1 PUSH1 0x3 SHL SHR NOT AND OR SWAP1 SSTORE JUMPDEST SWAP3 MLOAD SWAP3 ADD DUP1 SLOAD SWAP2 MLOAD PUSH1 0x1 PUSH1 0x1 PUSH1 0xA8 SHL SUB NOT SWAP1 SWAP3 AND PUSH1 0x1 PUSH1 0x1 PUSH1 0xA0 SHL SUB SWAP4 SWAP1 SWAP4 AND SWAP3 SWAP1 SWAP3 OR SWAP1 ISZERO ISZERO PUSH1 0xA0 SHL PUSH1 0xFF PUSH1 0xA0 SHL AND OR SWAP1 SSTORE PUSH1 0x0 DUP6 DUP2 MSTORE PUSH1 0x4 PUSH1 0x20 SWAP1 DUP2 MSTORE PUSH1 0x40 SWAP2 DUP3 SWAP1 KECCAK256 DUP7 SWAP1 SSTORE SWAP1 MLOAD DUP2 DUP2 MSTORE SWAP3 DUP4 SWAP3 PUSH2 0x17D6 SWAP3 DUP5 ADD SWAP2 PUSH2 0x23D7 JUMP JUMPDEST SUB SWAP1 LOG3 JUMPDEST PUSH1 0x7 SLOAD SWAP7 PUSH2 0x17E7 DUP9 PUSH2 0x23F8 JUMP JUMPDEST PUSH1 0x7 SSTORE PUSH1 0x40 MLOAD SWAP2 PUSH2 0x17F7 DUP4 PUSH2 0x2035 JUMP JUMPDEST DUP9 DUP4 MSTORE PUSH1 0x20 DUP4 ADD SWAP2 DUP11 DUP4 MSTORE DUP13 PUSH2 0x1846 PUSH2 0x1811 CALLDATASIZE DUP11 DUP13 PUSH2 0x2391 JUMP JUMPDEST PUSH1 0x40 DUP8 ADD SWAP1 DUP2 MSTORE SWAP4 PUSH2 0x1837 PUSH2 0x1827 CALLDATASIZE DUP12 DUP16 PUSH2 0x2391 JUMP JUMPDEST SWAP4 PUSH1 0x60 DUP10 ADD SWAP5 DUP6 MSTORE CALLDATASIZE SWAP1 DUP11 PUSH2 0x2391 JUMP JUMPDEST SWAP4 PUSH1 0x80 DUP9 ADD SWAP5 DUP6 MSTORE CALLDATASIZE SWAP2 PUSH2 0x2391 JUMP JUMPDEST SWAP3 PUSH1 0xA0 DUP7 ADD SWAP4 DUP5 MSTORE PUSH1 0xC0 DUP7 ADD SWAP5 TIMESTAMP DUP7 MSTORE DUP13 PUSH1 0x0 MSTORE PUSH1 0x6 PUSH1 0x20 MSTORE PUSH1 0x40 PUSH1 0x0 KECCAK256 SWAP7 MLOAD DUP8 SSTORE MLOAD PUSH1 0x1 DUP8 ADD SSTORE PUSH1 0x2 DUP7 ADD SWAP1 MLOAD DUP1 MLOAD SWAP1 PUSH1 0x1 PUSH1 0x1 PUSH1 0x40 SHL SUB DUP3 GT PUSH2 0x996 JUMPI DUP2 SWAP1 PUSH2 0x1891 DUP5 SLOAD PUSH2 0x1FE0 JUMP JUMPDEST PUSH1 0x1F DUP2 GT PUSH2 0x1D75 JUMPI JUMPDEST POP PUSH1 0x20 SWAP1 PUSH1 0x1F DUP4 GT PUSH1 0x1 EQ PUSH2 0x1D10 JUMPI PUSH1 0x0 SWAP3 PUSH2 0x1D05 JUMPI JUMPDEST POP POP DUP2 PUSH1 0x1 SHL SWAP2 PUSH1 0x0 NOT SWAP1 PUSH1 0x3 SHL SHR NOT AND OR SWAP1 SSTORE JUMPDEST MLOAD DUP1 MLOAD PUSH1 0x3 DUP7 ADD SWAP2 PUSH1 0x1 PUSH1 0x1 PUSH1 0x40 SHL SUB DUP3 GT PUSH2 0x996 JUMPI DUP2 SWAP1 PUSH2 0x18E8 DUP5 SLOAD PUSH2 0x1FE0 JUMP JUMPDEST PUSH1 0x1F DUP2 GT PUSH2 0x1CB2 JUMPI JUMPDEST POP PUSH1 0x20 SWAP1 PUSH1 0x1F DUP4 GT PUSH1 0x1 EQ PUSH2 0x1C4D JUMPI PUSH1 0x0 SWAP3 PUSH2 0x1C42 JUMPI JUMPDEST POP POP DUP2 PUSH1 0x1 SHL SWAP2 PUSH1 0x0 NOT SWAP1 PUSH1 0x3 SHL SHR NOT AND OR SWAP1 SSTORE JUMPDEST MLOAD DUP1 MLOAD PUSH1 0x4 DUP6 ADD SWAP2 PUSH1 0x1 PUSH1 0x1 PUSH1 0x40 SHL SUB DUP3 GT PUSH2 0x996 JUMPI DUP2 SWAP1 PUSH2 0x193F DUP5 SLOAD PUSH2 0x1FE0 JUMP JUMPDEST PUSH1 0x1F DUP2 GT PUSH2 0x1BEF JUMPI JUMPDEST POP PUSH1 0x20 SWAP1 PUSH1 0x1F DUP4 GT PUSH1 0x1 EQ PUSH2 0x1B8A JUMPI PUSH1 0x0 SWAP3 PUSH2 0x1B7F JUMPI JUMPDEST POP POP DUP2 PUSH1 0x1 SHL SWAP2 PUSH1 0x0 NOT SWAP1 PUSH1 0x3 SHL SHR NOT AND OR SWAP1 SSTORE JUMPDEST MLOAD DUP1 MLOAD PUSH1 0x5 DUP5 ADD SWAP2 PUSH1 0x1 PUSH1 0x1 PUSH1 0x40 SHL SUB DUP3 GT PUSH2 0x996 JUMPI PUSH2 0x1994 DUP4 SLOAD PUSH2 0x1FE0 JUMP JUMPDEST PUSH1 0x1F DUP2 GT PUSH2 0x1B37 JUMPI JUMPDEST POP PUSH1 0x20 SWAP1 PUSH1 0x1F DUP4 GT PUSH1 0x1 EQ PUSH2 0x1ACC JUMPI PUSH1 0x6 SWAP5 SWAP4 SWAP3 SWAP2 PUSH1 0x0 SWAP2 DUP4 PUSH2 0x1AC1 JUMPI JUMPDEST POP POP DUP2 PUSH1 0x1 SHL SWAP2 PUSH1 0x0 NOT SWAP1 PUSH1 0x3 SHL SHR NOT AND OR SWAP1 SSTORE JUMPDEST MLOAD SWAP2 ADD SSTORE DUP6 PUSH1 0x0 MSTORE PUSH1 0x8 PUSH1 0x20 MSTORE PUSH1 0x0 PUSH1 0x40 DUP2 KECCAK256 SSTORE PUSH1 0x40 MLOAD DUP3 DUP7 DUP3 CALLDATACOPY PUSH1 0x20 DUP2 DUP5 DUP2 ADD PUSH1 0x9 DUP2 MSTORE SUB ADD SWAP1 KECCAK256 DUP1 SLOAD PUSH1 0x1 PUSH1 0x40 SHL DUP2 LT ISZERO PUSH2 0x996 JUMPI PUSH2 0x1A1B DUP2 PUSH2 0x1A34 SWAP4 PUSH1 0x1 DUP12 SWAP5 ADD DUP2 SSTORE PUSH2 0x2257 JUMP JUMPDEST SWAP1 SWAP2 SWAP1 DUP3 SLOAD SWAP1 PUSH1 0x3 SHL SWAP2 DUP3 SHL SWAP2 PUSH1 0x0 NOT SWAP1 SHL NOT AND OR SWAP1 SSTORE JUMP JUMPDEST PUSH1 0xA SLOAD SWAP9 PUSH1 0x1 PUSH1 0x40 SHL DUP11 LT ISZERO PUSH2 0x996 JUMPI PUSH2 0x1AAA PUSH32 0x39628C05242773D13EF5DEAADB11828A34886BB12E6FEF9357C4EA00D1587381 SWAP7 PUSH2 0x1AB8 SWAP5 PUSH2 0x1A85 DUP11 PUSH2 0x1A1B PUSH1 0x1 SWAP16 PUSH1 0x1 DUP2 ADD PUSH1 0xA SSTORE PUSH1 0xA PUSH2 0x2257 JUMP JUMPDEST PUSH2 0x1A9C PUSH1 0x40 MLOAD SWAP9 DUP10 SWAP9 PUSH1 0x60 DUP11 MSTORE PUSH1 0x60 DUP11 ADD SWAP2 PUSH2 0x23D7 JUMP JUMPDEST SWAP2 DUP8 DUP4 SUB PUSH1 0x20 DUP10 ADD MSTORE PUSH2 0x23D7 JUMP JUMPDEST SWAP2 DUP5 DUP4 SUB PUSH1 0x40 DUP7 ADD MSTORE PUSH2 0x23D7 JUMP JUMPDEST SUB SWAP1 LOG3 ADD PUSH2 0x1609 JUMP JUMPDEST ADD MLOAD SWAP1 POP CODESIZE DUP1 PUSH2 0x19BB JUMP JUMPDEST SWAP1 PUSH1 0x1F NOT DUP4 AND SWAP2 DUP5 PUSH1 0x0 MSTORE DUP2 PUSH1 0x0 KECCAK256 SWAP3 PUSH1 0x0 JUMPDEST DUP2 DUP2 LT PUSH2 0x1B1F JUMPI POP SWAP2 PUSH1 0x1 SWAP4 SWAP2 DUP6 PUSH1 0x6 SWAP9 SWAP8 SWAP7 SWAP5 LT PUSH2 0x1B06 JUMPI JUMPDEST POP POP POP DUP2 SHL ADD SWAP1 SSTORE PUSH2 0x19D0 JUMP JUMPDEST ADD MLOAD PUSH1 0x0 NOT PUSH1 0xF8 DUP5 PUSH1 0x3 SHL AND SHR NOT AND SWAP1 SSTORE CODESIZE DUP1 DUP1 PUSH2 0x1AF9 JUMP JUMPDEST SWAP3 SWAP4 PUSH1 0x20 PUSH1 0x1 DUP2 SWAP3 DUP8 DUP7 ADD MLOAD DUP2 SSTORE ADD SWAP6 ADD SWAP4 ADD PUSH2 0x1ADF JUMP JUMPDEST DUP4 PUSH1 0x0 MSTORE PUSH1 0x20 PUSH1 0x0 KECCAK256 PUSH1 0x1F DUP5 ADD PUSH1 0x5 SHR DUP2 ADD SWAP2 PUSH1 0x20 DUP6 LT PUSH2 0x1B75 JUMPI JUMPDEST PUSH1 0x1F ADD PUSH1 0x5 SHR ADD SWAP1 JUMPDEST DUP2 DUP2 LT PUSH2 0x1B69 JUMPI POP PUSH2 0x199D JUMP JUMPDEST PUSH1 0x0 DUP2 SSTORE PUSH1 0x1 ADD PUSH2 0x1B5C JUMP JUMPDEST SWAP1 SWAP2 POP DUP2 SWAP1 PUSH2 0x1B53 JUMP JUMPDEST ADD MLOAD SWAP1 POP CODESIZE DUP1 PUSH2 0x195F JUMP JUMPDEST PUSH1 0x0 DUP6 DUP2 MSTORE DUP3 DUP2 KECCAK256 SWAP4 POP PUSH1 0x1F NOT DUP6 AND SWAP1 JUMPDEST DUP2 DUP2 LT PUSH2 0x1BD7 JUMPI POP SWAP1 DUP5 PUSH1 0x1 SWAP6 SWAP5 SWAP4 SWAP3 LT PUSH2 0x1BBE JUMPI JUMPDEST POP POP POP DUP2 SHL ADD SWAP1 SSTORE PUSH2 0x1974 JUMP JUMPDEST ADD MLOAD PUSH1 0x0 NOT PUSH1 0xF8 DUP5 PUSH1 0x3 SHL AND SHR NOT AND SWAP1 SSTORE CODESIZE DUP1 DUP1 PUSH2 0x1BB1 JUMP JUMPDEST SWAP3 SWAP4 PUSH1 0x20 PUSH1 0x1 DUP2 SWAP3 DUP8 DUP7 ADD MLOAD DUP2 SSTORE ADD SWAP6 ADD SWAP4 ADD PUSH2 0x1B9B JUMP JUMPDEST SWAP1 SWAP2 POP DUP4 PUSH1 0x0 MSTORE PUSH1 0x20 PUSH1 0x0 KECCAK256 PUSH1 0x1F DUP5 ADD PUSH1 0x5 SHR DUP2 ADD SWAP2 PUSH1 0x20 DUP6 LT PUSH2 0x1C38 JUMPI JUMPDEST SWAP1 PUSH1 0x1F DUP6 SWAP5 SWAP4 SWAP3 ADD PUSH1 0x5 SHR ADD SWAP1 JUMPDEST DUP2 DUP2 LT PUSH2 0x1C29 JUMPI POP PUSH2 0x1948 JUMP JUMPDEST PUSH1 0x0 DUP2 SSTORE DUP5 SWAP4 POP PUSH1 0x1 ADD PUSH2 0x1C1C JUMP JUMPDEST SWAP1 SWAP2 POP DUP2 SWAP1 PUSH2 0x1C0E JUMP JUMPDEST ADD MLOAD SWAP1 POP CODESIZE DUP1 PUSH2 0x1908 JUMP JUMPDEST PUSH1 0x0 DUP6 DUP2 MSTORE DUP3 DUP2 KECCAK256 SWAP4 POP PUSH1 0x1F NOT DUP6 AND SWAP1 JUMPDEST DUP2 DUP2 LT PUSH2 0x1C9A JUMPI POP SWAP1 DUP5 PUSH1 0x1 SWAP6 SWAP5 SWAP4 SWAP3 LT PUSH2 0x1C81 JUMPI JUMPDEST POP POP POP DUP2 SHL ADD SWAP1 SSTORE PUSH2 0x191D JUMP JUMPDEST ADD MLOAD PUSH1 0x0 NOT PUSH1 0xF8 DUP5 PUSH1 0x3 SHL AND SHR NOT AND SWAP1 SSTORE CODESIZE DUP1 DUP1 PUSH2 0x1C74 JUMP JUMPDEST SWAP3 SWAP4 PUSH1 0x20 PUSH1 0x1 DUP2 SWAP3 DUP8 DUP7 ADD MLOAD DUP2 SSTORE ADD SWAP6 ADD SWAP4 ADD PUSH2 0x1C5E JUMP JUMPDEST SWAP1 SWAP2 POP DUP4 PUSH1 0x0 MSTORE PUSH1 0x20 PUSH1 0x0 KECCAK256 PUSH1 0x1F DUP5 ADD PUSH1 0x5 SHR DUP2 ADD SWAP2 PUSH1 0x20 DUP6 LT PUSH2 0x1CFB JUMPI JUMPDEST SWAP1 PUSH1 0x1F DUP6 SWAP5 SWAP4 SWAP3 ADD PUSH1 0x5 SHR ADD SWAP1 JUMPDEST DUP2 DUP2 LT PUSH2 0x1CEC JUMPI POP PUSH2 0x18F1 JUMP JUMPDEST PUSH1 0x0 DUP2 SSTORE DUP5 SWAP4 POP PUSH1 0x1 ADD PUSH2 0x1CDF JUMP JUMPDEST SWAP1 SWAP2 POP DUP2 SWAP1 PUSH2 0x1CD1 JUMP JUMPDEST ADD MLOAD SWAP1 POP CODESIZE DUP1 PUSH2 0x18B1 JUMP JUMPDEST PUSH1 0x0 DUP6 DUP2 MSTORE DUP3 DUP2 KECCAK256 SWAP4 POP PUSH1 0x1F NOT DUP6 AND SWAP1 JUMPDEST DUP2 DUP2 LT PUSH2 0x1D5D JUMPI POP SWAP1 DUP5 PUSH1 0x1 SWAP6 SWAP5 SWAP4 SWAP3 LT PUSH2 0x1D44 JUMPI JUMPDEST POP POP POP DUP2 SHL ADD SWAP1 SSTORE PUSH2 0x18C6 JUMP JUMPDEST ADD MLOAD PUSH1 0x0 NOT PUSH1 0xF8 DUP5 PUSH1 0x3 SHL AND SHR NOT AND SWAP1 SSTORE CODESIZE DUP1 DUP1 PUSH2 0x1D37 JUMP JUMPDEST SWAP3 SWAP4 PUSH1 0x20 PUSH1 0x1 DUP2 SWAP3 DUP8 DUP7 ADD MLOAD DUP2 SSTORE ADD SWAP6 ADD SWAP4 ADD PUSH2 0x1D21 JUMP JUMPDEST SWAP1 SWAP2 POP DUP4 PUSH1 0x0 MSTORE PUSH1 0x20 PUSH1 0x0 KECCAK256 PUSH1 0x1F DUP5 ADD PUSH1 0x5 SHR DUP2 ADD SWAP2 PUSH1 0x20 DUP6 LT PUSH2 0x1DBE JUMPI JUMPDEST SWAP1 PUSH1 0x1F DUP6 SWAP5 SWAP4 SWAP3 ADD PUSH1 0x5 SHR ADD SWAP1 JUMPDEST DUP2 DUP2 LT PUSH2 0x1DAF JUMPI POP PUSH2 0x189A JUMP JUMPDEST PUSH1 0x0 DUP2 SSTORE DUP5 SWAP4 POP PUSH1 0x1 ADD PUSH2 0x1DA2 JUMP JUMPDEST SWAP1 SWAP2 POP DUP2 SWAP1 PUSH2 0x1D94 JUMP JUMPDEST ADD MLOAD SWAP1 POP CODESIZE DUP1 PUSH2 0x1765 JUMP JUMPDEST SWAP1 PUSH1 0x1F NOT DUP4 AND SWAP2 DUP5 PUSH1 0x0 MSTORE DUP2 PUSH1 0x0 KECCAK256 SWAP3 PUSH1 0x0 JUMPDEST DUP2 DUP2 LT PUSH2 0x1E4B JUMPI POP SWAP3 PUSH1 0x1 SWAP3 DUP6 SWAP3 PUSH32 0x8443301405F337E5D871773F81107FB07D77D5F08FD2A5C7157A9C89951268AB SWAP13 SWAP12 SWAP11 SWAP10 SWAP9 SWAP7 PUSH1 0x2 SWAP9 SWAP7 LT PUSH2 0x1E32 JUMPI JUMPDEST POP POP POP DUP2 SHL ADD SWAP1 SSTORE PUSH2 0x177A JUMP JUMPDEST ADD MLOAD PUSH1 0x0 NOT PUSH1 0xF8 DUP5 PUSH1 0x3 SHL AND SHR NOT AND SWAP1 SSTORE CODESIZE DUP1 DUP1 PUSH2 0x1E25 JUMP JUMPDEST SWAP3 SWAP4 PUSH1 0x20 PUSH1 0x1 DUP2 SWAP3 DUP8 DUP7 ADD MLOAD DUP2 SSTORE ADD SWAP6 ADD SWAP4 ADD PUSH2 0x1DE6 JUMP JUMPDEST DUP4 PUSH1 0x0 MSTORE PUSH1 0x20 PUSH1 0x0 KECCAK256 PUSH1 0x1F DUP5 ADD PUSH1 0x5 SHR DUP2 ADD SWAP2 PUSH1 0x20 DUP6 LT PUSH2 0x1EA1 JUMPI JUMPDEST PUSH1 0x1F ADD PUSH1 0x5 SHR ADD SWAP1 JUMPDEST DUP2 DUP2 LT PUSH2 0x1E95 JUMPI POP PUSH2 0x1721 JUMP JUMPDEST PUSH1 0x0 DUP2 SSTORE PUSH1 0x1 ADD PUSH2 0x1E88 JUMP JUMPDEST SWAP1 SWAP2 POP DUP2 SWAP1 PUSH2 0x1E7F JUMP JUMPDEST PUSH1 0x40 MLOAD PUSH3 0x461BCD PUSH1 0xE5 SHL DUP2 MSTORE PUSH1 0x20 PUSH1 0x4 DUP3 ADD MSTORE PUSH1 0x2B PUSH1 0x24 DUP3 ADD MSTORE PUSH32 0x496E76616C69642067656E726520666F72206E65772061727469737427732066 PUSH1 0x44 DUP3 ADD MSTORE PUSH11 0x34B939BA103A3930B1B597 PUSH1 0xA9 SHL PUSH1 0x64 DUP3 ADD MSTORE PUSH1 0x84 SWAP1 REVERT JUMPDEST POP SWAP1 SWAP8 POP PUSH1 0x0 MSTORE PUSH1 0x4 PUSH1 0x20 MSTORE PUSH1 0x40 PUSH1 0x0 KECCAK256 SLOAD SWAP7 PUSH2 0x17DA JUMP JUMPDEST CALLVALUE PUSH2 0x192 JUMPI PUSH1 0x0 CALLDATASIZE PUSH1 0x3 NOT ADD SLT PUSH2 0x192 JUMPI PUSH1 0x20 PUSH1 0xF SLOAD PUSH1 0x40 MLOAD SWAP1 DUP2 MSTORE RETURN JUMPDEST CALLVALUE PUSH2 0x192 JUMPI PUSH1 0x40 CALLDATASIZE PUSH1 0x3 NOT ADD SLT PUSH2 0x192 JUMPI PUSH2 0x1F53 PUSH2 0x1FB4 JUMP JUMPDEST PUSH1 0x4 CALLDATALOAD PUSH1 0x0 MSTORE PUSH1 0x10 PUSH1 0x20 MSTORE PUSH1 0x40 PUSH1 0x0 KECCAK256 SWAP1 PUSH1 0x1 DUP1 PUSH1 0xA0 SHL SUB AND PUSH1 0x0 MSTORE PUSH1 0x20 MSTORE PUSH2 0x1FA6 PUSH1 0x40 PUSH1 0x0 KECCAK256 PUSH2 0x367 PUSH2 0x1F92 PUSH1 0x1 PUSH2 0x1F8B DUP5 PUSH2 0x2071 JUMP JUMPDEST SWAP4 ADD PUSH2 0x2071 JUMP JUMPDEST PUSH1 0x40 MLOAD SWAP4 DUP5 SWAP4 PUSH1 0x40 DUP6 MSTORE PUSH1 0x40 DUP6 ADD SWAP1 PUSH2 0x2115 JUMP JUMPDEST SWAP1 DUP4 DUP3 SUB PUSH1 0x20 DUP6 ADD MSTORE PUSH2 0x2115 JUMP JUMPDEST PUSH1 0x24 CALLDATALOAD SWAP1 PUSH1 0x1 PUSH1 0x1 PUSH1 0xA0 SHL SUB DUP3 AND DUP3 SUB PUSH2 0x192 JUMPI JUMP JUMPDEST PUSH1 0x4 CALLDATALOAD SWAP1 PUSH1 0x1 PUSH1 0x1 PUSH1 0xA0 SHL SUB DUP3 AND DUP3 SUB PUSH2 0x192 JUMPI JUMP JUMPDEST SWAP1 PUSH1 0x1 DUP3 DUP2 SHR SWAP3 AND DUP1 ISZERO PUSH2 0x2010 JUMPI JUMPDEST PUSH1 0x20 DUP4 LT EQ PUSH2 0x1FFA JUMPI JUMP JUMPDEST PUSH4 0x4E487B71 PUSH1 0xE0 SHL PUSH1 0x0 MSTORE PUSH1 0x22 PUSH1 0x4 MSTORE PUSH1 0x24 PUSH1 0x0 REVERT JUMPDEST SWAP2 PUSH1 0x7F AND SWAP2 PUSH2 0x1FEF JUMP JUMPDEST PUSH1 0x80 DUP2 ADD SWAP1 DUP2 LT PUSH1 0x1 PUSH1 0x1 PUSH1 0x40 SHL SUB DUP3 GT OR PUSH2 0x996 JUMPI PUSH1 0x40 MSTORE JUMP JUMPDEST PUSH1 0xE0 DUP2 ADD SWAP1 DUP2 LT PUSH1 0x1 PUSH1 0x1 PUSH1 0x40 SHL SUB DUP3 GT OR PUSH2 0x996 JUMPI PUSH1 0x40 MSTORE JUMP JUMPDEST SWAP1 PUSH1 0x1F DUP1 NOT SWAP2 ADD AND DUP2 ADD SWAP1 DUP2 LT PUSH1 0x1 PUSH1 0x1 PUSH1 0x40 SHL SUB DUP3 GT OR PUSH2 0x996 JUMPI PUSH1 0x40 MSTORE JUMP JUMPDEST SWAP1 PUSH1 0x40 MLOAD SWAP2 DUP3 PUSH1 0x0 DUP3 SLOAD SWAP3 PUSH2 0x2085 DUP5 PUSH2 0x1FE0 JUMP JUMPDEST DUP1 DUP5 MSTORE SWAP4 PUSH1 0x1 DUP2 AND SWAP1 DUP2 ISZERO PUSH2 0x20F3 JUMPI POP PUSH1 0x1 EQ PUSH2 0x20AC JUMPI JUMPDEST POP PUSH2 0x20AA SWAP3 POP SUB DUP4 PUSH2 0x2050 JUMP JUMPDEST JUMP JUMPDEST SWAP1 POP PUSH1 0x0 SWAP3 SWAP2 SWAP3 MSTORE PUSH1 0x20 PUSH1 0x0 KECCAK256 SWAP1 PUSH1 0x0 SWAP2 JUMPDEST DUP2 DUP4 LT PUSH2 0x20D7 JUMPI POP POP SWAP1 PUSH1 0x20 PUSH2 0x20AA SWAP3 DUP3 ADD ADD CODESIZE PUSH2 0x209D JUMP JUMPDEST PUSH1 0x20 SWAP2 SWAP4 POP DUP1 PUSH1 0x1 SWAP2 SLOAD DUP4 DUP6 DUP10 ADD ADD MSTORE ADD SWAP2 ADD SWAP1 SWAP2 DUP5 SWAP3 PUSH2 0x20BE JUMP JUMPDEST SWAP1 POP PUSH1 0x20 SWAP3 POP PUSH2 0x20AA SWAP5 SWAP2 POP PUSH1 0xFF NOT AND DUP3 DUP5 ADD MSTORE ISZERO ISZERO PUSH1 0x5 SHL DUP3 ADD ADD CODESIZE PUSH2 0x209D JUMP JUMPDEST SWAP2 SWAP1 DUP3 MLOAD SWAP3 DUP4 DUP3 MSTORE PUSH1 0x0 JUMPDEST DUP5 DUP2 LT PUSH2 0x2141 JUMPI POP POP DUP3 PUSH1 0x0 PUSH1 0x20 DUP1 SWAP5 SWAP6 DUP5 ADD ADD MSTORE PUSH1 0x1F DUP1 NOT SWAP2 ADD AND ADD ADD SWAP1 JUMP JUMPDEST DUP1 PUSH1 0x20 DUP1 SWAP3 DUP5 ADD ADD MLOAD DUP3 DUP3 DUP7 ADD ADD MSTORE ADD PUSH2 0x2120 JUMP JUMPDEST SWAP2 DUP2 PUSH1 0x1F DUP5 ADD SLT ISZERO PUSH2 0x192 JUMPI DUP3 CALLDATALOAD SWAP2 PUSH1 0x1 PUSH1 0x1 PUSH1 0x40 SHL SUB DUP4 GT PUSH2 0x192 JUMPI PUSH1 0x20 DUP1 DUP6 ADD SWAP5 DUP5 PUSH1 0x5 SHL ADD ADD GT PUSH2 0x192 JUMPI JUMP JUMPDEST SWAP2 DUP2 PUSH1 0x1F DUP5 ADD SLT ISZERO PUSH2 0x192 JUMPI DUP3 CALLDATALOAD SWAP2 PUSH1 0x1 PUSH1 0x1 PUSH1 0x40 SHL SUB DUP4 GT PUSH2 0x192 JUMPI PUSH1 0x20 DUP4 DUP2 DUP7 ADD SWAP6 ADD ADD GT PUSH2 0x192 JUMPI JUMP JUMPDEST SWAP1 DUP2 MLOAD DUP2 MSTORE PUSH1 0x20 DUP3 ADD MLOAD PUSH1 0x20 DUP3 ADD MSTORE PUSH1 0xC0 DUP1 PUSH2 0x221D PUSH2 0x220B PUSH2 0x21F9 PUSH2 0x21E7 PUSH1 0x40 DUP9 ADD MLOAD PUSH1 0xE0 PUSH1 0x40 DUP10 ADD MSTORE PUSH1 0xE0 DUP9 ADD SWAP1 PUSH2 0x2115 JUMP JUMPDEST PUSH1 0x60 DUP9 ADD MLOAD DUP8 DUP3 SUB PUSH1 0x60 DUP10 ADD MSTORE PUSH2 0x2115 JUMP JUMPDEST PUSH1 0x80 DUP8 ADD MLOAD DUP7 DUP3 SUB PUSH1 0x80 DUP9 ADD MSTORE PUSH2 0x2115 JUMP JUMPDEST PUSH1 0xA0 DUP7 ADD MLOAD DUP6 DUP3 SUB PUSH1 0xA0 DUP8 ADD MSTORE PUSH2 0x2115 JUMP JUMPDEST SWAP4 ADD MLOAD SWAP2 ADD MSTORE SWAP1 JUMP JUMPDEST PUSH1 0x2 SLOAD DUP2 LT ISZERO PUSH2 0x2241 JUMPI PUSH1 0x2 PUSH1 0x0 MSTORE PUSH1 0x20 PUSH1 0x0 KECCAK256 ADD SWAP1 PUSH1 0x0 SWAP1 JUMP JUMPDEST PUSH4 0x4E487B71 PUSH1 0xE0 SHL PUSH1 0x0 MSTORE PUSH1 0x32 PUSH1 0x4 MSTORE PUSH1 0x24 PUSH1 0x0 REVERT JUMPDEST DUP1 SLOAD DUP3 LT ISZERO PUSH2 0x2241 JUMPI PUSH1 0x0 MSTORE PUSH1 0x20 PUSH1 0x0 KECCAK256 ADD SWAP1 PUSH1 0x0 SWAP1 JUMP JUMPDEST SWAP1 DUP2 MLOAD DUP2 MSTORE PUSH1 0x60 DUP1 PUSH2 0x2290 PUSH1 0x20 DUP6 ADD MLOAD PUSH1 0x80 PUSH1 0x20 DUP7 ADD MSTORE PUSH1 0x80 DUP6 ADD SWAP1 PUSH2 0x2115 JUMP JUMPDEST PUSH1 0x40 DUP1 DUP7 ADD MLOAD PUSH1 0x1 PUSH1 0x1 PUSH1 0xA0 SHL SUB AND SWAP1 DUP6 ADD MSTORE SWAP4 ADD MLOAD ISZERO ISZERO SWAP2 ADD MSTORE SWAP1 JUMP JUMPDEST PUSH1 0x20 PUSH1 0x40 DUP2 DUP4 ADD SWAP3 DUP3 DUP2 MSTORE DUP5 MLOAD DUP1 SWAP5 MSTORE ADD SWAP3 ADD SWAP1 PUSH1 0x0 JUMPDEST DUP2 DUP2 LT PUSH2 0x22D2 JUMPI POP POP POP SWAP1 JUMP JUMPDEST DUP3 MLOAD DUP5 MSTORE PUSH1 0x20 SWAP4 DUP5 ADD SWAP4 SWAP1 SWAP3 ADD SWAP2 PUSH1 0x1 ADD PUSH2 0x22C5 JUMP JUMPDEST ISZERO PUSH2 0x22EF JUMPI JUMP JUMPDEST PUSH1 0x40 MLOAD PUSH3 0x461BCD PUSH1 0xE5 SHL DUP2 MSTORE PUSH1 0x20 PUSH1 0x4 DUP3 ADD MSTORE PUSH1 0x15 PUSH1 0x24 DUP3 ADD MSTORE PUSH21 0x82E4E4C2F240D8CADCCEE8D040DAD2E6DAC2E8C6D PUSH1 0x5B SHL PUSH1 0x44 DUP3 ADD MSTORE PUSH1 0x64 SWAP1 REVERT JUMPDEST SWAP2 SWAP1 DUP2 LT ISZERO PUSH2 0x2241 JUMPI PUSH1 0x5 SHL ADD SWAP1 JUMP JUMPDEST CALLDATALOAD PUSH1 0x1 PUSH1 0x1 PUSH1 0xA0 SHL SUB DUP2 AND DUP2 SUB PUSH2 0x192 JUMPI SWAP1 JUMP JUMPDEST SWAP2 SWAP1 DUP2 LT ISZERO PUSH2 0x2241 JUMPI PUSH1 0x5 SHL DUP2 ADD CALLDATALOAD SWAP1 PUSH1 0x1E NOT DUP2 CALLDATASIZE SUB ADD DUP3 SLT ISZERO PUSH2 0x192 JUMPI ADD SWAP1 DUP2 CALLDATALOAD SWAP2 PUSH1 0x1 PUSH1 0x1 PUSH1 0x40 SHL SUB DUP4 GT PUSH2 0x192 JUMPI PUSH1 0x20 ADD DUP3 CALLDATASIZE SUB DUP2 SGT PUSH2 0x192 JUMPI SWAP2 SWAP1 JUMP JUMPDEST SWAP3 SWAP2 SWAP3 PUSH1 0x1 PUSH1 0x1 PUSH1 0x40 SHL SUB DUP3 GT PUSH2 0x996 JUMPI PUSH1 0x40 MLOAD SWAP2 PUSH2 0x23BA PUSH1 0x1F DUP3 ADD PUSH1 0x1F NOT AND PUSH1 0x20 ADD DUP5 PUSH2 0x2050 JUMP JUMPDEST DUP3 SWAP5 DUP2 DUP5 MSTORE DUP2 DUP4 ADD GT PUSH2 0x192 JUMPI DUP3 DUP2 PUSH1 0x20 SWAP4 DUP5 PUSH1 0x0 SWAP7 ADD CALLDATACOPY ADD ADD MSTORE JUMP JUMPDEST SWAP1 DUP1 PUSH1 0x20 SWAP4 SWAP3 DUP2 DUP5 MSTORE DUP5 DUP5 ADD CALLDATACOPY PUSH1 0x0 DUP3 DUP3 ADD DUP5 ADD MSTORE PUSH1 0x1F ADD PUSH1 0x1F NOT AND ADD ADD SWAP1 JUMP JUMPDEST PUSH1 0x0 NOT DUP2 EQ PUSH2 0x5F8 JUMPI PUSH1 0x1 ADD SWAP1 JUMP JUMPDEST PUSH1 0x40 MLOAD SWAP1 PUSH2 0x2414 DUP3 PUSH2 0x2035 JUMP JUMPDEST PUSH1 0x0 PUSH1 0xC0 DUP4 DUP3 DUP2 MSTORE DUP3 PUSH1 0x20 DUP3 ADD MSTORE PUSH1 0x60 PUSH1 0x40 DUP3 ADD MSTORE PUSH1 0x60 DUP1 DUP3 ADD MSTORE PUSH1 0x60 PUSH1 0x80 DUP3 ADD MSTORE PUSH1 0x60 PUSH1 0xA0 DUP3 ADD MSTORE ADD MSTORE JUMP JUMPDEST DUP2 DUP4 MSTORE SWAP1 SWAP2 PUSH1 0x1 PUSH1 0x1 PUSH1 0xFB SHL SUB DUP4 GT PUSH2 0x192 JUMPI PUSH1 0x20 SWAP3 PUSH1 0x5 SHL DUP1 SWAP3 DUP5 DUP4 ADD CALLDATACOPY ADD ADD SWAP1 JUMP JUMPDEST PUSH1 0x40 MLOAD SWAP1 PUSH2 0x2472 DUP3 PUSH2 0x201A JUMP JUMPDEST PUSH1 0x0 PUSH1 0x60 DUP4 DUP3 DUP2 MSTORE DUP2 PUSH1 0x20 DUP3 ADD MSTORE DUP3 PUSH1 0x40 DUP3 ADD MSTORE ADD MSTORE JUMP JUMPDEST PUSH1 0x0 SLOAD PUSH1 0x1 PUSH1 0x1 PUSH1 0xA0 SHL SUB AND CALLER SUB PUSH2 0x249E JUMPI JUMP JUMPDEST PUSH4 0x118CDAA7 PUSH1 0xE0 SHL PUSH1 0x0 MSTORE CALLER PUSH1 0x4 MSTORE PUSH1 0x24 PUSH1 0x0 REVERT JUMPDEST PUSH1 0x2 SLOAD SWAP2 SWAP1 PUSH1 0x0 JUMPDEST DUP4 DUP2 LT PUSH2 0x24CB JUMPI POP POP POP POP PUSH1 0x0 SWAP1 JUMP JUMPDEST PUSH2 0x24D4 DUP2 PUSH2 0x2226 JUMP JUMPDEST POP PUSH1 0x40 MLOAD PUSH1 0x20 DUP2 ADD SWAP2 DUP2 PUSH1 0x0 DUP3 SLOAD SWAP3 PUSH2 0x24EC DUP5 PUSH2 0x1FE0 JUMP JUMPDEST SWAP4 PUSH1 0x1 DUP2 AND SWAP1 DUP2 ISZERO PUSH2 0x259D JUMPI POP PUSH1 0x1 EQ PUSH2 0x255B JUMPI JUMPDEST POP PUSH2 0x2515 SWAP3 POP SUB PUSH1 0x1F NOT DUP2 ADD DUP4 MSTORE DUP3 PUSH2 0x2050 JUMP JUMPDEST MLOAD SWAP1 KECCAK256 PUSH1 0x40 MLOAD PUSH1 0x20 DUP2 ADD SWAP1 DUP6 DUP6 DUP4 CALLDATACOPY PUSH2 0x2542 PUSH1 0x20 DUP3 DUP9 DUP2 ADD PUSH1 0x0 DUP4 DUP3 ADD MSTORE SUB ADD PUSH1 0x1F NOT DUP2 ADD DUP4 MSTORE DUP3 PUSH2 0x2050 JUMP JUMPDEST MLOAD SWAP1 KECCAK256 EQ PUSH2 0x2552 JUMPI PUSH1 0x1 ADD PUSH2 0x24BB JUMP JUMPDEST POP POP POP POP PUSH1 0x1 SWAP1 JUMP JUMPDEST SWAP2 POP POP PUSH1 0x0 MSTORE DUP2 PUSH1 0x20 PUSH1 0x0 KECCAK256 PUSH1 0x0 SWAP1 JUMPDEST DUP4 DUP3 LT PUSH2 0x2583 JUMPI POP POP PUSH1 0x20 PUSH2 0x2515 SWAP3 DUP3 ADD ADD CODESIZE PUSH2 0x2501 JUMP JUMPDEST PUSH1 0x20 SWAP2 SWAP3 POP DUP1 PUSH1 0x1 SWAP2 SLOAD DUP4 DUP6 DUP9 ADD ADD MSTORE ADD SWAP2 ADD DUP4 SWAP2 PUSH2 0x256B JUMP JUMPDEST PUSH1 0xFF NOT AND DUP8 MSTORE POP PUSH2 0x2515 SWAP4 DUP1 ISZERO ISZERO MUL DUP4 ADD PUSH1 0x20 ADD SWAP2 POP CODESIZE SWAP1 POP PUSH2 0x2501 JUMP INVALID LOG2 PUSH5 0x6970667358 0x22 SLT KECCAK256 0x2B ISZERO EQ PUSH11 0x3D07A373F6FE04B698F2D4 DUP2 0xAD AND GASPRICE TSTORE 0xD0 0xE9 PUSH11 0xA6B1F7CC2E95EFC81A6473 PUSH16 0x6C634300081E00330000000000000000 "},"methodIdentifiers":{"adminBatchVote(uint256[],uint256[])":"7792f1e1","allTrackIds(uint256)":"65e71ae8","artistIdByWallet(address)":"52da0c9d","artists(uint256)":"cd7e10c1","axpToken()":"55c13ec3","batchDistributeShareRewards(uint256,address[])":"e7c2ab96","batchRegisterAndUpload(address[],string[],string[],string[],string[],string[])":"2eb6678a","currentVotingPeriod()":"3a049e02","finalizeVotingAndSelectWinner(uint256[])":"5ec24b21","getAllTrackIds()":"df6f321e","getArtist(uint256)":"811dd0e2","getOfficialGenres()":"9c756237","getTrack(uint256)":"629058ca","getTrackIdsByGenre(string)":"c3a3c0a2","getVoteCount(uint256)":"b2c2f2e8","getWinningTrackDetails()":"f03f07e3","historicalWinners(uint256)":"99da8ded","lastWinnerTimestamp()":"df8aec26","officialGenres(uint256)":"67991945","owner()":"8da5cb5b","proofOfShares(uint256,address)":"02f71205","recordShare(uint256,string,string)":"54b46fde","renounceOwnership()":"715018a6","rewardedShares(uint256,address)":"9be9fcbb","setShareRewardAmount(uint256)":"ff9eed7e","shareRewardAmount()":"280a37cb","trackVotes(uint256)":"f4d468b1","tracks(uint256)":"a2e34586","transferOwnership(address)":"f2fde38b","winningTrackId()":"34ae2c0d","withdraw()":"3ccfd60b"}}}}}