{"contracts/AxepVoting_Simple.sol":{"AxepVoting":{"abi":[{"inputs":[{"internalType":"address","name":"_tokenAddress","type":"address"}],"stateMutability":"nonpayable","type":"constructor"},{"inputs":[{"internalType":"address","name":"owner","type":"address"}],"name":"OwnableInvalidOwner","type":"error"},{"inputs":[{"internalType":"address","name":"account","type":"address"}],"name":"OwnableUnauthorizedAccount","type":"error"},{"anonymous":false,"inputs":[{"indexed":true,"internalType":"uint256","name":"artistId","type":"uint256"},{"indexed":false,"internalType":"string","name":"name","type":"string"},{"indexed":true,"internalType":"address","name":"artistWallet","type":"address"}],"name":"ArtistRegistered","type":"event"},{"anonymous":false,"inputs":[{"indexed":true,"internalType":"address","name":"previousOwner","type":"address"},{"indexed":true,"internalType":"address","name":"newOwner","type":"address"}],"name":"OwnershipTransferred","type":"event"},{"anonymous":false,"inputs":[{"indexed":true,"internalType":"uint256","name":"trackId","type":"uint256"},{"indexed":true,"internalType":"address","name":"sharer","type":"address"},{"indexed":false,"internalType":"string","name":"shareUrl","type":"string"}],"name":"ShareRecorded","type":"event"},{"anonymous":false,"inputs":[{"indexed":true,"internalType":"uint256","name":"trackId","type":"uint256"},{"indexed":true,"internalType":"address","name":"distributor","type":"address"}],"name":"ShareRewardsDistributed","type":"event"},{"anonymous":false,"inputs":[{"indexed":true,"internalType":"uint256","name":"trackId","type":"uint256"},{"indexed":true,"internalType":"uint256","name":"artistId","type":"uint256"},{"indexed":false,"internalType":"string","name":"title","type":"string"},{"indexed":false,"internalType":"string","name":"genre","type":"string"},{"indexed":false,"internalType":"string","name":"videoUrl","type":"string"}],"name":"TrackUploaded","type":"event"},{"anonymous":false,"inputs":[{"indexed":true,"internalType":"uint256","name":"trackId","type":"uint256"},{"indexed":true,"internalType":"address","name":"voter","type":"address"},{"indexed":false,"internalType":"uint256","name":"totalVotes","type":"uint256"}],"name":"Voted","type":"event"},{"anonymous":false,"inputs":[{"indexed":false,"internalType":"uint256[]","name":"trackIds","type":"uint256[]"},{"indexed":false,"internalType":"uint256[]","name":"voteCounts","type":"uint256[]"}],"name":"VotesTallied","type":"event"},{"inputs":[{"internalType":"uint256[]","name":"_trackIds","type":"uint256[]"},{"internalType":"uint256[]","name":"_voteCounts","type":"uint256[]"}],"name":"adminBatchVote","outputs":[],"stateMutability":"nonpayable","type":"function"},{"inputs":[{"internalType":"uint256","name":"","type":"uint256"}],"name":"allTrackIds","outputs":[{"internalType":"uint256","name":"","type":"uint256"}],"stateMutability":"view","type":"function"},{"inputs":[{"internalType":"address","name":"","type":"address"}],"name":"artistIdByWallet","outputs":[{"internalType":"uint256","name":"","type":"uint256"}],"stateMutability":"view","type":"function"},{"inputs":[{"internalType":"uint256","name":"","type":"uint256"}],"name":"artists","outputs":[{"internalType":"uint256","name":"id","type":"uint256"},{"internalType":"string","name":"name","type":"string"},{"internalType":"address payable","name":"artistWallet","type":"address"},{"internalType":"bool","name":"isRegistered","type":"bool"}],"stateMutability":"view","type":"function"},{"inputs":[],"name":"axpToken","outputs":[{"internalType":"contract IERC20","name":"","type":"address"}],"stateMutability":"view","type":"function"},{"inputs":[{"internalType":"uint256","name":"_trackId","type":"uint256"},{"internalType":"address[]","name":"_recipients","type":"address[]"}],"name":"batchDistributeShareRewards","outputs":[],"stateMutability":"nonpayable","type":"function"},{"inputs":[{"internalType":"address[]","name":"artistWallets","type":"address[]"},{"internalType":"string[]","name":"artistNames","type":"string[]"},{"internalType":"string[]","name":"trackTitles","type":"string[]"},{"internalType":"string[]","name":"genres","type":"string[]"},{"internalType":"string[]","name":"videoUrls","type":"string[]"},{"internalType":"string[]","name":"coverImageUrls","type":"string[]"}],"name":"batchRegisterAndUpload","outputs":[],"stateMutability":"nonpayable","type":"function"},{"inputs":[],"name":"getAllTrackIds","outputs":[{"internalType":"uint256[]","name":"","type":"uint256[]"}],"stateMutability":"view","type":"function"},{"inputs":[{"internalType":"uint256","name":"artistId","type":"uint256"}],"name":"getArtist","outputs":[{"components":[{"internalType":"uint256","name":"id","type":"uint256"},{"internalType":"string","name":"name","type":"string"},{"internalType":"address payable","name":"artistWallet","type":"address"},{"internalType":"bool","name":"isRegistered","type":"bool"}],"internalType":"struct AxepVoting.Artist","name":"","type":"tuple"}],"stateMutability":"view","type":"function"},{"inputs":[],"name":"getOfficialGenres","outputs":[{"internalType":"string[]","name":"","type":"string[]"}],"stateMutability":"view","type":"function"},{"inputs":[{"internalType":"uint256","name":"trackId","type":"uint256"}],"name":"getTrack","outputs":[{"components":[{"internalType":"uint256","name":"id","type":"uint256"},{"internalType":"uint256","name":"artistId","type":"uint256"},{"internalType":"string","name":"title","type":"string"},{"internalType":"string","name":"genre","type":"string"},{"internalType":"string","name":"videoUrl","type":"string"},{"internalType":"string","name":"coverImageUrl","type":"string"},{"internalType":"uint256","name":"uploadTimestamp","type":"uint256"}],"internalType":"struct AxepVoting.Track","name":"","type":"tuple"}],"stateMutability":"view","type":"function"},{"inputs":[{"internalType":"string","name":"genre","type":"string"}],"name":"getTrackIdsByGenre","outputs":[{"internalType":"uint256[]","name":"","type":"uint256[]"}],"stateMutability":"view","type":"function"},{"inputs":[{"internalType":"uint256","name":"trackId","type":"uint256"}],"name":"getVoteCount","outputs":[{"internalType":"uint256","name":"","type":"uint256"}],"stateMutability":"view","type":"function"},{"inputs":[{"internalType":"uint256","name":"","type":"uint256"}],"name":"officialGenres","outputs":[{"internalType":"string","name":"","type":"string"}],"stateMutability":"view","type":"function"},{"inputs":[],"name":"owner","outputs":[{"internalType":"address","name":"","type":"address"}],"stateMutability":"view","type":"function"},{"inputs":[{"internalType":"uint256","name":"","type":"uint256"},{"internalType":"address","name":"","type":"address"}],"name":"proofOfShares","outputs":[{"internalType":"string","name":"","type":"string"}],"stateMutability":"view","type":"function"},{"inputs":[{"internalType":"uint256","name":"_trackId","type":"uint256"},{"internalType":"string","name":"_shareUrl","type":"string"}],"name":"recordShare","outputs":[],"stateMutability":"nonpayable","type":"function"},{"inputs":[],"name":"renounceOwnership","outputs":[],"stateMutability":"nonpayable","type":"function"},{"inputs":[{"internalType":"uint256","name":"","type":"uint256"},{"internalType":"address","name":"","type":"address"}],"name":"rewardedShares","outputs":[{"internalType":"bool","name":"","type":"bool"}],"stateMutability":"view","type":"function"},{"inputs":[{"internalType":"uint256","name":"_newAmount","type":"uint256"}],"name":"setShareRewardAmount","outputs":[],"stateMutability":"nonpayable","type":"function"},{"inputs":[],"name":"shareRewardAmount","outputs":[{"internalType":"uint256","name":"","type":"uint256"}],"stateMutability":"view","type":"function"},{"inputs":[{"internalType":"uint256","name":"","type":"uint256"}],"name":"trackVotes","outputs":[{"internalType":"uint256","name":"","type":"uint256"}],"stateMutability":"view","type":"function"},{"inputs":[{"internalType":"uint256","name":"","type":"uint256"}],"name":"tracks","outputs":[{"internalType":"uint256","name":"id","type":"uint256"},{"internalType":"uint256","name":"artistId","type":"uint256"},{"internalType":"string","name":"title","type":"string"},{"internalType":"string","name":"genre","type":"string"},{"internalType":"string","name":"videoUrl","type":"string"},{"internalType":"string","name":"coverImageUrl","type":"string"},{"internalType":"uint256","name":"uploadTimestamp","type":"uint256"}],"stateMutability":"view","type":"function"},{"inputs":[{"internalType":"address","name":"newOwner","type":"address"}],"name":"transferOwnership","outputs":[],"stateMutability":"nonpayable","type":"function"},{"inputs":[],"name":"withdraw","outputs":[],"stateMutability":"nonpayable","type":"function"}],"evm":{"bytecode":{"linkReferences":{},"object":"60803461029d57601f61217138819003918201601f19168301916001600160401b038311848410176102445780849260209460405283398101031261029d57516001600160a01b0381169081900361029d5733156102875760008054336001600160a01b0319821681178355916001600160a01b03909116907f8be0079c531659141344cd1fd0a4f28419497f9722a3daafe3b4186f6b6457e09080a3600180546001600160a01b031916919091179055681b1ae4d6e2ef500000600b5560025468010000000000000000811015610244578060016100e192016002556102a2565b61022e576100f86100f282546102d3565b8261030d565b6006620506f760ec1b019055600254680100000000000000008110156102445780600161012892016002556102a2565b61022e576101396100f282546102d3565b60086314dbdd5b60e21b019055600254680100000000000000008110156102445780600161016a92016002556102a2565b61022e5761017b6100f282546102d3565b600863526f636b60e01b01905560025468010000000000000000811015610244578060016101ac92016002556102a2565b61022e576101ba81546102d3565b601f811161025a575b50600e66436f756e74727960c81b01905560025468010000000000000000811015610244578060016101f892016002556102a2565b61022e576102096100f282546102d3565b60066205241560ec1b01905560016005819055600755604051611e2d90816103448239f35b634e487b7160e01b600052600060045260246000fd5b634e487b7160e01b600052604160045260246000fd5b81600052601f6020600020910160051c8101905b81811061027b57506101c3565b6000815560010161026e565b631e4fbdf760e01b600052600060045260246000fd5b600080fd5b6002548110156102bd57600260005260206000200190600090565b634e487b7160e01b600052603260045260246000fd5b90600182811c92168015610303575b60208310146102ed57565b634e487b7160e01b600052602260045260246000fd5b91607f16916102e2565b601f8211610319575050565b600052601f6020600020910160051c8101905b818110610337575050565b6000815560010161032c56fe60a0604052600436101561001257600080fd5b60003560e01c806302f7120514611867578063280a37cb146118495780632eb6678a14610fc35780633ccfd60b14610f7c57806352da0c9d14610f4257806355c13ec314610f19578063629058ca14610dd157806365e71ae814610d7f5780636799194514610d1e578063715018a614610cc55780637792f1e114610b45578063811dd0e214610a7b5780638da5cb5b14610a525780638fb433af1461083a5780639be9fcbb146107ed5780639c756237146106e3578063a2e3458614610624578063b2c2f2e814610155578063c3a3c0a214610595578063cd7e10c114610522578063df6f321e1461049b578063e7c2ab961461020a578063f2fde38b14610181578063f4d468b1146101555763ff9eed7e1461012f57600080fd5b3461015057602036600319011261015057610148611c71565b600435600b55005b600080fd5b346101505760203660031901126101505760043560005260086020526020604060002054604051908152f35b346101505760203660031901126101505761019a6118c5565b6101a2611c71565b6001600160a01b031680156101f457600080546001600160a01b03198116831782556001600160a01b0316907f8be0079c531659141344cd1fd0a4f28419497f9722a3daafe3b4186f6b6457e09080a3005b631e4fbdf760e01b600052600060045260246000fd5b34610150576040366003190112610150576004356024356001600160401b0381116101505761023d903690600401611a51565b610248929192611c71565b600b546001546040516370a0823160e01b815230600482015291929190602090829060249082906001600160a01b03165afa9081156103c557600091610469575b508183029083820483148415171561045357106103fe5760005b8181106102d35733847ff77e05dfacf7f446845eb8e90bd8a9feb80574445b3de6bfd146ad7920e33829600080a3005b6102e66102e1828488611b75565b611b85565b84600052600c60205261031060408060002060009060018060a01b038516825260205220546118db565b1515806103d1575b610326575b506001016102a3565b6000858152600d602090815260408083206001600160a01b03948516808552908352818420805460ff1916600190811790915554915163a9059cbb60e01b81526004810191909152602481018890529391928492604492849291165af180156103c5571561031d576020813d82116103bd575b816103a66020938361194b565b81010312610150575180151503610150578561031d565b3d9150610399565b6040513d6000823e3d90fd5b506000858152600d602090815260408083206001600160a01b038516845290915290205460ff1615610318565b60405162461bcd60e51b815260206004820152602760248201527f496e73756666696369656e7420746f6b656e2062616c616e636520696e20636f604482015266373a3930b1ba1760c91b6064820152608490fd5b634e487b7160e01b600052601160045260246000fd5b90506020813d602011610493575b816104846020938361194b565b81010312610150575185610289565b3d9150610477565b3461015057600036600319011261015057604051806020600a54918281520190600a6000527fc65a7bb8d6351c1cf70c95a316cc6a92839c986682d98bc35f958f4883f9d2a89060005b81811061050c57610508856104fc8187038261194b565b60405191829182611af7565b0390f35b82548452602090930192600192830192016104e5565b346101505760203660031901126101505760043560005260036020526040600020805460026105536001840161196c565b92015460ff6105746040519485948552608060208601526080850190611a10565b6001600160a01b038316604085015260a09290921c16151560608301520390f35b34610150576020366003190112610150576004356001600160401b038111610150576105c76020913690600401611aca565b91908260405193849283378101600981520301902060405190816020825491828152019160005260206000209060005b81811061060e57610508856104fc8187038261194b565b82548452602090930192600192830192016105f7565b34610150576020366003190112610150576004356000526006602052604060002080546001820154916106d961065c6002830161196c565b916106cb61066c6003830161196c565b6106bd61067b6004850161196c565b916106af600661068d6005880161196c565b960154976040519a8b9a8b5260208b015260e060408b015260e08a0190611a10565b9088820360608a0152611a10565b908682036080880152611a10565b9084820360a0860152611a10565b9060c08301520390f35b34610150576000366003190112610150576002546001600160401b0381116107d7576040519061071960208260051b018361194b565b80825260208201908160026000527f405787fa12a823e0f2b7631cc41b3ba8828b3321ca811111fa75cd3aa3bb5ace6000915b8383106107ba57848660405191829160208301906020845251809152604083019060408160051b85010192916000905b82821061078b57505050500390f35b919360019193955060206107aa8192603f198a82030186528851611a10565b960192019201859493919261077c565b6001602081926107c98561196c565b81520192019201919061074c565b634e487b7160e01b600052604160045260246000fd5b34610150576040366003190112610150576108066118af565b600435600052600d60205260406000209060018060a01b0316600052602052602060ff604060002054166040519015158152f35b34610150576040366003190112610150576004356024356001600160401b0381116101505761086d903690600401611aca565b919081600052600660205260406000205415610a155782156109d0576000828152600c6020908152604080832033845290915290206001600160401b0384116107d7576108c4846108be83546118db565b83611bfe565b836000601f8211600114610943579161091a827fa75737a36d3872da22ff33e9ff498f19f9ccd60bfdbc6b85ccc2fb8e4eb1e244959361093395600091610938575b508160011b916000199060031b1c19161790565b90555b6040519182916020835233966020840191611c50565b0390a3005b905084013589610906565b82815260208120915085601f198116825b8181106109b55750917fa75737a36d3872da22ff33e9ff498f19f9ccd60bfdbc6b85ccc2fb8e4eb1e24495939161093395931061099b575b5050600186811b01905561091d565b830135600019600389901b60f8161c19169055868061098c565b86840135855560019094019360209384019389935001610954565b60405162461bcd60e51b815260206004820152601a60248201527f53686172652055524c2063616e6e6f7420626520656d7074792e0000000000006044820152606490fd5b60405162461bcd60e51b81526020600482015260156024820152742a3930b1b5903237b2b9903737ba1032bc34b9ba1760591b6044820152606490fd5b34610150576000366003190112610150576000546040516001600160a01b039091168152602090f35b346101505760203660031901126101505760006060604051610a9c81611915565b828152816020820152826040820152015260043560005260036020526040600020604051610ac981611915565b815481526002610adb6001840161196c565b92602083019384520154604082019060018060a01b038116825260ff606084019160a01c1615158152610b2960405194859460208652516020860152516080604086015260a0850190611a10565b91516001600160a01b0316606084015251151560808301520390f35b34610150576040366003190112610150576004356001600160401b03811161015057610b75903690600401611a51565b906024356001600160401b03811161015057610b95903690600401611a51565b610ba0939193611c71565b808203610c705760005b828110610c0257507ff2b9e90bfaf9ed9eb417943f4795ce9cdb1ceb01ab2f6bb4c6aacb1a75fd5b1a93610bfd91610bef604051958695604087526040870191611bda565b918483036020860152611bda565b0390a1005b610c0d818486611b75565b3590610c1a818488611b75565b3591806000526006602052604060002054151580610c67575b610c43575b506001915001610baa565b60005260086020526040600020918254908101809111610453576001925586610c38565b50821515610c33565b60405162461bcd60e51b815260206004820152602760248201527f496e70757420617272617973206d7573742068617665207468652073616d65206044820152663632b733ba341760c91b6064820152608490fd5b3461015057600036600319011261015057610cde611c71565b600080546001600160a01b0319811682556001600160a01b03167f8be0079c531659141344cd1fd0a4f28419497f9722a3daafe3b4186f6b6457e08280a3005b346101505760203660031901126101505760043560025481101561015057610d4590611a81565b610d6957610d556105089161196c565b604051918291602083526020830190611a10565b634e487b7160e01b600052600060045260246000fd5b3461015057602036600319011261015057600435600a5481101561015057600090600a54811015610dbd57602082600a829452200154604051908152f35b634e487b7160e01b82526032600452602482fd5b3461015057602036600319011261015057600060c0604051610df281611930565b8281528260208201526060604082015260608082015260606080820152606060a0820152015260043560005260066020526040600020604051610e3481611930565b8154815260018201549160208201928352610f0e610e546002830161196c565b9160408401928352610efb610e6b6003830161196c565b60608601908152610ee8610e816004850161196c565b9160808801928352610ed56006610e9a6005880161196c565b9660a08b0197885201549760c08a019889526040519a8b9a60208c525160208c01525160408b01525160e060608b01526101008a0190611a10565b9051888203601f190160808a0152611a10565b9051868203601f190160a0880152611a10565b9051848203601f190160c0860152611a10565b905160e08301520390f35b34610150576000366003190112610150576001546040516001600160a01b039091168152602090f35b34610150576020366003190112610150576001600160a01b03610f636118c5565b1660005260046020526020604060002054604051908152f35b3461015057600036600319011261015057610f95611c71565b6000805481908190819047906001600160a01b0316828215610fba575bf1156103c557005b506108fc610fb2565b346101505760c0366003190112610150576004356001600160401b03811161015057610ff3903690600401611a51565b906024356001600160401b03811161015057611013903690600401611a51565b6044939193356001600160401b03811161015057611035903690600401611a51565b608052906064356001600160401b03811161015057611058903690600401611a51565b6084356001600160401b03811161015057611077903690600401611a51565b909360a4356001600160401b03811161015057611098903690600401611a51565b9990916110a3611c71565b6110ae818a14611b31565b6110bb6080518a14611b31565b6110c6858a14611b31565b6110d1848a14611b31565b6110dc8b8a14611b31565b60005b8981106110e857005b80808a8a8f948f8f8a8a8f948f94908f94816111358f61112d61112184809361111b6102e18361113d9a6111459d611b75565b9a611b99565b9f909e60805190611b99565b9a909b611b99565b97909a611b99565b9c9094611b99565b97909160018060a01b03169081600052600460205260406000205415600014611831576111728589611cef565b156117d8576005549061118482611c9a565b600555819a60405161119581611915565b8381526111a3368385611ca9565b6020820190815260408201918683526060810191600183528660005260036020526040600020915182556001820190518051906001600160401b0382116107d7576111f8826111f285546118db565b85611bfe565b602090601f831160011461174857827f8443301405f337e5d871773f81107fb07d77d5f08fd2a5c7157a9c89951268ab999897969593600295936112539360009261159d575b50508160011b916000199060031b1c19161790565b90555b92519201805491516001600160a81b03199092166001600160a01b03939093169290921790151560a01b60ff60a01b1617905560008581526004602090815260409182902086905590518181529283926112b292840191611c50565b0390a35b600754966112c388611c9a565b600755604051916112d383611930565b88835260208301918a83528c6113226112ed368a8c611ca9565b6040870190815293611313611303368b8f611ca9565b936060890194855236908a611ca9565b93608088019485523691611ca9565b9260a0860193845260c08601944286528c60005260066020526040600020965187555160018701556002860190518051906001600160401b0382116107d75761136f826111f285546118db565b602090601f83116001146116e15761139f92916000918361159d5750508160011b916000199060031b1c19161790565b90555b51805160038601916001600160401b0382116107d7576113c6826111f285546118db565b602090601f831160011461167a576113f692916000918361159d5750508160011b916000199060031b1c19161790565b90555b51805160048501916001600160401b0382116107d75761141d826111f285546118db565b602090601f83116001146116135761144d92916000918361159d5750508160011b916000199060031b1c19161790565b90555b51805160058401916001600160401b0382116107d757611474826111f285546118db565b602090601f83116001146115a85791806114a992600696959460009261159d5750508160011b916000199060031b1c19161790565b90555b51910155856000526008602052600060408120556040518286823760208184810160098152030190208054600160401b8110156107d7576114f7816115109360018b94018155611ab2565b90919082549060031b91821b91600019901b1916179055565b600a5498600160401b8a10156107d7576115867f39628c05242773d13ef5deaadb11828a34886bb12e6fef9357c4ea00d158738196611594946115618a6114f760019f60018101600a55600a611ab2565b61157860405198899860608a5260608a0191611c50565b918783036020890152611c50565b918483036040860152611c50565b0390a3016110df565b01519050388061123e565b90601f1983169184600052816000209260005b8181106115fb5750916001939185600698979694106115e2575b505050811b0190556114ac565b015160001960f88460031b161c191690553880806115d5565b929360206001819287860151815501950193016115bb565b90601f1983169184600052816000209260005b8181106116625750908460019594939210611649575b505050811b019055611450565b015160001960f88460031b161c1916905538808061163c565b92936020600181928786015181550195019301611626565b90601f1983169184600052816000209260005b8181106116c957509084600195949392106116b0575b505050811b0190556113f9565b015160001960f88460031b161c191690553880806116a3565b9293602060018192878601518155019501930161168d565b90601f1983169184600052816000209260005b8181106117305750908460019594939210611717575b505050811b0190556113a2565b015160001960f88460031b161c1916905538808061170a565b929360206001819287860151815501950193016116f4565b90601f1983169184600052816000209260005b8181106117c057509260019285927f8443301405f337e5d871773f81107fb07d77d5f08fd2a5c7157a9c89951268ab9c9b9a99989660029896106117a7575b505050811b019055611256565b015160001960f88460031b161c1916905538808061179a565b9293602060018192878601518155019501930161175b565b60405162461bcd60e51b815260206004820152602b60248201527f496e76616c69642067656e726520666f72206e6577206172746973742773206660448201526a34b939ba103a3930b1b59760a91b6064820152608490fd5b509097506000526004602052604060002054966112b6565b34610150576000366003190112610150576020600b54604051908152f35b34610150576040366003190112610150576118806118af565b600435600052600c60205260406000209060018060a01b0316600052602052610508610d55604060002061196c565b602435906001600160a01b038216820361015057565b600435906001600160a01b038216820361015057565b90600182811c9216801561190b575b60208310146118f557565b634e487b7160e01b600052602260045260246000fd5b91607f16916118ea565b608081019081106001600160401b038211176107d757604052565b60e081019081106001600160401b038211176107d757604052565b90601f801991011681019081106001600160401b038211176107d757604052565b9060405191826000825492611980846118db565b80845293600181169081156119ee57506001146119a7575b506119a59250038361194b565b565b90506000929192526020600020906000915b8183106119d25750509060206119a59282010138611998565b60209193508060019154838589010152019101909184926119b9565b9050602092506119a594915060ff191682840152151560051b82010138611998565b919082519283825260005b848110611a3c575050826000602080949584010152601f8019910116010190565b80602080928401015182828601015201611a1b565b9181601f84011215610150578235916001600160401b038311610150576020808501948460051b01011161015057565b600254811015611a9c57600260005260206000200190600090565b634e487b7160e01b600052603260045260246000fd5b8054821015611a9c5760005260206000200190600090565b9181601f84011215610150578235916001600160401b038311610150576020838186019501011161015057565b602060408183019282815284518094520192019060005b818110611b1b5750505090565b8251845260209384019390920191600101611b0e565b15611b3857565b60405162461bcd60e51b8152602060048201526015602482015274082e4e4c2f240d8cadccee8d040dad2e6dac2e8c6d605b1b6044820152606490fd5b9190811015611a9c5760051b0190565b356001600160a01b03811681036101505790565b9190811015611a9c5760051b81013590601e19813603018212156101505701908135916001600160401b038311610150576020018236038113610150579190565b81835290916001600160fb1b0383116101505760209260051b809284830137010190565b601f8211611c0b57505050565b6000526020600020906020601f840160051c83019310611c46575b601f0160051c01905b818110611c3a575050565b60008155600101611c2f565b9091508190611c26565b908060209392818452848401376000828201840152601f01601f1916010190565b6000546001600160a01b03163303611c8557565b63118cdaa760e01b6000523360045260246000fd5b60001981146104535760010190565b9291926001600160401b0382116107d75760405191611cd2601f8201601f19166020018461194b565b829481845281830111610150578281602093846000960137010152565b600254919060005b838110611d075750505050600090565b611d1081611a81565b506040516020810191816000825492611d28846118db565b9360018116908115611dd95750600114611d97575b50611d51925003601f19810183528261194b565b519020604051602081019085858337611d7e6020828881016000838201520301601f19810183528261194b565b51902014611d8e57600101611cf7565b50505050600190565b9150506000528160206000206000905b838210611dbf5750506020611d519282010138611d3d565b602091925080600191548385880101520191018391611da7565b60ff1916875250611d51938015150283016020019150389050611d3d56fea26469706673582212209c7f5c1e7bff81aa3544a094571aa6de456be28a7a56ce252db31609e80b856d64736f6c634300081e0033","opcodes":"PUSH1 0x80 CALLVALUE PUSH2 0x29D JUMPI PUSH1 0x1F PUSH2 0x2171 CODESIZE DUP2 SWAP1 SUB SWAP2 DUP3 ADD PUSH1 0x1F NOT AND DUP4 ADD SWAP2 PUSH1 0x1 PUSH1 0x1 PUSH1 0x40 SHL SUB DUP4 GT DUP5 DUP5 LT OR PUSH2 0x244 JUMPI DUP1 DUP5 SWAP3 PUSH1 0x20 SWAP5 PUSH1 0x40 MSTORE DUP4 CODECOPY DUP2 ADD SUB SLT PUSH2 0x29D JUMPI MLOAD PUSH1 0x1 PUSH1 0x1 PUSH1 0xA0 SHL SUB DUP2 AND SWAP1 DUP2 SWAP1 SUB PUSH2 0x29D JUMPI CALLER ISZERO PUSH2 0x287 JUMPI PUSH1 0x0 DUP1 SLOAD CALLER PUSH1 0x1 PUSH1 0x1 PUSH1 0xA0 SHL SUB NOT DUP3 AND DUP2 OR DUP4 SSTORE SWAP2 PUSH1 0x1 PUSH1 0x1 PUSH1 0xA0 SHL SUB SWAP1 SWAP2 AND SWAP1 PUSH32 0x8BE0079C531659141344CD1FD0A4F28419497F9722A3DAAFE3B4186F6B6457E0 SWAP1 DUP1 LOG3 PUSH1 0x1 DUP1 SLOAD PUSH1 0x1 PUSH1 0x1 PUSH1 0xA0 SHL SUB NOT AND SWAP2 SWAP1 SWAP2 OR SWAP1 SSTORE PUSH9 0x1B1AE4D6E2EF500000 PUSH1 0xB SSTORE PUSH1 0x2 SLOAD PUSH9 0x10000000000000000 DUP2 LT ISZERO PUSH2 0x244 JUMPI DUP1 PUSH1 0x1 PUSH2 0xE1 SWAP3 ADD PUSH1 0x2 SSTORE PUSH2 0x2A2 JUMP JUMPDEST PUSH2 0x22E JUMPI PUSH2 0xF8 PUSH2 0xF2 DUP3 SLOAD PUSH2 0x2D3 JUMP JUMPDEST DUP3 PUSH2 0x30D JUMP JUMPDEST PUSH1 0x6 PUSH3 0x506F7 PUSH1 0xEC SHL ADD SWAP1 SSTORE PUSH1 0x2 SLOAD PUSH9 0x10000000000000000 DUP2 LT ISZERO PUSH2 0x244 JUMPI DUP1 PUSH1 0x1 PUSH2 0x128 SWAP3 ADD PUSH1 0x2 SSTORE PUSH2 0x2A2 JUMP JUMPDEST PUSH2 0x22E JUMPI PUSH2 0x139 PUSH2 0xF2 DUP3 SLOAD PUSH2 0x2D3 JUMP JUMPDEST PUSH1 0x8 PUSH4 0x14DBDD5B PUSH1 0xE2 SHL ADD SWAP1 SSTORE PUSH1 0x2 SLOAD PUSH9 0x10000000000000000 DUP2 LT ISZERO PUSH2 0x244 JUMPI DUP1 PUSH1 0x1 PUSH2 0x16A SWAP3 ADD PUSH1 0x2 SSTORE PUSH2 0x2A2 JUMP JUMPDEST PUSH2 0x22E JUMPI PUSH2 0x17B PUSH2 0xF2 DUP3 SLOAD PUSH2 0x2D3 JUMP JUMPDEST PUSH1 0x8 PUSH4 0x526F636B PUSH1 0xE0 SHL ADD SWAP1 SSTORE PUSH1 0x2 SLOAD PUSH9 0x10000000000000000 DUP2 LT ISZERO PUSH2 0x244 JUMPI DUP1 PUSH1 0x1 PUSH2 0x1AC SWAP3 ADD PUSH1 0x2 SSTORE PUSH2 0x2A2 JUMP JUMPDEST PUSH2 0x22E JUMPI PUSH2 0x1BA DUP2 SLOAD PUSH2 0x2D3 JUMP JUMPDEST PUSH1 0x1F DUP2 GT PUSH2 0x25A JUMPI JUMPDEST POP PUSH1 0xE PUSH7 0x436F756E747279 PUSH1 0xC8 SHL ADD SWAP1 SSTORE PUSH1 0x2 SLOAD PUSH9 0x10000000000000000 DUP2 LT ISZERO PUSH2 0x244 JUMPI DUP1 PUSH1 0x1 PUSH2 0x1F8 SWAP3 ADD PUSH1 0x2 SSTORE PUSH2 0x2A2 JUMP JUMPDEST PUSH2 0x22E JUMPI PUSH2 0x209 PUSH2 0xF2 DUP3 SLOAD PUSH2 0x2D3 JUMP JUMPDEST PUSH1 0x6 PUSH3 0x52415 PUSH1 0xEC SHL ADD SWAP1 SSTORE PUSH1 0x1 PUSH1 0x5 DUP2 SWAP1 SSTORE PUSH1 0x7 SSTORE PUSH1 0x40 MLOAD PUSH2 0x1E2D SWAP1 DUP2 PUSH2 0x344 DUP3 CODECOPY RETURN JUMPDEST PUSH4 0x4E487B71 PUSH1 0xE0 SHL PUSH1 0x0 MSTORE PUSH1 0x0 PUSH1 0x4 MSTORE PUSH1 0x24 PUSH1 0x0 REVERT JUMPDEST PUSH4 0x4E487B71 PUSH1 0xE0 SHL PUSH1 0x0 MSTORE PUSH1 0x41 PUSH1 0x4 MSTORE PUSH1 0x24 PUSH1 0x0 REVERT JUMPDEST DUP2 PUSH1 0x0 MSTORE PUSH1 0x1F PUSH1 0x20 PUSH1 0x0 KECCAK256 SWAP2 ADD PUSH1 0x5 SHR DUP2 ADD SWAP1 JUMPDEST DUP2 DUP2 LT PUSH2 0x27B JUMPI POP PUSH2 0x1C3 JUMP JUMPDEST PUSH1 0x0 DUP2 SSTORE PUSH1 0x1 ADD PUSH2 0x26E JUMP JUMPDEST PUSH4 0x1E4FBDF7 PUSH1 0xE0 SHL PUSH1 0x0 MSTORE PUSH1 0x0 PUSH1 0x4 MSTORE PUSH1 0x24 PUSH1 0x0 REVERT JUMPDEST PUSH1 0x0 DUP1 REVERT JUMPDEST PUSH1 0x2 SLOAD DUP2 LT ISZERO PUSH2 0x2BD JUMPI PUSH1 0x2 PUSH1 0x0 MSTORE PUSH1 0x20 PUSH1 0x0 KECCAK256 ADD SWAP1 PUSH1 0x0 SWAP1 JUMP JUMPDEST PUSH4 0x4E487B71 PUSH1 0xE0 SHL PUSH1 0x0 MSTORE PUSH1 0x32 PUSH1 0x4 MSTORE PUSH1 0x24 PUSH1 0x0 REVERT JUMPDEST SWAP1 PUSH1 0x1 DUP3 DUP2 SHR SWAP3 AND DUP1 ISZERO PUSH2 0x303 JUMPI JUMPDEST PUSH1 0x20 DUP4 LT EQ PUSH2 0x2ED JUMPI JUMP JUMPDEST PUSH4 0x4E487B71 PUSH1 0xE0 SHL PUSH1 0x0 MSTORE PUSH1 0x22 PUSH1 0x4 MSTORE PUSH1 0x24 PUSH1 0x0 REVERT JUMPDEST SWAP2 PUSH1 0x7F AND SWAP2 PUSH2 0x2E2 JUMP JUMPDEST PUSH1 0x1F DUP3 GT PUSH2 0x319 JUMPI POP POP JUMP JUMPDEST PUSH1 0x0 MSTORE PUSH1 0x1F PUSH1 0x20 PUSH1 0x0 KECCAK256 SWAP2 ADD PUSH1 0x5 SHR DUP2 ADD SWAP1 JUMPDEST DUP2 DUP2 LT PUSH2 0x337 JUMPI POP POP JUMP JUMPDEST PUSH1 0x0 DUP2 SSTORE PUSH1 0x1 ADD PUSH2 0x32C JUMP INVALID PUSH1 0xA0 PUSH1 0x40 MSTORE PUSH1 0x4 CALLDATASIZE LT ISZERO PUSH2 0x12 JUMPI PUSH1 0x0 DUP1 REVERT JUMPDEST PUSH1 0x0 CALLDATALOAD PUSH1 0xE0 SHR DUP1 PUSH4 0x2F71205 EQ PUSH2 0x1867 JUMPI DUP1 PUSH4 0x280A37CB EQ PUSH2 0x1849 JUMPI DUP1 PUSH4 0x2EB6678A EQ PUSH2 0xFC3 JUMPI DUP1 PUSH4 0x3CCFD60B EQ PUSH2 0xF7C JUMPI DUP1 PUSH4 0x52DA0C9D EQ PUSH2 0xF42 JUMPI DUP1 PUSH4 0x55C13EC3 EQ PUSH2 0xF19 JUMPI DUP1 PUSH4 0x629058CA EQ PUSH2 0xDD1 JUMPI DUP1 PUSH4 0x65E71AE8 EQ PUSH2 0xD7F JUMPI DUP1 PUSH4 0x67991945 EQ PUSH2 0xD1E JUMPI DUP1 PUSH4 0x715018A6 EQ PUSH2 0xCC5 JUMPI DUP1 PUSH4 0x7792F1E1 EQ PUSH2 0xB45 JUMPI DUP1 PUSH4 0x811DD0E2 EQ PUSH2 0xA7B JUMPI DUP1 PUSH4 0x8DA5CB5B EQ PUSH2 0xA52 JUMPI DUP1 PUSH4 0x8FB433AF EQ PUSH2 0x83A JUMPI DUP1 PUSH4 0x9BE9FCBB EQ PUSH2 0x7ED JUMPI DUP1 PUSH4 0x9C756237 EQ PUSH2 0x6E3 JUMPI DUP1 PUSH4 0xA2E34586 EQ PUSH2 0x624 JUMPI DUP1 PUSH4 0xB2C2F2E8 EQ PUSH2 0x155 JUMPI DUP1 PUSH4 0xC3A3C0A2 EQ PUSH2 0x595 JUMPI DUP1 PUSH4 0xCD7E10C1 EQ PUSH2 0x522 JUMPI DUP1 PUSH4 0xDF6F321E EQ PUSH2 0x49B JUMPI DUP1 PUSH4 0xE7C2AB96 EQ PUSH2 0x20A JUMPI DUP1 PUSH4 0xF2FDE38B EQ PUSH2 0x181 JUMPI DUP1 PUSH4 0xF4D468B1 EQ PUSH2 0x155 JUMPI PUSH4 0xFF9EED7E EQ PUSH2 0x12F JUMPI PUSH1 0x0 DUP1 REVERT JUMPDEST CALLVALUE PUSH2 0x150 JUMPI PUSH1 0x20 CALLDATASIZE PUSH1 0x3 NOT ADD SLT PUSH2 0x150 JUMPI PUSH2 0x148 PUSH2 0x1C71 JUMP JUMPDEST PUSH1 0x4 CALLDATALOAD PUSH1 0xB SSTORE STOP JUMPDEST PUSH1 0x0 DUP1 REVERT JUMPDEST CALLVALUE PUSH2 0x150 JUMPI PUSH1 0x20 CALLDATASIZE PUSH1 0x3 NOT ADD SLT PUSH2 0x150 JUMPI PUSH1 0x4 CALLDATALOAD PUSH1 0x0 MSTORE PUSH1 0x8 PUSH1 0x20 MSTORE PUSH1 0x20 PUSH1 0x40 PUSH1 0x0 KECCAK256 SLOAD PUSH1 0x40 MLOAD SWAP1 DUP2 MSTORE RETURN JUMPDEST CALLVALUE PUSH2 0x150 JUMPI PUSH1 0x20 CALLDATASIZE PUSH1 0x3 NOT ADD SLT PUSH2 0x150 JUMPI PUSH2 0x19A PUSH2 0x18C5 JUMP JUMPDEST PUSH2 0x1A2 PUSH2 0x1C71 JUMP JUMPDEST PUSH1 0x1 PUSH1 0x1 PUSH1 0xA0 SHL SUB AND DUP1 ISZERO PUSH2 0x1F4 JUMPI PUSH1 0x0 DUP1 SLOAD PUSH1 0x1 PUSH1 0x1 PUSH1 0xA0 SHL SUB NOT DUP2 AND DUP4 OR DUP3 SSTORE PUSH1 0x1 PUSH1 0x1 PUSH1 0xA0 SHL SUB AND SWAP1 PUSH32 0x8BE0079C531659141344CD1FD0A4F28419497F9722A3DAAFE3B4186F6B6457E0 SWAP1 DUP1 LOG3 STOP JUMPDEST PUSH4 0x1E4FBDF7 PUSH1 0xE0 SHL PUSH1 0x0 MSTORE PUSH1 0x0 PUSH1 0x4 MSTORE PUSH1 0x24 PUSH1 0x0 REVERT JUMPDEST CALLVALUE PUSH2 0x150 JUMPI PUSH1 0x40 CALLDATASIZE PUSH1 0x3 NOT ADD SLT PUSH2 0x150 JUMPI PUSH1 0x4 CALLDATALOAD PUSH1 0x24 CALLDATALOAD PUSH1 0x1 PUSH1 0x1 PUSH1 0x40 SHL SUB DUP2 GT PUSH2 0x150 JUMPI PUSH2 0x23D SWAP1 CALLDATASIZE SWAP1 PUSH1 0x4 ADD PUSH2 0x1A51 JUMP JUMPDEST PUSH2 0x248 SWAP3 SWAP2 SWAP3 PUSH2 0x1C71 JUMP JUMPDEST PUSH1 0xB SLOAD PUSH1 0x1 SLOAD PUSH1 0x40 MLOAD PUSH4 0x70A08231 PUSH1 0xE0 SHL DUP2 MSTORE ADDRESS PUSH1 0x4 DUP3 ADD MSTORE SWAP2 SWAP3 SWAP2 SWAP1 PUSH1 0x20 SWAP1 DUP3 SWAP1 PUSH1 0x24 SWAP1 DUP3 SWAP1 PUSH1 0x1 PUSH1 0x1 PUSH1 0xA0 SHL SUB AND GAS STATICCALL SWAP1 DUP2 ISZERO PUSH2 0x3C5 JUMPI PUSH1 0x0 SWAP2 PUSH2 0x469 JUMPI JUMPDEST POP DUP2 DUP4 MUL SWAP1 DUP4 DUP3 DIV DUP4 EQ DUP5 ISZERO OR ISZERO PUSH2 0x453 JUMPI LT PUSH2 0x3FE JUMPI PUSH1 0x0 JUMPDEST DUP2 DUP2 LT PUSH2 0x2D3 JUMPI CALLER DUP5 PUSH32 0xF77E05DFACF7F446845EB8E90BD8A9FEB80574445B3DE6BFD146AD7920E33829 PUSH1 0x0 DUP1 LOG3 STOP JUMPDEST PUSH2 0x2E6 PUSH2 0x2E1 DUP3 DUP5 DUP9 PUSH2 0x1B75 JUMP JUMPDEST PUSH2 0x1B85 JUMP JUMPDEST DUP5 PUSH1 0x0 MSTORE PUSH1 0xC PUSH1 0x20 MSTORE PUSH2 0x310 PUSH1 0x40 DUP1 PUSH1 0x0 KECCAK256 PUSH1 0x0 SWAP1 PUSH1 0x1 DUP1 PUSH1 0xA0 SHL SUB DUP6 AND DUP3 MSTORE PUSH1 0x20 MSTORE KECCAK256 SLOAD PUSH2 0x18DB JUMP JUMPDEST ISZERO ISZERO DUP1 PUSH2 0x3D1 JUMPI JUMPDEST PUSH2 0x326 JUMPI JUMPDEST POP PUSH1 0x1 ADD PUSH2 0x2A3 JUMP JUMPDEST PUSH1 0x0 DUP6 DUP2 MSTORE PUSH1 0xD PUSH1 0x20 SWAP1 DUP2 MSTORE PUSH1 0x40 DUP1 DUP4 KECCAK256 PUSH1 0x1 PUSH1 0x1 PUSH1 0xA0 SHL SUB SWAP5 DUP6 AND DUP1 DUP6 MSTORE SWAP1 DUP4 MSTORE DUP2 DUP5 KECCAK256 DUP1 SLOAD PUSH1 0xFF NOT AND PUSH1 0x1 SWAP1 DUP2 OR SWAP1 SWAP2 SSTORE SLOAD SWAP2 MLOAD PUSH4 0xA9059CBB PUSH1 0xE0 SHL DUP2 MSTORE PUSH1 0x4 DUP2 ADD SWAP2 SWAP1 SWAP2 MSTORE PUSH1 0x24 DUP2 ADD DUP9 SWAP1 MSTORE SWAP4 SWAP2 SWAP3 DUP5 SWAP3 PUSH1 0x44 SWAP3 DUP5 SWAP3 SWAP2 AND GAS CALL DUP1 ISZERO PUSH2 0x3C5 JUMPI ISZERO PUSH2 0x31D JUMPI PUSH1 0x20 DUP2 RETURNDATASIZE DUP3 GT PUSH2 0x3BD JUMPI JUMPDEST DUP2 PUSH2 0x3A6 PUSH1 0x20 SWAP4 DUP4 PUSH2 0x194B JUMP JUMPDEST DUP2 ADD SUB SLT PUSH2 0x150 JUMPI MLOAD DUP1 ISZERO ISZERO SUB PUSH2 0x150 JUMPI DUP6 PUSH2 0x31D JUMP JUMPDEST RETURNDATASIZE SWAP2 POP PUSH2 0x399 JUMP JUMPDEST PUSH1 0x40 MLOAD RETURNDATASIZE PUSH1 0x0 DUP3 RETURNDATACOPY RETURNDATASIZE SWAP1 REVERT JUMPDEST POP PUSH1 0x0 DUP6 DUP2 MSTORE PUSH1 0xD PUSH1 0x20 SWAP1 DUP2 MSTORE PUSH1 0x40 DUP1 DUP4 KECCAK256 PUSH1 0x1 PUSH1 0x1 PUSH1 0xA0 SHL SUB DUP6 AND DUP5 MSTORE SWAP1 SWAP2 MSTORE SWAP1 KECCAK256 SLOAD PUSH1 0xFF AND ISZERO PUSH2 0x318 JUMP JUMPDEST PUSH1 0x40 MLOAD PUSH3 0x461BCD PUSH1 0xE5 SHL DUP2 MSTORE PUSH1 0x20 PUSH1 0x4 DUP3 ADD MSTORE PUSH1 0x27 PUSH1 0x24 DUP3 ADD MSTORE PUSH32 0x496E73756666696369656E7420746F6B656E2062616C616E636520696E20636F PUSH1 0x44 DUP3 ADD MSTORE PUSH7 0x373A3930B1BA17 PUSH1 0xC9 SHL PUSH1 0x64 DUP3 ADD MSTORE PUSH1 0x84 SWAP1 REVERT JUMPDEST PUSH4 0x4E487B71 PUSH1 0xE0 SHL PUSH1 0x0 MSTORE PUSH1 0x11 PUSH1 0x4 MSTORE PUSH1 0x24 PUSH1 0x0 REVERT JUMPDEST SWAP1 POP PUSH1 0x20 DUP2 RETURNDATASIZE PUSH1 0x20 GT PUSH2 0x493 JUMPI JUMPDEST DUP2 PUSH2 0x484 PUSH1 0x20 SWAP4 DUP4 PUSH2 0x194B JUMP JUMPDEST DUP2 ADD SUB SLT PUSH2 0x150 JUMPI MLOAD DUP6 PUSH2 0x289 JUMP JUMPDEST RETURNDATASIZE SWAP2 POP PUSH2 0x477 JUMP JUMPDEST CALLVALUE PUSH2 0x150 JUMPI PUSH1 0x0 CALLDATASIZE PUSH1 0x3 NOT ADD SLT PUSH2 0x150 JUMPI PUSH1 0x40 MLOAD DUP1 PUSH1 0x20 PUSH1 0xA SLOAD SWAP2 DUP3 DUP2 MSTORE ADD SWAP1 PUSH1 0xA PUSH1 0x0 MSTORE PUSH32 0xC65A7BB8D6351C1CF70C95A316CC6A92839C986682D98BC35F958F4883F9D2A8 SWAP1 PUSH1 0x0 JUMPDEST DUP2 DUP2 LT PUSH2 0x50C JUMPI PUSH2 0x508 DUP6 PUSH2 0x4FC DUP2 DUP8 SUB DUP3 PUSH2 0x194B JUMP JUMPDEST PUSH1 0x40 MLOAD SWAP2 DUP3 SWAP2 DUP3 PUSH2 0x1AF7 JUMP JUMPDEST SUB SWAP1 RETURN JUMPDEST DUP3 SLOAD DUP5 MSTORE PUSH1 0x20 SWAP1 SWAP4 ADD SWAP3 PUSH1 0x1 SWAP3 DUP4 ADD SWAP3 ADD PUSH2 0x4E5 JUMP JUMPDEST CALLVALUE PUSH2 0x150 JUMPI PUSH1 0x20 CALLDATASIZE PUSH1 0x3 NOT ADD SLT PUSH2 0x150 JUMPI PUSH1 0x4 CALLDATALOAD PUSH1 0x0 MSTORE PUSH1 0x3 PUSH1 0x20 MSTORE PUSH1 0x40 PUSH1 0x0 KECCAK256 DUP1 SLOAD PUSH1 0x2 PUSH2 0x553 PUSH1 0x1 DUP5 ADD PUSH2 0x196C JUMP JUMPDEST SWAP3 ADD SLOAD PUSH1 0xFF PUSH2 0x574 PUSH1 0x40 MLOAD SWAP5 DUP6 SWAP5 DUP6 MSTORE PUSH1 0x80 PUSH1 0x20 DUP7 ADD MSTORE PUSH1 0x80 DUP6 ADD SWAP1 PUSH2 0x1A10 JUMP JUMPDEST PUSH1 0x1 PUSH1 0x1 PUSH1 0xA0 SHL SUB DUP4 AND PUSH1 0x40 DUP6 ADD MSTORE PUSH1 0xA0 SWAP3 SWAP1 SWAP3 SHR AND ISZERO ISZERO PUSH1 0x60 DUP4 ADD MSTORE SUB SWAP1 RETURN JUMPDEST CALLVALUE PUSH2 0x150 JUMPI PUSH1 0x20 CALLDATASIZE PUSH1 0x3 NOT ADD SLT PUSH2 0x150 JUMPI PUSH1 0x4 CALLDATALOAD PUSH1 0x1 PUSH1 0x1 PUSH1 0x40 SHL SUB DUP2 GT PUSH2 0x150 JUMPI PUSH2 0x5C7 PUSH1 0x20 SWAP2 CALLDATASIZE SWAP1 PUSH1 0x4 ADD PUSH2 0x1ACA JUMP JUMPDEST SWAP2 SWAP1 DUP3 PUSH1 0x40 MLOAD SWAP4 DUP5 SWAP3 DUP4 CALLDATACOPY DUP2 ADD PUSH1 0x9 DUP2 MSTORE SUB ADD SWAP1 KECCAK256 PUSH1 0x40 MLOAD SWAP1 DUP2 PUSH1 0x20 DUP3 SLOAD SWAP2 DUP3 DUP2 MSTORE ADD SWAP2 PUSH1 0x0 MSTORE PUSH1 0x20 PUSH1 0x0 KECCAK256 SWAP1 PUSH1 0x0 JUMPDEST DUP2 DUP2 LT PUSH2 0x60E JUMPI PUSH2 0x508 DUP6 PUSH2 0x4FC DUP2 DUP8 SUB DUP3 PUSH2 0x194B JUMP JUMPDEST DUP3 SLOAD DUP5 MSTORE PUSH1 0x20 SWAP1 SWAP4 ADD SWAP3 PUSH1 0x1 SWAP3 DUP4 ADD SWAP3 ADD PUSH2 0x5F7 JUMP JUMPDEST CALLVALUE PUSH2 0x150 JUMPI PUSH1 0x20 CALLDATASIZE PUSH1 0x3 NOT ADD SLT PUSH2 0x150 JUMPI PUSH1 0x4 CALLDATALOAD PUSH1 0x0 MSTORE PUSH1 0x6 PUSH1 0x20 MSTORE PUSH1 0x40 PUSH1 0x0 KECCAK256 DUP1 SLOAD PUSH1 0x1 DUP3 ADD SLOAD SWAP2 PUSH2 0x6D9 PUSH2 0x65C PUSH1 0x2 DUP4 ADD PUSH2 0x196C JUMP JUMPDEST SWAP2 PUSH2 0x6CB PUSH2 0x66C PUSH1 0x3 DUP4 ADD PUSH2 0x196C JUMP JUMPDEST PUSH2 0x6BD PUSH2 0x67B PUSH1 0x4 DUP6 ADD PUSH2 0x196C JUMP JUMPDEST SWAP2 PUSH2 0x6AF PUSH1 0x6 PUSH2 0x68D PUSH1 0x5 DUP9 ADD PUSH2 0x196C JUMP JUMPDEST SWAP7 ADD SLOAD SWAP8 PUSH1 0x40 MLOAD SWAP11 DUP12 SWAP11 DUP12 MSTORE PUSH1 0x20 DUP12 ADD MSTORE PUSH1 0xE0 PUSH1 0x40 DUP12 ADD MSTORE PUSH1 0xE0 DUP11 ADD SWAP1 PUSH2 0x1A10 JUMP JUMPDEST SWAP1 DUP9 DUP3 SUB PUSH1 0x60 DUP11 ADD MSTORE PUSH2 0x1A10 JUMP JUMPDEST SWAP1 DUP7 DUP3 SUB PUSH1 0x80 DUP9 ADD MSTORE PUSH2 0x1A10 JUMP JUMPDEST SWAP1 DUP5 DUP3 SUB PUSH1 0xA0 DUP7 ADD MSTORE PUSH2 0x1A10 JUMP JUMPDEST SWAP1 PUSH1 0xC0 DUP4 ADD MSTORE SUB SWAP1 RETURN JUMPDEST CALLVALUE PUSH2 0x150 JUMPI PUSH1 0x0 CALLDATASIZE PUSH1 0x3 NOT ADD SLT PUSH2 0x150 JUMPI PUSH1 0x2 SLOAD PUSH1 0x1 PUSH1 0x1 PUSH1 0x40 SHL SUB DUP2 GT PUSH2 0x7D7 JUMPI PUSH1 0x40 MLOAD SWAP1 PUSH2 0x719 PUSH1 0x20 DUP3 PUSH1 0x5 SHL ADD DUP4 PUSH2 0x194B JUMP JUMPDEST DUP1 DUP3 MSTORE PUSH1 0x20 DUP3 ADD SWAP1 DUP2 PUSH1 0x2 PUSH1 0x0 MSTORE PUSH32 0x405787FA12A823E0F2B7631CC41B3BA8828B3321CA811111FA75CD3AA3BB5ACE PUSH1 0x0 SWAP2 JUMPDEST DUP4 DUP4 LT PUSH2 0x7BA JUMPI DUP5 DUP7 PUSH1 0x40 MLOAD SWAP2 DUP3 SWAP2 PUSH1 0x20 DUP4 ADD SWAP1 PUSH1 0x20 DUP5 MSTORE MLOAD DUP1 SWAP2 MSTORE PUSH1 0x40 DUP4 ADD SWAP1 PUSH1 0x40 DUP2 PUSH1 0x5 SHL DUP6 ADD ADD SWAP3 SWAP2 PUSH1 0x0 SWAP1 JUMPDEST DUP3 DUP3 LT PUSH2 0x78B JUMPI POP POP POP POP SUB SWAP1 RETURN JUMPDEST SWAP2 SWAP4 PUSH1 0x1 SWAP2 SWAP4 SWAP6 POP PUSH1 0x20 PUSH2 0x7AA DUP2 SWAP3 PUSH1 0x3F NOT DUP11 DUP3 SUB ADD DUP7 MSTORE DUP9 MLOAD PUSH2 0x1A10 JUMP JUMPDEST SWAP7 ADD SWAP3 ADD SWAP3 ADD DUP6 SWAP5 SWAP4 SWAP2 SWAP3 PUSH2 0x77C JUMP JUMPDEST PUSH1 0x1 PUSH1 0x20 DUP2 SWAP3 PUSH2 0x7C9 DUP6 PUSH2 0x196C JUMP JUMPDEST DUP2 MSTORE ADD SWAP3 ADD SWAP3 ADD SWAP2 SWAP1 PUSH2 0x74C JUMP JUMPDEST PUSH4 0x4E487B71 PUSH1 0xE0 SHL PUSH1 0x0 MSTORE PUSH1 0x41 PUSH1 0x4 MSTORE PUSH1 0x24 PUSH1 0x0 REVERT JUMPDEST CALLVALUE PUSH2 0x150 JUMPI PUSH1 0x40 CALLDATASIZE PUSH1 0x3 NOT ADD SLT PUSH2 0x150 JUMPI PUSH2 0x806 PUSH2 0x18AF JUMP JUMPDEST PUSH1 0x4 CALLDATALOAD PUSH1 0x0 MSTORE PUSH1 0xD PUSH1 0x20 MSTORE PUSH1 0x40 PUSH1 0x0 KECCAK256 SWAP1 PUSH1 0x1 DUP1 PUSH1 0xA0 SHL SUB AND PUSH1 0x0 MSTORE PUSH1 0x20 MSTORE PUSH1 0x20 PUSH1 0xFF PUSH1 0x40 PUSH1 0x0 KECCAK256 SLOAD AND PUSH1 0x40 MLOAD SWAP1 ISZERO ISZERO DUP2 MSTORE RETURN JUMPDEST CALLVALUE PUSH2 0x150 JUMPI PUSH1 0x40 CALLDATASIZE PUSH1 0x3 NOT ADD SLT PUSH2 0x150 JUMPI PUSH1 0x4 CALLDATALOAD PUSH1 0x24 CALLDATALOAD PUSH1 0x1 PUSH1 0x1 PUSH1 0x40 SHL SUB DUP2 GT PUSH2 0x150 JUMPI PUSH2 0x86D SWAP1 CALLDATASIZE SWAP1 PUSH1 0x4 ADD PUSH2 0x1ACA JUMP JUMPDEST SWAP2 SWAP1 DUP2 PUSH1 0x0 MSTORE PUSH1 0x6 PUSH1 0x20 MSTORE PUSH1 0x40 PUSH1 0x0 KECCAK256 SLOAD ISZERO PUSH2 0xA15 JUMPI DUP3 ISZERO PUSH2 0x9D0 JUMPI PUSH1 0x0 DUP3 DUP2 MSTORE PUSH1 0xC PUSH1 0x20 SWAP1 DUP2 MSTORE PUSH1 0x40 DUP1 DUP4 KECCAK256 CALLER DUP5 MSTORE SWAP1 SWAP2 MSTORE SWAP1 KECCAK256 PUSH1 0x1 PUSH1 0x1 PUSH1 0x40 SHL SUB DUP5 GT PUSH2 0x7D7 JUMPI PUSH2 0x8C4 DUP5 PUSH2 0x8BE DUP4 SLOAD PUSH2 0x18DB JUMP JUMPDEST DUP4 PUSH2 0x1BFE JUMP JUMPDEST DUP4 PUSH1 0x0 PUSH1 0x1F DUP3 GT PUSH1 0x1 EQ PUSH2 0x943 JUMPI SWAP2 PUSH2 0x91A DUP3 PUSH32 0xA75737A36D3872DA22FF33E9FF498F19F9CCD60BFDBC6B85CCC2FB8E4EB1E244 SWAP6 SWAP4 PUSH2 0x933 SWAP6 PUSH1 0x0 SWAP2 PUSH2 0x938 JUMPI JUMPDEST POP DUP2 PUSH1 0x1 SHL SWAP2 PUSH1 0x0 NOT SWAP1 PUSH1 0x3 SHL SHR NOT AND OR SWAP1 JUMP JUMPDEST SWAP1 SSTORE JUMPDEST PUSH1 0x40 MLOAD SWAP2 DUP3 SWAP2 PUSH1 0x20 DUP4 MSTORE CALLER SWAP7 PUSH1 0x20 DUP5 ADD SWAP2 PUSH2 0x1C50 JUMP JUMPDEST SUB SWAP1 LOG3 STOP JUMPDEST SWAP1 POP DUP5 ADD CALLDATALOAD DUP10 PUSH2 0x906 JUMP JUMPDEST DUP3 DUP2 MSTORE PUSH1 0x20 DUP2 KECCAK256 SWAP2 POP DUP6 PUSH1 0x1F NOT DUP2 AND DUP3 JUMPDEST DUP2 DUP2 LT PUSH2 0x9B5 JUMPI POP SWAP2 PUSH32 0xA75737A36D3872DA22FF33E9FF498F19F9CCD60BFDBC6B85CCC2FB8E4EB1E244 SWAP6 SWAP4 SWAP2 PUSH2 0x933 SWAP6 SWAP4 LT PUSH2 0x99B JUMPI JUMPDEST POP POP PUSH1 0x1 DUP7 DUP2 SHL ADD SWAP1 SSTORE PUSH2 0x91D JUMP JUMPDEST DUP4 ADD CALLDATALOAD PUSH1 0x0 NOT PUSH1 0x3 DUP10 SWAP1 SHL PUSH1 0xF8 AND SHR NOT AND SWAP1 SSTORE DUP7 DUP1 PUSH2 0x98C JUMP JUMPDEST DUP7 DUP5 ADD CALLDATALOAD DUP6 SSTORE PUSH1 0x1 SWAP1 SWAP5 ADD SWAP4 PUSH1 0x20 SWAP4 DUP5 ADD SWAP4 DUP10 SWAP4 POP ADD PUSH2 0x954 JUMP JUMPDEST PUSH1 0x40 MLOAD PUSH3 0x461BCD PUSH1 0xE5 SHL DUP2 MSTORE PUSH1 0x20 PUSH1 0x4 DUP3 ADD MSTORE PUSH1 0x1A PUSH1 0x24 DUP3 ADD MSTORE PUSH32 0x53686172652055524C2063616E6E6F7420626520656D7074792E000000000000 PUSH1 0x44 DUP3 ADD MSTORE PUSH1 0x64 SWAP1 REVERT JUMPDEST PUSH1 0x40 MLOAD PUSH3 0x461BCD PUSH1 0xE5 SHL DUP2 MSTORE PUSH1 0x20 PUSH1 0x4 DUP3 ADD MSTORE PUSH1 0x15 PUSH1 0x24 DUP3 ADD MSTORE PUSH21 0x2A3930B1B5903237B2B9903737BA1032BC34B9BA17 PUSH1 0x59 SHL PUSH1 0x44 DUP3 ADD MSTORE PUSH1 0x64 SWAP1 REVERT JUMPDEST CALLVALUE PUSH2 0x150 JUMPI PUSH1 0x0 CALLDATASIZE PUSH1 0x3 NOT ADD SLT PUSH2 0x150 JUMPI PUSH1 0x0 SLOAD PUSH1 0x40 MLOAD PUSH1 0x1 PUSH1 0x1 PUSH1 0xA0 SHL SUB SWAP1 SWAP2 AND DUP2 MSTORE PUSH1 0x20 SWAP1 RETURN JUMPDEST CALLVALUE PUSH2 0x150 JUMPI PUSH1 0x20 CALLDATASIZE PUSH1 0x3 NOT ADD SLT PUSH2 0x150 JUMPI PUSH1 0x0 PUSH1 0x60 PUSH1 0x40 MLOAD PUSH2 0xA9C DUP2 PUSH2 0x1915 JUMP JUMPDEST DUP3 DUP2 MSTORE DUP2 PUSH1 0x20 DUP3 ADD MSTORE DUP3 PUSH1 0x40 DUP3 ADD MSTORE ADD MSTORE PUSH1 0x4 CALLDATALOAD PUSH1 0x0 MSTORE PUSH1 0x3 PUSH1 0x20 MSTORE PUSH1 0x40 PUSH1 0x0 KECCAK256 PUSH1 0x40 MLOAD PUSH2 0xAC9 DUP2 PUSH2 0x1915 JUMP JUMPDEST DUP2 SLOAD DUP2 MSTORE PUSH1 0x2 PUSH2 0xADB PUSH1 0x1 DUP5 ADD PUSH2 0x196C JUMP JUMPDEST SWAP3 PUSH1 0x20 DUP4 ADD SWAP4 DUP5 MSTORE ADD SLOAD PUSH1 0x40 DUP3 ADD SWAP1 PUSH1 0x1 DUP1 PUSH1 0xA0 SHL SUB DUP2 AND DUP3 MSTORE PUSH1 0xFF PUSH1 0x60 DUP5 ADD SWAP2 PUSH1 0xA0 SHR AND ISZERO ISZERO DUP2 MSTORE PUSH2 0xB29 PUSH1 0x40 MLOAD SWAP5 DUP6 SWAP5 PUSH1 0x20 DUP7 MSTORE MLOAD PUSH1 0x20 DUP7 ADD MSTORE MLOAD PUSH1 0x80 PUSH1 0x40 DUP7 ADD MSTORE PUSH1 0xA0 DUP6 ADD SWAP1 PUSH2 0x1A10 JUMP JUMPDEST SWAP2 MLOAD PUSH1 0x1 PUSH1 0x1 PUSH1 0xA0 SHL SUB AND PUSH1 0x60 DUP5 ADD MSTORE MLOAD ISZERO ISZERO PUSH1 0x80 DUP4 ADD MSTORE SUB SWAP1 RETURN JUMPDEST CALLVALUE PUSH2 0x150 JUMPI PUSH1 0x40 CALLDATASIZE PUSH1 0x3 NOT ADD SLT PUSH2 0x150 JUMPI PUSH1 0x4 CALLDATALOAD PUSH1 0x1 PUSH1 0x1 PUSH1 0x40 SHL SUB DUP2 GT PUSH2 0x150 JUMPI PUSH2 0xB75 SWAP1 CALLDATASIZE SWAP1 PUSH1 0x4 ADD PUSH2 0x1A51 JUMP JUMPDEST SWAP1 PUSH1 0x24 CALLDATALOAD PUSH1 0x1 PUSH1 0x1 PUSH1 0x40 SHL SUB DUP2 GT PUSH2 0x150 JUMPI PUSH2 0xB95 SWAP1 CALLDATASIZE SWAP1 PUSH1 0x4 ADD PUSH2 0x1A51 JUMP JUMPDEST PUSH2 0xBA0 SWAP4 SWAP2 SWAP4 PUSH2 0x1C71 JUMP JUMPDEST DUP1 DUP3 SUB PUSH2 0xC70 JUMPI PUSH1 0x0 JUMPDEST DUP3 DUP2 LT PUSH2 0xC02 JUMPI POP PUSH32 0xF2B9E90BFAF9ED9EB417943F4795CE9CDB1CEB01AB2F6BB4C6AACB1A75FD5B1A SWAP4 PUSH2 0xBFD SWAP2 PUSH2 0xBEF PUSH1 0x40 MLOAD SWAP6 DUP7 SWAP6 PUSH1 0x40 DUP8 MSTORE PUSH1 0x40 DUP8 ADD SWAP2 PUSH2 0x1BDA JUMP JUMPDEST SWAP2 DUP5 DUP4 SUB PUSH1 0x20 DUP7 ADD MSTORE PUSH2 0x1BDA JUMP JUMPDEST SUB SWAP1 LOG1 STOP JUMPDEST PUSH2 0xC0D DUP2 DUP5 DUP7 PUSH2 0x1B75 JUMP JUMPDEST CALLDATALOAD SWAP1 PUSH2 0xC1A DUP2 DUP5 DUP9 PUSH2 0x1B75 JUMP JUMPDEST CALLDATALOAD SWAP2 DUP1 PUSH1 0x0 MSTORE PUSH1 0x6 PUSH1 0x20 MSTORE PUSH1 0x40 PUSH1 0x0 KECCAK256 SLOAD ISZERO ISZERO DUP1 PUSH2 0xC67 JUMPI JUMPDEST PUSH2 0xC43 JUMPI JUMPDEST POP PUSH1 0x1 SWAP2 POP ADD PUSH2 0xBAA JUMP JUMPDEST PUSH1 0x0 MSTORE PUSH1 0x8 PUSH1 0x20 MSTORE PUSH1 0x40 PUSH1 0x0 KECCAK256 SWAP2 DUP3 SLOAD SWAP1 DUP2 ADD DUP1 SWAP2 GT PUSH2 0x453 JUMPI PUSH1 0x1 SWAP3 SSTORE DUP7 PUSH2 0xC38 JUMP JUMPDEST POP DUP3 ISZERO ISZERO PUSH2 0xC33 JUMP JUMPDEST PUSH1 0x40 MLOAD PUSH3 0x461BCD PUSH1 0xE5 SHL DUP2 MSTORE PUSH1 0x20 PUSH1 0x4 DUP3 ADD MSTORE PUSH1 0x27 PUSH1 0x24 DUP3 ADD MSTORE PUSH32 0x496E70757420617272617973206D7573742068617665207468652073616D6520 PUSH1 0x44 DUP3 ADD MSTORE PUSH7 0x3632B733BA3417 PUSH1 0xC9 SHL PUSH1 0x64 DUP3 ADD MSTORE PUSH1 0x84 SWAP1 REVERT JUMPDEST CALLVALUE PUSH2 0x150 JUMPI PUSH1 0x0 CALLDATASIZE PUSH1 0x3 NOT ADD SLT PUSH2 0x150 JUMPI PUSH2 0xCDE PUSH2 0x1C71 JUMP JUMPDEST PUSH1 0x0 DUP1 SLOAD PUSH1 0x1 PUSH1 0x1 PUSH1 0xA0 SHL SUB NOT DUP2 AND DUP3 SSTORE PUSH1 0x1 PUSH1 0x1 PUSH1 0xA0 SHL SUB AND PUSH32 0x8BE0079C531659141344CD1FD0A4F28419497F9722A3DAAFE3B4186F6B6457E0 DUP3 DUP1 LOG3 STOP JUMPDEST CALLVALUE PUSH2 0x150 JUMPI PUSH1 0x20 CALLDATASIZE PUSH1 0x3 NOT ADD SLT PUSH2 0x150 JUMPI PUSH1 0x4 CALLDATALOAD PUSH1 0x2 SLOAD DUP2 LT ISZERO PUSH2 0x150 JUMPI PUSH2 0xD45 SWAP1 PUSH2 0x1A81 JUMP JUMPDEST PUSH2 0xD69 JUMPI PUSH2 0xD55 PUSH2 0x508 SWAP2 PUSH2 0x196C JUMP JUMPDEST PUSH1 0x40 MLOAD SWAP2 DUP3 SWAP2 PUSH1 0x20 DUP4 MSTORE PUSH1 0x20 DUP4 ADD SWAP1 PUSH2 0x1A10 JUMP JUMPDEST PUSH4 0x4E487B71 PUSH1 0xE0 SHL PUSH1 0x0 MSTORE PUSH1 0x0 PUSH1 0x4 MSTORE PUSH1 0x24 PUSH1 0x0 REVERT JUMPDEST CALLVALUE PUSH2 0x150 JUMPI PUSH1 0x20 CALLDATASIZE PUSH1 0x3 NOT ADD SLT PUSH2 0x150 JUMPI PUSH1 0x4 CALLDATALOAD PUSH1 0xA SLOAD DUP2 LT ISZERO PUSH2 0x150 JUMPI PUSH1 0x0 SWAP1 PUSH1 0xA SLOAD DUP2 LT ISZERO PUSH2 0xDBD JUMPI PUSH1 0x20 DUP3 PUSH1 0xA DUP3 SWAP5 MSTORE KECCAK256 ADD SLOAD PUSH1 0x40 MLOAD SWAP1 DUP2 MSTORE RETURN JUMPDEST PUSH4 0x4E487B71 PUSH1 0xE0 SHL DUP3 MSTORE PUSH1 0x32 PUSH1 0x4 MSTORE PUSH1 0x24 DUP3 REVERT JUMPDEST CALLVALUE PUSH2 0x150 JUMPI PUSH1 0x20 CALLDATASIZE PUSH1 0x3 NOT ADD SLT PUSH2 0x150 JUMPI PUSH1 0x0 PUSH1 0xC0 PUSH1 0x40 MLOAD PUSH2 0xDF2 DUP2 PUSH2 0x1930 JUMP JUMPDEST DUP3 DUP2 MSTORE DUP3 PUSH1 0x20 DUP3 ADD MSTORE PUSH1 0x60 PUSH1 0x40 DUP3 ADD MSTORE PUSH1 0x60 DUP1 DUP3 ADD MSTORE PUSH1 0x60 PUSH1 0x80 DUP3 ADD MSTORE PUSH1 0x60 PUSH1 0xA0 DUP3 ADD MSTORE ADD MSTORE PUSH1 0x4 CALLDATALOAD PUSH1 0x0 MSTORE PUSH1 0x6 PUSH1 0x20 MSTORE PUSH1 0x40 PUSH1 0x0 KECCAK256 PUSH1 0x40 MLOAD PUSH2 0xE34 DUP2 PUSH2 0x1930 JUMP JUMPDEST DUP2 SLOAD DUP2 MSTORE PUSH1 0x1 DUP3 ADD SLOAD SWAP2 PUSH1 0x20 DUP3 ADD SWAP3 DUP4 MSTORE PUSH2 0xF0E PUSH2 0xE54 PUSH1 0x2 DUP4 ADD PUSH2 0x196C JUMP JUMPDEST SWAP2 PUSH1 0x40 DUP5 ADD SWAP3 DUP4 MSTORE PUSH2 0xEFB PUSH2 0xE6B PUSH1 0x3 DUP4 ADD PUSH2 0x196C JUMP JUMPDEST PUSH1 0x60 DUP7 ADD SWAP1 DUP2 MSTORE PUSH2 0xEE8 PUSH2 0xE81 PUSH1 0x4 DUP6 ADD PUSH2 0x196C JUMP JUMPDEST SWAP2 PUSH1 0x80 DUP9 ADD SWAP3 DUP4 MSTORE PUSH2 0xED5 PUSH1 0x6 PUSH2 0xE9A PUSH1 0x5 DUP9 ADD PUSH2 0x196C JUMP JUMPDEST SWAP7 PUSH1 0xA0 DUP12 ADD SWAP8 DUP9 MSTORE ADD SLOAD SWAP8 PUSH1 0xC0 DUP11 ADD SWAP9 DUP10 MSTORE PUSH1 0x40 MLOAD SWAP11 DUP12 SWAP11 PUSH1 0x20 DUP13 MSTORE MLOAD PUSH1 0x20 DUP13 ADD MSTORE MLOAD PUSH1 0x40 DUP12 ADD MSTORE MLOAD PUSH1 0xE0 PUSH1 0x60 DUP12 ADD MSTORE PUSH2 0x100 DUP11 ADD SWAP1 PUSH2 0x1A10 JUMP JUMPDEST SWAP1 MLOAD DUP9 DUP3 SUB PUSH1 0x1F NOT ADD PUSH1 0x80 DUP11 ADD MSTORE PUSH2 0x1A10 JUMP JUMPDEST SWAP1 MLOAD DUP7 DUP3 SUB PUSH1 0x1F NOT ADD PUSH1 0xA0 DUP9 ADD MSTORE PUSH2 0x1A10 JUMP JUMPDEST SWAP1 MLOAD DUP5 DUP3 SUB PUSH1 0x1F NOT ADD PUSH1 0xC0 DUP7 ADD MSTORE PUSH2 0x1A10 JUMP JUMPDEST SWAP1 MLOAD PUSH1 0xE0 DUP4 ADD MSTORE SUB SWAP1 RETURN JUMPDEST CALLVALUE PUSH2 0x150 JUMPI PUSH1 0x0 CALLDATASIZE PUSH1 0x3 NOT ADD SLT PUSH2 0x150 JUMPI PUSH1 0x1 SLOAD PUSH1 0x40 MLOAD PUSH1 0x1 PUSH1 0x1 PUSH1 0xA0 SHL SUB SWAP1 SWAP2 AND DUP2 MSTORE PUSH1 0x20 SWAP1 RETURN JUMPDEST CALLVALUE PUSH2 0x150 JUMPI PUSH1 0x20 CALLDATASIZE PUSH1 0x3 NOT ADD SLT PUSH2 0x150 JUMPI PUSH1 0x1 PUSH1 0x1 PUSH1 0xA0 SHL SUB PUSH2 0xF63 PUSH2 0x18C5 JUMP JUMPDEST AND PUSH1 0x0 MSTORE PUSH1 0x4 PUSH1 0x20 MSTORE PUSH1 0x20 PUSH1 0x40 PUSH1 0x0 KECCAK256 SLOAD PUSH1 0x40 MLOAD SWAP1 DUP2 MSTORE RETURN JUMPDEST CALLVALUE PUSH2 0x150 JUMPI PUSH1 0x0 CALLDATASIZE PUSH1 0x3 NOT ADD SLT PUSH2 0x150 JUMPI PUSH2 0xF95 PUSH2 0x1C71 JUMP JUMPDEST PUSH1 0x0 DUP1 SLOAD DUP2 SWAP1 DUP2 SWAP1 DUP2 SWAP1 SELFBALANCE SWAP1 PUSH1 0x1 PUSH1 0x1 PUSH1 0xA0 SHL SUB AND DUP3 DUP3 ISZERO PUSH2 0xFBA JUMPI JUMPDEST CALL ISZERO PUSH2 0x3C5 JUMPI STOP JUMPDEST POP PUSH2 0x8FC PUSH2 0xFB2 JUMP JUMPDEST CALLVALUE PUSH2 0x150 JUMPI PUSH1 0xC0 CALLDATASIZE PUSH1 0x3 NOT ADD SLT PUSH2 0x150 JUMPI PUSH1 0x4 CALLDATALOAD PUSH1 0x1 PUSH1 0x1 PUSH1 0x40 SHL SUB DUP2 GT PUSH2 0x150 JUMPI PUSH2 0xFF3 SWAP1 CALLDATASIZE SWAP1 PUSH1 0x4 ADD PUSH2 0x1A51 JUMP JUMPDEST SWAP1 PUSH1 0x24 CALLDATALOAD PUSH1 0x1 PUSH1 0x1 PUSH1 0x40 SHL SUB DUP2 GT PUSH2 0x150 JUMPI PUSH2 0x1013 SWAP1 CALLDATASIZE SWAP1 PUSH1 0x4 ADD PUSH2 0x1A51 JUMP JUMPDEST PUSH1 0x44 SWAP4 SWAP2 SWAP4 CALLDATALOAD PUSH1 0x1 PUSH1 0x1 PUSH1 0x40 SHL SUB DUP2 GT PUSH2 0x150 JUMPI PUSH2 0x1035 SWAP1 CALLDATASIZE SWAP1 PUSH1 0x4 ADD PUSH2 0x1A51 JUMP JUMPDEST PUSH1 0x80 MSTORE SWAP1 PUSH1 0x64 CALLDATALOAD PUSH1 0x1 PUSH1 0x1 PUSH1 0x40 SHL SUB DUP2 GT PUSH2 0x150 JUMPI PUSH2 0x1058 SWAP1 CALLDATASIZE SWAP1 PUSH1 0x4 ADD PUSH2 0x1A51 JUMP JUMPDEST PUSH1 0x84 CALLDATALOAD PUSH1 0x1 PUSH1 0x1 PUSH1 0x40 SHL SUB DUP2 GT PUSH2 0x150 JUMPI PUSH2 0x1077 SWAP1 CALLDATASIZE SWAP1 PUSH1 0x4 ADD PUSH2 0x1A51 JUMP JUMPDEST SWAP1 SWAP4 PUSH1 0xA4 CALLDATALOAD PUSH1 0x1 PUSH1 0x1 PUSH1 0x40 SHL SUB DUP2 GT PUSH2 0x150 JUMPI PUSH2 0x1098 SWAP1 CALLDATASIZE SWAP1 PUSH1 0x4 ADD PUSH2 0x1A51 JUMP JUMPDEST SWAP10 SWAP1 SWAP2 PUSH2 0x10A3 PUSH2 0x1C71 JUMP JUMPDEST PUSH2 0x10AE DUP2 DUP11 EQ PUSH2 0x1B31 JUMP JUMPDEST PUSH2 0x10BB PUSH1 0x80 MLOAD DUP11 EQ PUSH2 0x1B31 JUMP JUMPDEST PUSH2 0x10C6 DUP6 DUP11 EQ PUSH2 0x1B31 JUMP JUMPDEST PUSH2 0x10D1 DUP5 DUP11 EQ PUSH2 0x1B31 JUMP JUMPDEST PUSH2 0x10DC DUP12 DUP11 EQ PUSH2 0x1B31 JUMP JUMPDEST PUSH1 0x0 JUMPDEST DUP10 DUP2 LT PUSH2 0x10E8 JUMPI STOP JUMPDEST DUP1 DUP1 DUP11 DUP11 DUP16 SWAP5 DUP16 DUP16 DUP11 DUP11 DUP16 SWAP5 DUP16 SWAP5 SWAP1 DUP16 SWAP5 DUP2 PUSH2 0x1135 DUP16 PUSH2 0x112D PUSH2 0x1121 DUP5 DUP1 SWAP4 PUSH2 0x111B PUSH2 0x2E1 DUP4 PUSH2 0x113D SWAP11 PUSH2 0x1145 SWAP14 PUSH2 0x1B75 JUMP JUMPDEST SWAP11 PUSH2 0x1B99 JUMP JUMPDEST SWAP16 SWAP1 SWAP15 PUSH1 0x80 MLOAD SWAP1 PUSH2 0x1B99 JUMP JUMPDEST SWAP11 SWAP1 SWAP12 PUSH2 0x1B99 JUMP JUMPDEST SWAP8 SWAP1 SWAP11 PUSH2 0x1B99 JUMP JUMPDEST SWAP13 SWAP1 SWAP5 PUSH2 0x1B99 JUMP JUMPDEST SWAP8 SWAP1 SWAP2 PUSH1 0x1 DUP1 PUSH1 0xA0 SHL SUB AND SWAP1 DUP2 PUSH1 0x0 MSTORE PUSH1 0x4 PUSH1 0x20 MSTORE PUSH1 0x40 PUSH1 0x0 KECCAK256 SLOAD ISZERO PUSH1 0x0 EQ PUSH2 0x1831 JUMPI PUSH2 0x1172 DUP6 DUP10 PUSH2 0x1CEF JUMP JUMPDEST ISZERO PUSH2 0x17D8 JUMPI PUSH1 0x5 SLOAD SWAP1 PUSH2 0x1184 DUP3 PUSH2 0x1C9A JUMP JUMPDEST PUSH1 0x5 SSTORE DUP2 SWAP11 PUSH1 0x40 MLOAD PUSH2 0x1195 DUP2 PUSH2 0x1915 JUMP JUMPDEST DUP4 DUP2 MSTORE PUSH2 0x11A3 CALLDATASIZE DUP4 DUP6 PUSH2 0x1CA9 JUMP JUMPDEST PUSH1 0x20 DUP3 ADD SWAP1 DUP2 MSTORE PUSH1 0x40 DUP3 ADD SWAP2 DUP7 DUP4 MSTORE PUSH1 0x60 DUP2 ADD SWAP2 PUSH1 0x1 DUP4 MSTORE DUP7 PUSH1 0x0 MSTORE PUSH1 0x3 PUSH1 0x20 MSTORE PUSH1 0x40 PUSH1 0x0 KECCAK256 SWAP2 MLOAD DUP3 SSTORE PUSH1 0x1 DUP3 ADD SWAP1 MLOAD DUP1 MLOAD SWAP1 PUSH1 0x1 PUSH1 0x1 PUSH1 0x40 SHL SUB DUP3 GT PUSH2 0x7D7 JUMPI PUSH2 0x11F8 DUP3 PUSH2 0x11F2 DUP6 SLOAD PUSH2 0x18DB JUMP JUMPDEST DUP6 PUSH2 0x1BFE JUMP JUMPDEST PUSH1 0x20 SWAP1 PUSH1 0x1F DUP4 GT PUSH1 0x1 EQ PUSH2 0x1748 JUMPI DUP3 PUSH32 0x8443301405F337E5D871773F81107FB07D77D5F08FD2A5C7157A9C89951268AB SWAP10 SWAP9 SWAP8 SWAP7 SWAP6 SWAP4 PUSH1 0x2 SWAP6 SWAP4 PUSH2 0x1253 SWAP4 PUSH1 0x0 SWAP3 PUSH2 0x159D JUMPI JUMPDEST POP POP DUP2 PUSH1 0x1 SHL SWAP2 PUSH1 0x0 NOT SWAP1 PUSH1 0x3 SHL SHR NOT AND OR SWAP1 JUMP JUMPDEST SWAP1 SSTORE JUMPDEST SWAP3 MLOAD SWAP3 ADD DUP1 SLOAD SWAP2 MLOAD PUSH1 0x1 PUSH1 0x1 PUSH1 0xA8 SHL SUB NOT SWAP1 SWAP3 AND PUSH1 0x1 PUSH1 0x1 PUSH1 0xA0 SHL SUB SWAP4 SWAP1 SWAP4 AND SWAP3 SWAP1 SWAP3 OR SWAP1 ISZERO ISZERO PUSH1 0xA0 SHL PUSH1 0xFF PUSH1 0xA0 SHL AND OR SWAP1 SSTORE PUSH1 0x0 DUP6 DUP2 MSTORE PUSH1 0x4 PUSH1 0x20 SWAP1 DUP2 MSTORE PUSH1 0x40 SWAP2 DUP3 SWAP1 KECCAK256 DUP7 SWAP1 SSTORE SWAP1 MLOAD DUP2 DUP2 MSTORE SWAP3 DUP4 SWAP3 PUSH2 0x12B2 SWAP3 DUP5 ADD SWAP2 PUSH2 0x1C50 JUMP JUMPDEST SUB SWAP1 LOG3 JUMPDEST PUSH1 0x7 SLOAD SWAP7 PUSH2 0x12C3 DUP9 PUSH2 0x1C9A JUMP JUMPDEST PUSH1 0x7 SSTORE PUSH1 0x40 MLOAD SWAP2 PUSH2 0x12D3 DUP4 PUSH2 0x1930 JUMP JUMPDEST DUP9 DUP4 MSTORE PUSH1 0x20 DUP4 ADD SWAP2 DUP11 DUP4 MSTORE DUP13 PUSH2 0x1322 PUSH2 0x12ED CALLDATASIZE DUP11 DUP13 PUSH2 0x1CA9 JUMP JUMPDEST PUSH1 0x40 DUP8 ADD SWAP1 DUP2 MSTORE SWAP4 PUSH2 0x1313 PUSH2 0x1303 CALLDATASIZE DUP12 DUP16 PUSH2 0x1CA9 JUMP JUMPDEST SWAP4 PUSH1 0x60 DUP10 ADD SWAP5 DUP6 MSTORE CALLDATASIZE SWAP1 DUP11 PUSH2 0x1CA9 JUMP JUMPDEST SWAP4 PUSH1 0x80 DUP9 ADD SWAP5 DUP6 MSTORE CALLDATASIZE SWAP2 PUSH2 0x1CA9 JUMP JUMPDEST SWAP3 PUSH1 0xA0 DUP7 ADD SWAP4 DUP5 MSTORE PUSH1 0xC0 DUP7 ADD SWAP5 TIMESTAMP DUP7 MSTORE DUP13 PUSH1 0x0 MSTORE PUSH1 0x6 PUSH1 0x20 MSTORE PUSH1 0x40 PUSH1 0x0 KECCAK256 SWAP7 MLOAD DUP8 SSTORE MLOAD PUSH1 0x1 DUP8 ADD SSTORE PUSH1 0x2 DUP7 ADD SWAP1 MLOAD DUP1 MLOAD SWAP1 PUSH1 0x1 PUSH1 0x1 PUSH1 0x40 SHL SUB DUP3 GT PUSH2 0x7D7 JUMPI PUSH2 0x136F DUP3 PUSH2 0x11F2 DUP6 SLOAD PUSH2 0x18DB JUMP JUMPDEST PUSH1 0x20 SWAP1 PUSH1 0x1F DUP4 GT PUSH1 0x1 EQ PUSH2 0x16E1 JUMPI PUSH2 0x139F SWAP3 SWAP2 PUSH1 0x0 SWAP2 DUP4 PUSH2 0x159D JUMPI POP POP DUP2 PUSH1 0x1 SHL SWAP2 PUSH1 0x0 NOT SWAP1 PUSH1 0x3 SHL SHR NOT AND OR SWAP1 JUMP JUMPDEST SWAP1 SSTORE JUMPDEST MLOAD DUP1 MLOAD PUSH1 0x3 DUP7 ADD SWAP2 PUSH1 0x1 PUSH1 0x1 PUSH1 0x40 SHL SUB DUP3 GT PUSH2 0x7D7 JUMPI PUSH2 0x13C6 DUP3 PUSH2 0x11F2 DUP6 SLOAD PUSH2 0x18DB JUMP JUMPDEST PUSH1 0x20 SWAP1 PUSH1 0x1F DUP4 GT PUSH1 0x1 EQ PUSH2 0x167A JUMPI PUSH2 0x13F6 SWAP3 SWAP2 PUSH1 0x0 SWAP2 DUP4 PUSH2 0x159D JUMPI POP POP DUP2 PUSH1 0x1 SHL SWAP2 PUSH1 0x0 NOT SWAP1 PUSH1 0x3 SHL SHR NOT AND OR SWAP1 JUMP JUMPDEST SWAP1 SSTORE JUMPDEST MLOAD DUP1 MLOAD PUSH1 0x4 DUP6 ADD SWAP2 PUSH1 0x1 PUSH1 0x1 PUSH1 0x40 SHL SUB DUP3 GT PUSH2 0x7D7 JUMPI PUSH2 0x141D DUP3 PUSH2 0x11F2 DUP6 SLOAD PUSH2 0x18DB JUMP JUMPDEST PUSH1 0x20 SWAP1 PUSH1 0x1F DUP4 GT PUSH1 0x1 EQ PUSH2 0x1613 JUMPI PUSH2 0x144D SWAP3 SWAP2 PUSH1 0x0 SWAP2 DUP4 PUSH2 0x159D JUMPI POP POP DUP2 PUSH1 0x1 SHL SWAP2 PUSH1 0x0 NOT SWAP1 PUSH1 0x3 SHL SHR NOT AND OR SWAP1 JUMP JUMPDEST SWAP1 SSTORE JUMPDEST MLOAD DUP1 MLOAD PUSH1 0x5 DUP5 ADD SWAP2 PUSH1 0x1 PUSH1 0x1 PUSH1 0x40 SHL SUB DUP3 GT PUSH2 0x7D7 JUMPI PUSH2 0x1474 DUP3 PUSH2 0x11F2 DUP6 SLOAD PUSH2 0x18DB JUMP JUMPDEST PUSH1 0x20 SWAP1 PUSH1 0x1F DUP4 GT PUSH1 0x1 EQ PUSH2 0x15A8 JUMPI SWAP2 DUP1 PUSH2 0x14A9 SWAP3 PUSH1 0x6 SWAP7 SWAP6 SWAP5 PUSH1 0x0 SWAP3 PUSH2 0x159D JUMPI POP POP DUP2 PUSH1 0x1 SHL SWAP2 PUSH1 0x0 NOT SWAP1 PUSH1 0x3 SHL SHR NOT AND OR SWAP1 JUMP JUMPDEST SWAP1 SSTORE JUMPDEST MLOAD SWAP2 ADD SSTORE DUP6 PUSH1 0x0 MSTORE PUSH1 0x8 PUSH1 0x20 MSTORE PUSH1 0x0 PUSH1 0x40 DUP2 KECCAK256 SSTORE PUSH1 0x40 MLOAD DUP3 DUP7 DUP3 CALLDATACOPY PUSH1 0x20 DUP2 DUP5 DUP2 ADD PUSH1 0x9 DUP2 MSTORE SUB ADD SWAP1 KECCAK256 DUP1 SLOAD PUSH1 0x1 PUSH1 0x40 SHL DUP2 LT ISZERO PUSH2 0x7D7 JUMPI PUSH2 0x14F7 DUP2 PUSH2 0x1510 SWAP4 PUSH1 0x1 DUP12 SWAP5 ADD DUP2 SSTORE PUSH2 0x1AB2 JUMP JUMPDEST SWAP1 SWAP2 SWAP1 DUP3 SLOAD SWAP1 PUSH1 0x3 SHL SWAP2 DUP3 SHL SWAP2 PUSH1 0x0 NOT SWAP1 SHL NOT AND OR SWAP1 SSTORE JUMP JUMPDEST PUSH1 0xA SLOAD SWAP9 PUSH1 0x1 PUSH1 0x40 SHL DUP11 LT ISZERO PUSH2 0x7D7 JUMPI PUSH2 0x1586 PUSH32 0x39628C05242773D13EF5DEAADB11828A34886BB12E6FEF9357C4EA00D1587381 SWAP7 PUSH2 0x1594 SWAP5 PUSH2 0x1561 DUP11 PUSH2 0x14F7 PUSH1 0x1 SWAP16 PUSH1 0x1 DUP2 ADD PUSH1 0xA SSTORE PUSH1 0xA PUSH2 0x1AB2 JUMP JUMPDEST PUSH2 0x1578 PUSH1 0x40 MLOAD SWAP9 DUP10 SWAP9 PUSH1 0x60 DUP11 MSTORE PUSH1 0x60 DUP11 ADD SWAP2 PUSH2 0x1C50 JUMP JUMPDEST SWAP2 DUP8 DUP4 SUB PUSH1 0x20 DUP10 ADD MSTORE PUSH2 0x1C50 JUMP JUMPDEST SWAP2 DUP5 DUP4 SUB PUSH1 0x40 DUP7 ADD MSTORE PUSH2 0x1C50 JUMP JUMPDEST SUB SWAP1 LOG3 ADD PUSH2 0x10DF JUMP JUMPDEST ADD MLOAD SWAP1 POP CODESIZE DUP1 PUSH2 0x123E JUMP JUMPDEST SWAP1 PUSH1 0x1F NOT DUP4 AND SWAP2 DUP5 PUSH1 0x0 MSTORE DUP2 PUSH1 0x0 KECCAK256 SWAP3 PUSH1 0x0 JUMPDEST DUP2 DUP2 LT PUSH2 0x15FB JUMPI POP SWAP2 PUSH1 0x1 SWAP4 SWAP2 DUP6 PUSH1 0x6 SWAP9 SWAP8 SWAP7 SWAP5 LT PUSH2 0x15E2 JUMPI JUMPDEST POP POP POP DUP2 SHL ADD SWAP1 SSTORE PUSH2 0x14AC JUMP JUMPDEST ADD MLOAD PUSH1 0x0 NOT PUSH1 0xF8 DUP5 PUSH1 0x3 SHL AND SHR NOT AND SWAP1 SSTORE CODESIZE DUP1 DUP1 PUSH2 0x15D5 JUMP JUMPDEST SWAP3 SWAP4 PUSH1 0x20 PUSH1 0x1 DUP2 SWAP3 DUP8 DUP7 ADD MLOAD DUP2 SSTORE ADD SWAP6 ADD SWAP4 ADD PUSH2 0x15BB JUMP JUMPDEST SWAP1 PUSH1 0x1F NOT DUP4 AND SWAP2 DUP5 PUSH1 0x0 MSTORE DUP2 PUSH1 0x0 KECCAK256 SWAP3 PUSH1 0x0 JUMPDEST DUP2 DUP2 LT PUSH2 0x1662 JUMPI POP SWAP1 DUP5 PUSH1 0x1 SWAP6 SWAP5 SWAP4 SWAP3 LT PUSH2 0x1649 JUMPI JUMPDEST POP POP POP DUP2 SHL ADD SWAP1 SSTORE PUSH2 0x1450 JUMP JUMPDEST ADD MLOAD PUSH1 0x0 NOT PUSH1 0xF8 DUP5 PUSH1 0x3 SHL AND SHR NOT AND SWAP1 SSTORE CODESIZE DUP1 DUP1 PUSH2 0x163C JUMP JUMPDEST SWAP3 SWAP4 PUSH1 0x20 PUSH1 0x1 DUP2 SWAP3 DUP8 DUP7 ADD MLOAD DUP2 SSTORE ADD SWAP6 ADD SWAP4 ADD PUSH2 0x1626 JUMP JUMPDEST SWAP1 PUSH1 0x1F NOT DUP4 AND SWAP2 DUP5 PUSH1 0x0 MSTORE DUP2 PUSH1 0x0 KECCAK256 SWAP3 PUSH1 0x0 JUMPDEST DUP2 DUP2 LT PUSH2 0x16C9 JUMPI POP SWAP1 DUP5 PUSH1 0x1 SWAP6 SWAP5 SWAP4 SWAP3 LT PUSH2 0x16B0 JUMPI JUMPDEST POP POP POP DUP2 SHL ADD SWAP1 SSTORE PUSH2 0x13F9 JUMP JUMPDEST ADD MLOAD PUSH1 0x0 NOT PUSH1 0xF8 DUP5 PUSH1 0x3 SHL AND SHR NOT AND SWAP1 SSTORE CODESIZE DUP1 DUP1 PUSH2 0x16A3 JUMP JUMPDEST SWAP3 SWAP4 PUSH1 0x20 PUSH1 0x1 DUP2 SWAP3 DUP8 DUP7 ADD MLOAD DUP2 SSTORE ADD SWAP6 ADD SWAP4 ADD PUSH2 0x168D JUMP JUMPDEST SWAP1 PUSH1 0x1F NOT DUP4 AND SWAP2 DUP5 PUSH1 0x0 MSTORE DUP2 PUSH1 0x0 KECCAK256 SWAP3 PUSH1 0x0 JUMPDEST DUP2 DUP2 LT PUSH2 0x1730 JUMPI POP SWAP1 DUP5 PUSH1 0x1 SWAP6 SWAP5 SWAP4 SWAP3 LT PUSH2 0x1717 JUMPI JUMPDEST POP POP POP DUP2 SHL ADD SWAP1 SSTORE PUSH2 0x13A2 JUMP JUMPDEST ADD MLOAD PUSH1 0x0 NOT PUSH1 0xF8 DUP5 PUSH1 0x3 SHL AND SHR NOT AND SWAP1 SSTORE CODESIZE DUP1 DUP1 PUSH2 0x170A JUMP JUMPDEST SWAP3 SWAP4 PUSH1 0x20 PUSH1 0x1 DUP2 SWAP3 DUP8 DUP7 ADD MLOAD DUP2 SSTORE ADD SWAP6 ADD SWAP4 ADD PUSH2 0x16F4 JUMP JUMPDEST SWAP1 PUSH1 0x1F NOT DUP4 AND SWAP2 DUP5 PUSH1 0x0 MSTORE DUP2 PUSH1 0x0 KECCAK256 SWAP3 PUSH1 0x0 JUMPDEST DUP2 DUP2 LT PUSH2 0x17C0 JUMPI POP SWAP3 PUSH1 0x1 SWAP3 DUP6 SWAP3 PUSH32 0x8443301405F337E5D871773F81107FB07D77D5F08FD2A5C7157A9C89951268AB SWAP13 SWAP12 SWAP11 SWAP10 SWAP9 SWAP7 PUSH1 0x2 SWAP9 SWAP7 LT PUSH2 0x17A7 JUMPI JUMPDEST POP POP POP DUP2 SHL ADD SWAP1 SSTORE PUSH2 0x1256 JUMP JUMPDEST ADD MLOAD PUSH1 0x0 NOT PUSH1 0xF8 DUP5 PUSH1 0x3 SHL AND SHR NOT AND SWAP1 SSTORE CODESIZE DUP1 DUP1 PUSH2 0x179A JUMP JUMPDEST SWAP3 SWAP4 PUSH1 0x20 PUSH1 0x1 DUP2 SWAP3 DUP8 DUP7 ADD MLOAD DUP2 SSTORE ADD SWAP6 ADD SWAP4 ADD PUSH2 0x175B JUMP JUMPDEST PUSH1 0x40 MLOAD PUSH3 0x461BCD PUSH1 0xE5 SHL DUP2 MSTORE PUSH1 0x20 PUSH1 0x4 DUP3 ADD MSTORE PUSH1 0x2B PUSH1 0x24 DUP3 ADD MSTORE PUSH32 0x496E76616C69642067656E726520666F72206E65772061727469737427732066 PUSH1 0x44 DUP3 ADD MSTORE PUSH11 0x34B939BA103A3930B1B597 PUSH1 0xA9 SHL PUSH1 0x64 DUP3 ADD MSTORE PUSH1 0x84 SWAP1 REVERT JUMPDEST POP SWAP1 SWAP8 POP PUSH1 0x0 MSTORE PUSH1 0x4 PUSH1 0x20 MSTORE PUSH1 0x40 PUSH1 0x0 KECCAK256 SLOAD SWAP7 PUSH2 0x12B6 JUMP JUMPDEST CALLVALUE PUSH2 0x150 JUMPI PUSH1 0x0 CALLDATASIZE PUSH1 0x3 NOT ADD SLT PUSH2 0x150 JUMPI PUSH1 0x20 PUSH1 0xB SLOAD PUSH1 0x40 MLOAD SWAP1 DUP2 MSTORE RETURN JUMPDEST CALLVALUE PUSH2 0x150 JUMPI PUSH1 0x40 CALLDATASIZE PUSH1 0x3 NOT ADD SLT PUSH2 0x150 JUMPI PUSH2 0x1880 PUSH2 0x18AF JUMP JUMPDEST PUSH1 0x4 CALLDATALOAD PUSH1 0x0 MSTORE PUSH1 0xC PUSH1 0x20 MSTORE PUSH1 0x40 PUSH1 0x0 KECCAK256 SWAP1 PUSH1 0x1 DUP1 PUSH1 0xA0 SHL SUB AND PUSH1 0x0 MSTORE PUSH1 0x20 MSTORE PUSH2 0x508 PUSH2 0xD55 PUSH1 0x40 PUSH1 0x0 KECCAK256 PUSH2 0x196C JUMP JUMPDEST PUSH1 0x24 CALLDATALOAD SWAP1 PUSH1 0x1 PUSH1 0x1 PUSH1 0xA0 SHL SUB DUP3 AND DUP3 SUB PUSH2 0x150 JUMPI JUMP JUMPDEST PUSH1 0x4 CALLDATALOAD SWAP1 PUSH1 0x1 PUSH1 0x1 PUSH1 0xA0 SHL SUB DUP3 AND DUP3 SUB PUSH2 0x150 JUMPI JUMP JUMPDEST SWAP1 PUSH1 0x1 DUP3 DUP2 SHR SWAP3 AND DUP1 ISZERO PUSH2 0x190B JUMPI JUMPDEST PUSH1 0x20 DUP4 LT EQ PUSH2 0x18F5 JUMPI JUMP JUMPDEST PUSH4 0x4E487B71 PUSH1 0xE0 SHL PUSH1 0x0 MSTORE PUSH1 0x22 PUSH1 0x4 MSTORE PUSH1 0x24 PUSH1 0x0 REVERT JUMPDEST SWAP2 PUSH1 0x7F AND SWAP2 PUSH2 0x18EA JUMP JUMPDEST PUSH1 0x80 DUP2 ADD SWAP1 DUP2 LT PUSH1 0x1 PUSH1 0x1 PUSH1 0x40 SHL SUB DUP3 GT OR PUSH2 0x7D7 JUMPI PUSH1 0x40 MSTORE JUMP JUMPDEST PUSH1 0xE0 DUP2 ADD SWAP1 DUP2 LT PUSH1 0x1 PUSH1 0x1 PUSH1 0x40 SHL SUB DUP3 GT OR PUSH2 0x7D7 JUMPI PUSH1 0x40 MSTORE JUMP JUMPDEST SWAP1 PUSH1 0x1F DUP1 NOT SWAP2 ADD AND DUP2 ADD SWAP1 DUP2 LT PUSH1 0x1 PUSH1 0x1 PUSH1 0x40 SHL SUB DUP3 GT OR PUSH2 0x7D7 JUMPI PUSH1 0x40 MSTORE JUMP JUMPDEST SWAP1 PUSH1 0x40 MLOAD SWAP2 DUP3 PUSH1 0x0 DUP3 SLOAD SWAP3 PUSH2 0x1980 DUP5 PUSH2 0x18DB JUMP JUMPDEST DUP1 DUP5 MSTORE SWAP4 PUSH1 0x1 DUP2 AND SWAP1 DUP2 ISZERO PUSH2 0x19EE JUMPI POP PUSH1 0x1 EQ PUSH2 0x19A7 JUMPI JUMPDEST POP PUSH2 0x19A5 SWAP3 POP SUB DUP4 PUSH2 0x194B JUMP JUMPDEST JUMP JUMPDEST SWAP1 POP PUSH1 0x0 SWAP3 SWAP2 SWAP3 MSTORE PUSH1 0x20 PUSH1 0x0 KECCAK256 SWAP1 PUSH1 0x0 SWAP2 JUMPDEST DUP2 DUP4 LT PUSH2 0x19D2 JUMPI POP POP SWAP1 PUSH1 0x20 PUSH2 0x19A5 SWAP3 DUP3 ADD ADD CODESIZE PUSH2 0x1998 JUMP JUMPDEST PUSH1 0x20 SWAP2 SWAP4 POP DUP1 PUSH1 0x1 SWAP2 SLOAD DUP4 DUP6 DUP10 ADD ADD MSTORE ADD SWAP2 ADD SWAP1 SWAP2 DUP5 SWAP3 PUSH2 0x19B9 JUMP JUMPDEST SWAP1 POP PUSH1 0x20 SWAP3 POP PUSH2 0x19A5 SWAP5 SWAP2 POP PUSH1 0xFF NOT AND DUP3 DUP5 ADD MSTORE ISZERO ISZERO PUSH1 0x5 SHL DUP3 ADD ADD CODESIZE PUSH2 0x1998 JUMP JUMPDEST SWAP2 SWAP1 DUP3 MLOAD SWAP3 DUP4 DUP3 MSTORE PUSH1 0x0 JUMPDEST DUP5 DUP2 LT PUSH2 0x1A3C JUMPI POP POP DUP3 PUSH1 0x0 PUSH1 0x20 DUP1 SWAP5 SWAP6 DUP5 ADD ADD MSTORE PUSH1 0x1F DUP1 NOT SWAP2 ADD AND ADD ADD SWAP1 JUMP JUMPDEST DUP1 PUSH1 0x20 DUP1 SWAP3 DUP5 ADD ADD MLOAD DUP3 DUP3 DUP7 ADD ADD MSTORE ADD PUSH2 0x1A1B JUMP JUMPDEST SWAP2 DUP2 PUSH1 0x1F DUP5 ADD SLT ISZERO PUSH2 0x150 JUMPI DUP3 CALLDATALOAD SWAP2 PUSH1 0x1 PUSH1 0x1 PUSH1 0x40 SHL SUB DUP4 GT PUSH2 0x150 JUMPI PUSH1 0x20 DUP1 DUP6 ADD SWAP5 DUP5 PUSH1 0x5 SHL ADD ADD GT PUSH2 0x150 JUMPI JUMP JUMPDEST PUSH1 0x2 SLOAD DUP2 LT ISZERO PUSH2 0x1A9C JUMPI PUSH1 0x2 PUSH1 0x0 MSTORE PUSH1 0x20 PUSH1 0x0 KECCAK256 ADD SWAP1 PUSH1 0x0 SWAP1 JUMP JUMPDEST PUSH4 0x4E487B71 PUSH1 0xE0 SHL PUSH1 0x0 MSTORE PUSH1 0x32 PUSH1 0x4 MSTORE PUSH1 0x24 PUSH1 0x0 REVERT JUMPDEST DUP1 SLOAD DUP3 LT ISZERO PUSH2 0x1A9C JUMPI PUSH1 0x0 MSTORE PUSH1 0x20 PUSH1 0x0 KECCAK256 ADD SWAP1 PUSH1 0x0 SWAP1 JUMP JUMPDEST SWAP2 DUP2 PUSH1 0x1F DUP5 ADD SLT ISZERO PUSH2 0x150 JUMPI DUP3 CALLDATALOAD SWAP2 PUSH1 0x1 PUSH1 0x1 PUSH1 0x40 SHL SUB DUP4 GT PUSH2 0x150 JUMPI PUSH1 0x20 DUP4 DUP2 DUP7 ADD SWAP6 ADD ADD GT PUSH2 0x150 JUMPI JUMP JUMPDEST PUSH1 0x20 PUSH1 0x40 DUP2 DUP4 ADD SWAP3 DUP3 DUP2 MSTORE DUP5 MLOAD DUP1 SWAP5 MSTORE ADD SWAP3 ADD SWAP1 PUSH1 0x0 JUMPDEST DUP2 DUP2 LT PUSH2 0x1B1B JUMPI POP POP POP SWAP1 JUMP JUMPDEST DUP3 MLOAD DUP5 MSTORE PUSH1 0x20 SWAP4 DUP5 ADD SWAP4 SWAP1 SWAP3 ADD SWAP2 PUSH1 0x1 ADD PUSH2 0x1B0E JUMP JUMPDEST ISZERO PUSH2 0x1B38 JUMPI JUMP JUMPDEST PUSH1 0x40 MLOAD PUSH3 0x461BCD PUSH1 0xE5 SHL DUP2 MSTORE PUSH1 0x20 PUSH1 0x4 DUP3 ADD MSTORE PUSH1 0x15 PUSH1 0x24 DUP3 ADD MSTORE PUSH21 0x82E4E4C2F240D8CADCCEE8D040DAD2E6DAC2E8C6D PUSH1 0x5B SHL PUSH1 0x44 DUP3 ADD MSTORE PUSH1 0x64 SWAP1 REVERT JUMPDEST SWAP2 SWAP1 DUP2 LT ISZERO PUSH2 0x1A9C JUMPI PUSH1 0x5 SHL ADD SWAP1 JUMP JUMPDEST CALLDATALOAD PUSH1 0x1 PUSH1 0x1 PUSH1 0xA0 SHL SUB DUP2 AND DUP2 SUB PUSH2 0x150 JUMPI SWAP1 JUMP JUMPDEST SWAP2 SWAP1 DUP2 LT ISZERO PUSH2 0x1A9C JUMPI PUSH1 0x5 SHL DUP2 ADD CALLDATALOAD SWAP1 PUSH1 0x1E NOT DUP2 CALLDATASIZE SUB ADD DUP3 SLT ISZERO PUSH2 0x150 JUMPI ADD SWAP1 DUP2 CALLDATALOAD SWAP2 PUSH1 0x1 PUSH1 0x1 PUSH1 0x40 SHL SUB DUP4 GT PUSH2 0x150 JUMPI PUSH1 0x20 ADD DUP3 CALLDATASIZE SUB DUP2 SGT PUSH2 0x150 JUMPI SWAP2 SWAP1 JUMP JUMPDEST DUP2 DUP4 MSTORE SWAP1 SWAP2 PUSH1 0x1 PUSH1 0x1 PUSH1 0xFB SHL SUB DUP4 GT PUSH2 0x150 JUMPI PUSH1 0x20 SWAP3 PUSH1 0x5 SHL DUP1 SWAP3 DUP5 DUP4 ADD CALLDATACOPY ADD ADD SWAP1 JUMP JUMPDEST PUSH1 0x1F DUP3 GT PUSH2 0x1C0B JUMPI POP POP POP JUMP JUMPDEST PUSH1 0x0 MSTORE PUSH1 0x20 PUSH1 0x0 KECCAK256 SWAP1 PUSH1 0x20 PUSH1 0x1F DUP5 ADD PUSH1 0x5 SHR DUP4 ADD SWAP4 LT PUSH2 0x1C46 JUMPI JUMPDEST PUSH1 0x1F ADD PUSH1 0x5 SHR ADD SWAP1 JUMPDEST DUP2 DUP2 LT PUSH2 0x1C3A JUMPI POP POP JUMP JUMPDEST PUSH1 0x0 DUP2 SSTORE PUSH1 0x1 ADD PUSH2 0x1C2F JUMP JUMPDEST SWAP1 SWAP2 POP DUP2 SWAP1 PUSH2 0x1C26 JUMP JUMPDEST SWAP1 DUP1 PUSH1 0x20 SWAP4 SWAP3 DUP2 DUP5 MSTORE DUP5 DUP5 ADD CALLDATACOPY PUSH1 0x0 DUP3 DUP3 ADD DUP5 ADD MSTORE PUSH1 0x1F ADD PUSH1 0x1F NOT AND ADD ADD SWAP1 JUMP JUMPDEST PUSH1 0x0 SLOAD PUSH1 0x1 PUSH1 0x1 PUSH1 0xA0 SHL SUB AND CALLER SUB PUSH2 0x1C85 JUMPI JUMP JUMPDEST PUSH4 0x118CDAA7 PUSH1 0xE0 SHL PUSH1 0x0 MSTORE CALLER PUSH1 0x4 MSTORE PUSH1 0x24 PUSH1 0x0 REVERT JUMPDEST PUSH1 0x0 NOT DUP2 EQ PUSH2 0x453 JUMPI PUSH1 0x1 ADD SWAP1 JUMP JUMPDEST SWAP3 SWAP2 SWAP3 PUSH1 0x1 PUSH1 0x1 PUSH1 0x40 SHL SUB DUP3 GT PUSH2 0x7D7 JUMPI PUSH1 0x40 MLOAD SWAP2 PUSH2 0x1CD2 PUSH1 0x1F DUP3 ADD PUSH1 0x1F NOT AND PUSH1 0x20 ADD DUP5 PUSH2 0x194B JUMP JUMPDEST DUP3 SWAP5 DUP2 DUP5 MSTORE DUP2 DUP4 ADD GT PUSH2 0x150 JUMPI DUP3 DUP2 PUSH1 0x20 SWAP4 DUP5 PUSH1 0x0 SWAP7 ADD CALLDATACOPY ADD ADD MSTORE JUMP JUMPDEST PUSH1 0x2 SLOAD SWAP2 SWAP1 PUSH1 0x0 JUMPDEST DUP4 DUP2 LT PUSH2 0x1D07 JUMPI POP POP POP POP PUSH1 0x0 SWAP1 JUMP JUMPDEST PUSH2 0x1D10 DUP2 PUSH2 0x1A81 JUMP JUMPDEST POP PUSH1 0x40 MLOAD PUSH1 0x20 DUP2 ADD SWAP2 DUP2 PUSH1 0x0 DUP3 SLOAD SWAP3 PUSH2 0x1D28 DUP5 PUSH2 0x18DB JUMP JUMPDEST SWAP4 PUSH1 0x1 DUP2 AND SWAP1 DUP2 ISZERO PUSH2 0x1DD9 JUMPI POP PUSH1 0x1 EQ PUSH2 0x1D97 JUMPI JUMPDEST POP PUSH2 0x1D51 SWAP3 POP SUB PUSH1 0x1F NOT DUP2 ADD DUP4 MSTORE DUP3 PUSH2 0x194B JUMP JUMPDEST MLOAD SWAP1 KECCAK256 PUSH1 0x40 MLOAD PUSH1 0x20 DUP2 ADD SWAP1 DUP6 DUP6 DUP4 CALLDATACOPY PUSH2 0x1D7E PUSH1 0x20 DUP3 DUP9 DUP2 ADD PUSH1 0x0 DUP4 DUP3 ADD MSTORE SUB ADD PUSH1 0x1F NOT DUP2 ADD DUP4 MSTORE DUP3 PUSH2 0x194B JUMP JUMPDEST MLOAD SWAP1 KECCAK256 EQ PUSH2 0x1D8E JUMPI PUSH1 0x1 ADD PUSH2 0x1CF7 JUMP JUMPDEST POP POP POP POP PUSH1 0x1 SWAP1 JUMP JUMPDEST SWAP2 POP POP PUSH1 0x0 MSTORE DUP2 PUSH1 0x20 PUSH1 0x0 KECCAK256 PUSH1 0x0 SWAP1 JUMPDEST DUP4 DUP3 LT PUSH2 0x1DBF JUMPI POP POP PUSH1 0x20 PUSH2 0x1D51 SWAP3 DUP3 ADD ADD CODESIZE PUSH2 0x1D3D JUMP JUMPDEST PUSH1 0x20 SWAP2 SWAP3 POP DUP1 PUSH1 0x1 SWAP2 SLOAD DUP4 DUP6 DUP9 ADD ADD MSTORE ADD SWAP2 ADD DUP4 SWAP2 PUSH2 0x1DA7 JUMP JUMPDEST PUSH1 0xFF NOT AND DUP8 MSTORE POP PUSH2 0x1D51 SWAP4 DUP1 ISZERO ISZERO MUL DUP4 ADD PUSH1 0x20 ADD SWAP2 POP CODESIZE SWAP1 POP PUSH2 0x1D3D JUMP INVALID LOG2 PUSH5 0x6970667358 0x22 SLT KECCAK256 SWAP13 PUSH32 0x5C1E7BFF81AA3544A094571AA6DE456BE28A7A56CE252DB31609E80B856D6473 PUSH16 0x6C634300081E00330000000000000000 "},"methodIdentifiers":{"adminBatchVote(uint256[],uint256[])":"7792f1e1","allTrackIds(uint256)":"65e71ae8","artistIdByWallet(address)":"52da0c9d","artists(uint256)":"cd7e10c1","axpToken()":"55c13ec3","batchDistributeShareRewards(uint256,address[])":"e7c2ab96","batchRegisterAndUpload(address[],string[],string[],string[],string[],string[])":"2eb6678a","getAllTrackIds()":"df6f321e","getArtist(uint256)":"811dd0e2","getOfficialGenres()":"9c756237","getTrack(uint256)":"629058ca","getTrackIdsByGenre(string)":"c3a3c0a2","getVoteCount(uint256)":"b2c2f2e8","officialGenres(uint256)":"67991945","owner()":"8da5cb5b","proofOfShares(uint256,address)":"02f71205","recordShare(uint256,string)":"8fb433af","renounceOwnership()":"715018a6","rewardedShares(uint256,address)":"9be9fcbb","setShareRewardAmount(uint256)":"ff9eed7e","shareRewardAmount()":"280a37cb","trackVotes(uint256)":"f4d468b1","tracks(uint256)":"a2e34586","transferOwnership(address)":"f2fde38b","withdraw()":"3ccfd60b"}}}}}