{
  "_format": "hh-sol-artifact-1",
  "contractName": "AxepArtistNFT",
  "sourceName": "contracts/AxepArtistNFT.sol",
  "abi": [
    {
      "inputs": [
        {
          "internalType": "string",
          "name": "name_",
          "type": "string"
        },
        {
          "internalType": "string",
          "name": "symbol_",
          "type": "string"
        },
        {
          "internalType": "address",
          "name": "initialOwner_",
          "type": "address"
        }
      ],
      "stateMutability": "nonpayable",
      "type": "constructor"
    },
    {
      "inputs": [
        {
          "internalType": "address",
          "name": "sender",
          "type": "address"
        },
        {
          "internalType": "uint256",
          "name": "tokenId",
          "type": "uint256"
        },
        {
          "internalType": "address",
          "name": "owner",
          "type": "address"
        }
      ],
      "name": "ERC721IncorrectOwner",
      "type": "error"
    },
    {
      "inputs": [
        {
          "internalType": "address",
          "name": "operator",
          "type": "address"
        },
        {
          "internalType": "uint256",
          "name": "tokenId",
          "type": "uint256"
        }
      ],
      "name": "ERC721InsufficientApproval",
      "type": "error"
    },
    {
      "inputs": [
        {
          "internalType": "address",
          "name": "approver",
          "type": "address"
        }
      ],
      "name": "ERC721InvalidApprover",
      "type": "error"
    },
    {
      "inputs": [
        {
          "internalType": "address",
          "name": "operator",
          "type": "address"
        }
      ],
      "name": "ERC721InvalidOperator",
      "type": "error"
    },
    {
      "inputs": [
        {
          "internalType": "address",
          "name": "owner",
          "type": "address"
        }
      ],
      "name": "ERC721InvalidOwner",
      "type": "error"
    },
    {
      "inputs": [
        {
          "internalType": "address",
          "name": "receiver",
          "type": "address"
        }
      ],
      "name": "ERC721InvalidReceiver",
      "type": "error"
    },
    {
      "inputs": [
        {
          "internalType": "address",
          "name": "sender",
          "type": "address"
        }
      ],
      "name": "ERC721InvalidSender",
      "type": "error"
    },
    {
      "inputs": [
        {
          "internalType": "uint256",
          "name": "tokenId",
          "type": "uint256"
        }
      ],
      "name": "ERC721NonexistentToken",
      "type": "error"
    },
    {
      "inputs": [
        {
          "internalType": "address",
          "name": "owner",
          "type": "address"
        }
      ],
      "name": "OwnableInvalidOwner",
      "type": "error"
    },
    {
      "inputs": [
        {
          "internalType": "address",
          "name": "account",
          "type": "address"
        }
      ],
      "name": "OwnableUnauthorizedAccount",
      "type": "error"
    },
    {
      "anonymous": false,
      "inputs": [
        {
          "indexed": true,
          "internalType": "address",
          "name": "owner",
          "type": "address"
        },
        {
          "indexed": true,
          "internalType": "address",
          "name": "approved",
          "type": "address"
        },
        {
          "indexed": true,
          "internalType": "uint256",
          "name": "tokenId",
          "type": "uint256"
        }
      ],
      "name": "Approval",
      "type": "event"
    },
    {
      "anonymous": false,
      "inputs": [
        {
          "indexed": true,
          "internalType": "address",
          "name": "owner",
          "type": "address"
        },
        {
          "indexed": true,
          "internalType": "address",
          "name": "operator",
          "type": "address"
        },
        {
          "indexed": false,
          "internalType": "bool",
          "name": "approved",
          "type": "bool"
        }
      ],
      "name": "ApprovalForAll",
      "type": "event"
    },
    {
      "anonymous": false,
      "inputs": [
        {
          "indexed": true,
          "internalType": "address",
          "name": "artist",
          "type": "address"
        },
        {
          "indexed": true,
          "internalType": "uint256",
          "name": "tokenId",
          "type": "uint256"
        }
      ],
      "name": "NFTMinted",
      "type": "event"
    },
    {
      "anonymous": false,
      "inputs": [
        {
          "indexed": true,
          "internalType": "address",
          "name": "previousOwner",
          "type": "address"
        },
        {
          "indexed": true,
          "internalType": "address",
          "name": "newOwner",
          "type": "address"
        }
      ],
      "name": "OwnershipTransferred",
      "type": "event"
    },
    {
      "anonymous": false,
      "inputs": [
        {
          "indexed": true,
          "internalType": "address",
          "name": "from",
          "type": "address"
        },
        {
          "indexed": true,
          "internalType": "address",
          "name": "to",
          "type": "address"
        },
        {
          "indexed": true,
          "internalType": "uint256",
          "name": "tokenId",
          "type": "uint256"
        }
      ],
      "name": "Transfer",
      "type": "event"
    },
    {
      "inputs": [
        {
          "internalType": "address",
          "name": "to",
          "type": "address"
        },
        {
          "internalType": "uint256",
          "name": "tokenId",
          "type": "uint256"
        }
      ],
      "name": "approve",
      "outputs": [],
      "stateMutability": "nonpayable",
      "type": "function"
    },
    {
      "inputs": [
        {
          "internalType": "address",
          "name": "owner",
          "type": "address"
        }
      ],
      "name": "balanceOf",
      "outputs": [
        {
          "internalType": "uint256",
          "name": "",
          "type": "uint256"
        }
      ],
      "stateMutability": "view",
      "type": "function"
    },
    {
      "inputs": [
        {
          "internalType": "uint256",
          "name": "tokenId",
          "type": "uint256"
        }
      ],
      "name": "burn",
      "outputs": [],
      "stateMutability": "nonpayable",
      "type": "function"
    },
    {
      "inputs": [
        {
          "internalType": "uint256",
          "name": "tokenId",
          "type": "uint256"
        }
      ],
      "name": "getApproved",
      "outputs": [
        {
          "internalType": "address",
          "name": "",
          "type": "address"
        }
      ],
      "stateMutability": "view",
      "type": "function"
    },
    {
      "inputs": [
        {
          "internalType": "address",
          "name": "owner",
          "type": "address"
        },
        {
          "internalType": "address",
          "name": "operator",
          "type": "address"
        }
      ],
      "name": "isApprovedForAll",
      "outputs": [
        {
          "internalType": "bool",
          "name": "",
          "type": "bool"
        }
      ],
      "stateMutability": "view",
      "type": "function"
    },
    {
      "inputs": [
        {
          "internalType": "address",
          "name": "artistAddress",
          "type": "address"
        }
      ],
      "name": "mintFromPlatform",
      "outputs": [
        {
          "internalType": "uint256",
          "name": "",
          "type": "uint256"
        }
      ],
      "stateMutability": "nonpayable",
      "type": "function"
    },
    {
      "inputs": [],
      "name": "name",
      "outputs": [
        {
          "internalType": "string",
          "name": "",
          "type": "string"
        }
      ],
      "stateMutability": "view",
      "type": "function"
    },
    {
      "inputs": [],
      "name": "owner",
      "outputs": [
        {
          "internalType": "address",
          "name": "",
          "type": "address"
        }
      ],
      "stateMutability": "view",
      "type": "function"
    },
    {
      "inputs": [
        {
          "internalType": "uint256",
          "name": "tokenId",
          "type": "uint256"
        }
      ],
      "name": "ownerOf",
      "outputs": [
        {
          "internalType": "address",
          "name": "",
          "type": "address"
        }
      ],
      "stateMutability": "view",
      "type": "function"
    },
    {
      "inputs": [],
      "name": "renounceOwnership",
      "outputs": [],
      "stateMutability": "nonpayable",
      "type": "function"
    },
    {
      "inputs": [
        {
          "internalType": "address",
          "name": "from",
          "type": "address"
        },
        {
          "internalType": "address",
          "name": "to",
          "type": "address"
        },
        {
          "internalType": "uint256",
          "name": "tokenId",
          "type": "uint256"
        }
      ],
      "name": "safeTransferFrom",
      "outputs": [],
      "stateMutability": "nonpayable",
      "type": "function"
    },
    {
      "inputs": [
        {
          "internalType": "address",
          "name": "from",
          "type": "address"
        },
        {
          "internalType": "address",
          "name": "to",
          "type": "address"
        },
        {
          "internalType": "uint256",
          "name": "tokenId",
          "type": "uint256"
        },
        {
          "internalType": "bytes",
          "name": "data",
          "type": "bytes"
        }
      ],
      "name": "safeTransferFrom",
      "outputs": [],
      "stateMutability": "nonpayable",
      "type": "function"
    },
    {
      "inputs": [
        {
          "internalType": "address",
          "name": "operator",
          "type": "address"
        },
        {
          "internalType": "bool",
          "name": "approved",
          "type": "bool"
        }
      ],
      "name": "setApprovalForAll",
      "outputs": [],
      "stateMutability": "nonpayable",
      "type": "function"
    },
    {
      "inputs": [
        {
          "internalType": "bytes4",
          "name": "interfaceId",
          "type": "bytes4"
        }
      ],
      "name": "supportsInterface",
      "outputs": [
        {
          "internalType": "bool",
          "name": "",
          "type": "bool"
        }
      ],
      "stateMutability": "view",
      "type": "function"
    },
    {
      "inputs": [],
      "name": "symbol",
      "outputs": [
        {
          "internalType": "string",
          "name": "",
          "type": "string"
        }
      ],
      "stateMutability": "view",
      "type": "function"
    },
    {
      "inputs": [
        {
          "internalType": "uint256",
          "name": "tokenId",
          "type": "uint256"
        }
      ],
      "name": "tokenURI",
      "outputs": [
        {
          "internalType": "string",
          "name": "",
          "type": "string"
        }
      ],
      "stateMutability": "view",
      "type": "function"
    },
    {
      "inputs": [
        {
          "internalType": "address",
          "name": "from",
          "type": "address"
        },
        {
          "internalType": "address",
          "name": "to",
          "type": "address"
        },
        {
          "internalType": "uint256",
          "name": "tokenId",
          "type": "uint256"
        }
      ],
      "name": "transferFrom",
      "outputs": [],
      "stateMutability": "nonpayable",
      "type": "function"
    },
    {
      "inputs": [
        {
          "internalType": "address",
          "name": "newOwner",
          "type": "address"
        }
      ],
      "name": "transferOwnership",
      "outputs": [],
      "stateMutability": "nonpayable",
      "type": "function"
    }
  ],
  "bytecode": "0x60806040523461039e576114b480380380610019816103a3565b92833981019060608183031261039e5780516001600160401b03811161039e57826100459183016103c8565b60208201519092906001600160401b03811161039e576040916100699184016103c8565b9101516001600160a01b0381169081900361039e5782516001600160401b0381116102a957600054600181811c91168015610394575b602082101461028957601f8111610330575b506020601f82116001146102ca57819293946000926102bf575b50508160011b916000199060031b1c1916176000555b81516001600160401b0381116102a957600154600181811c9116801561029f575b602082101461028957601f8111610224575b50602092601f82116001146101bf57928192936000926101b4575b50508160011b916000199060031b1c1916176001555b801561019e57600680546001600160a01b03198116831790915560405191906001600160a01b03167f8be0079c531659141344cd1fd0a4f28419497f9722a3daafe3b4186f6b6457e0600080a361108090816104348239f35b631e4fbdf760e01b600052600060045260246000fd5b01519050388061012f565b601f198216936001600052806000209160005b86811061020c57508360019596106101f3575b505050811b01600155610145565b015160001960f88460031b161c191690553880806101e5565b919260206001819286850151815501940192016101d2565b60016000527fb10e2d527612073b26eecdfd717e6a320cf44b4afac2b0732d9fcbe2b7fa0cf6601f830160051c8101916020841061027f575b601f0160051c01905b8181106102735750610114565b60008155600101610266565b909150819061025d565b634e487b7160e01b600052602260045260246000fd5b90607f1690610102565b634e487b7160e01b600052604160045260246000fd5b0151905038806100cb565b601f1982169060008052806000209160005b818110610318575095836001959697106102ff575b505050811b016000556100e1565b015160001960f88460031b161c191690553880806102f1565b9192602060018192868b0151815501940192016102dc565b600080527f290decd9548b62a8d60345a988386fc84ba6bc95484008f6362f93160ef3e563601f830160051c8101916020841061038a575b601f0160051c01905b81811061037e57506100b1565b60008155600101610371565b9091508190610368565b90607f169061009f565b600080fd5b6040519190601f01601f191682016001600160401b038111838210176102a957604052565b81601f8201121561039e578051906001600160401b0382116102a9576103f7601f8301601f19166020016103a3565b928284526020838301011161039e5760005b82811061041e57505060206000918301015290565b8060208092840101518282870101520161040956fe608080604052600436101561001357600080fd5b600090813560e01c90816301ffc9a714610a565750806306fdde031461099b578063081812fc1461095e578063095ea7b31461087657806323b872dd1461085e57806342842e0e1461082e57806342966c681461080c5780636352211e146107db5780636b47f7811461055057806370a08231146104fd578063715018a6146104a05780638da5cb5b1461047757806395d89b411461036a578063a22cb465146102c8578063b88d4fde14610229578063c87b56dd146101cd578063e985e9c5146101735763f2fde38b146100e757600080fd5b3461017057602036600319011261017057610100610b04565b610108610ee4565b6001600160a01b0316801561015c57600680546001600160a01b0319811683179091556001600160a01b03167f8be0079c531659141344cd1fd0a4f28419497f9722a3daafe3b4186f6b6457e0600080a380f35b631e4fbdf760e01b82526004829052602482fd5b80fd5b503461017057604036600319011261017057604061018f610b04565b91610198610b1f565b9260018060a01b031681526005602052209060018060a01b0316600052602052602060ff604060002054166040519015158152f35b5034610170576020366003190112610170576101ea600435610d6f565b50806040516101fa602082610b6f565b525061022560405161020d602082610b6f565b60008152604051918291602083526020830190610ac3565b0390f35b503461017057608036600319011261017057610243610b04565b61024b610b1f565b6044356064359167ffffffffffffffff83116102c457366023840112156102c4578260040135938561027c86610ba7565b9461028a6040519687610b6f565b86865236602488830101116102c057866102bd9760246020930183890137860101526102b7838383610bc3565b33610f0d565b80f35b5080fd5b8480fd5b5034610170576040366003190112610170576102e2610b04565b60243590811515809203610366576001600160a01b0316908115610352573383526005602052604083208284526020526040832060ff1981541660ff83161790556040519081527f17307eab39ab6107e8899845ad3d59bd9653f200f220920489ca2b5937696c3160203392a380f35b630b61174360e31b83526004829052602483fd5b8280fd5b50346101705780600319360112610170576040519080600154908160011c9160018116801561046d575b6020841081146104595783865290811561043257506001146103d5575b610225846103c181860382610b6f565b604051918291602083526020830190610ac3565b600181527fb10e2d527612073b26eecdfd717e6a320cf44b4afac2b0732d9fcbe2b7fa0cf6939250905b808210610418575090915081016020016103c1826103b1565b9192600181602092548385880101520191019092916103ff565b60ff191660208087019190915292151560051b850190920192506103c191508390506103b1565b634e487b7160e01b83526022600452602483fd5b92607f1692610394565b50346101705780600319360112610170576006546040516001600160a01b039091168152602090f35b50346101705780600319360112610170576104b9610ee4565b600680546001600160a01b0319811690915581906001600160a01b03167f8be0079c531659141344cd1fd0a4f28419497f9722a3daafe3b4186f6b6457e08280a380f35b5034610170576020366003190112610170576001600160a01b0361051f610b04565b16801561053c578160409160209352600383522054604051908152f35b6322718ad960e21b82526004829052602482fd5b50346101705760203660031901126101705761056a610b04565b90610573610ee4565b60075460001981146107c757600181016007556020926040516105968582610b6f565b8381526001600160a01b0382169182156107b3578385526002865260408520546001600160a01b0316801515908161077f575b8487526003885260408088208054600101905586885260028952872080546001600160a01b031916861790558585827fddf252ad1be2c89b69c2b068fc378daa952ba7f163c4a11628f55a4df523b3ef8a80a45061076b5783929186913b610659575b50507f4cc0a9c4a99ddc700de1af2c9f916a7cbfdb71f14801ccff94061ad1ef8a80406040519480a38152f35b61069392935060405180938192630a85bd0160e11b8352336004840152886024840152876044840152608060648401526084830190610ac3565b038187865af184918161072b575b506106f9575090503d156106f2573d6106b981610ba7565b906106c76040519283610b6f565b81523d838583013e5b805193846106ec57633250574960e11b84526004839052602484fd5b84925001fd5b60606106d0565b6001600160e01b03191663757a42ff60e11b01610719578190843861062c565b633250574960e11b8352600452602482fd5b9091508581813d8311610764575b6107438183610b6f565b810103126102c457516001600160e01b0319811681036102c45790386106a1565b503d610739565b6339e3563760e11b85526004859052602485fd5b600086815260046020526040902080546001600160a01b0319169055808752600388526040872080546000190190556105c9565b633250574960e11b85526004859052602485fd5b634e487b7160e01b82526011600452602482fd5b50346101705760203660031901126101705760206107fa600435610d6f565b6040516001600160a01b039091168152f35b50346101705760203660031901126101705761082a33600435610da6565b5080f35b5034610170576102bd61084036610b35565b9060405192610850602085610b6f565b8584526102b7838383610bc3565b5034610170576102bd61087036610b35565b91610bc3565b503461017057604036600319011261017057610890610b04565b60243561089c81610d6f565b3315158061094b575b80610920575b61090d5781906001600160a01b0384811691167f8c5be1e5ebec7d5bd14f71427d1e84f3dd0314c0f7b2291e5b200ac8c7c3b9258680a4825260046020526040822080546001600160a01b0319166001600160a01b0390921691909117905580f35b63a9fbf51f60e01b845233600452602484fd5b506001600160a01b038116845260056020908152604080862033875290915284205460ff16156108ab565b506001600160a01b0381163314156108a5565b50346101705760203660031901126101705760209060043561097f81610d6f565b50815260048252604060018060a01b0391205416604051908152f35b503461017057806003193601126101705760405190808054908160011c91600181168015610a4c575b6020841081146104595783865290811561043257506001146109f057610225846103c181860382610b6f565b8080527f290decd9548b62a8d60345a988386fc84ba6bc95484008f6362f93160ef3e563939250905b808210610a32575090915081016020016103c1826103b1565b919260018160209254838588010152019101909291610a19565b92607f16926109c4565b9050346102c05760203660031901126102c05760043563ffffffff60e01b811680910361036657602092506380ac58cd60e01b8114908115610ab2575b8115610aa1575b5015158152f35b6301ffc9a760e01b14905038610a9a565b635b5e139f60e01b81149150610a93565b919082519283825260005b848110610aef575050826000602080949584010152601f8019910116010190565b80602080928401015182828601015201610ace565b600435906001600160a01b0382168203610b1a57565b600080fd5b602435906001600160a01b0382168203610b1a57565b6060906003190112610b1a576004356001600160a01b0381168103610b1a57906024356001600160a01b0381168103610b1a579060443590565b90601f8019910116810190811067ffffffffffffffff821117610b9157604052565b634e487b7160e01b600052604160045260246000fd5b67ffffffffffffffff8111610b9157601f01601f191660200190565b6001600160a01b0390911691908215610d59576000828152600260205260408120546001600160a01b0316938391859033151580610cc1575b507fddf252ad1be2c89b69c2b068fc378daa952ba7f163c4a11628f55a4df523b3ef9082610c8c575b83815260036020526040812060018154019055848152600260205260408120846bffffffffffffffffffffffff60a01b82541617905580a46001600160a01b0316808303610c7257505050565b6364283d7b60e01b60005260045260245260445260646000fd5b600085815260046020526040902080546001600160a01b03191690558281526003602052604081208054600019019055610c25565b915091925080610d0a575b15610cdb579084849238610bfc565b839085610cf457602491637e27328960e01b8252600452fd5b60449163177e802f60e01b825233600452602452fd5b503385148015610d38575b80610ccc5750838152600460205260408120546001600160a01b03163314610ccc565b5084815260056020908152604080832033845290915281205460ff16610d15565b633250574960e11b600052600060045260246000fd5b6000818152600260205260409020546001600160a01b0316908115610d92575090565b637e27328960e01b60005260045260246000fd5b6000818152600260205260409020546001600160a01b03908116921680151580610e4e575b505081610e17575b600081815260026020526040812080546001600160a01b0319169055827fddf252ad1be2c89b69c2b068fc378daa952ba7f163c4a11628f55a4df523b3ef8280a490565b600081815260046020526040902080546001600160a01b031916905581600052600360205260406000206000198154019055610dd3565b80610e90575b15610e5f5780610dcb565b82610e795750637e27328960e01b60005260045260246000fd5b63177e802f60e01b60005260045260245260446000fd5b508083148015610ec0575b80610e5457506000828152600460205260409020546001600160a01b03168114610e54565b5082600052600560205260406000208160005260205260ff60406000205416610e9b565b6006546001600160a01b03163303610ef857565b63118cdaa760e01b6000523360045260246000fd5b823b610f1b575b5050505050565b604051630a85bd0160e11b81526001600160a01b039182166004820152918116602483015260448201939093526080606482015291169160209082908190610f67906084830190610ac3565b03816000865af18091600091611007575b5090610fd157503d15610fca573d610f8f81610ba7565b90610f9d6040519283610b6f565b81523d6000602083013e5b80519081610fc55782633250574960e11b60005260045260246000fd5b602001fd5b6060610fa8565b6001600160e01b03191663757a42ff60e11b01610ff357503880808080610f14565b633250574960e11b60005260045260246000fd5b6020813d602011611042575b8161102060209383610b6f565b810103126102c05751906001600160e01b031982168203610170575038610f78565b3d915061101356fea26469706673582212205deca391353538740d63393ecb9927724e9de0d5a1774b3387a062bd2d933f8b64736f6c634300081e0033",
  "linkReferences": {},
  "deployedLinkReferences": {}
}