{
  "_format": "hh-sol-artifact-1",
  "contractName": "AxepArtistNFT",
  "sourceName": "contracts/AxepArtistNFT.sol",
  "abi": [
    {
      "inputs": [
        {
          "internalType": "string",
          "name": "name_",
          "type": "string"
        },
        {
          "internalType": "string",
          "name": "symbol_",
          "type": "string"
        },
        {
          "internalType": "address",
          "name": "initialOwner_",
          "type": "address"
        }
      ],
      "stateMutability": "nonpayable",
      "type": "constructor"
    },
    {
      "inputs": [
        {
          "internalType": "address",
          "name": "sender",
          "type": "address"
        },
        {
          "internalType": "uint256",
          "name": "tokenId",
          "type": "uint256"
        },
        {
          "internalType": "address",
          "name": "owner",
          "type": "address"
        }
      ],
      "name": "ERC721IncorrectOwner",
      "type": "error"
    },
    {
      "inputs": [
        {
          "internalType": "address",
          "name": "operator",
          "type": "address"
        },
        {
          "internalType": "uint256",
          "name": "tokenId",
          "type": "uint256"
        }
      ],
      "name": "ERC721InsufficientApproval",
      "type": "error"
    },
    {
      "inputs": [
        {
          "internalType": "address",
          "name": "approver",
          "type": "address"
        }
      ],
      "name": "ERC721InvalidApprover",
      "type": "error"
    },
    {
      "inputs": [
        {
          "internalType": "address",
          "name": "operator",
          "type": "address"
        }
      ],
      "name": "ERC721InvalidOperator",
      "type": "error"
    },
    {
      "inputs": [
        {
          "internalType": "address",
          "name": "owner",
          "type": "address"
        }
      ],
      "name": "ERC721InvalidOwner",
      "type": "error"
    },
    {
      "inputs": [
        {
          "internalType": "address",
          "name": "receiver",
          "type": "address"
        }
      ],
      "name": "ERC721InvalidReceiver",
      "type": "error"
    },
    {
      "inputs": [
        {
          "internalType": "address",
          "name": "sender",
          "type": "address"
        }
      ],
      "name": "ERC721InvalidSender",
      "type": "error"
    },
    {
      "inputs": [
        {
          "internalType": "uint256",
          "name": "tokenId",
          "type": "uint256"
        }
      ],
      "name": "ERC721NonexistentToken",
      "type": "error"
    },
    {
      "inputs": [
        {
          "internalType": "address",
          "name": "owner",
          "type": "address"
        }
      ],
      "name": "OwnableInvalidOwner",
      "type": "error"
    },
    {
      "inputs": [
        {
          "internalType": "address",
          "name": "account",
          "type": "address"
        }
      ],
      "name": "OwnableUnauthorizedAccount",
      "type": "error"
    },
    {
      "anonymous": false,
      "inputs": [
        {
          "indexed": true,
          "internalType": "address",
          "name": "owner",
          "type": "address"
        },
        {
          "indexed": true,
          "internalType": "address",
          "name": "approved",
          "type": "address"
        },
        {
          "indexed": true,
          "internalType": "uint256",
          "name": "tokenId",
          "type": "uint256"
        }
      ],
      "name": "Approval",
      "type": "event"
    },
    {
      "anonymous": false,
      "inputs": [
        {
          "indexed": true,
          "internalType": "address",
          "name": "owner",
          "type": "address"
        },
        {
          "indexed": true,
          "internalType": "address",
          "name": "operator",
          "type": "address"
        },
        {
          "indexed": false,
          "internalType": "bool",
          "name": "approved",
          "type": "bool"
        }
      ],
      "name": "ApprovalForAll",
      "type": "event"
    },
    {
      "anonymous": false,
      "inputs": [
        {
          "indexed": true,
          "internalType": "address",
          "name": "artist",
          "type": "address"
        },
        {
          "indexed": true,
          "internalType": "uint256",
          "name": "tokenId",
          "type": "uint256"
        }
      ],
      "name": "NFTMinted",
      "type": "event"
    },
    {
      "anonymous": false,
      "inputs": [
        {
          "indexed": true,
          "internalType": "address",
          "name": "previousOwner",
          "type": "address"
        },
        {
          "indexed": true,
          "internalType": "address",
          "name": "newOwner",
          "type": "address"
        }
      ],
      "name": "OwnershipTransferred",
      "type": "event"
    },
    {
      "anonymous": false,
      "inputs": [
        {
          "indexed": true,
          "internalType": "address",
          "name": "from",
          "type": "address"
        },
        {
          "indexed": true,
          "internalType": "address",
          "name": "to",
          "type": "address"
        },
        {
          "indexed": true,
          "internalType": "uint256",
          "name": "tokenId",
          "type": "uint256"
        }
      ],
      "name": "Transfer",
      "type": "event"
    },
    {
      "inputs": [
        {
          "internalType": "address",
          "name": "to",
          "type": "address"
        },
        {
          "internalType": "uint256",
          "name": "tokenId",
          "type": "uint256"
        }
      ],
      "name": "approve",
      "outputs": [],
      "stateMutability": "nonpayable",
      "type": "function"
    },
    {
      "inputs": [
        {
          "internalType": "address",
          "name": "owner",
          "type": "address"
        }
      ],
      "name": "balanceOf",
      "outputs": [
        {
          "internalType": "uint256",
          "name": "",
          "type": "uint256"
        }
      ],
      "stateMutability": "view",
      "type": "function"
    },
    {
      "inputs": [
        {
          "internalType": "uint256",
          "name": "tokenId",
          "type": "uint256"
        }
      ],
      "name": "burn",
      "outputs": [],
      "stateMutability": "nonpayable",
      "type": "function"
    },
    {
      "inputs": [
        {
          "internalType": "uint256",
          "name": "tokenId",
          "type": "uint256"
        }
      ],
      "name": "getApproved",
      "outputs": [
        {
          "internalType": "address",
          "name": "",
          "type": "address"
        }
      ],
      "stateMutability": "view",
      "type": "function"
    },
    {
      "inputs": [
        {
          "internalType": "address",
          "name": "owner",
          "type": "address"
        },
        {
          "internalType": "address",
          "name": "operator",
          "type": "address"
        }
      ],
      "name": "isApprovedForAll",
      "outputs": [
        {
          "internalType": "bool",
          "name": "",
          "type": "bool"
        }
      ],
      "stateMutability": "view",
      "type": "function"
    },
    {
      "inputs": [
        {
          "internalType": "address",
          "name": "artistAddress",
          "type": "address"
        }
      ],
      "name": "mintFromPlatform",
      "outputs": [
        {
          "internalType": "uint256",
          "name": "",
          "type": "uint256"
        }
      ],
      "stateMutability": "nonpayable",
      "type": "function"
    },
    {
      "inputs": [],
      "name": "name",
      "outputs": [
        {
          "internalType": "string",
          "name": "",
          "type": "string"
        }
      ],
      "stateMutability": "view",
      "type": "function"
    },
    {
      "inputs": [],
      "name": "owner",
      "outputs": [
        {
          "internalType": "address",
          "name": "",
          "type": "address"
        }
      ],
      "stateMutability": "view",
      "type": "function"
    },
    {
      "inputs": [
        {
          "internalType": "uint256",
          "name": "tokenId",
          "type": "uint256"
        }
      ],
      "name": "ownerOf",
      "outputs": [
        {
          "internalType": "address",
          "name": "",
          "type": "address"
        }
      ],
      "stateMutability": "view",
      "type": "function"
    },
    {
      "inputs": [],
      "name": "renounceOwnership",
      "outputs": [],
      "stateMutability": "nonpayable",
      "type": "function"
    },
    {
      "inputs": [
        {
          "internalType": "address",
          "name": "from",
          "type": "address"
        },
        {
          "internalType": "address",
          "name": "to",
          "type": "address"
        },
        {
          "internalType": "uint256",
          "name": "tokenId",
          "type": "uint256"
        }
      ],
      "name": "safeTransferFrom",
      "outputs": [],
      "stateMutability": "nonpayable",
      "type": "function"
    },
    {
      "inputs": [
        {
          "internalType": "address",
          "name": "from",
          "type": "address"
        },
        {
          "internalType": "address",
          "name": "to",
          "type": "address"
        },
        {
          "internalType": "uint256",
          "name": "tokenId",
          "type": "uint256"
        },
        {
          "internalType": "bytes",
          "name": "data",
          "type": "bytes"
        }
      ],
      "name": "safeTransferFrom",
      "outputs": [],
      "stateMutability": "nonpayable",
      "type": "function"
    },
    {
      "inputs": [
        {
          "internalType": "address",
          "name": "operator",
          "type": "address"
        },
        {
          "internalType": "bool",
          "name": "approved",
          "type": "bool"
        }
      ],
      "name": "setApprovalForAll",
      "outputs": [],
      "stateMutability": "nonpayable",
      "type": "function"
    },
    {
      "inputs": [
        {
          "internalType": "bytes4",
          "name": "interfaceId",
          "type": "bytes4"
        }
      ],
      "name": "supportsInterface",
      "outputs": [
        {
          "internalType": "bool",
          "name": "",
          "type": "bool"
        }
      ],
      "stateMutability": "view",
      "type": "function"
    },
    {
      "inputs": [],
      "name": "symbol",
      "outputs": [
        {
          "internalType": "string",
          "name": "",
          "type": "string"
        }
      ],
      "stateMutability": "view",
      "type": "function"
    },
    {
      "inputs": [
        {
          "internalType": "uint256",
          "name": "tokenId",
          "type": "uint256"
        }
      ],
      "name": "tokenURI",
      "outputs": [
        {
          "internalType": "string",
          "name": "",
          "type": "string"
        }
      ],
      "stateMutability": "view",
      "type": "function"
    },
    {
      "inputs": [
        {
          "internalType": "address",
          "name": "from",
          "type": "address"
        },
        {
          "internalType": "address",
          "name": "to",
          "type": "address"
        },
        {
          "internalType": "uint256",
          "name": "tokenId",
          "type": "uint256"
        }
      ],
      "name": "transferFrom",
      "outputs": [],
      "stateMutability": "nonpayable",
      "type": "function"
    },
    {
      "inputs": [
        {
          "internalType": "address",
          "name": "newOwner",
          "type": "address"
        }
      ],
      "name": "transferOwnership",
      "outputs": [],
      "stateMutability": "nonpayable",
      "type": "function"
    }
  ],
  "bytecode": "0x60806040523480156200001157600080fd5b506040516200151f3803806200151f8339810160408190526200003491620001b2565b8083836000620000458382620002ce565b506001620000548282620002ce565b5050506001600160a01b0381166200008657604051631e4fbdf760e01b81526000600482015260240160405180910390fd5b62000091816200009b565b505050506200039a565b600680546001600160a01b038381166001600160a01b0319831681179093556040519116919082907f8be0079c531659141344cd1fd0a4f28419497f9722a3daafe3b4186f6b6457e090600090a35050565b634e487b7160e01b600052604160045260246000fd5b600082601f8301126200011557600080fd5b81516001600160401b0380821115620001325762000132620000ed565b604051601f8301601f19908116603f011681019082821181831017156200015d576200015d620000ed565b816040528381526020925086838588010111156200017a57600080fd5b600091505b838210156200019e57858201830151818301840152908201906200017f565b600093810190920192909252949350505050565b600080600060608486031215620001c857600080fd5b83516001600160401b0380821115620001e057600080fd5b620001ee8783880162000103565b945060208601519150808211156200020557600080fd5b50620002148682870162000103565b604086015190935090506001600160a01b03811681146200023457600080fd5b809150509250925092565b600181811c908216806200025457607f821691505b6020821081036200027557634e487b7160e01b600052602260045260246000fd5b50919050565b601f821115620002c957600081815260208120601f850160051c81016020861015620002a45750805b601f850160051c820191505b81811015620002c557828155600101620002b0565b5050505b505050565b81516001600160401b03811115620002ea57620002ea620000ed565b6200030281620002fb84546200023f565b846200027b565b602080601f8311600181146200033a5760008415620003215750858301515b600019600386901b1c1916600185901b178555620002c5565b600085815260208120601f198616915b828110156200036b578886015182559484019460019091019084016200034a565b50858210156200038a5787850151600019600388901b60f8161c191681555b5050505050600190811b01905550565b61117580620003aa6000396000f3fe608060405234801561001057600080fd5b50600436106101165760003560e01c806370a08231116100a2578063a22cb46511610071578063a22cb46514610239578063b88d4fde1461024c578063c87b56dd1461025f578063e985e9c514610272578063f2fde38b1461028557600080fd5b806370a0823114610205578063715018a6146102185780638da5cb5b1461022057806395d89b411461023157600080fd5b806323b872dd116100e957806323b872dd1461019857806342842e0e146101ab57806342966c68146101be5780636352211e146101d15780636b47f781146101e457600080fd5b806301ffc9a71461011b57806306fdde0314610143578063081812fc14610158578063095ea7b314610183575b600080fd5b61012e610129366004610dc3565b610298565b60405190151581526020015b60405180910390f35b61014b6102ea565b60405161013a9190610e30565b61016b610166366004610e43565b61037c565b6040516001600160a01b03909116815260200161013a565b610196610191366004610e73565b6103a5565b005b6101966101a6366004610e9d565b6103b4565b6101966101b9366004610e9d565b610444565b6101966101cc366004610e43565b610464565b61016b6101df366004610e43565b610470565b6101f76101f2366004610ed9565b61047b565b60405190815260200161013a565b6101f7610213366004610ed9565b6104e4565b61019661052c565b6006546001600160a01b031661016b565b61014b610540565b610196610247366004610ef4565b61054f565b61019661025a366004610f46565b61055a565b61014b61026d366004610e43565b610572565b61012e610280366004611022565b6105e7565b610196610293366004610ed9565b610615565b60006001600160e01b031982166380ac58cd60e01b14806102c957506001600160e01b03198216635b5e139f60e01b145b806102e457506301ffc9a760e01b6001600160e01b03198316145b92915050565b6060600080546102f990611055565b80601f016020809104026020016040519081016040528092919081815260200182805461032590611055565b80156103725780601f1061034757610100808354040283529160200191610372565b820191906000526020600020905b81548152906001019060200180831161035557829003601f168201915b5050505050905090565b600061038782610653565b506000828152600460205260409020546001600160a01b03166102e4565b6103b082823361068c565b5050565b6001600160a01b0382166103e357604051633250574960e11b8152600060048201526024015b60405180910390fd5b60006103f0838333610699565b9050836001600160a01b0316816001600160a01b03161461043e576040516364283d7b60e01b81526001600160a01b03808616600483015260248201849052821660448201526064016103da565b50505050565b61045f8383836040518060200160405280600081525061055a565b505050565b6103b060008233610699565b60006102e482610653565b6000610485610792565b6007805490819060006104978361108f565b91905055506104a683826107bf565b60405181906001600160a01b038516907f4cc0a9c4a99ddc700de1af2c9f916a7cbfdb71f14801ccff94061ad1ef8a804090600090a390505b919050565b60006001600160a01b038216610510576040516322718ad960e21b8152600060048201526024016103da565b506001600160a01b031660009081526003602052604090205490565b610534610792565b61053e60006107d9565b565b6060600180546102f990611055565b6103b033838361082b565b6105658484846103b4565b61043e33858585856108ca565b606061057d82610653565b50600061059560408051602081019091526000815290565b905060008151116105b557604051806020016040528060008152506105e0565b806105bf846109f5565b6040516020016105d09291906110b6565b6040516020818303038152906040525b9392505050565b6001600160a01b03918216600090815260056020908152604080832093909416825291909152205460ff1690565b61061d610792565b6001600160a01b03811661064757604051631e4fbdf760e01b8152600060048201526024016103da565b610650816107d9565b50565b6000818152600260205260408120546001600160a01b0316806102e457604051637e27328960e01b8152600481018490526024016103da565b61045f8383836001610a88565b6000828152600260205260408120546001600160a01b03908116908316156106c6576106c6818486610b8e565b6001600160a01b03811615610704576106e3600085600080610a88565b6001600160a01b038116600090815260036020526040902080546000190190555b6001600160a01b03851615610733576001600160a01b0385166000908152600360205260409020805460010190555b60008481526002602052604080822080546001600160a01b0319166001600160a01b0389811691821790925591518793918516917fddf252ad1be2c89b69c2b068fc378daa952ba7f163c4a11628f55a4df523b3ef91a4949350505050565b6006546001600160a01b0316331461053e5760405163118cdaa760e01b81523360048201526024016103da565b6103b0828260405180602001604052806000815250610bf2565b600680546001600160a01b038381166001600160a01b0319831681179093556040519116919082907f8be0079c531659141344cd1fd0a4f28419497f9722a3daafe3b4186f6b6457e090600090a35050565b6001600160a01b03821661085d57604051630b61174360e31b81526001600160a01b03831660048201526024016103da565b6001600160a01b03838116600081815260056020908152604080832094871680845294825291829020805460ff191686151590811790915591519182527f17307eab39ab6107e8899845ad3d59bd9653f200f220920489ca2b5937696c31910160405180910390a3505050565b6001600160a01b0383163b156109ee57604051630a85bd0160e11b81526001600160a01b0384169063150b7a029061090c9088908890879087906004016110e5565b6020604051808303816000875af1925050508015610947575060408051601f3d908101601f1916820190925261094491810190611122565b60015b6109b0573d808015610975576040519150601f19603f3d011682016040523d82523d6000602084013e61097a565b606091505b5080516000036109a857604051633250574960e11b81526001600160a01b03851660048201526024016103da565b805181602001fd5b6001600160e01b03198116630a85bd0160e11b146109ec57604051633250574960e11b81526001600160a01b03851660048201526024016103da565b505b5050505050565b60606000610a0283610c0a565b600101905060008167ffffffffffffffff811115610a2257610a22610f30565b6040519080825280601f01601f191660200182016040528015610a4c576020820181803683370190505b5090508181016020015b600019016f181899199a1a9b1b9c1cb0b131b232b360811b600a86061a8153600a8504945084610a5657509392505050565b8080610a9c57506001600160a01b03821615155b15610b5e576000610aac84610653565b90506001600160a01b03831615801590610ad85750826001600160a01b0316816001600160a01b031614155b8015610aeb5750610ae981846105e7565b155b15610b145760405163a9fbf51f60e01b81526001600160a01b03841660048201526024016103da565b8115610b5c5783856001600160a01b0316826001600160a01b03167f8c5be1e5ebec7d5bd14f71427d1e84f3dd0314c0f7b2291e5b200ac8c7c3b92560405160405180910390a45b505b5050600090815260046020526040902080546001600160a01b0319166001600160a01b0392909216919091179055565b610b99838383610ce2565b61045f576001600160a01b038316610bc757604051637e27328960e01b8152600481018290526024016103da565b60405163177e802f60e01b81526001600160a01b0383166004820152602481018290526044016103da565b610bfc8383610d48565b61045f3360008585856108ca565b60008072184f03e93ff9f4daa797ed6e38ed64bf6a1f0160401b8310610c495772184f03e93ff9f4daa797ed6e38ed64bf6a1f0160401b830492506040015b6d04ee2d6d415b85acef81000000008310610c75576d04ee2d6d415b85acef8100000000830492506020015b662386f26fc100008310610c9357662386f26fc10000830492506010015b6305f5e1008310610cab576305f5e100830492506008015b6127108310610cbf57612710830492506004015b60648310610cd1576064830492506002015b600a83106102e45760010192915050565b60006001600160a01b03831615801590610d405750826001600160a01b0316846001600160a01b03161480610d1c5750610d1c84846105e7565b80610d4057506000828152600460205260409020546001600160a01b038481169116145b949350505050565b6001600160a01b038216610d7257604051633250574960e11b8152600060048201526024016103da565b6000610d8083836000610699565b90506001600160a01b0381161561045f576040516339e3563760e11b8152600060048201526024016103da565b6001600160e01b03198116811461065057600080fd5b600060208284031215610dd557600080fd5b81356105e081610dad565b60005b83811015610dfb578181015183820152602001610de3565b50506000910152565b60008151808452610e1c816020860160208601610de0565b601f01601f19169290920160200192915050565b6020815260006105e06020830184610e04565b600060208284031215610e5557600080fd5b5035919050565b80356001600160a01b03811681146104df57600080fd5b60008060408385031215610e8657600080fd5b610e8f83610e5c565b946020939093013593505050565b600080600060608486031215610eb257600080fd5b610ebb84610e5c565b9250610ec960208501610e5c565b9150604084013590509250925092565b600060208284031215610eeb57600080fd5b6105e082610e5c565b60008060408385031215610f0757600080fd5b610f1083610e5c565b915060208301358015158114610f2557600080fd5b809150509250929050565b634e487b7160e01b600052604160045260246000fd5b60008060008060808587031215610f5c57600080fd5b610f6585610e5c565b9350610f7360208601610e5c565b925060408501359150606085013567ffffffffffffffff80821115610f9757600080fd5b818701915087601f830112610fab57600080fd5b813581811115610fbd57610fbd610f30565b604051601f8201601f19908116603f01168101908382118183101715610fe557610fe5610f30565b816040528281528a6020848701011115610ffe57600080fd5b82602086016020830137600060208483010152809550505050505092959194509250565b6000806040838503121561103557600080fd5b61103e83610e5c565b915061104c60208401610e5c565b90509250929050565b600181811c9082168061106957607f821691505b60208210810361108957634e487b7160e01b600052602260045260246000fd5b50919050565b6000600182016110af57634e487b7160e01b600052601160045260246000fd5b5060010190565b600083516110c8818460208801610de0565b8351908301906110dc818360208801610de0565b01949350505050565b6001600160a01b038581168252841660208201526040810183905260806060820181905260009061111890830184610e04565b9695505050505050565b60006020828403121561113457600080fd5b81516105e081610dad56fea2646970667358221220b4c4446fa3468f527f4b35a6692c20eee132d0fc6fc4c10dfdf916bbf7c0a3f064736f6c63430008140033",
  "linkReferences": {},
  "deployedLinkReferences": {}
}