{
  "_format": "hh-sol-artifact-1",
  "contractName": "AxepVoting",
  "sourceName": "contracts/AxepVoting_Simple.sol",
  "abi": [
    {
      "inputs": [
        {
          "internalType": "address",
          "name": "_tokenAddress",
          "type": "address"
        }
      ],
      "stateMutability": "nonpayable",
      "type": "constructor"
    },
    {
      "inputs": [
        {
          "internalType": "address",
          "name": "owner",
          "type": "address"
        }
      ],
      "name": "OwnableInvalidOwner",
      "type": "error"
    },
    {
      "inputs": [
        {
          "internalType": "address",
          "name": "account",
          "type": "address"
        }
      ],
      "name": "OwnableUnauthorizedAccount",
      "type": "error"
    },
    {
      "anonymous": false,
      "inputs": [
        {
          "indexed": true,
          "internalType": "uint256",
          "name": "artistId",
          "type": "uint256"
        },
        {
          "indexed": false,
          "internalType": "string",
          "name": "name",
          "type": "string"
        },
        {
          "indexed": true,
          "internalType": "address",
          "name": "artistWallet",
          "type": "address"
        }
      ],
      "name": "ArtistRegistered",
      "type": "event"
    },
    {
      "anonymous": false,
      "inputs": [
        {
          "indexed": true,
          "internalType": "address",
          "name": "previousOwner",
          "type": "address"
        },
        {
          "indexed": true,
          "internalType": "address",
          "name": "newOwner",
          "type": "address"
        }
      ],
      "name": "OwnershipTransferred",
      "type": "event"
    },
    {
      "anonymous": false,
      "inputs": [
        {
          "indexed": true,
          "internalType": "uint256",
          "name": "trackId",
          "type": "uint256"
        },
        {
          "indexed": true,
          "internalType": "address",
          "name": "sharer",
          "type": "address"
        },
        {
          "indexed": false,
          "internalType": "string",
          "name": "shareUrl",
          "type": "string"
        }
      ],
      "name": "ShareRecorded",
      "type": "event"
    },
    {
      "anonymous": false,
      "inputs": [
        {
          "indexed": true,
          "internalType": "uint256",
          "name": "trackId",
          "type": "uint256"
        },
        {
          "indexed": true,
          "internalType": "address",
          "name": "distributor",
          "type": "address"
        }
      ],
      "name": "ShareRewardsDistributed",
      "type": "event"
    },
    {
      "anonymous": false,
      "inputs": [
        {
          "indexed": true,
          "internalType": "uint256",
          "name": "trackId",
          "type": "uint256"
        },
        {
          "indexed": true,
          "internalType": "uint256",
          "name": "artistId",
          "type": "uint256"
        },
        {
          "indexed": false,
          "internalType": "string",
          "name": "title",
          "type": "string"
        },
        {
          "indexed": false,
          "internalType": "string",
          "name": "genre",
          "type": "string"
        },
        {
          "indexed": false,
          "internalType": "string",
          "name": "videoUrl",
          "type": "string"
        }
      ],
      "name": "TrackUploaded",
      "type": "event"
    },
    {
      "anonymous": false,
      "inputs": [
        {
          "indexed": true,
          "internalType": "uint256",
          "name": "trackId",
          "type": "uint256"
        },
        {
          "indexed": true,
          "internalType": "address",
          "name": "voter",
          "type": "address"
        },
        {
          "indexed": false,
          "internalType": "uint256",
          "name": "totalVotes",
          "type": "uint256"
        }
      ],
      "name": "Voted",
      "type": "event"
    },
    {
      "anonymous": false,
      "inputs": [
        {
          "indexed": false,
          "internalType": "uint256[]",
          "name": "trackIds",
          "type": "uint256[]"
        },
        {
          "indexed": false,
          "internalType": "uint256[]",
          "name": "voteCounts",
          "type": "uint256[]"
        }
      ],
      "name": "VotesTallied",
      "type": "event"
    },
    {
      "inputs": [
        {
          "internalType": "uint256[]",
          "name": "_trackIds",
          "type": "uint256[]"
        },
        {
          "internalType": "uint256[]",
          "name": "_voteCounts",
          "type": "uint256[]"
        }
      ],
      "name": "adminBatchVote",
      "outputs": [],
      "stateMutability": "nonpayable",
      "type": "function"
    },
    {
      "inputs": [
        {
          "internalType": "uint256",
          "name": "",
          "type": "uint256"
        }
      ],
      "name": "allTrackIds",
      "outputs": [
        {
          "internalType": "uint256",
          "name": "",
          "type": "uint256"
        }
      ],
      "stateMutability": "view",
      "type": "function"
    },
    {
      "inputs": [
        {
          "internalType": "address",
          "name": "",
          "type": "address"
        }
      ],
      "name": "artistIdByWallet",
      "outputs": [
        {
          "internalType": "uint256",
          "name": "",
          "type": "uint256"
        }
      ],
      "stateMutability": "view",
      "type": "function"
    },
    {
      "inputs": [
        {
          "internalType": "uint256",
          "name": "",
          "type": "uint256"
        }
      ],
      "name": "artists",
      "outputs": [
        {
          "internalType": "uint256",
          "name": "id",
          "type": "uint256"
        },
        {
          "internalType": "string",
          "name": "name",
          "type": "string"
        },
        {
          "internalType": "address payable",
          "name": "artistWallet",
          "type": "address"
        },
        {
          "internalType": "bool",
          "name": "isRegistered",
          "type": "bool"
        }
      ],
      "stateMutability": "view",
      "type": "function"
    },
    {
      "inputs": [],
      "name": "axpToken",
      "outputs": [
        {
          "internalType": "contract IERC20",
          "name": "",
          "type": "address"
        }
      ],
      "stateMutability": "view",
      "type": "function"
    },
    {
      "inputs": [
        {
          "internalType": "uint256",
          "name": "_trackId",
          "type": "uint256"
        },
        {
          "internalType": "address[]",
          "name": "_recipients",
          "type": "address[]"
        }
      ],
      "name": "batchDistributeShareRewards",
      "outputs": [],
      "stateMutability": "nonpayable",
      "type": "function"
    },
    {
      "inputs": [
        {
          "internalType": "address[]",
          "name": "artistWallets",
          "type": "address[]"
        },
        {
          "internalType": "string[]",
          "name": "artistNames",
          "type": "string[]"
        },
        {
          "internalType": "string[]",
          "name": "trackTitles",
          "type": "string[]"
        },
        {
          "internalType": "string[]",
          "name": "genres",
          "type": "string[]"
        },
        {
          "internalType": "string[]",
          "name": "videoUrls",
          "type": "string[]"
        },
        {
          "internalType": "string[]",
          "name": "coverImageUrls",
          "type": "string[]"
        }
      ],
      "name": "batchRegisterAndUpload",
      "outputs": [],
      "stateMutability": "nonpayable",
      "type": "function"
    },
    {
      "inputs": [],
      "name": "getAllTrackIds",
      "outputs": [
        {
          "internalType": "uint256[]",
          "name": "",
          "type": "uint256[]"
        }
      ],
      "stateMutability": "view",
      "type": "function"
    },
    {
      "inputs": [
        {
          "internalType": "uint256",
          "name": "artistId",
          "type": "uint256"
        }
      ],
      "name": "getArtist",
      "outputs": [
        {
          "components": [
            {
              "internalType": "uint256",
              "name": "id",
              "type": "uint256"
            },
            {
              "internalType": "string",
              "name": "name",
              "type": "string"
            },
            {
              "internalType": "address payable",
              "name": "artistWallet",
              "type": "address"
            },
            {
              "internalType": "bool",
              "name": "isRegistered",
              "type": "bool"
            }
          ],
          "internalType": "struct AxepVoting.Artist",
          "name": "",
          "type": "tuple"
        }
      ],
      "stateMutability": "view",
      "type": "function"
    },
    {
      "inputs": [],
      "name": "getOfficialGenres",
      "outputs": [
        {
          "internalType": "string[]",
          "name": "",
          "type": "string[]"
        }
      ],
      "stateMutability": "view",
      "type": "function"
    },
    {
      "inputs": [
        {
          "internalType": "uint256",
          "name": "trackId",
          "type": "uint256"
        }
      ],
      "name": "getTrack",
      "outputs": [
        {
          "components": [
            {
              "internalType": "uint256",
              "name": "id",
              "type": "uint256"
            },
            {
              "internalType": "uint256",
              "name": "artistId",
              "type": "uint256"
            },
            {
              "internalType": "string",
              "name": "title",
              "type": "string"
            },
            {
              "internalType": "string",
              "name": "genre",
              "type": "string"
            },
            {
              "internalType": "string",
              "name": "videoUrl",
              "type": "string"
            },
            {
              "internalType": "string",
              "name": "coverImageUrl",
              "type": "string"
            },
            {
              "internalType": "uint256",
              "name": "uploadTimestamp",
              "type": "uint256"
            }
          ],
          "internalType": "struct AxepVoting.Track",
          "name": "",
          "type": "tuple"
        }
      ],
      "stateMutability": "view",
      "type": "function"
    },
    {
      "inputs": [
        {
          "internalType": "string",
          "name": "genre",
          "type": "string"
        }
      ],
      "name": "getTrackIdsByGenre",
      "outputs": [
        {
          "internalType": "uint256[]",
          "name": "",
          "type": "uint256[]"
        }
      ],
      "stateMutability": "view",
      "type": "function"
    },
    {
      "inputs": [
        {
          "internalType": "uint256",
          "name": "trackId",
          "type": "uint256"
        }
      ],
      "name": "getVoteCount",
      "outputs": [
        {
          "internalType": "uint256",
          "name": "",
          "type": "uint256"
        }
      ],
      "stateMutability": "view",
      "type": "function"
    },
    {
      "inputs": [
        {
          "internalType": "uint256",
          "name": "",
          "type": "uint256"
        }
      ],
      "name": "officialGenres",
      "outputs": [
        {
          "internalType": "string",
          "name": "",
          "type": "string"
        }
      ],
      "stateMutability": "view",
      "type": "function"
    },
    {
      "inputs": [],
      "name": "owner",
      "outputs": [
        {
          "internalType": "address",
          "name": "",
          "type": "address"
        }
      ],
      "stateMutability": "view",
      "type": "function"
    },
    {
      "inputs": [
        {
          "internalType": "uint256",
          "name": "",
          "type": "uint256"
        },
        {
          "internalType": "address",
          "name": "",
          "type": "address"
        }
      ],
      "name": "proofOfShares",
      "outputs": [
        {
          "internalType": "string",
          "name": "",
          "type": "string"
        }
      ],
      "stateMutability": "view",
      "type": "function"
    },
    {
      "inputs": [
        {
          "internalType": "uint256",
          "name": "_trackId",
          "type": "uint256"
        },
        {
          "internalType": "string",
          "name": "_shareUrl",
          "type": "string"
        }
      ],
      "name": "recordShare",
      "outputs": [],
      "stateMutability": "nonpayable",
      "type": "function"
    },
    {
      "inputs": [],
      "name": "renounceOwnership",
      "outputs": [],
      "stateMutability": "nonpayable",
      "type": "function"
    },
    {
      "inputs": [
        {
          "internalType": "uint256",
          "name": "",
          "type": "uint256"
        },
        {
          "internalType": "address",
          "name": "",
          "type": "address"
        }
      ],
      "name": "rewardedShares",
      "outputs": [
        {
          "internalType": "bool",
          "name": "",
          "type": "bool"
        }
      ],
      "stateMutability": "view",
      "type": "function"
    },
    {
      "inputs": [
        {
          "internalType": "uint256",
          "name": "_newAmount",
          "type": "uint256"
        }
      ],
      "name": "setShareRewardAmount",
      "outputs": [],
      "stateMutability": "nonpayable",
      "type": "function"
    },
    {
      "inputs": [],
      "name": "shareRewardAmount",
      "outputs": [
        {
          "internalType": "uint256",
          "name": "",
          "type": "uint256"
        }
      ],
      "stateMutability": "view",
      "type": "function"
    },
    {
      "inputs": [
        {
          "internalType": "uint256",
          "name": "",
          "type": "uint256"
        }
      ],
      "name": "trackVotes",
      "outputs": [
        {
          "internalType": "uint256",
          "name": "",
          "type": "uint256"
        }
      ],
      "stateMutability": "view",
      "type": "function"
    },
    {
      "inputs": [
        {
          "internalType": "uint256",
          "name": "",
          "type": "uint256"
        }
      ],
      "name": "tracks",
      "outputs": [
        {
          "internalType": "uint256",
          "name": "id",
          "type": "uint256"
        },
        {
          "internalType": "uint256",
          "name": "artistId",
          "type": "uint256"
        },
        {
          "internalType": "string",
          "name": "title",
          "type": "string"
        },
        {
          "internalType": "string",
          "name": "genre",
          "type": "string"
        },
        {
          "internalType": "string",
          "name": "videoUrl",
          "type": "string"
        },
        {
          "internalType": "string",
          "name": "coverImageUrl",
          "type": "string"
        },
        {
          "internalType": "uint256",
          "name": "uploadTimestamp",
          "type": "uint256"
        }
      ],
      "stateMutability": "view",
      "type": "function"
    },
    {
      "inputs": [
        {
          "internalType": "address",
          "name": "newOwner",
          "type": "address"
        }
      ],
      "name": "transferOwnership",
      "outputs": [],
      "stateMutability": "nonpayable",
      "type": "function"
    },
    {
      "inputs": [],
      "name": "withdraw",
      "outputs": [],
      "stateMutability": "nonpayable",
      "type": "function"
    }
  ],
  "bytecode": "0x60803461029d57601f61217138819003918201601f19168301916001600160401b038311848410176102445780849260209460405283398101031261029d57516001600160a01b0381169081900361029d5733156102875760008054336001600160a01b0319821681178355916001600160a01b03909116907f8be0079c531659141344cd1fd0a4f28419497f9722a3daafe3b4186f6b6457e09080a3600180546001600160a01b031916919091179055681b1ae4d6e2ef500000600b5560025468010000000000000000811015610244578060016100e192016002556102a2565b61022e576100f86100f282546102d3565b8261030d565b6006620506f760ec1b019055600254680100000000000000008110156102445780600161012892016002556102a2565b61022e576101396100f282546102d3565b60086314dbdd5b60e21b019055600254680100000000000000008110156102445780600161016a92016002556102a2565b61022e5761017b6100f282546102d3565b600863526f636b60e01b01905560025468010000000000000000811015610244578060016101ac92016002556102a2565b61022e576101ba81546102d3565b601f811161025a575b50600e66436f756e74727960c81b01905560025468010000000000000000811015610244578060016101f892016002556102a2565b61022e576102096100f282546102d3565b60066205241560ec1b01905560016005819055600755604051611e2d90816103448239f35b634e487b7160e01b600052600060045260246000fd5b634e487b7160e01b600052604160045260246000fd5b81600052601f6020600020910160051c8101905b81811061027b57506101c3565b6000815560010161026e565b631e4fbdf760e01b600052600060045260246000fd5b600080fd5b6002548110156102bd57600260005260206000200190600090565b634e487b7160e01b600052603260045260246000fd5b90600182811c92168015610303575b60208310146102ed57565b634e487b7160e01b600052602260045260246000fd5b91607f16916102e2565b601f8211610319575050565b600052601f6020600020910160051c8101905b818110610337575050565b6000815560010161032c56fe60a0604052600436101561001257600080fd5b60003560e01c806302f7120514611867578063280a37cb146118495780632eb6678a14610fc35780633ccfd60b14610f7c57806352da0c9d14610f4257806355c13ec314610f19578063629058ca14610dd157806365e71ae814610d7f5780636799194514610d1e578063715018a614610cc55780637792f1e114610b45578063811dd0e214610a7b5780638da5cb5b14610a525780638fb433af1461083a5780639be9fcbb146107ed5780639c756237146106e3578063a2e3458614610624578063b2c2f2e814610155578063c3a3c0a214610595578063cd7e10c114610522578063df6f321e1461049b578063e7c2ab961461020a578063f2fde38b14610181578063f4d468b1146101555763ff9eed7e1461012f57600080fd5b3461015057602036600319011261015057610148611c71565b600435600b55005b600080fd5b346101505760203660031901126101505760043560005260086020526020604060002054604051908152f35b346101505760203660031901126101505761019a6118c5565b6101a2611c71565b6001600160a01b031680156101f457600080546001600160a01b03198116831782556001600160a01b0316907f8be0079c531659141344cd1fd0a4f28419497f9722a3daafe3b4186f6b6457e09080a3005b631e4fbdf760e01b600052600060045260246000fd5b34610150576040366003190112610150576004356024356001600160401b0381116101505761023d903690600401611a51565b610248929192611c71565b600b546001546040516370a0823160e01b815230600482015291929190602090829060249082906001600160a01b03165afa9081156103c557600091610469575b508183029083820483148415171561045357106103fe5760005b8181106102d35733847ff77e05dfacf7f446845eb8e90bd8a9feb80574445b3de6bfd146ad7920e33829600080a3005b6102e66102e1828488611b75565b611b85565b84600052600c60205261031060408060002060009060018060a01b038516825260205220546118db565b1515806103d1575b610326575b506001016102a3565b6000858152600d602090815260408083206001600160a01b03948516808552908352818420805460ff1916600190811790915554915163a9059cbb60e01b81526004810191909152602481018890529391928492604492849291165af180156103c5571561031d576020813d82116103bd575b816103a66020938361194b565b81010312610150575180151503610150578561031d565b3d9150610399565b6040513d6000823e3d90fd5b506000858152600d602090815260408083206001600160a01b038516845290915290205460ff1615610318565b60405162461bcd60e51b815260206004820152602760248201527f496e73756666696369656e7420746f6b656e2062616c616e636520696e20636f604482015266373a3930b1ba1760c91b6064820152608490fd5b634e487b7160e01b600052601160045260246000fd5b90506020813d602011610493575b816104846020938361194b565b81010312610150575185610289565b3d9150610477565b3461015057600036600319011261015057604051806020600a54918281520190600a6000527fc65a7bb8d6351c1cf70c95a316cc6a92839c986682d98bc35f958f4883f9d2a89060005b81811061050c57610508856104fc8187038261194b565b60405191829182611af7565b0390f35b82548452602090930192600192830192016104e5565b346101505760203660031901126101505760043560005260036020526040600020805460026105536001840161196c565b92015460ff6105746040519485948552608060208601526080850190611a10565b6001600160a01b038316604085015260a09290921c16151560608301520390f35b34610150576020366003190112610150576004356001600160401b038111610150576105c76020913690600401611aca565b91908260405193849283378101600981520301902060405190816020825491828152019160005260206000209060005b81811061060e57610508856104fc8187038261194b565b82548452602090930192600192830192016105f7565b34610150576020366003190112610150576004356000526006602052604060002080546001820154916106d961065c6002830161196c565b916106cb61066c6003830161196c565b6106bd61067b6004850161196c565b916106af600661068d6005880161196c565b960154976040519a8b9a8b5260208b015260e060408b015260e08a0190611a10565b9088820360608a0152611a10565b908682036080880152611a10565b9084820360a0860152611a10565b9060c08301520390f35b34610150576000366003190112610150576002546001600160401b0381116107d7576040519061071960208260051b018361194b565b80825260208201908160026000527f405787fa12a823e0f2b7631cc41b3ba8828b3321ca811111fa75cd3aa3bb5ace6000915b8383106107ba57848660405191829160208301906020845251809152604083019060408160051b85010192916000905b82821061078b57505050500390f35b919360019193955060206107aa8192603f198a82030186528851611a10565b960192019201859493919261077c565b6001602081926107c98561196c565b81520192019201919061074c565b634e487b7160e01b600052604160045260246000fd5b34610150576040366003190112610150576108066118af565b600435600052600d60205260406000209060018060a01b0316600052602052602060ff604060002054166040519015158152f35b34610150576040366003190112610150576004356024356001600160401b0381116101505761086d903690600401611aca565b919081600052600660205260406000205415610a155782156109d0576000828152600c6020908152604080832033845290915290206001600160401b0384116107d7576108c4846108be83546118db565b83611bfe565b836000601f8211600114610943579161091a827fa75737a36d3872da22ff33e9ff498f19f9ccd60bfdbc6b85ccc2fb8e4eb1e244959361093395600091610938575b508160011b916000199060031b1c19161790565b90555b6040519182916020835233966020840191611c50565b0390a3005b905084013589610906565b82815260208120915085601f198116825b8181106109b55750917fa75737a36d3872da22ff33e9ff498f19f9ccd60bfdbc6b85ccc2fb8e4eb1e24495939161093395931061099b575b5050600186811b01905561091d565b830135600019600389901b60f8161c19169055868061098c565b86840135855560019094019360209384019389935001610954565b60405162461bcd60e51b815260206004820152601a60248201527f53686172652055524c2063616e6e6f7420626520656d7074792e0000000000006044820152606490fd5b60405162461bcd60e51b81526020600482015260156024820152742a3930b1b5903237b2b9903737ba1032bc34b9ba1760591b6044820152606490fd5b34610150576000366003190112610150576000546040516001600160a01b039091168152602090f35b346101505760203660031901126101505760006060604051610a9c81611915565b828152816020820152826040820152015260043560005260036020526040600020604051610ac981611915565b815481526002610adb6001840161196c565b92602083019384520154604082019060018060a01b038116825260ff606084019160a01c1615158152610b2960405194859460208652516020860152516080604086015260a0850190611a10565b91516001600160a01b0316606084015251151560808301520390f35b34610150576040366003190112610150576004356001600160401b03811161015057610b75903690600401611a51565b906024356001600160401b03811161015057610b95903690600401611a51565b610ba0939193611c71565b808203610c705760005b828110610c0257507ff2b9e90bfaf9ed9eb417943f4795ce9cdb1ceb01ab2f6bb4c6aacb1a75fd5b1a93610bfd91610bef604051958695604087526040870191611bda565b918483036020860152611bda565b0390a1005b610c0d818486611b75565b3590610c1a818488611b75565b3591806000526006602052604060002054151580610c67575b610c43575b506001915001610baa565b60005260086020526040600020918254908101809111610453576001925586610c38565b50821515610c33565b60405162461bcd60e51b815260206004820152602760248201527f496e70757420617272617973206d7573742068617665207468652073616d65206044820152663632b733ba341760c91b6064820152608490fd5b3461015057600036600319011261015057610cde611c71565b600080546001600160a01b0319811682556001600160a01b03167f8be0079c531659141344cd1fd0a4f28419497f9722a3daafe3b4186f6b6457e08280a3005b346101505760203660031901126101505760043560025481101561015057610d4590611a81565b610d6957610d556105089161196c565b604051918291602083526020830190611a10565b634e487b7160e01b600052600060045260246000fd5b3461015057602036600319011261015057600435600a5481101561015057600090600a54811015610dbd57602082600a829452200154604051908152f35b634e487b7160e01b82526032600452602482fd5b3461015057602036600319011261015057600060c0604051610df281611930565b8281528260208201526060604082015260608082015260606080820152606060a0820152015260043560005260066020526040600020604051610e3481611930565b8154815260018201549160208201928352610f0e610e546002830161196c565b9160408401928352610efb610e6b6003830161196c565b60608601908152610ee8610e816004850161196c565b9160808801928352610ed56006610e9a6005880161196c565b9660a08b0197885201549760c08a019889526040519a8b9a60208c525160208c01525160408b01525160e060608b01526101008a0190611a10565b9051888203601f190160808a0152611a10565b9051868203601f190160a0880152611a10565b9051848203601f190160c0860152611a10565b905160e08301520390f35b34610150576000366003190112610150576001546040516001600160a01b039091168152602090f35b34610150576020366003190112610150576001600160a01b03610f636118c5565b1660005260046020526020604060002054604051908152f35b3461015057600036600319011261015057610f95611c71565b6000805481908190819047906001600160a01b0316828215610fba575bf1156103c557005b506108fc610fb2565b346101505760c0366003190112610150576004356001600160401b03811161015057610ff3903690600401611a51565b906024356001600160401b03811161015057611013903690600401611a51565b6044939193356001600160401b03811161015057611035903690600401611a51565b608052906064356001600160401b03811161015057611058903690600401611a51565b6084356001600160401b03811161015057611077903690600401611a51565b909360a4356001600160401b03811161015057611098903690600401611a51565b9990916110a3611c71565b6110ae818a14611b31565b6110bb6080518a14611b31565b6110c6858a14611b31565b6110d1848a14611b31565b6110dc8b8a14611b31565b60005b8981106110e857005b80808a8a8f948f8f8a8a8f948f94908f94816111358f61112d61112184809361111b6102e18361113d9a6111459d611b75565b9a611b99565b9f909e60805190611b99565b9a909b611b99565b97909a611b99565b9c9094611b99565b97909160018060a01b03169081600052600460205260406000205415600014611831576111728589611cef565b156117d8576005549061118482611c9a565b600555819a60405161119581611915565b8381526111a3368385611ca9565b6020820190815260408201918683526060810191600183528660005260036020526040600020915182556001820190518051906001600160401b0382116107d7576111f8826111f285546118db565b85611bfe565b602090601f831160011461174857827f8443301405f337e5d871773f81107fb07d77d5f08fd2a5c7157a9c89951268ab999897969593600295936112539360009261159d575b50508160011b916000199060031b1c19161790565b90555b92519201805491516001600160a81b03199092166001600160a01b03939093169290921790151560a01b60ff60a01b1617905560008581526004602090815260409182902086905590518181529283926112b292840191611c50565b0390a35b600754966112c388611c9a565b600755604051916112d383611930565b88835260208301918a83528c6113226112ed368a8c611ca9565b6040870190815293611313611303368b8f611ca9565b936060890194855236908a611ca9565b93608088019485523691611ca9565b9260a0860193845260c08601944286528c60005260066020526040600020965187555160018701556002860190518051906001600160401b0382116107d75761136f826111f285546118db565b602090601f83116001146116e15761139f92916000918361159d5750508160011b916000199060031b1c19161790565b90555b51805160038601916001600160401b0382116107d7576113c6826111f285546118db565b602090601f831160011461167a576113f692916000918361159d5750508160011b916000199060031b1c19161790565b90555b51805160048501916001600160401b0382116107d75761141d826111f285546118db565b602090601f83116001146116135761144d92916000918361159d5750508160011b916000199060031b1c19161790565b90555b51805160058401916001600160401b0382116107d757611474826111f285546118db565b602090601f83116001146115a85791806114a992600696959460009261159d5750508160011b916000199060031b1c19161790565b90555b51910155856000526008602052600060408120556040518286823760208184810160098152030190208054600160401b8110156107d7576114f7816115109360018b94018155611ab2565b90919082549060031b91821b91600019901b1916179055565b600a5498600160401b8a10156107d7576115867f39628c05242773d13ef5deaadb11828a34886bb12e6fef9357c4ea00d158738196611594946115618a6114f760019f60018101600a55600a611ab2565b61157860405198899860608a5260608a0191611c50565b918783036020890152611c50565b918483036040860152611c50565b0390a3016110df565b01519050388061123e565b90601f1983169184600052816000209260005b8181106115fb5750916001939185600698979694106115e2575b505050811b0190556114ac565b015160001960f88460031b161c191690553880806115d5565b929360206001819287860151815501950193016115bb565b90601f1983169184600052816000209260005b8181106116625750908460019594939210611649575b505050811b019055611450565b015160001960f88460031b161c1916905538808061163c565b92936020600181928786015181550195019301611626565b90601f1983169184600052816000209260005b8181106116c957509084600195949392106116b0575b505050811b0190556113f9565b015160001960f88460031b161c191690553880806116a3565b9293602060018192878601518155019501930161168d565b90601f1983169184600052816000209260005b8181106117305750908460019594939210611717575b505050811b0190556113a2565b015160001960f88460031b161c1916905538808061170a565b929360206001819287860151815501950193016116f4565b90601f1983169184600052816000209260005b8181106117c057509260019285927f8443301405f337e5d871773f81107fb07d77d5f08fd2a5c7157a9c89951268ab9c9b9a99989660029896106117a7575b505050811b019055611256565b015160001960f88460031b161c1916905538808061179a565b9293602060018192878601518155019501930161175b565b60405162461bcd60e51b815260206004820152602b60248201527f496e76616c69642067656e726520666f72206e6577206172746973742773206660448201526a34b939ba103a3930b1b59760a91b6064820152608490fd5b509097506000526004602052604060002054966112b6565b34610150576000366003190112610150576020600b54604051908152f35b34610150576040366003190112610150576118806118af565b600435600052600c60205260406000209060018060a01b0316600052602052610508610d55604060002061196c565b602435906001600160a01b038216820361015057565b600435906001600160a01b038216820361015057565b90600182811c9216801561190b575b60208310146118f557565b634e487b7160e01b600052602260045260246000fd5b91607f16916118ea565b608081019081106001600160401b038211176107d757604052565b60e081019081106001600160401b038211176107d757604052565b90601f801991011681019081106001600160401b038211176107d757604052565b9060405191826000825492611980846118db565b80845293600181169081156119ee57506001146119a7575b506119a59250038361194b565b565b90506000929192526020600020906000915b8183106119d25750509060206119a59282010138611998565b60209193508060019154838589010152019101909184926119b9565b9050602092506119a594915060ff191682840152151560051b82010138611998565b919082519283825260005b848110611a3c575050826000602080949584010152601f8019910116010190565b80602080928401015182828601015201611a1b565b9181601f84011215610150578235916001600160401b038311610150576020808501948460051b01011161015057565b600254811015611a9c57600260005260206000200190600090565b634e487b7160e01b600052603260045260246000fd5b8054821015611a9c5760005260206000200190600090565b9181601f84011215610150578235916001600160401b038311610150576020838186019501011161015057565b602060408183019282815284518094520192019060005b818110611b1b5750505090565b8251845260209384019390920191600101611b0e565b15611b3857565b60405162461bcd60e51b8152602060048201526015602482015274082e4e4c2f240d8cadccee8d040dad2e6dac2e8c6d605b1b6044820152606490fd5b9190811015611a9c5760051b0190565b356001600160a01b03811681036101505790565b9190811015611a9c5760051b81013590601e19813603018212156101505701908135916001600160401b038311610150576020018236038113610150579190565b81835290916001600160fb1b0383116101505760209260051b809284830137010190565b601f8211611c0b57505050565b6000526020600020906020601f840160051c83019310611c46575b601f0160051c01905b818110611c3a575050565b60008155600101611c2f565b9091508190611c26565b908060209392818452848401376000828201840152601f01601f1916010190565b6000546001600160a01b03163303611c8557565b63118cdaa760e01b6000523360045260246000fd5b60001981146104535760010190565b9291926001600160401b0382116107d75760405191611cd2601f8201601f19166020018461194b565b829481845281830111610150578281602093846000960137010152565b600254919060005b838110611d075750505050600090565b611d1081611a81565b506040516020810191816000825492611d28846118db565b9360018116908115611dd95750600114611d97575b50611d51925003601f19810183528261194b565b519020604051602081019085858337611d7e6020828881016000838201520301601f19810183528261194b565b51902014611d8e57600101611cf7565b50505050600190565b9150506000528160206000206000905b838210611dbf5750506020611d519282010138611d3d565b602091925080600191548385880101520191018391611da7565b60ff1916875250611d51938015150283016020019150389050611d3d56fea26469706673582212209c7f5c1e7bff81aa3544a094571aa6de456be28a7a56ce252db31609e80b856d64736f6c634300081e0033",
  "linkReferences": {},
  "deployedLinkReferences": {}
}