{
  "_format": "hh-sol-artifact-1",
  "contractName": "AxepVoting",
  "sourceName": "contracts/AxepVoting_Simple.sol",
  "abi": [
    {
      "inputs": [
        {
          "internalType": "address",
          "name": "_tokenAddress",
          "type": "address"
        }
      ],
      "stateMutability": "nonpayable",
      "type": "constructor"
    },
    {
      "anonymous": false,
      "inputs": [
        {
          "indexed": true,
          "internalType": "uint256",
          "name": "artistId",
          "type": "uint256"
        },
        {
          "indexed": false,
          "internalType": "string",
          "name": "name",
          "type": "string"
        },
        {
          "indexed": true,
          "internalType": "address",
          "name": "artistWallet",
          "type": "address"
        }
      ],
      "name": "ArtistRegistered",
      "type": "event"
    },
    {
      "anonymous": false,
      "inputs": [
        {
          "indexed": true,
          "internalType": "uint256",
          "name": "trackId",
          "type": "uint256"
        },
        {
          "indexed": true,
          "internalType": "address",
          "name": "sharer",
          "type": "address"
        },
        {
          "indexed": false,
          "internalType": "string",
          "name": "shareUrl",
          "type": "string"
        }
      ],
      "name": "ShareRecorded",
      "type": "event"
    },
    {
      "anonymous": false,
      "inputs": [
        {
          "indexed": true,
          "internalType": "uint256",
          "name": "trackId",
          "type": "uint256"
        },
        {
          "indexed": true,
          "internalType": "address",
          "name": "distributor",
          "type": "address"
        }
      ],
      "name": "ShareRewardsDistributed",
      "type": "event"
    },
    {
      "anonymous": false,
      "inputs": [
        {
          "indexed": true,
          "internalType": "uint256",
          "name": "trackId",
          "type": "uint256"
        },
        {
          "indexed": true,
          "internalType": "uint256",
          "name": "artistId",
          "type": "uint256"
        },
        {
          "indexed": false,
          "internalType": "string",
          "name": "title",
          "type": "string"
        },
        {
          "indexed": false,
          "internalType": "string",
          "name": "genre",
          "type": "string"
        },
        {
          "indexed": false,
          "internalType": "string",
          "name": "videoUrl",
          "type": "string"
        }
      ],
      "name": "TrackUploaded",
      "type": "event"
    },
    {
      "anonymous": false,
      "inputs": [
        {
          "indexed": true,
          "internalType": "uint256",
          "name": "trackId",
          "type": "uint256"
        },
        {
          "indexed": true,
          "internalType": "address",
          "name": "voter",
          "type": "address"
        }
      ],
      "name": "Voted",
      "type": "event"
    },
    {
      "inputs": [
        {
          "internalType": "uint256",
          "name": "",
          "type": "uint256"
        }
      ],
      "name": "allTrackIds",
      "outputs": [
        {
          "internalType": "uint256",
          "name": "",
          "type": "uint256"
        }
      ],
      "stateMutability": "view",
      "type": "function"
    },
    {
      "inputs": [
        {
          "internalType": "address",
          "name": "",
          "type": "address"
        }
      ],
      "name": "artistIdByWallet",
      "outputs": [
        {
          "internalType": "uint256",
          "name": "",
          "type": "uint256"
        }
      ],
      "stateMutability": "view",
      "type": "function"
    },
    {
      "inputs": [
        {
          "internalType": "uint256",
          "name": "",
          "type": "uint256"
        }
      ],
      "name": "artists",
      "outputs": [
        {
          "internalType": "uint256",
          "name": "id",
          "type": "uint256"
        },
        {
          "internalType": "string",
          "name": "name",
          "type": "string"
        },
        {
          "internalType": "address payable",
          "name": "artistWallet",
          "type": "address"
        },
        {
          "internalType": "bool",
          "name": "isRegistered",
          "type": "bool"
        }
      ],
      "stateMutability": "view",
      "type": "function"
    },
    {
      "inputs": [],
      "name": "axpToken",
      "outputs": [
        {
          "internalType": "contract IERC20",
          "name": "",
          "type": "address"
        }
      ],
      "stateMutability": "view",
      "type": "function"
    },
    {
      "inputs": [
        {
          "internalType": "uint256",
          "name": "_trackId",
          "type": "uint256"
        },
        {
          "internalType": "address[]",
          "name": "_recipients",
          "type": "address[]"
        }
      ],
      "name": "batchDistributeShareRewards",
      "outputs": [],
      "stateMutability": "nonpayable",
      "type": "function"
    },
    {
      "inputs": [
        {
          "internalType": "address[]",
          "name": "artistWallets",
          "type": "address[]"
        },
        {
          "internalType": "string[]",
          "name": "artistNames",
          "type": "string[]"
        },
        {
          "internalType": "string[]",
          "name": "trackTitles",
          "type": "string[]"
        },
        {
          "internalType": "string[]",
          "name": "genres",
          "type": "string[]"
        },
        {
          "internalType": "string[]",
          "name": "videoUrls",
          "type": "string[]"
        },
        {
          "internalType": "string[]",
          "name": "coverImageUrls",
          "type": "string[]"
        }
      ],
      "name": "batchRegisterAndUpload",
      "outputs": [],
      "stateMutability": "nonpayable",
      "type": "function"
    },
    {
      "inputs": [],
      "name": "getAllTrackIds",
      "outputs": [
        {
          "internalType": "uint256[]",
          "name": "",
          "type": "uint256[]"
        }
      ],
      "stateMutability": "view",
      "type": "function"
    },
    {
      "inputs": [
        {
          "internalType": "uint256",
          "name": "artistId",
          "type": "uint256"
        }
      ],
      "name": "getArtist",
      "outputs": [
        {
          "components": [
            {
              "internalType": "uint256",
              "name": "id",
              "type": "uint256"
            },
            {
              "internalType": "string",
              "name": "name",
              "type": "string"
            },
            {
              "internalType": "address payable",
              "name": "artistWallet",
              "type": "address"
            },
            {
              "internalType": "bool",
              "name": "isRegistered",
              "type": "bool"
            }
          ],
          "internalType": "struct AxepVoting.Artist",
          "name": "",
          "type": "tuple"
        }
      ],
      "stateMutability": "view",
      "type": "function"
    },
    {
      "inputs": [],
      "name": "getOfficialGenres",
      "outputs": [
        {
          "internalType": "string[]",
          "name": "",
          "type": "string[]"
        }
      ],
      "stateMutability": "view",
      "type": "function"
    },
    {
      "inputs": [
        {
          "internalType": "uint256",
          "name": "trackId",
          "type": "uint256"
        }
      ],
      "name": "getTrack",
      "outputs": [
        {
          "components": [
            {
              "internalType": "uint256",
              "name": "id",
              "type": "uint256"
            },
            {
              "internalType": "uint256",
              "name": "artistId",
              "type": "uint256"
            },
            {
              "internalType": "string",
              "name": "title",
              "type": "string"
            },
            {
              "internalType": "string",
              "name": "genre",
              "type": "string"
            },
            {
              "internalType": "string",
              "name": "videoUrl",
              "type": "string"
            },
            {
              "internalType": "string",
              "name": "coverImageUrl",
              "type": "string"
            },
            {
              "internalType": "uint256",
              "name": "uploadTimestamp",
              "type": "uint256"
            },
            {
              "internalType": "uint256",
              "name": "votes",
              "type": "uint256"
            }
          ],
          "internalType": "struct AxepVoting.Track",
          "name": "",
          "type": "tuple"
        }
      ],
      "stateMutability": "view",
      "type": "function"
    },
    {
      "inputs": [
        {
          "internalType": "string",
          "name": "genre",
          "type": "string"
        }
      ],
      "name": "getTrackIdsByGenre",
      "outputs": [
        {
          "internalType": "uint256[]",
          "name": "",
          "type": "uint256[]"
        }
      ],
      "stateMutability": "view",
      "type": "function"
    },
    {
      "inputs": [
        {
          "internalType": "uint256",
          "name": "",
          "type": "uint256"
        }
      ],
      "name": "officialGenres",
      "outputs": [
        {
          "internalType": "string",
          "name": "",
          "type": "string"
        }
      ],
      "stateMutability": "view",
      "type": "function"
    },
    {
      "inputs": [],
      "name": "owner",
      "outputs": [
        {
          "internalType": "address",
          "name": "",
          "type": "address"
        }
      ],
      "stateMutability": "view",
      "type": "function"
    },
    {
      "inputs": [
        {
          "internalType": "uint256",
          "name": "",
          "type": "uint256"
        },
        {
          "internalType": "address",
          "name": "",
          "type": "address"
        }
      ],
      "name": "proofOfShares",
      "outputs": [
        {
          "internalType": "string",
          "name": "",
          "type": "string"
        }
      ],
      "stateMutability": "view",
      "type": "function"
    },
    {
      "inputs": [
        {
          "internalType": "uint256",
          "name": "_trackId",
          "type": "uint256"
        },
        {
          "internalType": "string",
          "name": "_shareUrl",
          "type": "string"
        }
      ],
      "name": "recordShare",
      "outputs": [],
      "stateMutability": "nonpayable",
      "type": "function"
    },
    {
      "inputs": [
        {
          "internalType": "string",
          "name": "artistName",
          "type": "string"
        },
        {
          "internalType": "string",
          "name": "trackTitle",
          "type": "string"
        },
        {
          "internalType": "string",
          "name": "genre",
          "type": "string"
        },
        {
          "internalType": "string",
          "name": "videoUrl",
          "type": "string"
        },
        {
          "internalType": "string",
          "name": "coverImageUrl",
          "type": "string"
        }
      ],
      "name": "registerArtistAndUploadFirstTrack",
      "outputs": [],
      "stateMutability": "nonpayable",
      "type": "function"
    },
    {
      "inputs": [
        {
          "internalType": "uint256",
          "name": "",
          "type": "uint256"
        },
        {
          "internalType": "address",
          "name": "",
          "type": "address"
        }
      ],
      "name": "rewardedShares",
      "outputs": [
        {
          "internalType": "bool",
          "name": "",
          "type": "bool"
        }
      ],
      "stateMutability": "view",
      "type": "function"
    },
    {
      "inputs": [
        {
          "internalType": "uint256",
          "name": "_newAmount",
          "type": "uint256"
        }
      ],
      "name": "setShareRewardAmount",
      "outputs": [],
      "stateMutability": "nonpayable",
      "type": "function"
    },
    {
      "inputs": [],
      "name": "shareRewardAmount",
      "outputs": [
        {
          "internalType": "uint256",
          "name": "",
          "type": "uint256"
        }
      ],
      "stateMutability": "view",
      "type": "function"
    },
    {
      "inputs": [
        {
          "internalType": "uint256",
          "name": "",
          "type": "uint256"
        }
      ],
      "name": "tracks",
      "outputs": [
        {
          "internalType": "uint256",
          "name": "id",
          "type": "uint256"
        },
        {
          "internalType": "uint256",
          "name": "artistId",
          "type": "uint256"
        },
        {
          "internalType": "string",
          "name": "title",
          "type": "string"
        },
        {
          "internalType": "string",
          "name": "genre",
          "type": "string"
        },
        {
          "internalType": "string",
          "name": "videoUrl",
          "type": "string"
        },
        {
          "internalType": "string",
          "name": "coverImageUrl",
          "type": "string"
        },
        {
          "internalType": "uint256",
          "name": "uploadTimestamp",
          "type": "uint256"
        },
        {
          "internalType": "uint256",
          "name": "votes",
          "type": "uint256"
        }
      ],
      "stateMutability": "view",
      "type": "function"
    },
    {
      "inputs": [
        {
          "internalType": "uint256",
          "name": "trackId",
          "type": "uint256"
        }
      ],
      "name": "voteForTrack",
      "outputs": [],
      "stateMutability": "nonpayable",
      "type": "function"
    },
    {
      "inputs": [],
      "name": "withdraw",
      "outputs": [],
      "stateMutability": "nonpayable",
      "type": "function"
    }
  ],
  "bytecode": "0x60803461024a57601f61270138819003918201601f19168301916001600160401b038311848410176102075780849260209460405283398101031261024a57516001600160a01b0381169081900361024a57600080546001600160a01b0319908116331790915560018054909116919091179055681b1ae4d6e2ef500000600a5560025468010000000000000000811015610207578060016100a4920160025561024f565b6101f1576100bb6100b58254610280565b826102ba565b6006620506f760ec1b01905560025468010000000000000000811015610207578060016100eb920160025561024f565b6101f1576100fc6100b58254610280565b60086314dbdd5b60e21b019055600254680100000000000000008110156102075780600161012d920160025561024f565b6101f15761013e6100b58254610280565b600863526f636b60e01b019055600254680100000000000000008110156102075780600161016f920160025561024f565b6101f15761017d8154610280565b601f811161021d575b50600e66436f756e74727960c81b01905560025468010000000000000000811015610207578060016101bb920160025561024f565b6101f1576101cc6100b58254610280565b60066205241560ec1b0190556001600581905560075560405161241090816102f18239f35b634e487b7160e01b600052600060045260246000fd5b634e487b7160e01b600052604160045260246000fd5b81600052601f6020600020910160051c8101905b81811061023e5750610186565b60008155600101610231565b600080fd5b60025481101561026a57600260005260206000200190600090565b634e487b7160e01b600052603260045260246000fd5b90600182811c921680156102b0575b602083101461029a57565b634e487b7160e01b600052602260045260246000fd5b91607f169161028f565b601f82116102c6575050565b600052601f6020600020910160051c8101905b8181106102e4575050565b600081556001016102d956fe610120604052600436101561001357600080fd5b60003560e01c806302f7120514611d53578063280a37cb14611d355780632eb6678a1461151a5780633ccfd60b1461148f57806352da0c9d1461145157806355c13ec314611428578063629058ca146112c757806365e71ae8146112755780636799194514611214578063811dd0e21461114a5780638da5cb5b146111215780638fb433af14610f465780639be9fcbb14610ef95780639c75623714610e05578063a2e3458614610d3b578063c3a3c0a214610cac578063cd7e10c114610c39578063db94da1814610bc6578063df6f321e14610b3f578063e7c2ab96146108a1578063ee5cec86146101425763ff9eed7e1461010f57600080fd5b3461013d57602036600319011261013d5761013560018060a01b03600054163314612008565b600435600a55005b600080fd5b3461013d5760a036600319011261013d576004356001600160401b03811161013d57610172903690600401611fa1565b6024356001600160401b03811161013d57610191903690600401611fa1565b6044929192356001600160401b03811161013d576101b3903690600401611fa1565b6064929192356001600160401b03811161013d576101d5903690600401611fa1565b9190966084356001600160401b03811161013d576101f7903690600401611fa1565b6080529533600052600460205260406000205461085c5761021883876122b2565b156108265760055460a05261022e60a0516121bf565b60055560405161023d81611deb565b60a051815261024d3683856121ce565b602082019081523360408301526001606083015260a051600052600360205260406000209082518255518051906001600160401b03821161065e576102a2826102996001860154611db1565b6001860161214c565b602090601f83116001146107b45791806102d79260029594600092610674575b50508160011b916000199060031b1c19161790565b60018201555b019060018060a01b03604082015116825491606060ff60a01b910151151560a01b16916affffffffffffffffffffff60a81b161717905533600052600460205260a0516040600020557f8443301405f337e5d871773f81107fb07d77d5f08fd2a5c7157a9c89951268ab6040516020815280610362339560a05195602084019161219e565b0390a360075494610372866121bf565b6007556040519061038282611e06565b868252602082019060a051825261039a36878b6121ce565b90604084019182526103ad36868a6121ce565b60608501908152906103d66103c336898f6121ce565b91608087019283523690608051906121ce565b9160a0860192835260c086019342855260e0870195600087528c60005260066020526040600020975188555160018801556002870190518051906001600160401b03821161065e576104328261042c8554611db1565b8561214c565b602090601f831160011461074d576104629291600091836105cf5750508160011b916000199060031b1c19161790565b90555b51805160038701916001600160401b03821161065e576104898261042c8554611db1565b602090601f83116001146106e6576104b99291600091836105cf5750508160011b916000199060031b1c19161790565b90555b51805160048601916001600160401b03821161065e576104e08261042c8554611db1565b602090601f831160011461067f576105109291600091836106745750508160011b916000199060031b1c19161790565b90555b51805160058501916001600160401b03821161065e576105378261042c8554611db1565b602090601f83116001146105da5792610586836000805160206123bb8339815191529d9e9f989693946105ca9b9a98956007976000926105cf5750508160011b916000199060031b1c19161790565b90555b516006840155519101556105b188604051838982376020818581016008815203019020612252565b6105ba88612214565b60405195869560a0519a87612275565b0390a3005b0151905038806102c2565b90601f1983169184600052816000209260005b8181106106465750936000805160206123bb8339815191529d9e9f98969360079693600193836105ca9e9d9b981061062d575b505050811b019055610589565b015160001960f88460031b161c19169055388080610620565b929360206001819287860151815501950193016105ed565b634e487b7160e01b600052604160045260246000fd5b015190508f806102c2565b90601f1983169184600052816000209260005b8181106106ce57509084600195949392106106b5575b505050811b019055610513565b015160001960f88460031b161c191690558e80806106a8565b92936020600181928786015181550195019301610692565b90601f1983169184600052816000209260005b818110610735575090846001959493921061071c575b505050811b0190556104bc565b015160001960f88460031b161c191690558f808061070f565b929360206001819287860151815501950193016106f9565b90601f1983169184600052816000209260005b81811061079c5750908460019594939210610783575b505050811b019055610465565b015160001960f88460031b161c19169055388080610776565b92936020600181928786015181550195019301610760565b9060018401600052806000209160005b601f198516811061080e575091839160019360029695601f198116106107f5575b505050811b0160018201556102dd565b015160001960f88460031b161c191690558e80806107e5565b919260206001819286850151815501940192016107c4565b60405162461bcd60e51b815260206004820152600e60248201526d24b73b30b634b21033b2b739329760911b6044820152606490fd5b60405162461bcd60e51b815260206004820152601a60248201527f41727469737420616c726561647920726567697374657265642e0000000000006044820152606490fd5b3461013d57604036600319011261013d576004356024356001600160401b03811161013d576108d4903690600401611f28565b6108ec60018060a09594951b03600054163314612008565b600a546001546040516370a0823160e01b815230600482015291929190602090829060249082906001600160a01b03165afa908115610a6957600091610b0d575b5081830290838204831484151715610af75710610aa25760005b8181106109775733847ff77e05dfacf7f446845eb8e90bd8a9feb80574445b3de6bfd146ad7920e33829600080a3005b61098a6109858284886120a3565b6120b3565b84600052600b6020526109b460408060002060009060018060a01b03851682526020522054611db1565b151580610a75575b6109ca575b50600101610947565b6000858152600c602090815260408083206001600160a01b03948516808552908352818420805460ff1916600190811790915554915163a9059cbb60e01b81526004810191909152602481018890529391928492604492849291165af18015610a6957156109c1576020813d8211610a61575b81610a4a60209383611e22565b8101031261013d57518015150361013d57856109c1565b3d9150610a3d565b6040513d6000823e3d90fd5b506000858152600c602090815260408083206001600160a01b038516845290915290205460ff16156109bc565b60405162461bcd60e51b815260206004820152602760248201527f496e73756666696369656e7420746f6b656e2062616c616e636520696e20636f604482015266373a3930b1ba1760c91b6064820152608490fd5b634e487b7160e01b600052601160045260246000fd5b90506020813d602011610b37575b81610b2860209383611e22565b8101031261013d57518561092d565b3d9150610b1b565b3461013d57600036600319011261013d5760405180602060095491828152019060096000527f6e1540171b6c0c960b71a7020d9f60077f6af931a8bbf590da0223dacf75c7af9060005b818110610bb057610bac85610ba081870382611e22565b60405191829182611fce565b0390f35b8254845260209093019260019283019201610b89565b3461013d57602036600319011261013d57600435806000526006602052610bf36040600020541515612108565b8060005260066020526007604060002001610c0e81546121bf565b905533907f030b0f8dcd86a031eddb071f91882edeac8173663ba775713b677b42b51be44b600080a3005b3461013d57602036600319011261013d576004356000526003602052604060002080546002610c6a60018401611e43565b92015460ff610c8b6040519485948552608060208601526080850190611ee7565b6001600160a01b038316604085015260a09290921c16151560608301520390f35b3461013d57602036600319011261013d576004356001600160401b03811161013d57610cde6020913690600401611fa1565b91908260405193849283378101600881520301902060405190816020825491828152019160005260206000209060005b818110610d2557610bac85610ba081870382611e22565b8254845260209093019260019283019201610d0e565b3461013d57602036600319011261013d57600435600052600660205260406000208054600182015491610d7060028201611e43565b610df6610d7f60038401611e43565b610de8610d8e60048601611e43565b610dda610d9d60058801611e43565b93610dcc600760068a0154990154976040519b8c9b8c5260208c015261010060408c01526101008b0190611ee7565b9089820360608b0152611ee7565b908782036080890152611ee7565b9085820360a0870152611ee7565b9160c084015260e08301520390f35b3461013d57600036600319011261013d576002546001600160401b03811161065e5760405190610e3b60208260051b0183611e22565b80825260208201908160026000527f405787fa12a823e0f2b7631cc41b3ba8828b3321ca811111fa75cd3aa3bb5ace6000915b838310610edc57848660405191829160208301906020845251809152604083019060408160051b85010192916000905b828210610ead57505050500390f35b91936001919395506020610ecc8192603f198a82030186528851611ee7565b9601920192018594939192610e9e565b600160208192610eeb85611e43565b815201920192019190610e6e565b3461013d57604036600319011261013d57610f12611d9b565b600435600052600c60205260406000209060018060a01b0316600052602052602060ff604060002054166040519015158152f35b3461013d57604036600319011261013d576004356024356001600160401b03811161013d57610f79903690600401611fa1565b9190816000526006602052610f946040600020541515612108565b82156110dc576000828152600b6020908152604080832033845290915290206001600160401b03841161065e57610fd584610fcf8354611db1565b8361214c565b836000601f821160011461104f579161102b827fa75737a36d3872da22ff33e9ff498f19f9ccd60bfdbc6b85ccc2fb8e4eb1e24495936105ca95600091611044575b508160011b916000199060031b1c19161790565b90555b604051918291602083523396602084019161219e565b905084013589611017565b82815260208120915085601f198116825b8181106110c15750917fa75737a36d3872da22ff33e9ff498f19f9ccd60bfdbc6b85ccc2fb8e4eb1e2449593916105ca9593106110a7575b5050600186811b01905561102e565b830135600019600389901b60f8161c191690558680611098565b86840135855560019094019360209384019389935001611060565b60405162461bcd60e51b815260206004820152601a60248201527f53686172652055524c2063616e6e6f7420626520656d7074792e0000000000006044820152606490fd5b3461013d57600036600319011261013d576000546040516001600160a01b039091168152602090f35b3461013d57602036600319011261013d576000606060405161116b81611deb565b82815281602082015282604082015201526004356000526003602052604060002060405161119881611deb565b8154815260026111aa60018401611e43565b92602083019384520154604082019060018060a01b038116825260ff606084019160a01c16151581526111f860405194859460208652516020860152516080604086015260a0850190611ee7565b91516001600160a01b0316606084015251151560808301520390f35b3461013d57602036600319011261013d5760043560025481101561013d5761123b90611f58565b61125f5761124b610bac91611e43565b604051918291602083526020830190611ee7565b634e487b7160e01b600052600060045260246000fd5b3461013d57602036600319011261013d5760043560095481101561013d576000906009548110156112b3576020826009829452200154604051908152f35b634e487b7160e01b82526032600452602482fd5b3461013d57602036600319011261013d57600060e06040516112e881611e06565b8281528260208201526060604082015260608082015260606080820152606060a08201528260c082015201526004356000526006602052604060002060405161133081611e06565b815481526001820154916020820192835261134d60028201611e43565b6040830190815261141661136360038401611e43565b6060850190815261140361137960048601611e43565b608087019081526113f061138f60058801611e43565b9360a089019485526113dd600760068a01549960c08c019a8b5201549760e08b019889526040519b8c9b60208d525160208d01525160408c01525161010060608c01526101208b0190611ee7565b9051898203601f190160808b0152611ee7565b9051878203601f190160a0890152611ee7565b9051858203601f190160c0870152611ee7565b915160e0840152516101008301520390f35b3461013d57600036600319011261013d576001546040516001600160a01b039091168152602090f35b3461013d57602036600319011261013d576004356001600160a01b0381169081900361013d5760005260046020526020604060002054604051908152f35b3461013d57600036600319011261013d576000546001600160a01b0316338190036114d55760008080809347908282156114cc575bf115610a6957005b506108fc6114c4565b60405162461bcd60e51b815260206004820152601860248201527f4f6e6c79206f776e65722063616e2077697468647261772e00000000000000006044820152606490fd5b3461013d5760c036600319011261013d576004356001600160401b03811161013d5761154a903690600401611f28565b906024356001600160401b03811161013d5761156a903690600401611f28565b6044356001600160401b03811161013d57611589903690600401611f28565b9490926064356001600160401b03811161013d576115ab903690600401611f28565b946084356001600160401b03811161013d576115cb903690600401611f28565b98909460a4356001600160401b03811161013d576115ed903690600401611f28565b95909461160560018060a01b03600054163314612008565b61161089841461205f565b61161b84841461205f565b6116268a841461205f565b6116318c841461205f565b61163c87841461205f565b60005b83811061164857005b8a8a8e8b8f8b8b8b8f93898b818f8f826116668180989481956120a3565b61166f906120b3565b9d611679926120c7565b966116859291986120c7565b60c0529b611692926120c7565b9861169e9291986120c7565b956116aa9291956120c7565b9060e05296600160a01b60019003811660005260046020526040600020541580611d25575b6116e5575b50505050505050505060010161163f565b600554610100526116f8610100516121bf565b60055560405161170781611deb565b6101005181526117183684866121ce565b6020820190815260018060a01b03831660408301526001606083015261010051600052600360205260406000209082518255518051906001600160401b03821161065e5761176d826102996001860154611db1565b602090601f8311600114611c8d57926117c78361184196946002947f8443301405f337e5d871773f81107fb07d77d5f08fd2a5c7157a9c89951268ab99976000926105cf5750508160011b916000199060031b1c19161790565b60018201555b019060018060a01b03604082015116825491606060ff60a01b910151151560a01b16916affffffffffffffffffffff60a81b161717905560018060a01b0381166000526004602052610100516040600020556040519182916020835260018060a01b0316956101005195602084019161219e565b0390a360075494611851866121bf565b60075560405161186081611e06565b868152602081019161010051835261187b3660c0518b6121ce565b906040830191825261188e3689896121ce565b606084019081526118b56118a33689896121ce565b9260808601938452369060e0516121ce565b9260a085019384524260c0860152600060e08601528a6000526006602052604060002095855187555160018701556002860190518051906001600160401b03821161065e576119088261042c8554611db1565b602090601f8311600114611c26576119389291600091836105cf5750508160011b916000199060031b1c19161790565b90555b51805160038601916001600160401b03821161065e5761195f8261042c8554611db1565b602090601f8311600114611bbf5761198f9291600091836105cf5750508160011b916000199060031b1c19161790565b90555b51805160048501916001600160401b03821161065e576119b68261042c8554611db1565b602090601f8311600114611b58576119e69291600091836105cf5750508160011b916000199060031b1c19161790565b90555b518051906001600160401b03821161065e57611a1582611a0c6005870154611db1565b6005870161214c565b602090601f8311600114611ac95760e060019c9b9a999794611a67856000805160206123bb8339815191529b9996611ab899966007966000926105cf5750508160011b916000199060031b1c19161790565b60058501555b60c081015160068501550151910155611a9a87604051878782376020818981016008815203019020612252565b611aa387612214565b604051948594610100519960c0519087612275565b0390a3908e808080808080806116d4565b9060058501600052806000209160005b601f1985168110611b40575060019c9b9a9997948d85611ab8989560079560e0956000805160206123bb8339815191529e9c99601f19811610611b27575b505050811b016005850155611a6d565b015160001960f88460031b161c19169055388080611b17565b91926020600181928685015181550194019201611ad9565b90601f1983169184600052816000209260005b818110611ba75750908460019594939210611b8e575b505050811b0190556119e9565b015160001960f88460031b161c19169055388080611b81565b92936020600181928786015181550195019301611b6b565b90601f1983169184600052816000209260005b818110611c0e5750908460019594939210611bf5575b505050811b019055611992565b015160001960f88460031b161c19169055388080611be8565b92936020600181928786015181550195019301611bd2565b90601f1983169184600052816000209260005b818110611c755750908460019594939210611c5c575b505050811b01905561193b565b015160001960f88460031b161c19169055388080611c4f565b92936020600181928786015181550195019301611c39565b9060018401600052806000209160005b601f1985168110611d0d5750836002937f8443301405f337e5d871773f81107fb07d77d5f08fd2a5c7157a9c89951268ab9896936001936118419997601f19811610611cf4575b505050811b0160018201556117cd565b015160001960f88460031b161c19169055388080611ce4565b91926020600181928685015181550194019201611c9d565b50611d3087876122b2565b6116cf565b3461013d57600036600319011261013d576020600a54604051908152f35b3461013d57604036600319011261013d57611d6c611d9b565b600435600052600b60205260406000209060018060a01b0316600052602052610bac61124b6040600020611e43565b602435906001600160a01b038216820361013d57565b90600182811c92168015611de1575b6020831014611dcb57565b634e487b7160e01b600052602260045260246000fd5b91607f1691611dc0565b608081019081106001600160401b0382111761065e57604052565b61010081019081106001600160401b0382111761065e57604052565b90601f801991011681019081106001600160401b0382111761065e57604052565b9060405191826000825492611e5784611db1565b8084529360018116908115611ec55750600114611e7e575b50611e7c92500383611e22565b565b90506000929192526020600020906000915b818310611ea9575050906020611e7c9282010138611e6f565b6020919350806001915483858901015201910190918492611e90565b905060209250611e7c94915060ff191682840152151560051b82010138611e6f565b919082519283825260005b848110611f13575050826000602080949584010152601f8019910116010190565b80602080928401015182828601015201611ef2565b9181601f8401121561013d578235916001600160401b03831161013d576020808501948460051b01011161013d57565b600254811015611f7357600260005260206000200190600090565b634e487b7160e01b600052603260045260246000fd5b8054821015611f735760005260206000200190600090565b9181601f8401121561013d578235916001600160401b03831161013d576020838186019501011161013d57565b602060408183019282815284518094520192019060005b818110611ff25750505090565b8251845260209384019390920191600101611fe5565b1561200f57565b60405162461bcd60e51b815260206004820152602260248201527f4f6e6c79206f776e65722063616e2063616c6c20746869732066756e6374696f604482015261371760f11b6064820152608490fd5b1561206657565b60405162461bcd60e51b8152602060048201526015602482015274082e4e4c2f240d8cadccee8d040dad2e6dac2e8c6d605b1b6044820152606490fd5b9190811015611f735760051b0190565b356001600160a01b038116810361013d5790565b9190811015611f735760051b81013590601e198136030182121561013d5701908135916001600160401b03831161013d57602001823603811361013d579190565b1561210f57565b60405162461bcd60e51b81526020600482015260156024820152742a3930b1b5903237b2b9903737ba1032bc34b9ba1760591b6044820152606490fd5b601f821161215957505050565b6000526020600020906020601f840160051c83019310612194575b601f0160051c01905b818110612188575050565b6000815560010161217d565b9091508190612174565b908060209392818452848401376000828201840152601f01601f1916010190565b6000198114610af75760010190565b9291926001600160401b03821161065e57604051916121f7601f8201601f191660200184611e22565b82948184528183011161013d578281602093846000960137010152565b60095490600160401b82101561065e57612239826001611e7c94016009556009611f89565b90919082549060031b91821b91600019901b1916179055565b90815491600160401b83101561065e5782612239916001611e7c95018155611f89565b949290936122936122af97956122a19460608952606089019161219e565b91868303602088015261219e565b92604081850391015261219e565b90565b600254919060005b8381106122ca5750505050600090565b6122d381611f58565b5060405160208101918160008254926122eb84611db1565b936001811690811561239c575060011461235a575b50612314925003601f198101835282611e22565b5190206040516020810190858583376123416020828881016000838201520301601f198101835282611e22565b51902014612351576001016122ba565b50505050600190565b9150506000528160206000206000905b83821061238257505060206123149282010138612300565b60209192508060019154838588010152019101839161236a565b60ff191687525061231493801515028301602001915038905061230056fe39628c05242773d13ef5deaadb11828a34886bb12e6fef9357c4ea00d1587381a26469706673582212205b88cc46092f0d5a7ad5969e434622373e123e8a4ed40e1a2322890d20ed109f64736f6c634300081e0033",
  "linkReferences": {},
  "deployedLinkReferences": {}
}